{
    "contractName": "TomiPlatform",
    "abi": [
        {
            "anonymous": false,
            "inputs": [
                {
                    "indexed": true,
                    "internalType": "address",
                    "name": "player",
                    "type": "address"
                },
                {
                    "indexed": true,
                    "internalType": "address",
                    "name": "tokenA",
                    "type": "address"
                },
                {
                    "indexed": true,
                    "internalType": "address",
                    "name": "tokenB",
                    "type": "address"
                },
                {
                    "indexed": false,
                    "internalType": "uint256",
                    "name": "amountA",
                    "type": "uint256"
                },
                {
                    "indexed": false,
                    "internalType": "uint256",
                    "name": "amountB",
                    "type": "uint256"
                }
            ],
            "name": "AddLiquidity",
            "type": "event"
        },
        {
            "anonymous": false,
            "inputs": [
                {
                    "indexed": true,
                    "internalType": "address",
                    "name": "_oldOwner",
                    "type": "address"
                },
                {
                    "indexed": true,
                    "internalType": "address",
                    "name": "_newOwner",
                    "type": "address"
                }
            ],
            "name": "OwnerChanged",
            "type": "event"
        },
        {
            "anonymous": false,
            "inputs": [
                {
                    "indexed": true,
                    "internalType": "address",
                    "name": "player",
                    "type": "address"
                },
                {
                    "indexed": true,
                    "internalType": "address",
                    "name": "tokenA",
                    "type": "address"
                },
                {
                    "indexed": true,
                    "internalType": "address",
                    "name": "tokenB",
                    "type": "address"
                },
                {
                    "indexed": false,
                    "internalType": "uint256",
                    "name": "amountA",
                    "type": "uint256"
                },
                {
                    "indexed": false,
                    "internalType": "uint256",
                    "name": "amountB",
                    "type": "uint256"
                }
            ],
            "name": "RemoveLiquidity",
            "type": "event"
        },
        {
            "anonymous": false,
            "inputs": [
                {
                    "indexed": true,
                    "internalType": "address",
                    "name": "receiver",
                    "type": "address"
                },
                {
                    "indexed": true,
                    "internalType": "address",
                    "name": "fromToken",
                    "type": "address"
                },
                {
                    "indexed": true,
                    "internalType": "address",
                    "name": "toToken",
                    "type": "address"
                },
                {
                    "indexed": false,
                    "internalType": "uint256",
                    "name": "inAmount",
                    "type": "uint256"
                },
                {
                    "indexed": false,
                    "internalType": "uint256",
                    "name": "outAmount",
                    "type": "uint256"
                }
            ],
            "name": "SwapToken",
            "type": "event"
        },
        {
            "inputs": [],
            "name": "CONFIG",
            "outputs": [
                {
                    "internalType": "address",
                    "name": "",
                    "type": "address"
                }
            ],
            "stateMutability": "view",
            "type": "function"
        },
        {
            "inputs": [],
            "name": "FACTORY",
            "outputs": [
                {
                    "internalType": "address",
                    "name": "",
                    "type": "address"
                }
            ],
            "stateMutability": "view",
            "type": "function"
        },
        {
            "inputs": [],
            "name": "GOVERNANCE",
            "outputs": [
                {
                    "internalType": "address",
                    "name": "",
                    "type": "address"
                }
            ],
            "stateMutability": "view",
            "type": "function"
        },
        {
            "inputs": [],
            "name": "PERCENT_DENOMINATOR",
            "outputs": [
                {
                    "internalType": "uint256",
                    "name": "",
                    "type": "uint256"
                }
            ],
            "stateMutability": "view",
            "type": "function"
        },
        {
            "inputs": [],
            "name": "POOL",
            "outputs": [
                {
                    "internalType": "address",
                    "name": "",
                    "type": "address"
                }
            ],
            "stateMutability": "view",
            "type": "function"
        },
        {
            "inputs": [],
            "name": "TOMI",
            "outputs": [
                {
                    "internalType": "address",
                    "name": "",
                    "type": "address"
                }
            ],
            "stateMutability": "view",
            "type": "function"
        },
        {
            "inputs": [],
            "name": "TRANSFER_LISTENER",
            "outputs": [
                {
                    "internalType": "address",
                    "name": "",
                    "type": "address"
                }
            ],
            "stateMutability": "view",
            "type": "function"
        },
        {
            "inputs": [],
            "name": "WETH",
            "outputs": [
                {
                    "internalType": "address",
                    "name": "",
                    "type": "address"
                }
            ],
            "stateMutability": "view",
            "type": "function"
        },
        {
            "inputs": [
                {
                    "internalType": "address",
                    "name": "tokenA",
                    "type": "address"
                },
                {
                    "internalType": "address",
                    "name": "tokenB",
                    "type": "address"
                },
                {
                    "internalType": "uint256",
                    "name": "amountA",
                    "type": "uint256"
                },
                {
                    "internalType": "uint256",
                    "name": "amountB",
                    "type": "uint256"
                },
                {
                    "internalType": "uint256",
                    "name": "amountAMin",
                    "type": "uint256"
                },
                {
                    "internalType": "uint256",
                    "name": "amountBMin",
                    "type": "uint256"
                },
                {
                    "internalType": "uint256",
                    "name": "deadline",
                    "type": "uint256"
                }
            ],
            "name": "addLiquidity",
            "outputs": [
                {
                    "internalType": "uint256",
                    "name": "_amountA",
                    "type": "uint256"
                },
                {
                    "internalType": "uint256",
                    "name": "_amountB",
                    "type": "uint256"
                },
                {
                    "internalType": "uint256",
                    "name": "_liquidity",
                    "type": "uint256"
                }
            ],
            "stateMutability": "nonpayable",
            "type": "function"
        },
        {
            "inputs": [
                {
                    "internalType": "address",
                    "name": "token",
                    "type": "address"
                },
                {
                    "internalType": "uint256",
                    "name": "amountTokenDesired",
                    "type": "uint256"
                },
                {
                    "internalType": "uint256",
                    "name": "amountTokenMin",
                    "type": "uint256"
                },
                {
                    "internalType": "uint256",
                    "name": "amountETHMin",
                    "type": "uint256"
                },
                {
                    "internalType": "uint256",
                    "name": "deadline",
                    "type": "uint256"
                }
            ],
            "name": "addLiquidityETH",
            "outputs": [
                {
                    "internalType": "uint256",
                    "name": "amountToken",
                    "type": "uint256"
                },
                {
                    "internalType": "uint256",
                    "name": "amountETH",
                    "type": "uint256"
                },
                {
                    "internalType": "uint256",
                    "name": "liquidity",
                    "type": "uint256"
                }
            ],
            "stateMutability": "payable",
            "type": "function"
        },
        {
            "inputs": [
                {
                    "internalType": "address",
                    "name": "_newOwner",
                    "type": "address"
                }
            ],
            "name": "changeOwner",
            "outputs": [],
            "stateMutability": "nonpayable",
            "type": "function"
        },
        {
            "inputs": [
                {
                    "internalType": "address",
                    "name": "_path",
                    "type": "address"
                },
                {
                    "internalType": "address[]",
                    "name": "_paths",
                    "type": "address[]"
                }
            ],
            "name": "checkPath",
            "outputs": [
                {
                    "internalType": "bool",
                    "name": "",
                    "type": "bool"
                }
            ],
            "stateMutability": "pure",
            "type": "function"
        },
        {
            "inputs": [
                {
                    "internalType": "address",
                    "name": "tokenA",
                    "type": "address"
                },
                {
                    "internalType": "address",
                    "name": "tokenB",
                    "type": "address"
                }
            ],
            "name": "existPair",
            "outputs": [
                {
                    "internalType": "bool",
                    "name": "",
                    "type": "bool"
                }
            ],
            "stateMutability": "view",
            "type": "function"
        },
        {
            "inputs": [
                {
                    "internalType": "uint256",
                    "name": "amountOut",
                    "type": "uint256"
                },
                {
                    "internalType": "uint256",
                    "name": "reserveIn",
                    "type": "uint256"
                },
                {
                    "internalType": "uint256",
                    "name": "reserveOut",
                    "type": "uint256"
                }
            ],
            "name": "getAmountIn",
            "outputs": [
                {
                    "internalType": "uint256",
                    "name": "amountIn",
                    "type": "uint256"
                }
            ],
            "stateMutability": "view",
            "type": "function"
        },
        {
            "inputs": [
                {
                    "internalType": "uint256",
                    "name": "amountIn",
                    "type": "uint256"
                },
                {
                    "internalType": "uint256",
                    "name": "reserveIn",
                    "type": "uint256"
                },
                {
                    "internalType": "uint256",
                    "name": "reserveOut",
                    "type": "uint256"
                }
            ],
            "name": "getAmountOut",
            "outputs": [
                {
                    "internalType": "uint256",
                    "name": "amountOut",
                    "type": "uint256"
                }
            ],
            "stateMutability": "view",
            "type": "function"
        },
        {
            "inputs": [
                {
                    "internalType": "uint256",
                    "name": "amountOut",
                    "type": "uint256"
                },
                {
                    "internalType": "address[]",
                    "name": "path",
                    "type": "address[]"
                }
            ],
            "name": "getAmountsIn",
            "outputs": [
                {
                    "internalType": "uint256[]",
                    "name": "amounts",
                    "type": "uint256[]"
                }
            ],
            "stateMutability": "view",
            "type": "function"
        },
        {
            "inputs": [
                {
                    "internalType": "uint256",
                    "name": "amountIn",
                    "type": "uint256"
                },
                {
                    "internalType": "address[]",
                    "name": "path",
                    "type": "address[]"
                }
            ],
            "name": "getAmountsOut",
            "outputs": [
                {
                    "internalType": "uint256[]",
                    "name": "amounts",
                    "type": "uint256[]"
                }
            ],
            "stateMutability": "view",
            "type": "function"
        },
        {
            "inputs": [
                {
                    "internalType": "address",
                    "name": "tokenA",
                    "type": "address"
                },
                {
                    "internalType": "address",
                    "name": "tokenB",
                    "type": "address"
                }
            ],
            "name": "getReserves",
            "outputs": [
                {
                    "internalType": "uint256",
                    "name": "",
                    "type": "uint256"
                },
                {
                    "internalType": "uint256",
                    "name": "",
                    "type": "uint256"
                }
            ],
            "stateMutability": "view",
            "type": "function"
        },
        {
            "inputs": [
                {
                    "internalType": "address",
                    "name": "_TOMI",
                    "type": "address"
                },
                {
                    "internalType": "address",
                    "name": "_CONFIG",
                    "type": "address"
                },
                {
                    "internalType": "address",
                    "name": "_FACTORY",
                    "type": "address"
                },
                {
                    "internalType": "address",
                    "name": "_WETH",
                    "type": "address"
                },
                {
                    "internalType": "address",
                    "name": "_GOVERNANCE",
                    "type": "address"
                },
                {
                    "internalType": "address",
                    "name": "_TRANSFER_LISTENER",
                    "type": "address"
                },
                {
                    "internalType": "address",
                    "name": "_POOL",
                    "type": "address"
                }
            ],
            "name": "initialize",
            "outputs": [],
            "stateMutability": "nonpayable",
            "type": "function"
        },
        {
            "inputs": [],
            "name": "isPause",
            "outputs": [
                {
                    "internalType": "bool",
                    "name": "",
                    "type": "bool"
                }
            ],
            "stateMutability": "view",
            "type": "function"
        },
        {
            "inputs": [
                {
                    "internalType": "address",
                    "name": "pair",
                    "type": "address"
                },
                {
                    "internalType": "address",
                    "name": "tokenA",
                    "type": "address"
                },
                {
                    "internalType": "address",
                    "name": "tokenB",
                    "type": "address"
                },
                {
                    "internalType": "address[]",
                    "name": "users",
                    "type": "address[]"
                }
            ],
            "name": "migrateLiquidity",
            "outputs": [],
            "stateMutability": "nonpayable",
            "type": "function"
        },
        {
            "inputs": [],
            "name": "owner",
            "outputs": [
                {
                    "internalType": "address",
                    "name": "",
                    "type": "address"
                }
            ],
            "stateMutability": "view",
            "type": "function"
        },
        {
            "inputs": [
                {
                    "internalType": "address",
                    "name": "tokenA",
                    "type": "address"
                },
                {
                    "internalType": "address",
                    "name": "tokenB",
                    "type": "address"
                }
            ],
            "name": "pairFor",
            "outputs": [
                {
                    "internalType": "address",
                    "name": "",
                    "type": "address"
                }
            ],
            "stateMutability": "view",
            "type": "function"
        },
        {
            "inputs": [],
            "name": "pause",
            "outputs": [],
            "stateMutability": "nonpayable",
            "type": "function"
        },
        {
            "inputs": [
                {
                    "internalType": "address",
                    "name": "tokenA",
                    "type": "address"
                },
                {
                    "internalType": "address",
                    "name": "tokenB",
                    "type": "address"
                },
                {
                    "internalType": "uint256",
                    "name": "liquidity",
                    "type": "uint256"
                },
                {
                    "internalType": "uint256",
                    "name": "amountAMin",
                    "type": "uint256"
                },
                {
                    "internalType": "uint256",
                    "name": "amountBMin",
                    "type": "uint256"
                },
                {
                    "internalType": "address",
                    "name": "to",
                    "type": "address"
                },
                {
                    "internalType": "uint256",
                    "name": "deadline",
                    "type": "uint256"
                }
            ],
            "name": "removeLiquidity",
            "outputs": [
                {
                    "internalType": "uint256",
                    "name": "amountA",
                    "type": "uint256"
                },
                {
                    "internalType": "uint256",
                    "name": "amountB",
                    "type": "uint256"
                }
            ],
            "stateMutability": "nonpayable",
            "type": "function"
        },
        {
            "inputs": [
                {
                    "internalType": "address",
                    "name": "token",
                    "type": "address"
                },
                {
                    "internalType": "uint256",
                    "name": "liquidity",
                    "type": "uint256"
                },
                {
                    "internalType": "uint256",
                    "name": "amountTokenMin",
                    "type": "uint256"
                },
                {
                    "internalType": "uint256",
                    "name": "amountETHMin",
                    "type": "uint256"
                },
                {
                    "internalType": "address",
                    "name": "to",
                    "type": "address"
                },
                {
                    "internalType": "uint256",
                    "name": "deadline",
                    "type": "uint256"
                }
            ],
            "name": "removeLiquidityETH",
            "outputs": [
                {
                    "internalType": "uint256",
                    "name": "amountToken",
                    "type": "uint256"
                },
                {
                    "internalType": "uint256",
                    "name": "amountETH",
                    "type": "uint256"
                }
            ],
            "stateMutability": "nonpayable",
            "type": "function"
        },
        {
            "inputs": [],
            "name": "resume",
            "outputs": [],
            "stateMutability": "nonpayable",
            "type": "function"
        },
        {
            "inputs": [
                {
                    "internalType": "uint256",
                    "name": "amountOut",
                    "type": "uint256"
                },
                {
                    "internalType": "address[]",
                    "name": "path",
                    "type": "address[]"
                },
                {
                    "internalType": "address",
                    "name": "to",
                    "type": "address"
                },
                {
                    "internalType": "uint256",
                    "name": "deadline",
                    "type": "uint256"
                }
            ],
            "name": "swapETHForExactTokens",
            "outputs": [
                {
                    "internalType": "uint256[]",
                    "name": "amounts",
                    "type": "uint256[]"
                }
            ],
            "stateMutability": "payable",
            "type": "function"
        },
        {
            "inputs": [
                {
                    "internalType": "uint256",
                    "name": "amountOutMin",
                    "type": "uint256"
                },
                {
                    "internalType": "address[]",
                    "name": "path",
                    "type": "address[]"
                },
                {
                    "internalType": "address",
                    "name": "to",
                    "type": "address"
                },
                {
                    "internalType": "uint256",
                    "name": "deadline",
                    "type": "uint256"
                }
            ],
            "name": "swapExactETHForTokens",
            "outputs": [
                {
                    "internalType": "uint256[]",
                    "name": "amounts",
                    "type": "uint256[]"
                }
            ],
            "stateMutability": "payable",
            "type": "function"
        },
        {
            "inputs": [
                {
                    "internalType": "uint256",
                    "name": "amountIn",
                    "type": "uint256"
                },
                {
                    "internalType": "uint256",
                    "name": "amountOutMin",
                    "type": "uint256"
                },
                {
                    "internalType": "address[]",
                    "name": "path",
                    "type": "address[]"
                },
                {
                    "internalType": "address",
                    "name": "to",
                    "type": "address"
                },
                {
                    "internalType": "uint256",
                    "name": "deadline",
                    "type": "uint256"
                }
            ],
            "name": "swapExactTokensForETH",
            "outputs": [
                {
                    "internalType": "uint256[]",
                    "name": "amounts",
                    "type": "uint256[]"
                }
            ],
            "stateMutability": "nonpayable",
            "type": "function"
        },
        {
            "inputs": [
                {
                    "internalType": "uint256",
                    "name": "amountIn",
                    "type": "uint256"
                },
                {
                    "internalType": "uint256",
                    "name": "amountOutMin",
                    "type": "uint256"
                },
                {
                    "internalType": "address[]",
                    "name": "path",
                    "type": "address[]"
                },
                {
                    "internalType": "address",
                    "name": "to",
                    "type": "address"
                },
                {
                    "internalType": "uint256",
                    "name": "deadline",
                    "type": "uint256"
                }
            ],
            "name": "swapExactTokensForTokens",
            "outputs": [
                {
                    "internalType": "uint256[]",
                    "name": "amounts",
                    "type": "uint256[]"
                }
            ],
            "stateMutability": "nonpayable",
            "type": "function"
        },
        {
            "inputs": [
                {
                    "internalType": "address",
                    "name": "token",
                    "type": "address"
                }
            ],
            "name": "swapPrecondition",
            "outputs": [
                {
                    "internalType": "bool",
                    "name": "",
                    "type": "bool"
                }
            ],
            "stateMutability": "view",
            "type": "function"
        },
        {
            "inputs": [
                {
                    "internalType": "uint256",
                    "name": "amountOut",
                    "type": "uint256"
                },
                {
                    "internalType": "uint256",
                    "name": "amountInMax",
                    "type": "uint256"
                },
                {
                    "internalType": "address[]",
                    "name": "path",
                    "type": "address[]"
                },
                {
                    "internalType": "address",
                    "name": "to",
                    "type": "address"
                },
                {
                    "internalType": "uint256",
                    "name": "deadline",
                    "type": "uint256"
                }
            ],
            "name": "swapTokensForExactETH",
            "outputs": [
                {
                    "internalType": "uint256[]",
                    "name": "amounts",
                    "type": "uint256[]"
                }
            ],
            "stateMutability": "nonpayable",
            "type": "function"
        },
        {
            "inputs": [
                {
                    "internalType": "uint256",
                    "name": "amountOut",
                    "type": "uint256"
                },
                {
                    "internalType": "uint256",
                    "name": "amountInMax",
                    "type": "uint256"
                },
                {
                    "internalType": "address[]",
                    "name": "path",
                    "type": "address[]"
                },
                {
                    "internalType": "address",
                    "name": "to",
                    "type": "address"
                },
                {
                    "internalType": "uint256",
                    "name": "deadline",
                    "type": "uint256"
                }
            ],
            "name": "swapTokensForExactTokens",
            "outputs": [
                {
                    "internalType": "uint256[]",
                    "name": "amounts",
                    "type": "uint256[]"
                }
            ],
            "stateMutability": "nonpayable",
            "type": "function"
        },
        {
            "inputs": [],
            "name": "version",
            "outputs": [
                {
                    "internalType": "uint256",
                    "name": "",
                    "type": "uint256"
                }
            ],
            "stateMutability": "view",
            "type": "function"
        },
        {
            "stateMutability": "payable",
            "type": "receive"
        }
    ],
    "bytecode": "60806040526001805534801561001457600080fd5b50600080546001600160a01b03191633179055615625806100366000396000f3fe6080604052600436106102085760003560e01c806385f8c25911610118578063c1dfe652116100a0578063d92e82e41161006f578063d92e82e414610c38578063ddd377ac14610c4d578063f6f1e30614610c80578063fb3bdb4114610cbe578063ff0938a714610d4257610223565b8063c1dfe65214610af8578063c2ceddfa14610b0d578063d06ca61f14610b48578063d52bb6f414610bfd57610223565b806396ed28f9116100e757806396ed28f914610a035780639e6c295914610a3e578063a6f9dae114610a53578063ad5c464814610a86578063baa2abde14610a9b57610223565b806385f8c259146108865780638803dbee146108bc5780638b61ff24146109525780638da5cb5b146109ee57610223565b806338ed17391161019b5780637535d2461161016a5780637535d2461461074a5780637ae06e581461075f5780637ff36ab5146107d8578063822abc7c1461085c5780638456cb591461087157610223565b806338ed1739146105375780634a25d94a146105cd578063525e7e8f1461066357806354fd4d501461073557610223565b806318cbafe5116101d757806318cbafe5146103225780631f00ca74146104085780632dd31000146104bd57806335876476146104d257610223565b806302751cec14610228578063046f7da214610294578063054d50d4146102a957806314627834146102f157610223565b36610223576005546001600160a01b0316331461022157fe5b005b600080fd5b34801561023457600080fd5b5061027b600480360360c081101561024b57600080fd5b506001600160a01b0381358116916020810135916040820135916060810135916080820135169060a00135610d57565b6040805192835260208301919091528051918290030190f35b3480156102a057600080fd5b50610221610eb8565b3480156102b557600080fd5b506102df600480360360608110156102cc57600080fd5b5080359060208101359060400135610f1b565b60408051918252519081900360200190f35b3480156102fd57600080fd5b50610306610f61565b604080516001600160a01b039092168252519081900360200190f35b34801561032e57600080fd5b506103b8600480360360a081101561034557600080fd5b813591602081013591810190606081016040820135600160201b81111561036b57600080fd5b82018360208201111561037d57600080fd5b803590602001918460208302840111600160201b8311171561039e57600080fd5b91935091506001600160a01b038135169060200135610f70565b60408051602080825283518183015283519192839290830191858101910280838360005b838110156103f45781810151838201526020016103dc565b505050509050019250505060405180910390f35b34801561041457600080fd5b506103b86004803603604081101561042b57600080fd5b81359190810190604081016020820135600160201b81111561044c57600080fd5b82018360208201111561045e57600080fd5b803590602001918460208302840111600160201b8311171561047f57600080fd5b9190808060200260200160405190810160405280939291908181526020018383602002808284376000920191909152509295506112cd945050505050565b3480156104c957600080fd5b506103066112f0565b3480156104de57600080fd5b50610221600480360360e08110156104f557600080fd5b506001600160a01b038135811691602081013582169160408201358116916060810135821691608082013581169160a081013582169160c090910135166112ff565b34801561054357600080fd5b506103b8600480360360a081101561055a57600080fd5b813591602081013591810190606081016040820135600160201b81111561058057600080fd5b82018360208201111561059257600080fd5b803590602001918460208302840111600160201b831117156105b357600080fd5b91935091506001600160a01b0381351690602001356113d1565b3480156105d957600080fd5b506103b8600480360360a08110156105f057600080fd5b813591602081013591810190606081016040820135600160201b81111561061657600080fd5b82018360208201111561062857600080fd5b803590602001918460208302840111600160201b8311171561064957600080fd5b91935091506001600160a01b038135169060200135611577565b34801561066f57600080fd5b506107216004803603604081101561068657600080fd5b6001600160a01b038235169190810190604081016020820135600160201b8111156106b057600080fd5b8201836020820111156106c257600080fd5b803590602001918460208302840111600160201b831117156106e357600080fd5b91908080602002602001604051908101604052809392919081815260200183836020028082843760009201919091525092955061180a945050505050565b604080519115158252519081900360200190f35b34801561074157600080fd5b506102df611873565b34801561075657600080fd5b50610306611879565b34801561076b57600080fd5b506107ba600480360360e081101561078257600080fd5b506001600160a01b03813581169160208101359091169060408101359060608101359060808101359060a08101359060c00135611888565b60408051938452602084019290925282820152519081900360600190f35b6103b8600480360360808110156107ee57600080fd5b81359190810190604081016020820135600160201b81111561080f57600080fd5b82018360208201111561082157600080fd5b803590602001918460208302840111600160201b8311171561084257600080fd5b91935091506001600160a01b038135169060200135611b37565b34801561086857600080fd5b50610306611e81565b34801561087d57600080fd5b50610221611e90565b34801561089257600080fd5b506102df600480360360608110156108a957600080fd5b5080359060208101359060400135611ef9565b3480156108c857600080fd5b506103b8600480360360a08110156108df57600080fd5b813591602081013591810190606081016040820135600160201b81111561090557600080fd5b82018360208201111561091757600080fd5b803590602001918460208302840111600160201b8311171561093857600080fd5b91935091506001600160a01b038135169060200135611f3f565b34801561095e57600080fd5b506102216004803603608081101561097557600080fd5b6001600160a01b0382358116926020810135821692604082013590921691810190608081016060820135600160201b8111156109b057600080fd5b8201836020820111156109c257600080fd5b803590602001918460208302840111600160201b831117156109e357600080fd5b509092509050612054565b3480156109fa57600080fd5b50610306612566565b348015610a0f57600080fd5b5061030660048036036040811015610a2657600080fd5b506001600160a01b0381358116916020013516612575565b348015610a4a57600080fd5b506102df612596565b348015610a5f57600080fd5b5061022160048036036020811015610a7657600080fd5b50356001600160a01b031661259c565b348015610a9257600080fd5b506103066126a6565b348015610aa757600080fd5b5061027b600480360360e0811015610abe57600080fd5b506001600160a01b038135811691602081013582169160408201359160608101359160808201359160a08101359091169060c001356126b5565b348015610b0457600080fd5b50610306612a0e565b348015610b1957600080fd5b5061072160048036036040811015610b3057600080fd5b506001600160a01b0381358116916020013516612a1d565b348015610b5457600080fd5b506103b860048036036040811015610b6b57600080fd5b81359190810190604081016020820135600160201b811115610b8c57600080fd5b820183602082011115610b9e57600080fd5b803590602001918460208302840111600160201b83111715610bbf57600080fd5b919080806020026020016040519081016040528093929190818152602001838360200280828437600092019190915250929550612ab5945050505050565b348015610c0957600080fd5b5061027b60048036036040811015610c2057600080fd5b506001600160a01b0381358116916020013516612ace565b348015610c4457600080fd5b50610306612af6565b348015610c5957600080fd5b5061072160048036036020811015610c7057600080fd5b50356001600160a01b0316612b05565b6107ba600480360360a0811015610c9657600080fd5b506001600160a01b038135169060208101359060408101359060608101359060800135612e34565b6103b860048036036080811015610cd457600080fd5b81359190810190604081016020820135600160201b811115610cf557600080fd5b820183602082011115610d0757600080fd5b803590602001918460208302840111600160201b83111715610d2857600080fd5b91935091506001600160a01b0381351690602001356131ed565b348015610d4e57600080fd5b5061072161354b565b6000808242811015610d9e576040805162461bcd60e51b81526020600482015260176024820152600080516020615538833981519152604482015290519081900360640190fd5b600854600160a01b900460ff1615610deb576040805162461bcd60e51b815260206004820152600b60248201526a1513d3524814105554d15160aa1b604482015290519081900360640190fd5b600554610e07908a906001600160a01b03168a8a8a308a6126b5565b9093509150610e1789868561355b565b60055460408051632e1a7d4d60e01b81526004810185905290516001600160a01b0390921691632e1a7d4d9160248082019260009290919082900301818387803b158015610e6457600080fd5b505af1158015610e78573d6000803e3d6000fd5b50505050610e8685836136c5565b610e9230868b866137bd565b600554610eac90309087906001600160a01b0316856137bd565b50965096945050505050565b6000546001600160a01b03163314610f0c576040805162461bcd60e51b815260206004820152601260248201527127bbb730b136329d102327a92124a22222a760711b604482015290519081900360640190fd5b6008805460ff60a01b19169055565b600080610f26613855565b90506000612710610f4287610f3d612710866138e4565b613926565b81610f4957fe5b049050610f5781868661397f565b9695505050505050565b6006546001600160a01b031681565b60608142811015610fb6576040805162461bcd60e51b81526020600482015260176024820152600080516020615538833981519152604482015290519081900360640190fd5b6005546001600160a01b031686866000198101818110610fd257fe5b905060200201356001600160a01b03166001600160a01b03161461102b576040805162461bcd60e51b815260206004820152601c60248201526000805160206153d5833981519152604482015290519081900360640190fd5b6000611035613855565b905061107689888880806020026020016040519081016040528093929190818152602001838360200280828437600092019190915250869250613a2f915050565b9250878360018551038151811061108957fe5b602002602001015110156110ce5760405162461bcd60e51b815260040180806020018281038252602a8152602001806154b6602a913960400191505060405180910390fd5b60045460009061111d906001600160a01b0316898984816110eb57fe5b905060200201356001600160a01b03168a8a600181811061110857fe5b905060200201356001600160a01b0316613b62565b90506111618888600081811061112f57fe5b905060200201356001600160a01b031633836127106111548f610f3d6127108a6138e4565b8161115b57fe5b04613c9e565b6111a084898980806020026020016040519081016040528093929190818152602001838360200280828437600092019190915250309250613cbc915050565b6111e3888860008181106111b057fe5b905060200201356001600160a01b03163383612710611154896000815181106111d557fe5b602002602001015188613926565b61122284898980806020026020016040519081016040528093929190818152602001838360200280828437600092019190915250879250614351915050565b60055484516001600160a01b0390911690632e1a7d4d908690600019810190811061124957fe5b60200260200101516040518263ffffffff1660e01b815260040180828152602001915050600060405180830381600087803b15801561128757600080fd5b505af115801561129b573d6000803e3d6000fd5b505050506112c086856001875103815181106112b357fe5b60200260200101516136c5565b5050509695505050505050565b606060006112d9613855565b90506112e68484836146eb565b9150505b92915050565b6004546001600160a01b031681565b6000546001600160a01b03163314611353576040805162461bcd60e51b815260206004820152601260248201527127bbb730b136329d102327a92124a22222a760711b604482015290519081900360640190fd5b600280546001600160a01b03199081166001600160a01b03998a1617909155600380548216978916979097179096556004805487169588169590951790945560058054861693871693909317909255600680548516918616919091179055600780548416918516919091179055600880549092169216919091179055565b60608142811015611417576040805162461bcd60e51b81526020600482015260176024820152600080516020615538833981519152604482015290519081900360640190fd5b6000611421613855565b905061146289888880806020026020016040519081016040528093929190818152602001838360200280828437600092019190915250869250613a2f915050565b9250878360018551038151811061147557fe5b602002602001015110156114ba5760405162461bcd60e51b815260040180806020018281038252602a8152602001806154b6602a913960400191505060405180910390fd5b6004546000906114d7906001600160a01b0316898984816110eb57fe5b90506114e98888600081811061112f57fe5b611528848989808060200260200160405190810160405280939291908181526020018383602002808284376000920191909152508b9250613cbc915050565b611538888860008181106111b057fe5b6112c084898980806020026020016040519081016040528093929190818152602001838360200280828437600092019190915250879250614351915050565b606081428110156115bd576040805162461bcd60e51b81526020600482015260176024820152600080516020615538833981519152604482015290519081900360640190fd5b6005546001600160a01b0316868660001981018181106115d957fe5b905060200201356001600160a01b03166001600160a01b031614611632576040805162461bcd60e51b815260206004820152601c60248201526000805160206153d5833981519152604482015290519081900360640190fd5b600061163c613855565b905061167d898888808060200260200160405190810160405280939291908181526020018383602002808284376000920191909152508692506146eb915050565b9250878360008151811061168d57fe5b602002602001015111156116d25760405162461bcd60e51b81526004018080602001828103825260268152602001806155ca6026913960400191505060405180910390fd5b6004546000906116ef906001600160a01b0316898984816110eb57fe5b905061173a8888600081811061170157fe5b905060200201356001600160a01b031633836127106111548960008151811061172657fe5b6020026020010151610f3d6127108a6138e4565b61177984898980806020026020016040519081016040528093929190818152602001838360200280828437600092019190915250309250613cbc915050565b60055484516001600160a01b0390911690632e1a7d4d90869060001981019081106117a057fe5b60200260200101516040518263ffffffff1660e01b815260040180828152602001915050600060405180830381600087803b1580156117de57600080fd5b505af11580156117f2573d6000803e3d6000fd5b5050505061152886856001875103815181106112b357fe5b60008060005b835181101561185557846001600160a01b031684828151811061182f57fe5b60200260200101516001600160a01b0316141561184d576001909101905b600101611810565b5080600114156118695760019150506112ea565b60009150506112ea565b60015481565b6008546001600160a01b031681565b600080600083428110156118d1576040805162461bcd60e51b81526020600482015260176024820152600080516020615538833981519152604482015290519081900360640190fd5b600854600160a01b900460ff161561191e576040805162461bcd60e51b815260206004820152600b60248201526a1513d3524814105554d15160aa1b604482015290519081900360640190fd5b61192c8b8b8b8b8b8b614855565b600454919550935060009061194b906001600160a01b03168d8d613b62565b90506119598c338388614d40565b6119658b338387614d40565b6008546040805163555d661160e11b81526001600160a01b0384811660048301523360248301529151919092169163aabacc2291604480830192600092919082900301818387803b1580156119b957600080fd5b505af11580156119cd573d6000803e3d6000fd5b5050604080516335313c2160e11b815233600482015290516001600160a01b0385169350636a627842925060248083019260209291908290030181600087803b158015611a1957600080fd5b505af1158015611a2d573d6000803e3d6000fd5b505050506040513d6020811015611a4357600080fd5b5051600854604080516368a6560d60e11b81526001600160a01b038581166004830152336024830152915193965091169163d14cac1a9160448082019260009290919082900301818387803b158015611a9b57600080fd5b505af1158015611aaf573d6000803e3d6000fd5b50505050611abf33828e886137bd565b611acb33828d876137bd565b8a6001600160a01b03168c6001600160a01b0316336001600160a01b03167fc33fbc9654f9c0dcfcbd829113bdb10afe95619bc0824bc5959ad82fd6952bd98888604051808381526020018281526020019250505060405180910390a450509750975097945050505050565b60608142811015611b7d576040805162461bcd60e51b81526020600482015260176024820152600080516020615538833981519152604482015290519081900360640190fd5b6005546001600160a01b03168686600081611b9457fe5b905060200201356001600160a01b03166001600160a01b031614611bed576040805162461bcd60e51b815260206004820152601c60248201526000805160206153d5833981519152604482015290519081900360640190fd5b6000611bf7613855565b9050611c3834888880806020026020016040519081016040528093929190818152602001838360200280828437600092019190915250869250613a2f915050565b92508783600185510381518110611c4b57fe5b60200260200101511015611c905760405162461bcd60e51b815260040180806020018281038252602a8152602001806154b6602a913960400191505060405180910390fd5b600454600090611cad906001600160a01b0316898984816110eb57fe5b60055485519192506001600160a01b03169063d0e30db09061271090611cec908890600090611cd857fe5b6020026020010151610f3d612710886138e4565b81611cf357fe5b046040518263ffffffff1660e01b81526004016000604051808303818588803b158015611d1f57600080fd5b505af1158015611d33573d6000803e3d6000fd5b5050505050611d5c81612710611d4f87600081518110611cd857fe5b81611d5657fe5b04614e95565b611d9b848989808060200260200160405190810160405280939291908181526020018383602002808284376000920191909152508b9250613cbc915050565b60055484516001600160a01b039091169063d0e30db09061271090611dd3908890600090611dc557fe5b602002602001015186613926565b81611dda57fe5b046040518263ffffffff1660e01b81526004016000604051808303818588803b158015611e0657600080fd5b505af1158015611e1a573d6000803e3d6000fd5b5050505050611e3681612710611d4f87600081518110611dc557fe5b611e7584898980806020026020016040519081016040528093929190818152602001838360200280828437600092019190915250879250614351915050565b50505095945050505050565b6007546001600160a01b031681565b6000546001600160a01b03163314611ee4576040805162461bcd60e51b815260206004820152601260248201527127bbb730b136329d102327a92124a22222a760711b604482015290519081900360640190fd5b6008805460ff60a01b1916600160a01b179055565b600080611f04613855565b90506000611f13868686614f3b565b9050611f21612710836138e4565b611f2d82612710613926565b81611f3457fe5b049695505050505050565b60608142811015611f85576040805162461bcd60e51b81526020600482015260176024820152600080516020615538833981519152604482015290519081900360640190fd5b6000611f8f613855565b9050611fd0898888808060200260200160405190810160405280939291908181526020018383602002808284376000920191909152508692506146eb915050565b92508783600081518110611fe057fe5b602002602001015111156120255760405162461bcd60e51b81526004018080602001828103825260268152602001806155ca6026913960400191505060405180910390fd5b600454600090612042906001600160a01b0316898984816110eb57fe5b90506114e98888600081811061170157fe5b6000546001600160a01b031633146120a8576040805162461bcd60e51b815260206004820152601260248201527127bbb730b136329d102327a92124a22222a760711b604482015290519081900360640190fd5b600480546040805163e6a4390560e01b81526001600160a01b0388811694820194909452868416602482015290516000939092169163e6a4390591604480820192602092909190829003018186803b15801561210357600080fd5b505afa158015612117573d6000803e3d6000fd5b505050506040513d602081101561212d57600080fd5b50516001600160a01b031614156121c65760048054604080516364e329cb60e11b81526001600160a01b038881169482019490945286841660248201529051929091169163c9c65396916044808201926020929091908290030181600087803b15801561219957600080fd5b505af11580156121ad573d6000803e3d6000fd5b505050506040513d60208110156121c357600080fd5b50505b600480546040805163e6a4390560e01b81526001600160a01b0388811694820194909452868416602482015290516000939092169163e6a4390591604480820192602092909190829003018186803b15801561222157600080fd5b505afa158015612235573d6000803e3d6000fd5b505050506040513d602081101561224b57600080fd5b5051905060005b828110156124ef576000876001600160a01b03166370a0823186868581811061227757fe5b905060200201356001600160a01b03166040518263ffffffff1660e01b815260040180826001600160a01b0316815260200191505060206040518083038186803b1580156122c457600080fd5b505afa1580156122d8573d6000803e3d6000fd5b505050506040513d60208110156122ee57600080fd5b5051905080156124e657876001600160a01b031663f6b911bc86868581811061231357fe5b905060200201356001600160a01b031685846040518463ffffffff1660e01b815260040180846001600160a01b03168152602001836001600160a01b0316815260200182815260200193505050506040805180830381600087803b15801561237a57600080fd5b505af115801561238e573d6000803e3d6000fd5b505050506040513d60408110156123a457600080fd5b50506001600160a01b038316636a6278428686858181106123c157fe5b905060200201356001600160a01b03166040518263ffffffff1660e01b815260040180826001600160a01b03168152602001915050602060405180830381600087803b15801561241057600080fd5b505af1158015612424573d6000803e3d6000fd5b505050506040513d602081101561243a57600080fd5b50506004546001600160a01b031663c9ead25886868581811061245957fe5b905060200201356001600160a01b0316856040518363ffffffff1660e01b815260040180836001600160a01b03168152602001826001600160a01b0316815260200192505050602060405180830381600087803b1580156124b957600080fd5b505af11580156124cd573d6000803e3d6000fd5b505050506040513d60208110156124e357600080fd5b50505b50600101612252565b5060075460408051636ef9a3e760e01b81526001600160a01b038981166004830152848116602483015291519190921691636ef9a3e791604480830192600092919082900301818387803b15801561254657600080fd5b505af115801561255a573d6000803e3d6000fd5b50505050505050505050565b6000546001600160a01b031681565b60045460009061258f906001600160a01b03168484613b62565b9392505050565b61271081565b6000546001600160a01b031633146125f0576040805162461bcd60e51b815260206004820152601260248201527127bbb730b136329d102327a92124a22222a760711b604482015290519081900360640190fd5b6001600160a01b03811661264b576040805162461bcd60e51b815260206004820152601860248201527f4f776e61626c653a20494e56414c49445f414444524553530000000000000000604482015290519081900360640190fd5b600080546040516001600160a01b03808516939216917fb532073b38c83145e3e5135377a08bf9aab55bc0fd7c1179cd4fb995d2a5159c91a3600080546001600160a01b0319166001600160a01b0392909216919091179055565b6005546001600160a01b031681565b60008082428110156126fc576040805162461bcd60e51b81526020600482015260176024820152600080516020615538833981519152604482015290519081900360640190fd5b600854600160a01b900460ff1615612749576040805162461bcd60e51b815260206004820152600b60248201526a1513d3524814105554d15160aa1b604482015290519081900360640190fd5b600454600090612763906001600160a01b03168c8c613b62565b6008546040805163555d661160e11b81526001600160a01b03808516600483015233602483015291519394508c938f938f93169163aabacc2291604480830192600092919082900301818387803b1580156127bd57600080fd5b505af11580156127d1573d6000803e3d6000fd5b505060408051633dae446f60e21b81523360048201526001600160a01b038d81166024830152604482018890528251600095508594509089169263f6b911bc926064808201939182900301818787803b15801561282d57600080fd5b505af1158015612841573d6000803e3d6000fd5b505050506040513d604081101561285757600080fd5b508051602090910151600854604080516368a6560d60e11b81526001600160a01b038b811660048301523360248301529151949650929450169163d14cac1a9160448082019260009290919082900301818387803b1580156128b857600080fd5b505af11580156128cc573d6000803e3d6000fd5b5050505060006128dc8585614ff7565b509050806001600160a01b0316856001600160a01b0316146128ff578183612902565b82825b909a509850612913878d878d6137bd565b61291f878d868c6137bd565b8d8a101561295e5760405162461bcd60e51b81526004018080602001828103825260258152602001806153b06025913960400191505060405180910390fd5b8c89101561299d5760405162461bcd60e51b81526004018080602001828103825260258152602001806153f56025913960400191505060405180910390fd5b836001600160a01b0316856001600160a01b0316336001600160a01b03167fa8dbaaebbb025c88e9e34c84635cd8238043556e9af43fb161508c898a8e1ef98d8d604051808381526020018281526020019250505060405180910390a4505050505050505097509795505050505050565b6002546001600160a01b031681565b600480546040805163e6a4390560e01b81526001600160a01b0386811694820194909452848416602482015290516000938493169163e6a43905916044808301926020929190829003018186803b158015612a7757600080fd5b505afa158015612a8b573d6000803e3d6000fd5b505050506040513d6020811015612aa157600080fd5b50516001600160a01b031614159392505050565b60606000612ac1613855565b90506112e6848483613a2f565b6004546000908190612aea906001600160a01b031685856150ce565b915091505b9250929050565b6003546001600160a01b031681565b6002546000906001600160a01b0383811691161480612b3157506005546001600160a01b038381169116145b15612b3e57506001612e2f565b600354604080516360ccef1960e11b81527f544f4b454e5f544f5f544741535f504149525f4d494e5f50455243454e540000600482015290516000926001600160a01b03169163c199de32916024808301926020929190829003018186803b158015612ba957600080fd5b505afa158015612bbd573d6000803e3d6000fd5b505050506040513d6020811015612bd357600080fd5b5051600554600254919250612bf4916001600160a01b039182169116612a1d565b612c02576000915050612e2f565b600254612c18906001600160a01b031684612a1d565b612c26576000915050612e2f565b6003546002546040805163a9ece1b760e01b81526001600160a01b03928316600482015286831660248201529051919092169163a9ece1b7916044808301926020929190829003018186803b158015612c7e57600080fd5b505afa158015612c92573d6000803e3d6000fd5b505050506040513d6020811015612ca857600080fd5b50518015612d3657506003546005546040805163a9ece1b760e01b81526001600160a01b03928316600482015286831660248201529051919092169163a9ece1b7916044808301926020929190829003018186803b158015612d0957600080fd5b505afa158015612d1d573d6000803e3d6000fd5b505050506040513d6020811015612d3357600080fd5b50515b612d44576000915050612e2f565b600554612d5a906001600160a01b031684612a1d565b612d68576001915050612e2f565b80612d77576001915050612e2f565b600454600254600091612d97916001600160a01b039182169116866150ce565b50600454600554919250600091612dbb916001600160a01b039081169116876150ce565b506004546005546002549293506000928392612de7926001600160a01b039182169290821691166150ce565b91509150600081612df88685613926565b81612dff57fe5b0490506000612710612e1a612e148488615195565b89613926565b81612e2157fe5b049091101596505050505050505b919050565b60008060008342811015612e7d576040805162461bcd60e51b81526020600482015260176024820152600080516020615538833981519152604482015290519081900360640190fd5b600854600160a01b900460ff1615612eca576040805162461bcd60e51b815260206004820152600b60248201526a1513d3524814105554d15160aa1b604482015290519081900360640190fd5b600554612ee5908a906001600160a01b03168a348b8b614855565b600454600554929650909450600091612f0c916001600160a01b03908116918d9116613b62565b9050612f1a8a338388614d40565b600560009054906101000a90046001600160a01b03166001600160a01b031663d0e30db0856040518263ffffffff1660e01b81526004016000604051808303818588803b158015612f6a57600080fd5b505af1158015612f7e573d6000803e3d6000fd5b50506005546040805163a9059cbb60e01b81526001600160a01b038781166004830152602482018b9052915191909216945063a9059cbb9350604480830193506020928290030181600087803b158015612fd757600080fd5b505af1158015612feb573d6000803e3d6000fd5b505050506040513d602081101561300157600080fd5b505161300957fe5b6008546040805163555d661160e11b81526001600160a01b0384811660048301523360248301529151919092169163aabacc2291604480830192600092919082900301818387803b15801561305d57600080fd5b505af1158015613071573d6000803e3d6000fd5b5050604080516335313c2160e11b815233600482015290516001600160a01b0385169350636a627842925060248083019260209291908290030181600087803b1580156130bd57600080fd5b505af11580156130d1573d6000803e3d6000fd5b505050506040513d60208110156130e757600080fd5b5051600854604080516368a6560d60e11b81526001600160a01b038581166004830152336024830152915193965091169163d14cac1a9160448082019260009290919082900301818387803b15801561313f57600080fd5b505af1158015613153573d6000803e3d6000fd5b5050600554613171925033915083906001600160a01b0316876137bd565b61317d33828c886137bd565b600554604080518781526020810187905281516001600160a01b03938416938e169233927fc33fbc9654f9c0dcfcbd829113bdb10afe95619bc0824bc5959ad82fd6952bd9929081900390910190a4833411156131e0576131e0338534036136c5565b5050955095509592505050565b60608142811015613233576040805162461bcd60e51b81526020600482015260176024820152600080516020615538833981519152604482015290519081900360640190fd5b6005546001600160a01b0316868660008161324a57fe5b905060200201356001600160a01b03166001600160a01b0316146132a3576040805162461bcd60e51b815260206004820152601c60248201526000805160206153d5833981519152604482015290519081900360640190fd5b60006132ad613855565b90506132ee888888808060200260200160405190810160405280939291908181526020018383602002808284376000920191909152508692506146eb915050565b925034836000815181106132fe57fe5b602002602001015111156133435760405162461bcd60e51b81526004018080602001828103825260268152602001806155ca6026913960400191505060405180910390fd5b60055483516001600160a01b039091169063d0e30db0906127109061338190879060009061336d57fe5b6020026020010151610f3d612710876138e4565b8161338857fe5b046040518263ffffffff1660e01b81526004016000604051808303818588803b1580156133b457600080fd5b505af11580156133c8573d6000803e3d6000fd5b5050600454600093506133eb92506001600160a01b03169050898984816110eb57fe5b905061340481612710611d4f87600081518110611cd857fe5b613443848989808060200260200160405190810160405280939291908181526020018383602002808284376000920191909152508b9250613cbc915050565b60055484516001600160a01b039091169063d0e30db0906127109061346d908890600090611dc557fe5b8161347457fe5b046040518263ffffffff1660e01b81526004016000604051808303818588803b1580156134a057600080fd5b505af11580156134b4573d6000803e3d6000fd5b50505050506134d081612710611d4f87600081518110611dc557fe5b61350f84898980806020026020016040519081016040528093929190818152602001838360200280828437600092019190915250879250614351915050565b8360008151811061351c57fe5b6020026020010151341115611e7557611e75338560008151811061353c57fe5b602002602001015134036136c5565b600854600160a01b900460ff1681565b604080516001600160a01b038481166024830152604480830185905283518084039091018152606490920183526020820180516001600160e01b031663a9059cbb60e01b178152925182516000946060949389169392918291908083835b602083106135d85780518252601f1990920191602091820191016135b9565b6001836020036101000a0380198251168184511680821785525050505050509050019150506000604051808303816000865af19150503d806000811461363a576040519150601f19603f3d011682016040523d82523d6000602084013e61363f565b606091505b509150915081801561366d57508051158061366d575080806020019051602081101561366a57600080fd5b50515b6136be576040805162461bcd60e51b815260206004820152601f60248201527f5472616e7366657248656c7065723a205452414e534645525f4641494c454400604482015290519081900360640190fd5b5050505050565b604080516000808252602082019092526001600160a01b0384169083906040518082805190602001908083835b602083106137115780518252601f1990920191602091820191016136f2565b6001836020036101000a03801982511681845116808217855250505050505090500191505060006040518083038185875af1925050503d8060008114613773576040519150601f19603f3d011682016040523d82523d6000602084013e613778565b606091505b50509050806137b85760405162461bcd60e51b81526004018080602001828103825260238152602001806155586023913960400191505060405180910390fd5b505050565b60075460408051632984b7a960e21b81526001600160a01b03878116600483015286811660248301528581166044830152606482018590529151919092169163a612dea49160848083019260209291908290030181600087803b15801561382357600080fd5b505af1158015613837573d6000803e3d6000fd5b505050506040513d602081101561384d57600080fd5b505050505050565b600354604080516360ccef1960e11b81526f14d5d05417d1915157d4115490d1539560821b600482015290516000926001600160a01b03169163c199de32916024808301926020929190829003018186803b1580156138b357600080fd5b505afa1580156138c7573d6000803e3d6000fd5b505050506040513d60208110156138dd57600080fd5b5051905090565b600061258f83836040518060400160405280601e81526020017f536166654d6174683a207375627472616374696f6e206f766572666c6f7700008152506151ef565b600082613935575060006112ea565b8282028284828161394257fe5b041461258f5760405162461bcd60e51b81526004018080602001828103825260218152602001806154956021913960400191505060405180910390fd5b60008084116139bf5760405162461bcd60e51b815260040180806020018281038252602a815260200180615386602a913960400191505060405180910390fd5b6000831180156139cf5750600082115b613a0a5760405162461bcd60e51b815260040180806020018281038252602781526020018061546e6027913960400191505060405180910390fd5b6000613a168584613926565b90506000613a248587615195565b9050808281611f3457fe5b6060825167ffffffffffffffff81118015613a4957600080fd5b50604051908082528060200260200182016040528015613a73578160200160208202803683370190505b5090508381600081518110613a8457fe5b60200260200101818152505060005b6001845103811015613b5a576000848281518110613aad57fe5b602002602001015190506000858360010181518110613ac857fe5b60200260200101519050600080613af5600460009054906101000a90046001600160a01b031685856150ce565b915091506000613b1e878781518110613b0a57fe5b6020026020010151610f3d6127108b6138e4565b9050613b2f6127108204848461397f565b878760010181518110613b3e57fe5b6020908102919091010152505060019093019250613a93915050565b509392505050565b6000806000613b718585614ff7565b915091506000828260405160200180836001600160a01b031660601b8152601401826001600160a01b031660601b815260140192505050604051602081830303815290604052805190602001209050600060ff60f81b88838a6001600160a01b0316637c7f84ee6040518163ffffffff1660e01b815260040160206040518083038186803b158015613c0257600080fd5b505afa158015613c16573d6000803e3d6000fd5b505050506040513d6020811015613c2c57600080fd5b5051604080516001600160f81b03199590951660208087019190915260609490941b6bffffffffffffffffffffffff191660218601526035850192909252605580850191909152815180850390910181526075909301905281519101206001600160a01b031698975050505050505050565b613caa84848484614d40565b613cb6838386846137bd565b50505050565b600854600160a01b900460ff1615613d09576040805162461bcd60e51b815260206004820152600b60248201526a1513d3524814105554d15160aa1b604482015290519081900360640190fd5b613d2982600184510381518110613d1c57fe5b6020026020010151612b05565b613d645760405162461bcd60e51b815260040180806020018281038252602e81526020018061532d602e913960400191505060405180910390fd5b60005b600183510381101561429857613d90838281518110613d8257fe5b60200260200101518461180a565b8015613da95750613da9838260010181518110613d8257fe5b613dfa576040805162461bcd60e51b815260206004820152601d60248201527f44454d415820504c4154464f524d203a20494e56414c49442050415448000000604482015290519081900360640190fd5b600080848381518110613e0957fe5b6020026020010151858460010181518110613e2057fe5b602002602001015191509150613e3582612b05565b613e705760405162461bcd60e51b815260040180806020018281038252603081526020018061541a6030913960400191505060405180910390fd5b6003546040805163a9ece1b760e01b81526001600160a01b03858116600483015284811660248301529151919092169163a9ece1b7916044808301926020929190829003018186803b158015613ec557600080fd5b505afa158015613ed9573d6000803e3d6000fd5b505050506040513d6020811015613eef57600080fd5b5051613f2c5760405162461bcd60e51b815260040180806020018281038252602b81526020018061535b602b913960400191505060405180910390fd5b600080613f398484614ff7565b915091506000888660010181518110613f4e57fe5b60200260200101519050600080846001600160a01b0316876001600160a01b031614613f7c57826000613f80565b6000835b91509150600060028b51038910613f975789613fc8565b6004548b51613fc8916001600160a01b03169089908e9060028e01908110613fbb57fe5b6020026020010151613b62565b600454909150600090613fe5906001600160a01b03168a8a613b62565b9050600080826001600160a01b0316630902f1ac6040518163ffffffff1660e01b815260040160606040518083038186803b15801561402357600080fd5b505afa158015614037573d6000803e3d6000fd5b505050506040513d606081101561404d57600080fd5b5080516020909101516001600160701b03918216935016905060006140728383613926565b604080516000808252602082019283905263022c0d9f60e01b8352602482018b8152604483018b90526001600160a01b038a81166064850152608060848501908152845160a48601819052969750908a169563022c0d9f958e958e958e9591949193919260c486019290918190849084905b838110156140fc5781810151838201526020016140e4565b50505050905090810190601f1680156141295780820380516001836020036101000a031916815260200191505b5095505050505050600060405180830381600087803b15801561414b57600080fd5b505af115801561415f573d6000803e3d6000fd5b50505050836001600160a01b0316630902f1ac6040518163ffffffff1660e01b815260040160606040518083038186803b15801561419c57600080fd5b505afa1580156141b0573d6000803e3d6000fd5b505050506040513d60608110156141c657600080fd5b5080516020909101516001600160701b03918216945016915060006141eb8484613926565b90508082111561422d576040805162461bcd60e51b8152602060048201526008602482015267427572676572204b60c01b604482015290519081900360640190fd5b8715614256576004546142569061424e906001600160a01b03168f8f613b62565b878d8b6137bd565b861561427f5760045461427f90614277906001600160a01b03168f8f613b62565b878c8a6137bd565b50506001909b019a50613d679950505050505050505050565b50816001835103815181106142a957fe5b60200260200101516001600160a01b0316826000815181106142c757fe5b60200260200101516001600160a01b0316826001600160a01b03167f3070708cdb5d7d3931be8443f49f7ec529e2bbe770b676e3c0cc40e158c5d0398660008151811061431057fe5b60200260200101518760018851038151811061432857fe5b6020026020010151604051808381526020018281526020019250505060405180910390a4505050565b60005b6001835103811015613cb657600061271061438286848151811061437457fe5b602002602001015185613926565b8161438957fe5b049050600084838151811061439a57fe5b6020026020010151905060008584600101815181106143b557fe5b6020026020010151905060006143e1600460009054906101000a90046001600160a01b03168484613b62565b6002549091506001600160a01b0384811691161415614495576002546008546040805163012d9b4160e71b8152600481018890526001600160a01b039384166024820152918316604483015251918316916396cda0809160648082019260009290919082900301818387803b15801561445957600080fd5b505af115801561446d573d6000803e3d6000fd5b505060085460025461449093508492506001600160a01b039182169116876137bd565b614667565b6004546002546001600160a01b03808416926396cda08092889288926144c19290821691849116613b62565b6040518463ffffffff1660e01b815260040180848152602001836001600160a01b03168152602001826001600160a01b031681526020019350505050600060405180830381600087803b15801561451757600080fd5b505af115801561452b573d6000803e3d6000fd5b505060045460025460009350839250614552916001600160a01b03908116918891166150ce565b91509150600061456387848461397f565b600454600254919250614584916001600160a01b0391821691899116613b62565b6002546008546040805163012d9b4160e71b8152600481018690526001600160a01b03938416602482015291831660448301525192909116916396cda0809160648082019260009290919082900301818387803b1580156145e457600080fd5b505af11580156145f8573d6000803e3d6000fd5b50506004546002546146279350879250614620916001600160a01b03908116918b9116613b62565b888a6137bd565b60045460025461466291614649916001600160a01b03918216918a9116613b62565b6008546002546001600160a01b039182169116846137bd565b955050505b83156146db576008546040805163e60a6a0b60e01b81526001600160a01b038481166004830152602482018890529151919092169163e60a6a0b91604480830192600092919082900301818387803b1580156146c257600080fd5b505af11580156146d6573d6000803e3d6000fd5b505050505b5050600190920191506143549050565b6060825167ffffffffffffffff8111801561470557600080fd5b5060405190808252806020026020018201604052801561472f578160200160208202803683370190505b509050838160018551038151811061474357fe5b60209081029190910101528251600019015b801561482d57600084600183038151811061476c57fe5b60200260200101519050600085838151811061478457fe5b602002602001015190506000806147b1600460009054906101000a90046001600160a01b031685856150ce565b9150915060006147d58787815181106147c657fe5b60200260200101518484614f3b565b90506148016147e66127108a6138e4565b6147f283612710613926565b816147f957fe5b046001615195565b87600188038151811061481057fe5b602090810291909101015250506000199093019250614755915050565b5061484d8160008151811061483e57fe5b60200260200101518484613a2f565b949350505050565b600480546040805163e6a4390560e01b81526001600160a01b038a811694820194909452888416602482015290516000938493849391169163e6a4390591604480820192602092909190829003018186803b1580156148b357600080fd5b505afa1580156148c7573d6000803e3d6000fd5b505050506040513d60208110156148dd57600080fd5b50516001600160a01b03161415614a6c576003546040805163d48bfca760e01b81526001600160a01b038b811660048301529151919092169163d48bfca79160248083019260209291908290030181600087803b15801561493d57600080fd5b505af1158015614951573d6000803e3d6000fd5b505050506040513d602081101561496757600080fd5b50506003546040805163d48bfca760e01b81526001600160a01b038a811660048301529151919092169163d48bfca79160248083019260209291908290030181600087803b1580156149b857600080fd5b505af11580156149cc573d6000803e3d6000fd5b505050506040513d60208110156149e257600080fd5b505060048054604080516364e329cb60e11b81526001600160a01b038c8116948201949094528a841660248201529051929091169163c9c65396916044808201926020929091908290030181600087803b158015614a3f57600080fd5b505af1158015614a53573d6000803e3d6000fd5b505050506040513d6020811015614a6957600080fd5b50505b6003546040805163a9ece1b760e01b81526001600160a01b038b811660048301528a811660248301529151919092169163a9ece1b7916044808301926020929190829003018186803b158015614ac157600080fd5b505afa158015614ad5573d6000803e3d6000fd5b505050506040513d6020811015614aeb57600080fd5b5051614b285760405162461bcd60e51b81526004018080602001828103825260348152602001806154e06034913960400191505060405180910390fd5b6004546000908190614b44906001600160a01b03168b8b6150ce565b91509150816000148015614b56575080155b15614b6657879350869250614c26565b6000614b73898484615286565b9050878111614bc65785811015614bbb5760405162461bcd60e51b81526004018080602001828103825260258152602001806153f56025913960400191505060405180910390fd5b889450925082614c24565b6000614bd3898486615286565b905089811115614bdf57fe5b87811015614c1e5760405162461bcd60e51b81526004018080602001828103825260258152602001806153b06025913960400191505060405180910390fd5b94508793505b505b600480546040805163e6a4390560e01b81526001600160a01b038e8116948201949094528c841660248201529051929091169163c9ead258913391849163e6a43905916044808301926020929190829003018186803b158015614c8857600080fd5b505afa158015614c9c573d6000803e3d6000fd5b505050506040513d6020811015614cb257600080fd5b5051604080516001600160e01b031960e086901b1681526001600160a01b0393841660048201529290911660248301525160448083019260209291908290030181600087803b158015614d0457600080fd5b505af1158015614d18573d6000803e3d6000fd5b505050506040513d6020811015614d2e57600080fd5b50939a92995091975050505050505050565b604080516001600160a01b0385811660248301528481166044830152606480830185905283518084039091018152608490920183526020820180516001600160e01b03166323b872dd60e01b17815292518251600094606094938a169392918291908083835b60208310614dc55780518252601f199092019160209182019101614da6565b6001836020036101000a0380198251168184511680821785525050505050509050019150506000604051808303816000865af19150503d8060008114614e27576040519150601f19603f3d011682016040523d82523d6000602084013e614e2c565b606091505b5091509150818015614e5a575080511580614e5a5750808060200190516020811015614e5757600080fd5b50515b61384d5760405162461bcd60e51b81526004018080602001828103825260248152602001806155a66024913960400191505060405180910390fd5b6005546040805163a9059cbb60e01b81526001600160a01b038581166004830152602482018590529151919092169163a9059cbb9160448083019260209291908290030181600087803b158015614eeb57600080fd5b505af1158015614eff573d6000803e3d6000fd5b505050506040513d6020811015614f1557600080fd5b5051614f1d57fe5b600554614f3790309084906001600160a01b0316846137bd565b5050565b6000808411614f7b5760405162461bcd60e51b815260040180806020018281038252602b81526020018061557b602b913960400191505060405180910390fd5b600083118015614f8b5750600082115b614fc65760405162461bcd60e51b815260040180806020018281038252602781526020018061546e6027913960400191505060405180910390fd5b6000614fd28486613926565b90506000614fe084876138e4565b9050610f576001828481614ff057fe5b0490615195565b600080826001600160a01b0316846001600160a01b0316141561504b5760405162461bcd60e51b815260040180806020018281038252602481526020018061544a6024913960400191505060405180910390fd5b826001600160a01b0316846001600160a01b03161061506b57828461506e565b83835b90925090506001600160a01b038216612aef576040805162461bcd60e51b815260206004820152601d60248201527f546f6d69537761704c6962726172793a205a45524f5f41444452455353000000604482015290519081900360640190fd5b60008060006150dd8585614ff7565b5090506000806150ee888888613b62565b6001600160a01b0316630902f1ac6040518163ffffffff1660e01b815260040160606040518083038186803b15801561512657600080fd5b505afa15801561513a573d6000803e3d6000fd5b505050506040513d606081101561515057600080fd5b5080516020909101516001600160701b0391821693501690506001600160a01b0387811690841614615183578082615186565b81815b90999098509650505050505050565b60008282018381101561258f576040805162461bcd60e51b815260206004820152601b60248201527f536166654d6174683a206164646974696f6e206f766572666c6f770000000000604482015290519081900360640190fd5b6000818484111561527e5760405162461bcd60e51b81526004018080602001828103825283818151815260200191508051906020019080838360005b8381101561524357818101518382015260200161522b565b50505050905090810190601f1680156152705780820380516001836020036101000a031916815260200191505b509250505060405180910390fd5b505050900390565b60008084116152c65760405162461bcd60e51b81526004018080602001828103825260248152602001806155146024913960400191505060405180910390fd5b6000831180156152d65750600082115b6153115760405162461bcd60e51b815260040180806020018281038252602781526020018061546e6027913960400191505060405180910390fd5b8261531c8584613926565b8161532357fe5b0494935050505056fe544f4d4920504c4154464f524d203a20434845434b20544f4d492f544f4b454e20544f2056414c5545204641494c544f4d4920504c4154464f524d203a2053574150205041495220434f4e46494720434845434b204641494c546f6d69537761704c6962726172793a20494e53554646494349454e545f494e5055545f414d4f554e54544f4d4920504c4154464f524d203a20494e53554646494349454e545f415f414d4f554e54544f4d4920504c4154464f524d203a20494e56414c49445f5041544800000000544f4d4920504c4154464f524d203a20494e53554646494349454e545f425f414d4f554e54544f4d4920504c4154464f524d203a20434845434b20544f4d492f544f4b454e2056414c55452046524f4d204641494c546f6d69537761704c6962726172793a204944454e544943414c5f414444524553534553546f6d69537761704c6962726172793a20494e53554646494349454e545f4c4951554944495459536166654d6174683a206d756c7469706c69636174696f6e206f766572666c6f77544f4d4920504c4154464f524d203a20494e53554646494349454e545f4f55545055545f414d4f554e54544f4d4920504c4154464f524d203a20414444204c4951554944495459205041495220434f4e46494720434845434b204641494c546f6d69537761704c6962726172793a20494e53554646494349454e545f414d4f554e54544f4d4920504c4154464f524d203a20455850495245440000000000000000005472616e7366657248656c7065723a204554485f5452414e534645525f4641494c4544546f6d69537761704c6962726172793a20494e53554646494349454e545f4f55545055545f414d4f554e545472616e7366657248656c7065723a205452414e534645525f46524f4d5f4641494c4544544f4d4920504c4154464f524d203a204558434553534956455f494e5055545f414d4f554e54a26469706673582212200accd4399094156d1cb18a1cd7cc16a9d5edf1fa4dbf0420c3114a9760cb6a5d64736f6c63430007030033",
    "sourcePath": "/Users/apple/Documents/Code/Sota/tomi/tomiswap-core/contracts/TomiPlatform.sol",
    "compiler": {
        "name": "solc",
        "version": "0.7.3+commit.9bfce1f6"
    },
    "functionHashes": {
        "CONFIG()": "d92e82e4",
        "FACTORY()": "2dd31000",
        "GOVERNANCE()": "14627834",
        "PERCENT_DENOMINATOR()": "9e6c2959",
        "POOL()": "7535d246",
        "TOMI()": "c1dfe652",
        "TRANSFER_LISTENER()": "822abc7c",
        "WETH()": "ad5c4648",
        "addLiquidity(address,address,uint256,uint256,uint256,uint256,uint256)": "7ae06e58",
        "addLiquidityETH(address,uint256,uint256,uint256,uint256)": "f6f1e306",
        "changeOwner(address)": "a6f9dae1",
        "checkPath(address,address[])": "525e7e8f",
        "existPair(address,address)": "c2ceddfa",
        "getAmountIn(uint256,uint256,uint256)": "85f8c259",
        "getAmountOut(uint256,uint256,uint256)": "054d50d4",
        "getAmountsIn(uint256,address[])": "1f00ca74",
        "getAmountsOut(uint256,address[])": "d06ca61f",
        "getReserves(address,address)": "d52bb6f4",
        "initialize(address,address,address,address,address,address,address)": "35876476",
        "isPause()": "ff0938a7",
        "migrateLiquidity(address,address,address,address[])": "8b61ff24",
        "owner()": "8da5cb5b",
        "pairFor(address,address)": "96ed28f9",
        "pause()": "8456cb59",
        "removeLiquidity(address,address,uint256,uint256,uint256,address,uint256)": "baa2abde",
        "removeLiquidityETH(address,uint256,uint256,uint256,address,uint256)": "02751cec",
        "resume()": "046f7da2",
        "swapETHForExactTokens(uint256,address[],address,uint256)": "fb3bdb41",
        "swapExactETHForTokens(uint256,address[],address,uint256)": "7ff36ab5",
        "swapExactTokensForETH(uint256,uint256,address[],address,uint256)": "18cbafe5",
        "swapExactTokensForTokens(uint256,uint256,address[],address,uint256)": "38ed1739",
        "swapPrecondition(address)": "ddd377ac",
        "swapTokensForExactETH(uint256,uint256,address[],address,uint256)": "4a25d94a",
        "swapTokensForExactTokens(uint256,uint256,address[],address,uint256)": "8803dbee",
        "version()": "54fd4d50"
    },
    "gasEstimates": {
        "creation": {
            "codeDepositCost": "4410600",
            "executionCost": "45961",
            "totalCost": "4456561"
        },
        "external": {
            "CONFIG()": "1081",
            "FACTORY()": "1127",
            "GOVERNANCE()": "1150",
            "PERCENT_DENOMINATOR()": "265",
            "POOL()": "1082",
            "TOMI()": "1082",
            "TRANSFER_LISTENER()": "1148",
            "WETH()": "1148",
            "addLiquidity(address,address,uint256,uint256,uint256,uint256,uint256)": "infinite",
            "addLiquidityETH(address,uint256,uint256,uint256,uint256)": "infinite",
            "changeOwner(address)": "24391",
            "checkPath(address,address[])": "infinite",
            "existPair(address,address)": "infinite",
            "getAmountIn(uint256,uint256,uint256)": "infinite",
            "getAmountOut(uint256,uint256,uint256)": "infinite",
            "getAmountsIn(uint256,address[])": "infinite",
            "getAmountsOut(uint256,address[])": "infinite",
            "getReserves(address,address)": "infinite",
            "initialize(address,address,address,address,address,address,address)": "147179",
            "isPause()": "1159",
            "migrateLiquidity(address,address,address,address[])": "infinite",
            "owner()": "1149",
            "pairFor(address,address)": "infinite",
            "pause()": "21953",
            "removeLiquidity(address,address,uint256,uint256,uint256,address,uint256)": "infinite",
            "removeLiquidityETH(address,uint256,uint256,uint256,address,uint256)": "infinite",
            "resume()": "21877",
            "swapETHForExactTokens(uint256,address[],address,uint256)": "infinite",
            "swapExactETHForTokens(uint256,address[],address,uint256)": "infinite",
            "swapExactTokensForETH(uint256,uint256,address[],address,uint256)": "infinite",
            "swapExactTokensForTokens(uint256,uint256,address[],address,uint256)": "infinite",
            "swapPrecondition(address)": "infinite",
            "swapTokensForExactETH(uint256,uint256,address[],address,uint256)": "infinite",
            "swapTokensForExactTokens(uint256,uint256,address[],address,uint256)": "infinite",
            "version()": "1110"
        },
        "internal": {
            "_addLiquidity(address,address,uint256,uint256,uint256,uint256)": "infinite",
            "_getAmountsIn(uint256,address[] memory,uint256)": "infinite",
            "_getAmountsOut(uint256,address[] memory,uint256)": "infinite",
            "_getSwapFeePercent()": "infinite",
            "_innerTransferFrom(address,address,address,uint256)": "infinite",
            "_innerTransferWETH(address,uint256)": "infinite",
            "_swap(uint256[] memory,address[] memory,address)": "infinite",
            "_swapFee(uint256[] memory,address[] memory,uint256)": "infinite",
            "_transferNotify(address,address,address,uint256)": "infinite"
        }
    }
}