{
  "address": "0x607B283076a5e5d9e0636c71930537d7FE0AE96C",
  "abi": [
    {
      "inputs": [],
      "stateMutability": "nonpayable",
      "type": "constructor"
    },
    {
      "anonymous": false,
      "inputs": [
        {
          "indexed": true,
          "internalType": "address",
          "name": "owner",
          "type": "address"
        },
        {
          "indexed": true,
          "internalType": "address",
          "name": "spender",
          "type": "address"
        },
        {
          "indexed": false,
          "internalType": "uint256",
          "name": "value",
          "type": "uint256"
        }
      ],
      "name": "Approval",
      "type": "event"
    },
    {
      "anonymous": false,
      "inputs": [
        {
          "indexed": true,
          "internalType": "address",
          "name": "_oldGovernor",
          "type": "address"
        },
        {
          "indexed": true,
          "internalType": "address",
          "name": "_newGovernor",
          "type": "address"
        }
      ],
      "name": "GovernorChanged",
      "type": "event"
    },
    {
      "anonymous": false,
      "inputs": [
        {
          "indexed": true,
          "internalType": "address",
          "name": "_oldImpl",
          "type": "address"
        },
        {
          "indexed": true,
          "internalType": "address",
          "name": "_newImpl",
          "type": "address"
        }
      ],
      "name": "ImplChanged",
      "type": "event"
    },
    {
      "anonymous": false,
      "inputs": [
        {
          "indexed": false,
          "internalType": "uint256",
          "name": "oldValue",
          "type": "uint256"
        },
        {
          "indexed": false,
          "internalType": "uint256",
          "name": "newValue",
          "type": "uint256"
        }
      ],
      "name": "InterestRatePerBlockChanged",
      "type": "event"
    },
    {
      "anonymous": false,
      "inputs": [
        {
          "indexed": true,
          "internalType": "address",
          "name": "user",
          "type": "address"
        },
        {
          "indexed": false,
          "internalType": "uint256",
          "name": "value",
          "type": "uint256"
        }
      ],
      "name": "ProductivityDecreased",
      "type": "event"
    },
    {
      "anonymous": false,
      "inputs": [
        {
          "indexed": true,
          "internalType": "address",
          "name": "user",
          "type": "address"
        },
        {
          "indexed": false,
          "internalType": "uint256",
          "name": "value",
          "type": "uint256"
        }
      ],
      "name": "ProductivityIncreased",
      "type": "event"
    },
    {
      "anonymous": false,
      "inputs": [
        {
          "indexed": true,
          "internalType": "address",
          "name": "from",
          "type": "address"
        },
        {
          "indexed": true,
          "internalType": "address",
          "name": "to",
          "type": "address"
        },
        {
          "indexed": false,
          "internalType": "uint256",
          "name": "value",
          "type": "uint256"
        }
      ],
      "name": "Transfer",
      "type": "event"
    },
    {
      "inputs": [
        {
          "internalType": "address",
          "name": "",
          "type": "address"
        },
        {
          "internalType": "address",
          "name": "",
          "type": "address"
        }
      ],
      "name": "allowance",
      "outputs": [
        {
          "internalType": "uint256",
          "name": "",
          "type": "uint256"
        }
      ],
      "stateMutability": "view",
      "type": "function"
    },
    {
      "inputs": [],
      "name": "amountPerBlock",
      "outputs": [
        {
          "internalType": "uint256",
          "name": "",
          "type": "uint256"
        }
      ],
      "stateMutability": "view",
      "type": "function"
    },
    {
      "inputs": [
        {
          "internalType": "address",
          "name": "spender",
          "type": "address"
        },
        {
          "internalType": "uint256",
          "name": "value",
          "type": "uint256"
        }
      ],
      "name": "approve",
      "outputs": [
        {
          "internalType": "bool",
          "name": "",
          "type": "bool"
        }
      ],
      "stateMutability": "nonpayable",
      "type": "function"
    },
    {
      "inputs": [
        {
          "internalType": "address",
          "name": "",
          "type": "address"
        }
      ],
      "name": "balanceOf",
      "outputs": [
        {
          "internalType": "uint256",
          "name": "",
          "type": "uint256"
        }
      ],
      "stateMutability": "view",
      "type": "function"
    },
    {
      "inputs": [
        {
          "internalType": "uint256",
          "name": "value",
          "type": "uint256"
        }
      ],
      "name": "changeInterestRatePerBlock",
      "outputs": [
        {
          "internalType": "bool",
          "name": "",
          "type": "bool"
        }
      ],
      "stateMutability": "nonpayable",
      "type": "function"
    },
    {
      "inputs": [],
      "name": "decimals",
      "outputs": [
        {
          "internalType": "uint8",
          "name": "",
          "type": "uint8"
        }
      ],
      "stateMutability": "view",
      "type": "function"
    },
    {
      "inputs": [
        {
          "internalType": "address",
          "name": "user",
          "type": "address"
        },
        {
          "internalType": "uint256",
          "name": "value",
          "type": "uint256"
        }
      ],
      "name": "decreaseProductivity",
      "outputs": [
        {
          "internalType": "bool",
          "name": "",
          "type": "bool"
        }
      ],
      "stateMutability": "nonpayable",
      "type": "function"
    },
    {
      "inputs": [
        {
          "internalType": "address",
          "name": "user",
          "type": "address"
        }
      ],
      "name": "getProductivity",
      "outputs": [
        {
          "internalType": "uint256",
          "name": "",
          "type": "uint256"
        },
        {
          "internalType": "uint256",
          "name": "",
          "type": "uint256"
        }
      ],
      "stateMutability": "view",
      "type": "function"
    },
    {
      "inputs": [],
      "name": "governor",
      "outputs": [
        {
          "internalType": "address",
          "name": "",
          "type": "address"
        }
      ],
      "stateMutability": "view",
      "type": "function"
    },
    {
      "inputs": [],
      "name": "impl",
      "outputs": [
        {
          "internalType": "address",
          "name": "",
          "type": "address"
        }
      ],
      "stateMutability": "view",
      "type": "function"
    },
    {
      "inputs": [],
      "name": "incNounce",
      "outputs": [],
      "stateMutability": "nonpayable",
      "type": "function"
    },
    {
      "inputs": [
        {
          "internalType": "address",
          "name": "user",
          "type": "address"
        },
        {
          "internalType": "uint256",
          "name": "value",
          "type": "uint256"
        }
      ],
      "name": "increaseProductivity",
      "outputs": [
        {
          "internalType": "bool",
          "name": "",
          "type": "bool"
        }
      ],
      "stateMutability": "nonpayable",
      "type": "function"
    },
    {
      "inputs": [],
      "name": "interestsPerBlock",
      "outputs": [
        {
          "internalType": "uint256",
          "name": "",
          "type": "uint256"
        }
      ],
      "stateMutability": "view",
      "type": "function"
    },
    {
      "inputs": [],
      "name": "mint",
      "outputs": [
        {
          "internalType": "uint256",
          "name": "",
          "type": "uint256"
        }
      ],
      "stateMutability": "nonpayable",
      "type": "function"
    },
    {
      "inputs": [],
      "name": "mintCumulation",
      "outputs": [
        {
          "internalType": "uint256",
          "name": "",
          "type": "uint256"
        }
      ],
      "stateMutability": "view",
      "type": "function"
    },
    {
      "inputs": [],
      "name": "name",
      "outputs": [
        {
          "internalType": "string",
          "name": "",
          "type": "string"
        }
      ],
      "stateMutability": "view",
      "type": "function"
    },
    {
      "inputs": [],
      "name": "nounce",
      "outputs": [
        {
          "internalType": "uint256",
          "name": "",
          "type": "uint256"
        }
      ],
      "stateMutability": "view",
      "type": "function"
    },
    {
      "inputs": [],
      "name": "symbol",
      "outputs": [
        {
          "internalType": "string",
          "name": "",
          "type": "string"
        }
      ],
      "stateMutability": "view",
      "type": "function"
    },
    {
      "inputs": [],
      "name": "take",
      "outputs": [
        {
          "internalType": "uint256",
          "name": "",
          "type": "uint256"
        }
      ],
      "stateMutability": "view",
      "type": "function"
    },
    {
      "inputs": [
        {
          "internalType": "address",
          "name": "user",
          "type": "address"
        }
      ],
      "name": "takeWithAddress",
      "outputs": [
        {
          "internalType": "uint256",
          "name": "",
          "type": "uint256"
        }
      ],
      "stateMutability": "view",
      "type": "function"
    },
    {
      "inputs": [],
      "name": "takeWithBlock",
      "outputs": [
        {
          "internalType": "uint256",
          "name": "",
          "type": "uint256"
        },
        {
          "internalType": "uint256",
          "name": "",
          "type": "uint256"
        }
      ],
      "stateMutability": "view",
      "type": "function"
    },
    {
      "inputs": [],
      "name": "totalSupply",
      "outputs": [
        {
          "internalType": "uint256",
          "name": "",
          "type": "uint256"
        }
      ],
      "stateMutability": "view",
      "type": "function"
    },
    {
      "inputs": [
        {
          "internalType": "address",
          "name": "to",
          "type": "address"
        },
        {
          "internalType": "uint256",
          "name": "value",
          "type": "uint256"
        }
      ],
      "name": "transfer",
      "outputs": [
        {
          "internalType": "bool",
          "name": "",
          "type": "bool"
        }
      ],
      "stateMutability": "nonpayable",
      "type": "function"
    },
    {
      "inputs": [
        {
          "internalType": "address",
          "name": "from",
          "type": "address"
        },
        {
          "internalType": "address",
          "name": "to",
          "type": "address"
        },
        {
          "internalType": "uint256",
          "name": "value",
          "type": "uint256"
        }
      ],
      "name": "transferFrom",
      "outputs": [
        {
          "internalType": "bool",
          "name": "",
          "type": "bool"
        }
      ],
      "stateMutability": "nonpayable",
      "type": "function"
    },
    {
      "inputs": [
        {
          "internalType": "address",
          "name": "_newGovernor",
          "type": "address"
        }
      ],
      "name": "upgradeGovernance",
      "outputs": [],
      "stateMutability": "nonpayable",
      "type": "function"
    },
    {
      "inputs": [
        {
          "internalType": "address",
          "name": "_newImpl",
          "type": "address"
        }
      ],
      "name": "upgradeImpl",
      "outputs": [],
      "stateMutability": "nonpayable",
      "type": "function"
    },
    {
      "inputs": [
        {
          "internalType": "address",
          "name": "",
          "type": "address"
        }
      ],
      "name": "users",
      "outputs": [
        {
          "internalType": "uint256",
          "name": "amount",
          "type": "uint256"
        },
        {
          "internalType": "uint256",
          "name": "rewardDebt",
          "type": "uint256"
        },
        {
          "internalType": "uint256",
          "name": "rewardEarn",
          "type": "uint256"
        }
      ],
      "stateMutability": "view",
      "type": "function"
    }
  ],
  "transactionHash": "0x1091387bf809a5759def246e4b33f6386d2f9a43f5bf4db379a53dd7e7767bca",
  "args": [],
  "solcInputHash": "6fd9fafb27eecad3e199e40cc6590b7a",
  "bytecode": "0x60806040526007805460ff191660121790553480156200001e57600080fd5b5060408051808201825260098152680546f6d6920537761760bc1b602080830191825283518085019094526004845263544f4d4960e01b9084015260008054336001600160a01b03199182168117909255600180549091169091179055815191929160129168022b1c8c1227a00000916200009c91600591620000fa565b508251620000b2906006906020860190620000fa565b506007805460ff191660ff93909316929092179091556003555050600880546b033b2e3c9fd0803ce8000000908101909155336000908152600960205260409020556200019f565b828054600181600116156101000203166002900490600052602060002090601f016020900481019282601f106200013d57805160ff19168380011785556200016d565b828001600101855582156200016d579182015b828111156200016d57825182559160200191906001019062000150565b506200017b9291506200017f565b5090565b6200019c91905b808211156200017b576000815560010162000186565b90565b6115ef80620001af6000396000f3fe608060405234801561001057600080fd5b50600436106101b95760003560e01c80634afa66d6116100f95780638abf607711610097578063a9059cbb11610071578063a9059cbb146104df578063bfc8b2081461050b578063cf67536514610513578063dd62ed3e1461051b576101b9565b80638abf60771461048b57806395d89b4114610493578063a87430ba1461049b576101b9565b8063616d2463116100d3578063616d24631461041a5780636622c8381461042257806370a08231146104485780637b381b351461046e576101b9565b80634afa66d6146103de5780634c61f0471461040a5780635808b75b14610412576101b9565b806318160ddd1161016657806323b872dd1161014057806323b872dd1461033857806328e964e91461036e578063313ce5671461039457806336f04e45146103b2576101b9565b806318160ddd146102e25780631a2f1363146102ea5780631fedded514610312576101b9565b80630e0b6eb5116101975780630e0b6eb51461029f5780631249c58b146102c0578063159090bd146102da576101b9565b806306fdde03146101be578063095ea7b31461023b5780630c340a241461027b575b600080fd5b6101c6610549565b6040805160208082528351818301528351919283929083019185019080838360005b838110156102005781810151838201526020016101e8565b50505050905090810190601f16801561022d5780820380516001836020036101000a031916815260200191505b509250505060405180910390f35b6102676004803603604081101561025157600080fd5b506001600160a01b0381351690602001356105d7565b604080519115158252519081900360200190f35b61028361063e565b604080516001600160a01b039092168252519081900360200190f35b6102a761064d565b6040805192835260208301919091528051918290030190f35b6102c8610664565b60408051918252519081900360200190f35b6102c8610713565b6102c8610723565b6103106004803603602081101561030057600080fd5b50356001600160a01b0316610729565b005b6103106004803603602081101561032857600080fd5b50356001600160a01b031661087b565b6102676004803603606081101561034e57600080fd5b506001600160a01b038135811691602081013590911690604001356109cf565b6102a76004803603602081101561038457600080fd5b50356001600160a01b0316610a9e565b61039c610abd565b6040805160ff9092168252519081900360200190f35b610267600480360360408110156103c857600080fd5b506001600160a01b038135169060200135610ac6565b610267600480360360408110156103f457600080fd5b506001600160a01b038135169060200135610c1d565b6102c8610d8a565b610310610d90565b6102c8610d9b565b6102c86004803603602081101561043857600080fd5b50356001600160a01b0316610da1565b6102c86004803603602081101561045e57600080fd5b50356001600160a01b0316610e61565b6102676004803603602081101561048457600080fd5b5035610e73565b610283610f6a565b6101c6610f79565b6104c1600480360360208110156104b157600080fd5b50356001600160a01b0316610fd4565b60408051938452602084019290925282820152519081900360600190f35b610267600480360360408110156104f557600080fd5b506001600160a01b038135169060200135610ff5565b6102c861100b565b6102c8611011565b6102c86004803603604081101561053157600080fd5b506001600160a01b0381358116916020013516611017565b6005805460408051602060026001851615610100026000190190941693909304601f810184900484028201840190925281815292918301828280156105cf5780601f106105a4576101008083540402835291602001916105cf565b820191906000526020600020905b8154815290600101906020018083116105b257829003601f168201915b505050505081565b336000818152600a602090815260408083206001600160a01b038716808552908352818420869055815186815291519394909390927f8c5be1e5ebec7d5bd14f71427d1e84f3dd0314c0f7b2291e5b200ac8c7c3b925928290030190a35060015b92915050565b6001546001600160a01b031681565b600080600061065b33610da1565b93439350915050565b600061066e611034565b610677336110df565b336000908152600e60205260409020600201546106db576040805162461bcd60e51b815260206004820152600f60248201527f4e4f5f50524f4455435449564954590000000000000000000000000000000000604482015290519081900360640190fd5b336000818152600e6020526040902060020154906106fb90309083611189565b336000908152600e6020526040812060020155905090565b600061071e33610da1565b905090565b60085481565b6000546001600160a01b03163314610774576040805162461bcd60e51b81526020600482015260096024820152682327a92124a22222a760b91b604482015290519081900360640190fd5b6001600160a01b0381166107cf576040805162461bcd60e51b815260206004820152600f60248201527f494e56414c49445f414444524553530000000000000000000000000000000000604482015290519081900360640190fd5b6000546001600160a01b038281169116141561081e576040805162461bcd60e51b81526020600482015260096024820152684e4f5f4348414e474560b81b604482015290519081900360640190fd5b600080546001600160a01b0383811673ffffffffffffffffffffffffffffffffffffffff19831681178455604051919092169283917faad46b89531ed10d02d926f4d6bfe234a6126e3fffc02d3b07167575f9c143379190a35050565b6001546001600160a01b031633146108c6576040805162461bcd60e51b81526020600482015260096024820152682327a92124a22222a760b91b604482015290519081900360640190fd5b6001600160a01b038116610921576040805162461bcd60e51b815260206004820152600f60248201527f494e56414c49445f414444524553530000000000000000000000000000000000604482015290519081900360640190fd5b6001546001600160a01b0382811691161415610970576040805162461bcd60e51b81526020600482015260096024820152684e4f5f4348414e474560b81b604482015290519081900360640190fd5b600180546001600160a01b0383811673ffffffffffffffffffffffffffffffffffffffff19831681179093556040519116919082907fde4b3f61490b74c0ed6237523974fe299126bbbf8a8a7482fd220104c59b0c8490600090a35050565b6001600160a01b0383166000908152600a60209081526040808320338452909152812054821115610a315760405162461bcd60e51b815260040180806020018281038252602281526020018061154b6022913960400191505060405180910390fd5b6001600160a01b0384166000908152600a60209081526040808320338452909152902054610a65908363ffffffff6112db16565b6001600160a01b0385166000908152600a60209081526040808320338452909152902055610a94848484611189565b5060019392505050565b6001600160a01b03166000908152600e6020526040902054600c549091565b60075460ff1681565b600080546001600160a01b03163314610b12576040805162461bcd60e51b81526020600482015260096024820152682327a92124a22222a760b91b604482015290519081900360640190fd5b60008211610b515760405162461bcd60e51b815260040180806020018281038252602c81526020018061158e602c913960400191505060405180910390fd5b6001600160a01b0383166000908152600e60205260409020610b71611034565b610b7a846110df565b600c54610b8d908463ffffffff61132416565b600c558054610ba2908463ffffffff61132416565b808255600d54610bcf9164e8d4a5100091610bc3919063ffffffff61137e16565b9063ffffffff6113d716565b60018201556040805184815290516001600160a01b038616917f6c0a24b06ee7f1d9c3c6680c7328531c32bc59cd665436fc686f973cb8c01be7919081900360200190a25060019392505050565b600080546001600160a01b03163314610c69576040805162461bcd60e51b81526020600482015260096024820152682327a92124a22222a760b91b604482015290519081900360640190fd5b6001600160a01b0383166000908152600e602052604090208215801590610c91575080548311155b610ce2576040805162461bcd60e51b815260206004820152601960248201527f494e53554646494349454e545f50524f44554354495649545900000000000000604482015290519081900360640190fd5b610cea611034565b610cf3846110df565b8054610d05908463ffffffff6112db16565b808255600d54610d269164e8d4a5100091610bc3919063ffffffff61137e16565b6001820155600c54610d3e908463ffffffff6112db16565b600c556040805184815290516001600160a01b038616917fddb757202feefdd10c1666f1bb8f9744309ab811b6ef3ec0404a20c36e426697919081900360200190a25060019392505050565b60035481565b600480546001019055565b60045481565b6001600160a01b0381166000908152600e60205260408120600d54600b5443118015610dce5750600c5415155b15610e11576000610ddd611419565b9050610e0d610e00600c54610bc364e8d4a510008561137e90919063ffffffff16565b839063ffffffff61132416565b9150505b610e598260020154610e4d8460010154610e4164e8d4a51000610bc387896000015461137e90919063ffffffff16565b9063ffffffff6112db16565b9063ffffffff61132416565b949350505050565b60096020526000908152604090205481565b6001546000906001600160a01b03163314610ec1576040805162461bcd60e51b81526020600482015260096024820152682327a92124a22222a760b91b604482015290519081900360640190fd5b60035482811415610f19576040805162461bcd60e51b815260206004820152601a60248201527f414d4f554e545f5045525f424c4f434b5f4e4f5f4348414e4745000000000000604482015290519081900360640190fd5b610f21611034565b6003839055604080518281526020810185905281517fc44c80d7c6ac73ee13b2c62e50522dadb6c646b4509ca93e52a45abb38a78e33929181900390910190a150600192915050565b6000546001600160a01b031681565b6006805460408051602060026001851615610100026000190190941693909304601f810184900484028201840190925281815292918301828280156105cf5780601f106105a4576101008083540402835291602001916105cf565b600e6020526000908152604090208054600182015460029092015490919083565b6000611002338484611189565b50600192915050565b600d5490565b60025481565b600a60209081526000928352604080842090915290825290205481565b600b544311611042576110dd565b600c546110525743600b556110dd565b600061105c611419565b3060009081526009602052604090205490915061107f908263ffffffff61132416565b306000908152600960205260409020556008546110a2908263ffffffff61132416565b600855600c546110d4906110c590610bc38464e8d4a5100063ffffffff61137e16565b600d549063ffffffff61132416565b600d555043600b555b565b6001600160a01b0381166000908152600e6020526040902080541561118557600061112a8260010154610e4164e8d4a51000610bc3600d54876000015461137e90919063ffffffff16565b6002830154909150611142908263ffffffff61132416565b6002808401919091555461115c908263ffffffff61132416565b600255600d54825461117e9164e8d4a5100091610bc39163ffffffff61137e16565b6001830155505b5050565b6001600160a01b0383166000908152600960205260409020548111156111f6576040805162461bcd60e51b815260206004820181905260248201527f4552433230546f6b656e3a20494e53554646494349454e545f42414c414e4345604482015290519081900360640190fd5b6001600160a01b03831660009081526009602052604090205461121f908263ffffffff6112db16565b6001600160a01b038085166000908152600960205260408082209390935590841681522054611254908263ffffffff61132416565b6001600160a01b03831660008181526009602052604090209190915561128b57600854611287908263ffffffff6112db16565b6008555b816001600160a01b0316836001600160a01b03167fddf252ad1be2c89b69c2b068fc378daa952ba7f163c4a11628f55a4df523b3ef836040518082815260200191505060405180910390a3505050565b600061131d83836040518060400160405280601e81526020017f536166654d6174683a207375627472616374696f6e206f766572666c6f77000081525061144e565b9392505050565b60008282018381101561131d576040805162461bcd60e51b815260206004820152601b60248201527f536166654d6174683a206164646974696f6e206f766572666c6f770000000000604482015290519081900360640190fd5b60008261138d57506000610638565b8282028284828161139a57fe5b041461131d5760405162461bcd60e51b815260040180806020018281038252602181526020018061156d6021913960400191505060405180910390fd5b600061131d83836040518060400160405280601a81526020017f536166654d6174683a206469766973696f6e206279207a65726f0000000000008152506114e5565b600080611431600b54436112db90919063ffffffff16565b90506114486003548261137e90919063ffffffff16565b91505090565b600081848411156114dd5760405162461bcd60e51b81526004018080602001828103825283818151815260200191508051906020019080838360005b838110156114a257818101518382015260200161148a565b50505050905090810190601f1680156114cf5780820380516001836020036101000a031916815260200191505b509250505060405180910390fd5b505050900390565b600081836115345760405162461bcd60e51b81526020600482018181528351602484015283519092839260449091019190850190808383600083156114a257818101518382015260200161148a565b50600083858161154057fe5b049594505050505056fe4552433230546f6b656e3a20494e53554646494349454e545f414c4c4f57414e4345536166654d6174683a206d756c7469706c69636174696f6e206f766572666c6f7750524f4455435449564954595f56414c55455f4d5553545f42455f475245415445525f5448414e5f5a45524fa2646970667358221220262aadec6afdebd32481b5e433bc0fc2df4a7c5360e22d003c89e28af50ecad864736f6c63430006060033",
  "devdoc": {
    "methods": {}
  },
  "userdoc": {
    "methods": {}
  },
  "storageLayout": {
    "storage": [
      {
        "astId": 15495,
        "contract": "contracts/Tgas.sol:Tgas",
        "label": "impl",
        "offset": 0,
        "slot": "0",
        "type": "t_address"
      },
      {
        "astId": 15563,
        "contract": "contracts/Tgas.sol:Tgas",
        "label": "governor",
        "offset": 0,
        "slot": "1",
        "type": "t_address"
      },
      {
        "astId": 13920,
        "contract": "contracts/Tgas.sol:Tgas",
        "label": "mintCumulation",
        "offset": 0,
        "slot": "2",
        "type": "t_uint256"
      },
      {
        "astId": 13922,
        "contract": "contracts/Tgas.sol:Tgas",
        "label": "amountPerBlock",
        "offset": 0,
        "slot": "3",
        "type": "t_uint256"
      },
      {
        "astId": 13924,
        "contract": "contracts/Tgas.sol:Tgas",
        "label": "nounce",
        "offset": 0,
        "slot": "4",
        "type": "t_uint256"
      },
      {
        "astId": 13934,
        "contract": "contracts/Tgas.sol:Tgas",
        "label": "name",
        "offset": 0,
        "slot": "5",
        "type": "t_string_storage"
      },
      {
        "astId": 13937,
        "contract": "contracts/Tgas.sol:Tgas",
        "label": "symbol",
        "offset": 0,
        "slot": "6",
        "type": "t_string_storage"
      },
      {
        "astId": 13941,
        "contract": "contracts/Tgas.sol:Tgas",
        "label": "decimals",
        "offset": 0,
        "slot": "7",
        "type": "t_uint8"
      },
      {
        "astId": 13944,
        "contract": "contracts/Tgas.sol:Tgas",
        "label": "totalSupply",
        "offset": 0,
        "slot": "8",
        "type": "t_uint256"
      },
      {
        "astId": 13949,
        "contract": "contracts/Tgas.sol:Tgas",
        "label": "balanceOf",
        "offset": 0,
        "slot": "9",
        "type": "t_mapping(t_address,t_uint256)"
      },
      {
        "astId": 13956,
        "contract": "contracts/Tgas.sol:Tgas",
        "label": "allowance",
        "offset": 0,
        "slot": "10",
        "type": "t_mapping(t_address,t_mapping(t_address,t_uint256))"
      },
      {
        "astId": 14119,
        "contract": "contracts/Tgas.sol:Tgas",
        "label": "lastRewardBlock",
        "offset": 0,
        "slot": "11",
        "type": "t_uint256"
      },
      {
        "astId": 14121,
        "contract": "contracts/Tgas.sol:Tgas",
        "label": "totalProductivity",
        "offset": 0,
        "slot": "12",
        "type": "t_uint256"
      },
      {
        "astId": 14123,
        "contract": "contracts/Tgas.sol:Tgas",
        "label": "accAmountPerShare",
        "offset": 0,
        "slot": "13",
        "type": "t_uint256"
      },
      {
        "astId": 14134,
        "contract": "contracts/Tgas.sol:Tgas",
        "label": "users",
        "offset": 0,
        "slot": "14",
        "type": "t_mapping(t_address,t_struct(UserInfo)14130_storage)"
      }
    ],
    "types": {
      "t_address": {
        "encoding": "inplace",
        "label": "address",
        "numberOfBytes": "20"
      },
      "t_mapping(t_address,t_mapping(t_address,t_uint256))": {
        "encoding": "mapping",
        "key": "t_address",
        "label": "mapping(address => mapping(address => uint256))",
        "numberOfBytes": "32",
        "value": "t_mapping(t_address,t_uint256)"
      },
      "t_mapping(t_address,t_struct(UserInfo)14130_storage)": {
        "encoding": "mapping",
        "key": "t_address",
        "label": "mapping(address => struct ERC2917Impl.UserInfo)",
        "numberOfBytes": "32",
        "value": "t_struct(UserInfo)14130_storage"
      },
      "t_mapping(t_address,t_uint256)": {
        "encoding": "mapping",
        "key": "t_address",
        "label": "mapping(address => uint256)",
        "numberOfBytes": "32",
        "value": "t_uint256"
      },
      "t_string_storage": {
        "encoding": "bytes",
        "label": "string",
        "numberOfBytes": "32"
      },
      "t_struct(UserInfo)14130_storage": {
        "encoding": "inplace",
        "label": "struct ERC2917Impl.UserInfo",
        "members": [
          {
            "astId": 14125,
            "contract": "contracts/Tgas.sol:Tgas",
            "label": "amount",
            "offset": 0,
            "slot": "0",
            "type": "t_uint256"
          },
          {
            "astId": 14127,
            "contract": "contracts/Tgas.sol:Tgas",
            "label": "rewardDebt",
            "offset": 0,
            "slot": "1",
            "type": "t_uint256"
          },
          {
            "astId": 14129,
            "contract": "contracts/Tgas.sol:Tgas",
            "label": "rewardEarn",
            "offset": 0,
            "slot": "2",
            "type": "t_uint256"
          }
        ],
        "numberOfBytes": "96"
      },
      "t_uint256": {
        "encoding": "inplace",
        "label": "uint256",
        "numberOfBytes": "32"
      },
      "t_uint8": {
        "encoding": "inplace",
        "label": "uint8",
        "numberOfBytes": "1"
      }
    }
  }
}