{
  "address": "0xE1d4a75da90413Cd889D27d870Bf68AA4716d018",
  "abi": [
    {
      "anonymous": false,
      "inputs": [
        {
          "indexed": true,
          "internalType": "address",
          "name": "pair",
          "type": "address"
        },
        {
          "indexed": false,
          "internalType": "uint256",
          "name": "amount",
          "type": "uint256"
        }
      ],
      "name": "AddReward",
      "type": "event"
    },
    {
      "anonymous": false,
      "inputs": [
        {
          "indexed": true,
          "internalType": "address",
          "name": "user",
          "type": "address"
        },
        {
          "indexed": true,
          "internalType": "address",
          "name": "pair",
          "type": "address"
        },
        {
          "indexed": true,
          "internalType": "address",
          "name": "rewardToken",
          "type": "address"
        },
        {
          "indexed": false,
          "internalType": "uint256",
          "name": "amountTGAS",
          "type": "uint256"
        }
      ],
      "name": "ClaimReward",
      "type": "event"
    },
    {
      "anonymous": false,
      "inputs": [
        {
          "indexed": true,
          "internalType": "address",
          "name": "_oldOwner",
          "type": "address"
        },
        {
          "indexed": true,
          "internalType": "address",
          "name": "_newOwner",
          "type": "address"
        }
      ],
      "name": "OwnerChanged",
      "type": "event"
    },
    {
      "inputs": [],
      "name": "CONFIG",
      "outputs": [
        {
          "internalType": "address",
          "name": "",
          "type": "address"
        }
      ],
      "stateMutability": "view",
      "type": "function"
    },
    {
      "inputs": [],
      "name": "FACTORY",
      "outputs": [
        {
          "internalType": "address",
          "name": "",
          "type": "address"
        }
      ],
      "stateMutability": "view",
      "type": "function"
    },
    {
      "inputs": [],
      "name": "GOVERNANCE",
      "outputs": [
        {
          "internalType": "address",
          "name": "",
          "type": "address"
        }
      ],
      "stateMutability": "view",
      "type": "function"
    },
    {
      "inputs": [],
      "name": "PLATFORM",
      "outputs": [
        {
          "internalType": "address",
          "name": "",
          "type": "address"
        }
      ],
      "stateMutability": "view",
      "type": "function"
    },
    {
      "inputs": [],
      "name": "TGAS",
      "outputs": [
        {
          "internalType": "address",
          "name": "",
          "type": "address"
        }
      ],
      "stateMutability": "view",
      "type": "function"
    },
    {
      "inputs": [],
      "name": "WETH",
      "outputs": [
        {
          "internalType": "address",
          "name": "",
          "type": "address"
        }
      ],
      "stateMutability": "view",
      "type": "function"
    },
    {
      "inputs": [
        {
          "internalType": "address",
          "name": "_pair",
          "type": "address"
        },
        {
          "internalType": "uint256",
          "name": "_amount",
          "type": "uint256"
        }
      ],
      "name": "addReward",
      "outputs": [],
      "stateMutability": "nonpayable",
      "type": "function"
    },
    {
      "inputs": [
        {
          "internalType": "address",
          "name": "_pair",
          "type": "address"
        },
        {
          "internalType": "uint256",
          "name": "_amount",
          "type": "uint256"
        }
      ],
      "name": "addRewardFromPlatform",
      "outputs": [],
      "stateMutability": "nonpayable",
      "type": "function"
    },
    {
      "inputs": [
        {
          "internalType": "address",
          "name": "_newOwner",
          "type": "address"
        }
      ],
      "name": "changeOwner",
      "outputs": [],
      "stateMutability": "nonpayable",
      "type": "function"
    },
    {
      "inputs": [
        {
          "internalType": "address",
          "name": "_pair",
          "type": "address"
        },
        {
          "internalType": "address",
          "name": "_rewardToken",
          "type": "address"
        }
      ],
      "name": "claimReward",
      "outputs": [],
      "stateMutability": "nonpayable",
      "type": "function"
    },
    {
      "inputs": [
        {
          "internalType": "address",
          "name": "_TGAS",
          "type": "address"
        },
        {
          "internalType": "address",
          "name": "_WETH",
          "type": "address"
        },
        {
          "internalType": "address",
          "name": "_FACTORY",
          "type": "address"
        },
        {
          "internalType": "address",
          "name": "_PLATFORM",
          "type": "address"
        },
        {
          "internalType": "address",
          "name": "_CONFIG",
          "type": "address"
        },
        {
          "internalType": "address",
          "name": "_GOVERNANCE",
          "type": "address"
        }
      ],
      "name": "initialize",
      "outputs": [],
      "stateMutability": "nonpayable",
      "type": "function"
    },
    {
      "inputs": [],
      "name": "owner",
      "outputs": [
        {
          "internalType": "address",
          "name": "",
          "type": "address"
        }
      ],
      "stateMutability": "view",
      "type": "function"
    },
    {
      "inputs": [
        {
          "internalType": "address",
          "name": "",
          "type": "address"
        }
      ],
      "name": "pairAmountPerShare",
      "outputs": [
        {
          "internalType": "uint256",
          "name": "",
          "type": "uint256"
        }
      ],
      "stateMutability": "view",
      "type": "function"
    },
    {
      "inputs": [
        {
          "internalType": "address",
          "name": "",
          "type": "address"
        }
      ],
      "name": "pairReward",
      "outputs": [
        {
          "internalType": "uint256",
          "name": "",
          "type": "uint256"
        }
      ],
      "stateMutability": "view",
      "type": "function"
    },
    {
      "inputs": [
        {
          "internalType": "address",
          "name": "_pair",
          "type": "address"
        },
        {
          "internalType": "address",
          "name": "_user",
          "type": "address"
        }
      ],
      "name": "postProductivityChanged",
      "outputs": [],
      "stateMutability": "nonpayable",
      "type": "function"
    },
    {
      "inputs": [
        {
          "internalType": "address",
          "name": "_pair",
          "type": "address"
        },
        {
          "internalType": "address",
          "name": "_user",
          "type": "address"
        }
      ],
      "name": "preProductivityChanged",
      "outputs": [],
      "stateMutability": "nonpayable",
      "type": "function"
    },
    {
      "inputs": [
        {
          "internalType": "address",
          "name": "_pair",
          "type": "address"
        },
        {
          "internalType": "address",
          "name": "_user",
          "type": "address"
        }
      ],
      "name": "queryReward",
      "outputs": [
        {
          "internalType": "uint256",
          "name": "",
          "type": "uint256"
        }
      ],
      "stateMutability": "view",
      "type": "function"
    },
    {
      "inputs": [],
      "name": "totalReward",
      "outputs": [
        {
          "internalType": "uint256",
          "name": "",
          "type": "uint256"
        }
      ],
      "stateMutability": "view",
      "type": "function"
    },
    {
      "inputs": [
        {
          "internalType": "address",
          "name": "_newPool",
          "type": "address"
        },
        {
          "internalType": "address[]",
          "name": "_pairs",
          "type": "address[]"
        }
      ],
      "name": "upgrade",
      "outputs": [],
      "stateMutability": "nonpayable",
      "type": "function"
    },
    {
      "inputs": [
        {
          "internalType": "address",
          "name": "",
          "type": "address"
        },
        {
          "internalType": "address",
          "name": "",
          "type": "address"
        }
      ],
      "name": "users",
      "outputs": [
        {
          "internalType": "uint256",
          "name": "rewardDebt",
          "type": "uint256"
        },
        {
          "internalType": "uint256",
          "name": "rewardEarn",
          "type": "uint256"
        }
      ],
      "stateMutability": "view",
      "type": "function"
    }
  ],
  "transactionHash": "0xff2bde7dbd53f72da5fcc02293df4af23de582153a9ebcbc371023d4c1be36d0",
  "args": [],
  "solcInputHash": "6fd9fafb27eecad3e199e40cc6590b7a",
  "bytecode": "0x6080604052600080546001600160a01b0319163317905561247d806100256000396000f3fe608060405234801561001057600080fd5b506004361061016c5760003560e01c8063a6f9dae1116100cd578063d14cac1a11610081578063e60a6a0b11610066578063e60a6a0b14610400578063e80ee4fc1461042c578063e8c04d42146104525761016c565b8063d14cac1a146103ca578063d92e82e4146103f85761016c565b8063aabacc22116100b2578063aabacc2214610346578063ad5c464814610374578063cc2a9a5b1461037c5761016c565b8063a6f9dae1146102a0578063a9f005b8146102c65761016c565b80635e80536a116101245780637efc77fa116101095780637efc77fa146102645780638da5cb5b1461026c5780639feb8f50146102745761016c565b80635e80536a14610215578063750142e61461025c5761016c565b80632dd31000116101555780632dd310001461019d5780632f534ba8146101a55780634953c782146101e55761016c565b80630c7390a8146101715780631462783414610195575b600080fd5b610179610478565b604080516001600160a01b039092168252519081900360200190f35b610179610487565b610179610496565b6101d3600480360360408110156101bb57600080fd5b506001600160a01b03813581169160200135166104a5565b60408051918252519081900360200190f35b610213600480360360408110156101fb57600080fd5b506001600160a01b0381358116916020013516610694565b005b6102436004803603604081101561022b57600080fd5b506001600160a01b0381358116916020013516610eb3565b6040805192835260208301919091528051918290030190f35b6101d3610ed7565b610179610edd565b610179610eec565b6102136004803603604081101561028a57600080fd5b506001600160a01b038135169060200135610efb565b610213600480360360208110156102b657600080fd5b50356001600160a01b0316611024565b610213600480360360408110156102dc57600080fd5b6001600160a01b03823516919081019060408101602082013564010000000081111561030757600080fd5b82018360208201111561031957600080fd5b8035906020019184602083028401116401000000008311171561033b57600080fd5b50909250905061113b565b6102136004803603604081101561035c57600080fd5b506001600160a01b03813581169160200135166113e9565b610179611456565b610213600480360360c081101561039257600080fd5b506001600160a01b038135811691602081013582169160408201358116916060810135821691608082013581169160a0013516611465565b610213600480360360408110156103e057600080fd5b506001600160a01b0381358116916020013516611535565b610179611662565b6102136004803603604081101561041657600080fd5b506001600160a01b038135169060200135611671565b6101d36004803603602081101561044257600080fd5b50356001600160a01b0316611a62565b6101d36004803603602081101561046857600080fd5b50356001600160a01b0316611a74565b6001546001600160a01b031681565b6006546001600160a01b031681565b6002546001600160a01b031681565b6002546040805163e5e31b1360e01b81526001600160a01b0385811660048301529151600093929092169163e5e31b1391602480820192602092909190829003018186803b1580156104f657600080fd5b505afa15801561050a573d6000803e3d6000fd5b505050506040513d602081101561052057600080fd5b505161056d576040805162461bcd60e51b81526020600482015260176024820152762a27a6a4902827a7a61d1024a72b20a624a2102820a4a960491b604482015290519081900360640190fd5b6105756123e8565b503360009081526008602090815260408083206001600160a01b0387811680865291845282852083518085018552815481526001909101548186015283516370a0823160e01b81529188166004830152925192949391926370a0823192602480840193919291829003018186803b1580156105ef57600080fd5b505afa158015610603573d6000803e3d6000fd5b505050506040513d602081101561061957600080fd5b505182516020848101516001600160a01b038916600090815260099092526040909120549293506106899261067d91906106719064e8d4a510009061066590889063ffffffff611a8616565b9063ffffffff611ae616565b9063ffffffff611b2816565b9063ffffffff611b8216565b925050505b92915050565b61069e8233611bc4565b3360009081526008602090815260408083206001600160a01b038616845282528083206001810154600a9093529220546106de908263ffffffff611b8216565b6001600160a01b0385166000908152600a602052604090205560075461070a908263ffffffff611b8216565b6007558061075f576040805162461bcd60e51b815260206004820152600f60248201527f4e4f5448494e4720544f204d494e540000000000000000000000000000000000604482015290519081900360640190fd5b6001546001600160a01b03848116911614156107915760015461078c906001600160a01b03163383611da2565b610e60565b6004546001600160a01b0384811691161415610b04576002546040805163e5e31b1360e01b81526001600160a01b0387811660048301529151919092169163e5e31b13916024808301926020929190829003018186803b1580156107f457600080fd5b505afa158015610808573d6000803e3d6000fd5b505050506040513d602081101561081e57600080fd5b505161086b576040805162461bcd60e51b81526020600482015260176024820152762a27a6a4902827a7a61d1024a72b20a624a2102820a4a960491b604482015290519081900360640190fd5b6001546003546040805163095ea7b360e01b81526001600160a01b039283166004820152602481018590529051919092169163095ea7b39160448083019260209291908290030181600087803b1580156108c457600080fd5b505af11580156108d8573d6000803e3d6000fd5b505050506040513d60208110156108ee57600080fd5b50506040805160028082526060808301845292602083019080368337505060015482519293506001600160a01b03169183915060009061092a57fe5b6001600160a01b03928316602091820292909201015260045482519116908290600190811061095557fe5b6001600160a01b039283166020918202929092018101919091526003546040517f18cbafe5000000000000000000000000000000000000000000000000000000008152600481018681526000602483018190523360648401819052426001016084850181905260a060448601908152895160a4870152895196909816976318cbafe5978b9794968b96949593949360c49091019187810191028083838b5b83811015610a0b5781810151838201526020016109f3565b505050509050019650505050505050600060405180830381600087803b158015610a3457600080fd5b505af1158015610a48573d6000803e3d6000fd5b505050506040513d6000823e601f3d908101601f191682016040526020811015610a7157600080fd5b8101908080516040519392919084640100000000821115610a9157600080fd5b908301906020820185811115610aa657600080fd5b8251866020820283011164010000000082111715610ac357600080fd5b82525081516020918201928201910280838360005b83811015610af0578181015183820152602001610ad8565b505050509050016040525050505050610e60565b6002546040805163e5e31b1360e01b81526001600160a01b0387811660048301529151919092169163e5e31b13916024808301926020929190829003018186803b158015610b5157600080fd5b505afa158015610b65573d6000803e3d6000fd5b505050506040513d6020811015610b7b57600080fd5b5051610bc8576040805162461bcd60e51b81526020600482015260176024820152762a27a6a4902827a7a61d1024a72b20a624a2102820a4a960491b604482015290519081900360640190fd5b6001546003546040805163095ea7b360e01b81526001600160a01b039283166004820152602481018590529051919092169163095ea7b39160448083019260209291908290030181600087803b158015610c2157600080fd5b505af1158015610c35573d6000803e3d6000fd5b505050506040513d6020811015610c4b57600080fd5b50506040805160028082526060808301845292602083019080368337505060015482519293506001600160a01b031691839150600090610c8757fe5b60200260200101906001600160a01b031690816001600160a01b0316815250508381600181518110610cb557fe5b6001600160a01b039283166020918202929092018101919091526003546040517f38ed1739000000000000000000000000000000000000000000000000000000008152600481018681526000602483018190523360648401819052426001016084850181905260a060448601908152895160a4870152895196909816976338ed1739978b9794968b96949593949360c49091019187810191028083838b5b83811015610d6b578181015183820152602001610d53565b505050509050019650505050505050600060405180830381600087803b158015610d9457600080fd5b505af1158015610da8573d6000803e3d6000fd5b505050506040513d6000823e601f3d908101601f191682016040526020811015610dd157600080fd5b8101908080516040519392919084640100000000821115610df157600080fd5b908301906020820185811115610e0657600080fd5b8251866020820283011164010000000082111715610e2357600080fd5b82525081516020918201928201910280838360005b83811015610e50578181015183820152602001610e38565b5050505090500160405250505050505b600060018301556040805182815290516001600160a01b03808616929087169133917ff9ce28130cf0ab6ae397696b8e3f3c22063af7b518a2d85c64520eadcb39155f919081900360200190a450505050565b60086020908152600092835260408084209091529082529020805460019091015482565b60075481565b6003546001600160a01b031681565b6000546001600160a01b031681565b600154610f13906001600160a01b0316333084611f3a565b6002546040805163e5e31b1360e01b81526001600160a01b0385811660048301529151919092169163e5e31b13916024808301926020929190829003018186803b158015610f6057600080fd5b505afa158015610f74573d6000803e3d6000fd5b505050506040513d6020811015610f8a57600080fd5b5051610fd7576040805162461bcd60e51b81526020600482015260176024820152762a27a6a4902827a7a61d1024a72b20a624a2102820a4a960491b604482015290519081900360640190fd5b610fe182826120c5565b6040805182815290516001600160a01b038416917f9f15a78649bd76613c4a49ca8a67ae948862a0eee791ca3d0380853f9afa624f919081900360200190a25050565b6000546001600160a01b03163314611078576040805162461bcd60e51b815260206004820152601260248201527127bbb730b136329d102327a92124a22222a760711b604482015290519081900360640190fd5b6001600160a01b0381166110d3576040805162461bcd60e51b815260206004820152601860248201527f4f776e61626c653a20494e56414c49445f414444524553530000000000000000604482015290519081900360640190fd5b600080546040516001600160a01b03808516939216917fb532073b38c83145e3e5135377a08bf9aab55bc0fd7c1179cd4fb995d2a5159c91a36000805473ffffffffffffffffffffffffffffffffffffffff19166001600160a01b0392909216919091179055565b6000546001600160a01b0316331461118f576040805162461bcd60e51b815260206004820152601260248201527127bbb730b136329d102327a92124a22222a760711b604482015290519081900360640190fd5b6001546007546040805163095ea7b360e01b81526001600160a01b03878116600483015260248201939093529051919092169163095ea7b39160448083019260209291908290030181600087803b1580156111e957600080fd5b505af11580156111fd573d6000803e3d6000fd5b505050506040513d602081101561121357600080fd5b50600090505b818110156113e3576000600a600085858581811061123357fe5b905060200201356001600160a01b03166001600160a01b03166001600160a01b031681526020019081526020016000205411156113db57836001600160a01b0316639feb8f5084848481811061128557fe5b905060200201356001600160a01b0316600a60008787878181106112a557fe5b905060200201356001600160a01b03166001600160a01b03166001600160a01b03168152602001908152602001600020546040518363ffffffff1660e01b815260040180836001600160a01b03166001600160a01b0316815260200182815260200192505050600060405180830381600087803b15801561132557600080fd5b505af1158015611339573d6000803e3d6000fd5b50505050611392600a600085858581811061135057fe5b905060200201356001600160a01b03166001600160a01b03166001600160a01b0316815260200190815260200160002054600754611b8290919063ffffffff16565b6007556000600a818585858181106113a657fe5b905060200201356001600160a01b03166001600160a01b03166001600160a01b03168152602001908152602001600020819055505b600101611219565b50505050565b6003546001600160a01b03163314611448576040805162461bcd60e51b815260206004820152601460248201527f544f4d4920504f4f4c3a20464f5242494444454e000000000000000000000000604482015290519081900360640190fd5b6114528282611bc4565b5050565b6004546001600160a01b031681565b6000546001600160a01b031633146114b9576040805162461bcd60e51b815260206004820152601260248201527127bbb730b136329d102327a92124a22222a760711b604482015290519081900360640190fd5b6001805473ffffffffffffffffffffffffffffffffffffffff199081166001600160a01b0398891617909155600480548216968816969096179095556002805486169487169490941790935560038054851692861692909217909155600580548416918516919091179055600680549092169216919091179055565b6003546001600160a01b03163314611594576040805162461bcd60e51b815260206004820152601460248201527f544f4d4920504f4f4c3a20464f5242494444454e000000000000000000000000604482015290519081900360640190fd5b6002546040805163e5e31b1360e01b81526001600160a01b0385811660048301529151919092169163e5e31b13916024808301926020929190829003018186803b1580156115e157600080fd5b505afa1580156115f5573d6000803e3d6000fd5b505050506040513d602081101561160b57600080fd5b5051611658576040805162461bcd60e51b81526020600482015260176024820152762a27a6a4902827a7a61d1024a72b20a624a2102820a4a960491b604482015290519081900360640190fd5b6114528282612201565b6005546001600160a01b031681565b6003546001600160a01b031633146116d0576040805162461bcd60e51b815260206004820152601460248201527f544f4d4920504f4f4c3a20464f5242494444454e000000000000000000000000604482015290519081900360640190fd5b600154604080516370a0823160e01b815230600482015290516000926001600160a01b0316916370a08231916024808301926020929190829003018186803b15801561171b57600080fd5b505afa15801561172f573d6000803e3d6000fd5b505050506040513d602081101561174557600080fd5b5051600754909150829061176090839063ffffffff611b8216565b10156117b3576040805162461bcd60e51b815260206004820152601c60248201527f544f4d4920504f4f4c3a204144445f5245574152445f45584345454400000000604482015290519081900360640190fd5b600061187061271061066585600560009054906101000a90046001600160a01b03166001600160a01b031663c199de327f4645455f4c505f5245574152445f50455243454e5400000000000000000000006040518263ffffffff1660e01b81526004018082815260200191505060206040518083038186803b15801561183857600080fd5b505afa15801561184c573d6000803e3d6000fd5b505050506040513d602081101561186257600080fd5b50519063ffffffff611a8616565b905061187c84826120c5565b600061188e848363ffffffff611b8216565b600554604080517fc199de320000000000000000000000000000000000000000000000000000000081527f4645455f474f5645524e414e43455f5245574152445f50455243454e540000006004820152905192935060009261192392612710926106659287926001600160a01b03169163c199de32916024808301926020929190829003018186803b15801561183857600080fd5b905080156119dc57600154600654611948916001600160a01b03908116911683611da2565b600654604080517f74de4ec40000000000000000000000000000000000000000000000000000000081526004810184905290516001600160a01b03909216916374de4ec4916024808201926020929091908290030181600087803b1580156119af57600080fd5b505af11580156119c3573d6000803e3d6000fd5b505050506040513d60208110156119d957600080fd5b50505b60006119ee838363ffffffff611b8216565b1115611a1b57600154611a1b906001600160a01b03166000611a16858563ffffffff611b8216565b611da2565b6040805184815290516001600160a01b038816917f9f15a78649bd76613c4a49ca8a67ae948862a0eee791ca3d0380853f9afa624f919081900360200190a2505050505050565b600a6020526000908152604090205481565b60096020526000908152604090205481565b600082611a955750600061068e565b82820282848281611aa257fe5b0414611adf5760405162461bcd60e51b81526004018080602001828103825260218152602001806124036021913960400191505060405180910390fd5b9392505050565b6000611adf83836040518060400160405280601a81526020017f536166654d6174683a206469766973696f6e206279207a65726f0000000000008152506122ec565b600082820183811015611adf576040805162461bcd60e51b815260206004820152601b60248201527f536166654d6174683a206164646974696f6e206f766572666c6f770000000000604482015290519081900360640190fd5b6000611adf83836040518060400160405280601e81526020017f536166654d6174683a207375627472616374696f6e206f766572666c6f77000081525061238e565b6002546040805163e5e31b1360e01b81526001600160a01b0385811660048301529151919092169163e5e31b13916024808301926020929190829003018186803b158015611c1157600080fd5b505afa158015611c25573d6000803e3d6000fd5b505050506040513d6020811015611c3b57600080fd5b5051611c88576040805162461bcd60e51b81526020600482015260176024820152762a27a6a4902827a7a61d1024a72b20a624a2102820a4a960491b604482015290519081900360640190fd5b6000826001600160a01b03166370a08231836040518263ffffffff1660e01b815260040180826001600160a01b03166001600160a01b0316815260200191505060206040518083038186803b158015611ce057600080fd5b505afa158015611cf4573d6000803e3d6000fd5b505050506040513d6020811015611d0a57600080fd5b50516001600160a01b0380851660008181526009602090815260408083205494881683526008825280832093835292905290812080549394509192611d629061067d64e8d4a51000610665888863ffffffff611a8616565b6001830154909150611d7a908263ffffffff611b2816565b6001830155611d9864e8d4a51000610665868663ffffffff611a8616565b9091555050505050565b604080516001600160a01b038481166024830152604480830185905283518084039091018152606490920183526020820180517bffffffffffffffffffffffffffffffffffffffffffffffffffffffff167fa9059cbb00000000000000000000000000000000000000000000000000000000178152925182516000946060949389169392918291908083835b60208310611e4d5780518252601f199092019160209182019101611e2e565b6001836020036101000a0380198251168184511680821785525050505050509050019150506000604051808303816000865af19150503d8060008114611eaf576040519150601f19603f3d011682016040523d82523d6000602084013e611eb4565b606091505b5091509150818015611ee2575080511580611ee25750808060200190516020811015611edf57600080fd5b50515b611f33576040805162461bcd60e51b815260206004820152601f60248201527f5472616e7366657248656c7065723a205452414e534645525f4641494c454400604482015290519081900360640190fd5b5050505050565b604080516001600160a01b0385811660248301528481166044830152606480830185905283518084039091018152608490920183526020820180517bffffffffffffffffffffffffffffffffffffffffffffffffffffffff167f23b872dd0000000000000000000000000000000000000000000000000000000017815292518251600094606094938a169392918291908083835b60208310611fed5780518252601f199092019160209182019101611fce565b6001836020036101000a0380198251168184511680821785525050505050509050019150506000604051808303816000865af19150503d806000811461204f576040519150601f19603f3d011682016040523d82523d6000602084013e612054565b606091505b5091509150818015612082575080511580612082575080806020019051602081101561207f57600080fd5b50515b6120bd5760405162461bcd60e51b81526004018080602001828103825260248152602001806124246024913960400191505060405180910390fd5b505050505050565b6001600160a01b0382166000908152600a60205260409020546120ee908263ffffffff611b2816565b6001600160a01b0383166000818152600a602090815260408083209490945583517f18160ddd000000000000000000000000000000000000000000000000000000008152935191936318160ddd9260048083019392829003018186803b15801561215757600080fd5b505afa15801561216b573d6000803e3d6000fd5b505050506040513d602081101561218157600080fd5b5051905080156121fc576121cc6121a7826106658564e8d4a5100063ffffffff611a8616565b6001600160a01b0385166000908152600960205260409020549063ffffffff611b2816565b6001600160a01b0384166000908152600960205260409020556007546121f8908363ffffffff611b2816565b6007555b505050565b6000826001600160a01b03166370a08231836040518263ffffffff1660e01b815260040180826001600160a01b03166001600160a01b0316815260200191505060206040518083038186803b15801561225957600080fd5b505afa15801561226d573d6000803e3d6000fd5b505050506040513d602081101561228357600080fd5b50516001600160a01b0384166000908152600960205260409020549091506122ba64e8d4a51000610665848463ffffffff611a8616565b6001600160a01b0393841660009081526008602090815260408083209790961682529590955292909320919091555050565b600081836123785760405162461bcd60e51b81526004018080602001828103825283818151815260200191508051906020019080838360005b8381101561233d578181015183820152602001612325565b50505050905090810190601f16801561236a5780820380516001836020036101000a031916815260200191505b509250505060405180910390fd5b50600083858161238457fe5b0495945050505050565b600081848411156123e05760405162461bcd60e51b815260206004820181815283516024840152835190928392604490910191908501908083836000831561233d578181015183820152602001612325565b505050900390565b60405180604001604052806000815260200160008152509056fe536166654d6174683a206d756c7469706c69636174696f6e206f766572666c6f775472616e7366657248656c7065723a205452414e534645525f46524f4d5f4641494c4544a2646970667358221220768c7edbfb1e42eec444fa47f3f563c827e10ad0a9f61b4cbaa042412792af0e64736f6c63430006060033",
  "devdoc": {
    "methods": {}
  },
  "userdoc": {
    "methods": {}
  },
  "storageLayout": {
    "storage": [
      {
        "astId": 14775,
        "contract": "contracts/TomiPool.sol:TomiPool",
        "label": "owner",
        "offset": 0,
        "slot": "0",
        "type": "t_address"
      },
      {
        "astId": 9671,
        "contract": "contracts/TomiPool.sol:TomiPool",
        "label": "TGAS",
        "offset": 0,
        "slot": "1",
        "type": "t_address"
      },
      {
        "astId": 9673,
        "contract": "contracts/TomiPool.sol:TomiPool",
        "label": "FACTORY",
        "offset": 0,
        "slot": "2",
        "type": "t_address"
      },
      {
        "astId": 9675,
        "contract": "contracts/TomiPool.sol:TomiPool",
        "label": "PLATFORM",
        "offset": 0,
        "slot": "3",
        "type": "t_address"
      },
      {
        "astId": 9677,
        "contract": "contracts/TomiPool.sol:TomiPool",
        "label": "WETH",
        "offset": 0,
        "slot": "4",
        "type": "t_address"
      },
      {
        "astId": 9679,
        "contract": "contracts/TomiPool.sol:TomiPool",
        "label": "CONFIG",
        "offset": 0,
        "slot": "5",
        "type": "t_address"
      },
      {
        "astId": 9681,
        "contract": "contracts/TomiPool.sol:TomiPool",
        "label": "GOVERNANCE",
        "offset": 0,
        "slot": "6",
        "type": "t_address"
      },
      {
        "astId": 9683,
        "contract": "contracts/TomiPool.sol:TomiPool",
        "label": "totalReward",
        "offset": 0,
        "slot": "7",
        "type": "t_uint256"
      },
      {
        "astId": 9710,
        "contract": "contracts/TomiPool.sol:TomiPool",
        "label": "users",
        "offset": 0,
        "slot": "8",
        "type": "t_mapping(t_address,t_mapping(t_address,t_struct(UserInfo)9688_storage))"
      },
      {
        "astId": 9714,
        "contract": "contracts/TomiPool.sol:TomiPool",
        "label": "pairAmountPerShare",
        "offset": 0,
        "slot": "9",
        "type": "t_mapping(t_address,t_uint256)"
      },
      {
        "astId": 9718,
        "contract": "contracts/TomiPool.sol:TomiPool",
        "label": "pairReward",
        "offset": 0,
        "slot": "10",
        "type": "t_mapping(t_address,t_uint256)"
      }
    ],
    "types": {
      "t_address": {
        "encoding": "inplace",
        "label": "address",
        "numberOfBytes": "20"
      },
      "t_mapping(t_address,t_mapping(t_address,t_struct(UserInfo)9688_storage))": {
        "encoding": "mapping",
        "key": "t_address",
        "label": "mapping(address => mapping(address => struct TomiPool.UserInfo))",
        "numberOfBytes": "32",
        "value": "t_mapping(t_address,t_struct(UserInfo)9688_storage)"
      },
      "t_mapping(t_address,t_struct(UserInfo)9688_storage)": {
        "encoding": "mapping",
        "key": "t_address",
        "label": "mapping(address => struct TomiPool.UserInfo)",
        "numberOfBytes": "32",
        "value": "t_struct(UserInfo)9688_storage"
      },
      "t_mapping(t_address,t_uint256)": {
        "encoding": "mapping",
        "key": "t_address",
        "label": "mapping(address => uint256)",
        "numberOfBytes": "32",
        "value": "t_uint256"
      },
      "t_struct(UserInfo)9688_storage": {
        "encoding": "inplace",
        "label": "struct TomiPool.UserInfo",
        "members": [
          {
            "astId": 9685,
            "contract": "contracts/TomiPool.sol:TomiPool",
            "label": "rewardDebt",
            "offset": 0,
            "slot": "0",
            "type": "t_uint256"
          },
          {
            "astId": 9687,
            "contract": "contracts/TomiPool.sol:TomiPool",
            "label": "rewardEarn",
            "offset": 0,
            "slot": "1",
            "type": "t_uint256"
          }
        ],
        "numberOfBytes": "64"
      },
      "t_uint256": {
        "encoding": "inplace",
        "label": "uint256",
        "numberOfBytes": "32"
      }
    }
  }
}