{
  "address": "0x1b924e04e776B80e958afED1031d3da6D5E4c0AD",
  "abi": [
    {
      "anonymous": false,
      "inputs": [
        {
          "indexed": true,
          "internalType": "address",
          "name": "_oldOwner",
          "type": "address"
        },
        {
          "indexed": true,
          "internalType": "address",
          "name": "_newOwner",
          "type": "address"
        }
      ],
      "name": "OwnerChanged",
      "type": "event"
    },
    {
      "anonymous": false,
      "inputs": [
        {
          "indexed": true,
          "internalType": "address",
          "name": "from",
          "type": "address"
        },
        {
          "indexed": true,
          "internalType": "address",
          "name": "to",
          "type": "address"
        },
        {
          "indexed": true,
          "internalType": "address",
          "name": "token",
          "type": "address"
        },
        {
          "indexed": false,
          "internalType": "uint256",
          "name": "amount",
          "type": "uint256"
        }
      ],
      "name": "Transfer",
      "type": "event"
    },
    {
      "anonymous": false,
      "inputs": [
        {
          "indexed": true,
          "internalType": "address",
          "name": "pair",
          "type": "address"
        },
        {
          "indexed": false,
          "internalType": "uint256",
          "name": "weight",
          "type": "uint256"
        }
      ],
      "name": "WeightChanged",
      "type": "event"
    },
    {
      "inputs": [],
      "name": "FACTORY",
      "outputs": [
        {
          "internalType": "address",
          "name": "",
          "type": "address"
        }
      ],
      "stateMutability": "view",
      "type": "function"
    },
    {
      "inputs": [],
      "name": "PLATFORM",
      "outputs": [
        {
          "internalType": "address",
          "name": "",
          "type": "address"
        }
      ],
      "stateMutability": "view",
      "type": "function"
    },
    {
      "inputs": [],
      "name": "TGAS",
      "outputs": [
        {
          "internalType": "address",
          "name": "",
          "type": "address"
        }
      ],
      "stateMutability": "view",
      "type": "function"
    },
    {
      "inputs": [],
      "name": "WETH",
      "outputs": [
        {
          "internalType": "address",
          "name": "",
          "type": "address"
        }
      ],
      "stateMutability": "view",
      "type": "function"
    },
    {
      "inputs": [],
      "name": "admin",
      "outputs": [
        {
          "internalType": "address",
          "name": "",
          "type": "address"
        }
      ],
      "stateMutability": "view",
      "type": "function"
    },
    {
      "inputs": [
        {
          "internalType": "address",
          "name": "_admin",
          "type": "address"
        }
      ],
      "name": "changeAdmin",
      "outputs": [],
      "stateMutability": "nonpayable",
      "type": "function"
    },
    {
      "inputs": [
        {
          "internalType": "address",
          "name": "_newOwner",
          "type": "address"
        }
      ],
      "name": "changeOwner",
      "outputs": [],
      "stateMutability": "nonpayable",
      "type": "function"
    },
    {
      "inputs": [
        {
          "internalType": "address",
          "name": "_TGAS",
          "type": "address"
        },
        {
          "internalType": "address",
          "name": "_FACTORY",
          "type": "address"
        },
        {
          "internalType": "address",
          "name": "_WETH",
          "type": "address"
        },
        {
          "internalType": "address",
          "name": "_PLATFORM",
          "type": "address"
        },
        {
          "internalType": "address",
          "name": "_admin",
          "type": "address"
        }
      ],
      "name": "initialize",
      "outputs": [],
      "stateMutability": "nonpayable",
      "type": "function"
    },
    {
      "inputs": [],
      "name": "owner",
      "outputs": [
        {
          "internalType": "address",
          "name": "",
          "type": "address"
        }
      ],
      "stateMutability": "view",
      "type": "function"
    },
    {
      "inputs": [
        {
          "internalType": "address",
          "name": "",
          "type": "address"
        }
      ],
      "name": "pairWeights",
      "outputs": [
        {
          "internalType": "uint256",
          "name": "",
          "type": "uint256"
        }
      ],
      "stateMutability": "view",
      "type": "function"
    },
    {
      "inputs": [
        {
          "internalType": "address",
          "name": "from",
          "type": "address"
        },
        {
          "internalType": "address",
          "name": "to",
          "type": "address"
        },
        {
          "internalType": "address",
          "name": "token",
          "type": "address"
        },
        {
          "internalType": "uint256",
          "name": "amount",
          "type": "uint256"
        }
      ],
      "name": "transferNotify",
      "outputs": [
        {
          "internalType": "bool",
          "name": "",
          "type": "bool"
        }
      ],
      "stateMutability": "nonpayable",
      "type": "function"
    },
    {
      "inputs": [
        {
          "internalType": "address[]",
          "name": "_pairs",
          "type": "address[]"
        },
        {
          "internalType": "uint256[]",
          "name": "_weights",
          "type": "uint256[]"
        }
      ],
      "name": "updatePairPowers",
      "outputs": [],
      "stateMutability": "nonpayable",
      "type": "function"
    },
    {
      "inputs": [
        {
          "internalType": "address",
          "name": "_newImpl",
          "type": "address"
        }
      ],
      "name": "updateTGASImpl",
      "outputs": [],
      "stateMutability": "nonpayable",
      "type": "function"
    },
    {
      "inputs": [
        {
          "internalType": "address",
          "name": "fromPair",
          "type": "address"
        },
        {
          "internalType": "address",
          "name": "toPair",
          "type": "address"
        }
      ],
      "name": "upgradeProdutivity",
      "outputs": [],
      "stateMutability": "nonpayable",
      "type": "function"
    },
    {
      "inputs": [],
      "name": "version",
      "outputs": [
        {
          "internalType": "uint256",
          "name": "",
          "type": "uint256"
        }
      ],
      "stateMutability": "view",
      "type": "function"
    }
  ],
  "transactionHash": "0xe4c45fee18c107a1bce3e30a3108aea61088318add2ff2c559ebc71fdeb0fafb",
  "args": [],
  "solcInputHash": "6fd9fafb27eecad3e199e40cc6590b7a",
  "bytecode": "0x608060405260018055600080546001600160a01b0319163317905561120f806100296000396000f3fe608060405234801561001057600080fd5b50600436106100f55760003560e01c80638da5cb5b11610097578063ad5c464811610066578063ad5c46481461028a578063bd8ea65314610292578063d669c11c146102b8578063f851a4401461037a576100f5565b80638da5cb5b146101e65780638f283970146101ee578063a612dea414610214578063a6f9dae114610264576100f5565b806354fd4d50116100d357806354fd4d50146101705780636ef9a3e71461018a5780637efc77fa146101b857806388976f86146101c0576100f5565b80630c7390a8146100fa5780631459457a1461011e5780632dd3100014610168575b600080fd5b610102610382565b604080516001600160a01b039092168252519081900360200190f35b610166600480360360a081101561013457600080fd5b506001600160a01b03813581169160208101358216916040820135811691606081013582169160809091013516610391565b005b6101026104d4565b6101786104e3565b60408051918252519081900360200190f35b610166600480360360408110156101a057600080fd5b506001600160a01b03813581169160200135166104e9565b610102610744565b610178600480360360208110156101d657600080fd5b50356001600160a01b0316610753565b610102610765565b6101666004803603602081101561020457600080fd5b50356001600160a01b0316610774565b6102506004803603608081101561022a57600080fd5b506001600160a01b038135811691602081013582169160408201351690606001356107f7565b604080519115158252519081900360200190f35b6101666004803603602081101561027a57600080fd5b50356001600160a01b03166109e3565b610102610afa565b610166600480360360208110156102a857600080fd5b50356001600160a01b0316610b09565b610166600480360360408110156102ce57600080fd5b8101906020810181356401000000008111156102e957600080fd5b8201836020820111156102fb57600080fd5b8035906020019184602083028401116401000000008311171561031d57600080fd5b91939092909160208101903564010000000081111561033b57600080fd5b82018360208201111561034d57600080fd5b8035906020019184602083028401116401000000008311171561036f57600080fd5b509092509050610bdf565b610102610d62565b6002546001600160a01b031681565b6000546001600160a01b031633146103e5576040805162461bcd60e51b815260206004820152601260248201527127bbb730b136329d102327a92124a22222a760711b604482015290519081900360640190fd5b6001600160a01b0385161580159061040557506001600160a01b03841615155b801561041957506001600160a01b03831615155b801561042d57506001600160a01b03821615155b6104685760405162461bcd60e51b815260040180806020018281038252602e81526020018061113c602e913960400191505060405180910390fd5b6002805473ffffffffffffffffffffffffffffffffffffffff199081166001600160a01b03978816179091556005805482169587169590951790945560048054851693861693909317909255600380548416918516919091179055600680549092169216919091179055565b6005546001600160a01b031681565b60015481565b6003546001600160a01b031633146105325760405162461bcd60e51b81526004018080602001828103825260228152602001806111906022913960400191505060405180910390fd5b600254604080516328e964e960e01b81526001600160a01b038581166004830152825160009491909116926328e964e99260248082019391829003018186803b15801561057e57600080fd5b505afa158015610592573d6000803e3d6000fd5b505050506040513d60408110156105a857600080fd5b5051600254604080516328e964e960e01b81526001600160a01b03868116600483015282519495506000949316926328e964e992602480840193919291829003018186803b1580156105f957600080fd5b505afa15801561060d573d6000803e3d6000fd5b505050506040513d604081101561062357600080fd5b505190508115801590610634575080155b1561073e576002546040805163257d336b60e11b81526001600160a01b0387811660048301526024820186905291519190921691634afa66d69160448083019260209291908290030181600087803b15801561068f57600080fd5b505af11580156106a3573d6000803e3d6000fd5b505050506040513d60208110156106b957600080fd5b5050600254604080516336f04e4560e01b81526001600160a01b03868116600483015260248201869052915191909216916336f04e459160448083019260209291908290030181600087803b15801561071157600080fd5b505af1158015610725573d6000803e3d6000fd5b505050506040513d602081101561073b57600080fd5b50505b50505050565b6003546001600160a01b031681565b60076020526000908152604090205481565b6000546001600160a01b031681565b6000546001600160a01b031633146107c8576040805162461bcd60e51b815260206004820152601260248201527127bbb730b136329d102327a92124a22222a760711b604482015290519081900360640190fd5b6006805473ffffffffffffffffffffffffffffffffffffffff19166001600160a01b0392909216919091179055565b6003546000906001600160a01b031633146108435760405162461bcd60e51b81526004018080602001828103825260228152602001806111906022913960400191505060405180910390fd5b6005546040805163e5e31b1360e01b81526001600160a01b0388811660048301529151919092169163e5e31b13916024808301926020929190829003018186803b15801561089057600080fd5b505afa1580156108a4573d6000803e3d6000fd5b505050506040513d60208110156108ba57600080fd5b505180156108d557506002546001600160a01b038481169116145b156108e3576108e385610d71565b6005546040805163e5e31b1360e01b81526001600160a01b0387811660048301529151919092169163e5e31b13916024808301926020929190829003018186803b15801561093057600080fd5b505afa158015610944573d6000803e3d6000fd5b505050506040513d602081101561095a57600080fd5b5051801561097557506002546001600160a01b038481169116145b156109835761098384610d71565b826001600160a01b0316846001600160a01b0316866001600160a01b03167fd1398bee19313d6bf672ccb116e51f4a1a947e91c757907f51fbb5b5e56c698f856040518082815260200191505060405180910390a4506001949350505050565b6000546001600160a01b03163314610a37576040805162461bcd60e51b815260206004820152601260248201527127bbb730b136329d102327a92124a22222a760711b604482015290519081900360640190fd5b6001600160a01b038116610a92576040805162461bcd60e51b815260206004820152601860248201527f4f776e61626c653a20494e56414c49445f414444524553530000000000000000604482015290519081900360640190fd5b600080546040516001600160a01b03808516939216917fb532073b38c83145e3e5135377a08bf9aab55bc0fd7c1179cd4fb995d2a5159c91a36000805473ffffffffffffffffffffffffffffffffffffffff19166001600160a01b0392909216919091179055565b6004546001600160a01b031681565b6000546001600160a01b03163314610b5d576040805162461bcd60e51b815260206004820152601260248201527127bbb730b136329d102327a92124a22222a760711b604482015290519081900360640190fd5b600254604080517f1a2f13630000000000000000000000000000000000000000000000000000000081526001600160a01b03848116600483015291519190921691631a2f136391602480830192600092919082900301818387803b158015610bc457600080fd5b505af1158015610bd8573d6000803e3d6000fd5b5050505050565b6006546001600160a01b03163314610c285760405162461bcd60e51b81526004018080602001828103825260288152602001806111b26028913960400191505060405180910390fd5b828114610c665760405162461bcd60e51b815260040180806020018281038252602681526020018061116a6026913960400191505060405180910390fd5b60005b81811015610bd857828282818110610c7d57fe5b9050602002013560076000878785818110610c9457fe5b905060200201356001600160a01b03166001600160a01b03166001600160a01b0316815260200190815260200160002081905550610cec858583818110610cd757fe5b905060200201356001600160a01b0316610d71565b848482818110610cf857fe5b905060200201356001600160a01b03166001600160a01b03167f8eb4dcf04b639a7ab18d22bf585bc00af297a19524c4f0ad9ddf0be20b2e7bb6848484818110610d3e57fe5b905060200201356040518082815260200191505060405180910390a2600101610c69565b6006546001600160a01b031681565b600254604080516328e964e960e01b81526001600160a01b038481166004830152825160009491909116926328e964e99260248082019391829003018186803b158015610dbd57600080fd5b505afa158015610dd1573d6000803e3d6000fd5b505050506040513d6040811015610de757600080fd5b5051604080517f0dfe168100000000000000000000000000000000000000000000000000000000815290519192506000916001600160a01b03851691630dfe1681916004808301926020929190829003018186803b158015610e4857600080fd5b505afa158015610e5c573d6000803e3d6000fd5b505050506040513d6020811015610e7257600080fd5b5051604080517fd21220a700000000000000000000000000000000000000000000000000000000815290519192506000916001600160a01b0386169163d21220a7916004808301926020929190829003018186803b158015610ed357600080fd5b505afa158015610ee7573d6000803e3d6000fd5b505050506040513d6020811015610efd57600080fd5b5051604080517f0902f1ac000000000000000000000000000000000000000000000000000000008152905191925060009182916001600160a01b03881691630902f1ac91600480820192606092909190829003018186803b158015610f6157600080fd5b505afa158015610f75573d6000803e3d6000fd5b505050506040513d6060811015610f8b57600080fd5b5080516020909101516002546dffffffffffffffffffffffffffff9283169450911691506000906001600160a01b0386811691161415610fe657506001600160a01b0386166000908152600760205260409020548202611019565b6002546001600160a01b038581169116141561101957506001600160a01b03861660009081526007602052604090205481025b8086146111325785156110a9576002546040805163257d336b60e11b81526001600160a01b038a81166004830152602482018a905291519190921691634afa66d69160448083019260209291908290030181600087803b15801561107c57600080fd5b505af1158015611090573d6000803e3d6000fd5b505050506040513d60208110156110a657600080fd5b50505b801561113257600254604080516336f04e4560e01b81526001600160a01b038a8116600483015260248201859052915191909216916336f04e459160448083019260209291908290030181600087803b15801561110557600080fd5b505af1158015611119573d6000803e3d6000fd5b505050506040513d602081101561112f57600080fd5b50505b5050505050505056fe544f4d49205452414e53464552204c495354454e4552203a20494e5055542041444452455353204953205a45524f544f4d49205452414e53464552204c495354454e45523a20494e56414c494420504152414d53544f4d49205452414e53464552204c495354454e45523a205045524d495353494f4e544f4d49205452414e53464552204c495354454e45523a2041444d494e205045524d495353494f4ea264697066735822122088b88c39af071563d7b578be6388c78b7fd8cc05d2d36c134b9b33f64bbed88f64736f6c63430006060033",
  "devdoc": {
    "methods": {}
  },
  "userdoc": {
    "methods": {}
  },
  "storageLayout": {
    "storage": [
      {
        "astId": 14775,
        "contract": "contracts/TomiTransferListener.sol:TomiTransferListener",
        "label": "owner",
        "offset": 0,
        "slot": "0",
        "type": "t_address"
      },
      {
        "astId": 10497,
        "contract": "contracts/TomiTransferListener.sol:TomiTransferListener",
        "label": "version",
        "offset": 0,
        "slot": "1",
        "type": "t_uint256"
      },
      {
        "astId": 10499,
        "contract": "contracts/TomiTransferListener.sol:TomiTransferListener",
        "label": "TGAS",
        "offset": 0,
        "slot": "2",
        "type": "t_address"
      },
      {
        "astId": 10501,
        "contract": "contracts/TomiTransferListener.sol:TomiTransferListener",
        "label": "PLATFORM",
        "offset": 0,
        "slot": "3",
        "type": "t_address"
      },
      {
        "astId": 10503,
        "contract": "contracts/TomiTransferListener.sol:TomiTransferListener",
        "label": "WETH",
        "offset": 0,
        "slot": "4",
        "type": "t_address"
      },
      {
        "astId": 10505,
        "contract": "contracts/TomiTransferListener.sol:TomiTransferListener",
        "label": "FACTORY",
        "offset": 0,
        "slot": "5",
        "type": "t_address"
      },
      {
        "astId": 10507,
        "contract": "contracts/TomiTransferListener.sol:TomiTransferListener",
        "label": "admin",
        "offset": 0,
        "slot": "6",
        "type": "t_address"
      },
      {
        "astId": 10511,
        "contract": "contracts/TomiTransferListener.sol:TomiTransferListener",
        "label": "pairWeights",
        "offset": 0,
        "slot": "7",
        "type": "t_mapping(t_address,t_uint256)"
      }
    ],
    "types": {
      "t_address": {
        "encoding": "inplace",
        "label": "address",
        "numberOfBytes": "20"
      },
      "t_mapping(t_address,t_uint256)": {
        "encoding": "mapping",
        "key": "t_address",
        "label": "mapping(address => uint256)",
        "numberOfBytes": "32",
        "value": "t_uint256"
      },
      "t_uint256": {
        "encoding": "inplace",
        "label": "uint256",
        "numberOfBytes": "32"
      }
    }
  }
}