{
  "address": "0xec891106233e3920B46aA441e459d0D0065281e7",
  "abi": [
    {
      "inputs": [
        {
          "internalType": "address",
          "name": "_TGAS",
          "type": "address"
        },
        {
          "internalType": "address",
          "name": "_CONFIG",
          "type": "address"
        }
      ],
      "stateMutability": "nonpayable",
      "type": "constructor"
    },
    {
      "anonymous": false,
      "inputs": [
        {
          "indexed": true,
          "internalType": "address",
          "name": "token0",
          "type": "address"
        },
        {
          "indexed": true,
          "internalType": "address",
          "name": "token1",
          "type": "address"
        },
        {
          "indexed": false,
          "internalType": "address",
          "name": "pair",
          "type": "address"
        },
        {
          "indexed": false,
          "internalType": "uint256",
          "name": "",
          "type": "uint256"
        }
      ],
      "name": "PairCreated",
      "type": "event"
    },
    {
      "inputs": [],
      "name": "CONFIG",
      "outputs": [
        {
          "internalType": "address",
          "name": "",
          "type": "address"
        }
      ],
      "stateMutability": "view",
      "type": "function"
    },
    {
      "inputs": [],
      "name": "TGAS",
      "outputs": [
        {
          "internalType": "address",
          "name": "",
          "type": "address"
        }
      ],
      "stateMutability": "view",
      "type": "function"
    },
    {
      "inputs": [
        {
          "internalType": "address",
          "name": "_player",
          "type": "address"
        },
        {
          "internalType": "address",
          "name": "_pair",
          "type": "address"
        }
      ],
      "name": "addPlayerPair",
      "outputs": [
        {
          "internalType": "bool",
          "name": "",
          "type": "bool"
        }
      ],
      "stateMutability": "nonpayable",
      "type": "function"
    },
    {
      "inputs": [
        {
          "internalType": "uint256",
          "name": "",
          "type": "uint256"
        }
      ],
      "name": "allPairs",
      "outputs": [
        {
          "internalType": "address",
          "name": "",
          "type": "address"
        }
      ],
      "stateMutability": "view",
      "type": "function"
    },
    {
      "inputs": [],
      "name": "allPairsLength",
      "outputs": [
        {
          "internalType": "uint256",
          "name": "",
          "type": "uint256"
        }
      ],
      "stateMutability": "view",
      "type": "function"
    },
    {
      "inputs": [],
      "name": "contractCodeHash",
      "outputs": [
        {
          "internalType": "bytes32",
          "name": "",
          "type": "bytes32"
        }
      ],
      "stateMutability": "view",
      "type": "function"
    },
    {
      "inputs": [
        {
          "internalType": "address",
          "name": "tokenA",
          "type": "address"
        },
        {
          "internalType": "address",
          "name": "tokenB",
          "type": "address"
        }
      ],
      "name": "createPair",
      "outputs": [
        {
          "internalType": "address",
          "name": "pair",
          "type": "address"
        }
      ],
      "stateMutability": "nonpayable",
      "type": "function"
    },
    {
      "inputs": [
        {
          "internalType": "address",
          "name": "",
          "type": "address"
        },
        {
          "internalType": "address",
          "name": "",
          "type": "address"
        }
      ],
      "name": "getPair",
      "outputs": [
        {
          "internalType": "address",
          "name": "",
          "type": "address"
        }
      ],
      "stateMutability": "view",
      "type": "function"
    },
    {
      "inputs": [
        {
          "internalType": "address",
          "name": "player",
          "type": "address"
        }
      ],
      "name": "getPlayerPairCount",
      "outputs": [
        {
          "internalType": "uint256",
          "name": "",
          "type": "uint256"
        }
      ],
      "stateMutability": "view",
      "type": "function"
    },
    {
      "inputs": [
        {
          "internalType": "address",
          "name": "",
          "type": "address"
        }
      ],
      "name": "isPair",
      "outputs": [
        {
          "internalType": "bool",
          "name": "",
          "type": "bool"
        }
      ],
      "stateMutability": "view",
      "type": "function"
    },
    {
      "inputs": [],
      "name": "owner",
      "outputs": [
        {
          "internalType": "address",
          "name": "",
          "type": "address"
        }
      ],
      "stateMutability": "view",
      "type": "function"
    },
    {
      "inputs": [
        {
          "internalType": "address",
          "name": "",
          "type": "address"
        },
        {
          "internalType": "uint256",
          "name": "",
          "type": "uint256"
        }
      ],
      "name": "playerPairs",
      "outputs": [
        {
          "internalType": "address",
          "name": "",
          "type": "address"
        }
      ],
      "stateMutability": "view",
      "type": "function"
    },
    {
      "inputs": [
        {
          "internalType": "address",
          "name": "_CONFIG",
          "type": "address"
        }
      ],
      "name": "updateConfig",
      "outputs": [],
      "stateMutability": "nonpayable",
      "type": "function"
    },
    {
      "inputs": [],
      "name": "version",
      "outputs": [
        {
          "internalType": "uint256",
          "name": "",
          "type": "uint256"
        }
      ],
      "stateMutability": "view",
      "type": "function"
    }
  ],
  "transactionHash": "0xd10c7fdeb1050c64be9e0521e1f6c2be074307654798891c0170e0df18ae9798",
  "args": [
    "0x607B283076a5e5d9e0636c71930537d7FE0AE96C",
    "0xa949B66461B78ABE0a92C82175fB00e1f04C00aA"
  ],
  "solcInputHash": "6fd9fafb27eecad3e199e40cc6590b7a",
  "bytecode": "0x6080604052600160005534801561001557600080fd5b5060405161384f38038061384f8339818101604052604081101561003857600080fd5b508051602090910151600180546001600160a01b039384166001600160a01b031991821617909155600280549390921692811692909217905560038054909116331790556137c48061008b6000396000f3fe608060405234801561001057600080fd5b50600436106100ea5760003560e01c80638da5cb5b1161008c578063c9ead25811610066578063c9ead2581461020a578063d92e82e41461024c578063e5e31b1314610254578063e6a439051461027a576100ea565b80638da5cb5b146101a8578063bf1512d3146101b0578063c9c65396146101dc576100ea565b8063574f2ba3116100c8578063574f2ba31461014a5780636c42fa66146101525780636cc919c8146101785780637c7f84ee146101a0576100ea565b80630c7390a8146100ef5780631e3dd18b1461011357806354fd4d5014610130575b600080fd5b6100f76102a8565b604080516001600160a01b039092168252519081900360200190f35b6100f76004803603602081101561012957600080fd5b50356102b7565b6101386102de565b60408051918252519081900360200190f35b6101386102e4565b6101386004803603602081101561016857600080fd5b50356001600160a01b03166102ea565b61019e6004803603602081101561018e57600080fd5b50356001600160a01b031661031b565b005b6101386105b4565b6100f76105ba565b6100f7600480360360408110156101c657600080fd5b506001600160a01b0381351690602001356105c9565b6100f7600480360360408110156101f257600080fd5b506001600160a01b03813581169160200135166105fe565b6102386004803603604081101561022057600080fd5b506001600160a01b0381358116916020013516610b9a565b604080519115158252519081900360200190f35b6100f7610d07565b6102386004803603602081101561026a57600080fd5b50356001600160a01b0316610d16565b6100f76004803603604081101561029057600080fd5b506001600160a01b0381358116916020013516610d2b565b6001546001600160a01b031681565b600681815481106102c457fe5b6000918252602090912001546001600160a01b0316905081565b60005481565b60065490565b6001600160a01b03811660009081526007602052604081208054610312576000915050610316565b5490505b919050565b6003546001600160a01b0316331461037a576040805162461bcd60e51b815260206004820152601860248201527f544f4d4920464143544f52593a205045524d495353494f4e0000000000000000604482015290519081900360640190fd5b6002805473ffffffffffffffffffffffffffffffffffffffff19166001600160a01b03831617905560005b6006548110156105b057600681815481106103bc57fe5b600091825260209091200154600680546001600160a01b039092169163f8c8765e9190849081106103e957fe5b60009182526020918290200154604080517f0dfe168100000000000000000000000000000000000000000000000000000000815290516001600160a01b0390921692630dfe168192600480840193829003018186803b15801561044b57600080fd5b505afa15801561045f573d6000803e3d6000fd5b505050506040513d602081101561047557600080fd5b5051600680548590811061048557fe5b60009182526020918290200154604080517fd21220a700000000000000000000000000000000000000000000000000000000815290516001600160a01b039092169263d21220a792600480840193829003018186803b1580156104e757600080fd5b505afa1580156104fb573d6000803e3d6000fd5b505050506040513d602081101561051157600080fd5b5051600154604080517fffffffff0000000000000000000000000000000000000000000000000000000060e087901b1681526001600160a01b03948516600482015292841660248401528388166044840152921660648201529051608480830192600092919082900301818387803b15801561058c57600080fd5b505af11580156105a0573d6000803e3d6000fd5b5050600190920191506103a59050565b5050565b60095481565b6003546001600160a01b031681565b600760205281600052604060002081815481106105e257fe5b6000918252602090912001546001600160a01b03169150829050565b6002546040805163097bc71960e31b815290516000926001600160a01b031691634bde38c8916004808301926020929190829003018186803b15801561064357600080fd5b505afa158015610657573d6000803e3d6000fd5b505050506040513d602081101561066d57600080fd5b50516001600160a01b031633146106cb576040805162461bcd60e51b815260206004820152601860248201527f544f4d4920464143544f52593a205045524d495353494f4e0000000000000000604482015290519081900360640190fd5b816001600160a01b0316836001600160a01b0316141561071c5760405162461bcd60e51b815260040180806020018281038252602181526020018061376e6021913960400191505060405180910390fd5b60025460408051633c6202c960e21b81526001600160a01b0386811660048301529151919092169163f1880b24916024808301926020929190829003018186803b15801561076957600080fd5b505afa15801561077d573d6000803e3d6000fd5b505050506040513d602081101561079357600080fd5b50518015610816575060025460408051633c6202c960e21b81526001600160a01b0385811660048301529151919092169163f1880b24916024808301926020929190829003018186803b1580156107e957600080fd5b505afa1580156107fd573d6000803e3d6000fd5b505050506040513d602081101561081357600080fd5b50515b610867576040805162461bcd60e51b815260206004820152601660248201527f544f4d4920464143544f52593a204e4f54204c49535400000000000000000000604482015290519081900360640190fd5b600080836001600160a01b0316856001600160a01b03161061088a57838561088d565b84845b90925090506001600160a01b0382166108ed576040805162461bcd60e51b815260206004820152601a60248201527f544f4d4920464143544f52593a205a45524f5f41444452455353000000000000604482015290519081900360640190fd5b6001600160a01b03828116600090815260046020908152604080832085851684529091529020541615610967576040805162461bcd60e51b815260206004820152601960248201527f544f4d4920464143544f52593a20504149525f45584953545300000000000000604482015290519081900360640190fd5b60606040518060200161097990610d51565b601f1982820381018352601f909101166040526009549091506109a157805160208201206009555b6000838360405160200180836001600160a01b03166001600160a01b031660601b8152601401826001600160a01b03166001600160a01b031660601b815260140192505050604051602081830303815290604052805190602001209050808251602084016000f56001600160a01b03808216600081815260056020526040808220805460ff19166001908117909155600254905482517ff8c8765e0000000000000000000000000000000000000000000000000000000081528b871660048201528a871660248201529186166044830152909416606485015251939850909263f8c8765e92608480820193929182900301818387803b158015610aa357600080fd5b505af1158015610ab7573d6000803e3d6000fd5b505050506001600160a01b0384811660008181526004602081815260408084208987168086529083528185208054978d1673ffffffffffffffffffffffffffffffffffffffff1998891681179091559383528185208686528352818520805488168517905560068054600181018255958190527ff652222313e28459528d920b65115c16c04f3efc82aaedc97be59f3f377c0d3f90950180549097168417909655925483519283529082015281517f0d3648bd0f6ba80134a33ba9275ac585d9d315f0ad8355cddefde31afa28d0e9929181900390910190a35050505092915050565b6002546040805163097bc71960e31b815290516000926001600160a01b031691634bde38c8916004808301926020929190829003018186803b158015610bdf57600080fd5b505afa158015610bf3573d6000803e3d6000fd5b505050506040513d6020811015610c0957600080fd5b50516001600160a01b03163314610c67576040805162461bcd60e51b815260206004820152601860248201527f544f4d4920464143544f52593a205045524d495353494f4e0000000000000000604482015290519081900360640190fd5b6001600160a01b0380841660009081526008602090815260408083209386168352929052205460ff16610cfe576001600160a01b038084166000818152600860209081526040808320948716808452948252808320805460ff19166001908117909155938352600782528220805493840181558252902001805473ffffffffffffffffffffffffffffffffffffffff191690911790555b50600192915050565b6002546001600160a01b031681565b60056020526000908152604090205460ff1681565b60046020908152600092835260408084209091529082529020546001600160a01b031681565b612a0f80610d5f8339019056fe60806040526001600755600160155534801561001a57600080fd5b50600880546001600160a01b031916331790556129d38061003c6000396000f3fe608060405234801561001057600080fd5b50600436106101e55760003560e01c80636c9fa59e1161010f578063bfc8b208116100a2578063d92e82e411610071578063d92e82e41461049f578063f6b911bc146104a7578063f8c8765e146104dd578063fff6cae91461051b576101e5565b8063bfc8b2081461047f578063cf67536514610487578063d14c96411461048f578063d21220a714610497576101e5565b806396cda080116100de57806396cda080146103f75780639dff60bd1461042b578063a87430ba14610433578063ba9a7a5614610477576101e5565b80636c9fa59e1461039b57806370a08231146103a3578063750142e6146103c95780638b185b35146103d1576101e5565b806318160ddd1161018757806354fd4d501161015657806354fd4d501461035d5780635909c0d5146103655780635a3d54931461036d5780636a62784214610375576101e5565b806318160ddd1461030657806328e964e91461030e5780632c79db111461034d5780632dd3100014610355576101e5565b80630c7390a8116101c35780630c7390a8146102ca5780630dfe1681146102ee5780631485ff78146102f6578063174f57af146102fe576101e5565b8063022c0d9f146101ea578063026c4207146102785780630902f1ac14610292575b600080fd5b6102766004803603608081101561020057600080fd5b8135916020810135916001600160a01b03604083013516919081019060808101606082013564010000000081111561023757600080fd5b82018360208201111561024957600080fd5b8035906020019184600183028401116401000000008311171561026b57600080fd5b509092509050610523565b005b610280610982565b60408051918252519081900360200190f35b61029a610988565b604080516001600160701b03948516815292909316602083015263ffffffff168183015290519081900360600190f35b6102d26109b2565b604080516001600160a01b039092168252519081900360200190f35b6102d26109c1565b6102806109d0565b6102806109d6565b610280610a8c565b6103346004803603602081101561032457600080fd5b50356001600160a01b0316610a92565b6040805192835260208301919091528051918290030190f35b610334610ab0565b6102d2610ac4565b610280610ad3565b610280610ad9565b610280610adf565b6102806004803603602081101561038b57600080fd5b50356001600160a01b0316610ae5565b6102d2610de6565b610280600480360360208110156103b957600080fd5b50356001600160a01b0316610df5565b610280610e07565b610280600480360360208110156103e757600080fd5b50356001600160a01b0316610e0d565b6102766004803603606081101561040d57600080fd5b508035906001600160a01b0360208201358116916040013516610e1f565b610280611041565b6104596004803603602081101561044957600080fd5b50356001600160a01b031661105f565b60408051938452602084019290925282820152519081900360600190f35b610280611080565b610280611086565b61028061108c565b610280611092565b6102d2611098565b6102d26110a7565b610334600480360360608110156104bd57600080fd5b506001600160a01b038135811691602081013590911690604001356110b6565b610276600480360360808110156104f357600080fd5b506001600160a01b038135811691602081013582169160408201358116916060013516611494565b61027661154b565b6009546040805163097bc71960e31b815290516000926001600160a01b031691634bde38c8916004808301926020929190829003018186803b15801561056857600080fd5b505afa15801561057c573d6000803e3d6000fd5b505050506040513d602081101561059257600080fd5b50519050336001600160a01b038216146105eb576040805162461bcd60e51b81526020600482015260156024820152742a27a6a4902820a4a9101d102327a92124a22222a760591b604482015290519081900360640190fd5b60155460011461062b576040805162461bcd60e51b8152602060048201526006602482015265131bd8dad95960d21b604482015290519081900360640190fd5b60006015558515158061063e5750600085115b6106795760405162461bcd60e51b81526004018080602001828103825260268152602001806129236026913960400191505060405180910390fd5b600080610684610988565b5091509150816001600160701b0316881080156106a95750806001600160701b031687105b6106e45760405162461bcd60e51b815260040180806020018281038252602381526020018061283a6023913960400191505060405180910390fd5b600b54600c5460009182916001600160a01b0391821691908116908a1682148015906107225750806001600160a01b03168a6001600160a01b031614155b610773576040805162461bcd60e51b815260206004820152601660248201527f544f4d492050414952203a20494e56414c49445f544f00000000000000000000604482015290519081900360640190fd5b8b1561078457610784828b8e6115e3565b8a1561079557610795818b8d6115e3565b871561085057896001600160a01b0316631932ba53338e8e8d8d6040518663ffffffff1660e01b815260040180866001600160a01b03166001600160a01b03168152602001858152602001848152602001806020018281038252848482818152602001925080828437600081840152601f19601f8201169050808301925050509650505050505050600060405180830381600087803b15801561083757600080fd5b505af115801561084b573d6000803e3d6000fd5b505050505b61085a823061177d565b9350610866813061177d565b9250505060008a856001600160701b0316038311610885576000610894565b8a856001600160701b03160383035b905060008a856001600160701b03160383116108b15760006108c0565b8a856001600160701b03160383035b90508b8b831515806108d25750600083115b61090d5760405162461bcd60e51b81526004018080602001828103825260258152602001806128b46025913960400191505060405180910390fd5b61091986868a8a6118d0565b60408051858152602081018590528082018490526060810183905290516001600160a01b038e169133917fd78ad95fa46c994b6551d0da85fc275fe613ce37657fb8d5e3d130840159d8229181900360800190a350506001601555505050505050505050505050565b60025481565b600d546001600160701b0380821692600160701b830490911691600160e01b900463ffffffff1690565b600a546001600160a01b031681565b600b546001600160a01b031681565b60115481565b6000601554600114610a18576040805162461bcd60e51b8152602060048201526006602482015265131bd8dad95960d21b604482015290519081900360640190fd5b6000601555610a25611aad565b610a2e33611d08565b601154909150610a44908263ffffffff611de216565b60118190556040805191825260208201839052805133927f44ed350afd3e95452fb56d9062c1b1eaf1f5b6e1832820b0d71e932cc2ca907492908290030190a2600160155590565b60125481565b6001600160a01b031660009081526006602052604081205490549091565b600080610abc33611e2b565b924392509050565b6008546001600160a01b031681565b60075481565b600e5481565b600f5481565b600080600960009054906101000a90046001600160a01b03166001600160a01b0316634bde38c86040518163ffffffff1660e01b815260040160206040518083038186803b158015610b3657600080fd5b505afa158015610b4a573d6000803e3d6000fd5b505050506040513d6020811015610b6057600080fd5b50519050336001600160a01b03821614610bb9576040805162461bcd60e51b81526020600482015260156024820152742a27a6a4902820a4a9101d102327a92124a22222a760591b604482015290519081900360640190fd5b601554600114610bf9576040805162461bcd60e51b8152602060048201526006602482015265131bd8dad95960d21b604482015290519081900360640190fd5b6000601581905580610c09610988565b50600b549193509150600090610c28906001600160a01b03163061177d565b600c54909150600090610c44906001600160a01b03163061177d565b90506000610c61836001600160701b03871663ffffffff611de216565b90506000610c7e836001600160701b03871663ffffffff611de216565b60125490915080610cc757610cb36103e8610ca7610ca2868663ffffffff611edb16565b611f34565b9063ffffffff611de216565b9850610cc260006103e8611f85565b610d16565b610d136001600160701b038816610ce4858463ffffffff611edb16565b81610ceb57fe5b046001600160701b038816610d06858563ffffffff611edb16565b81610d0d57fe5b0461201c565b98505b60008911610d555760405162461bcd60e51b815260040180806020018281038252602981526020018061288b6029913960400191505060405180910390fd5b610d5f8a8a611f85565b610d67611aad565b610d718a8a612032565b506001600160a01b038a166000908152601460205260409020439055610d99858589896118d0565b6040805184815260208101849052815133927f4c209b5fc8ad50758f13e2e1088ba56a560dff690a1c6fef26394f4c03821c4f928290030190a25050600160155550949695505050505050565b6005546001600160a01b031681565b60136020526000908152604090205481565b60105481565b60146020526000908152604090205481565b6009546040805163097bc71960e31b815290516000926001600160a01b031691634bde38c8916004808301926020929190829003018186803b158015610e6457600080fd5b505afa158015610e78573d6000803e3d6000fd5b505050506040513d6020811015610e8e57600080fd5b50519050336001600160a01b03821614610ee7576040805162461bcd60e51b81526020600482015260156024820152742a27a6a4902820a4a9101d102327a92124a22222a760591b604482015290519081900360640190fd5b831580610f055750816001600160a01b0316836001600160a01b0316145b15610f0f5761103b565b600080610f1a610988565b50600b5491935091506001600160a01b03858116911614801590610f4c5750600c546001600160a01b03858116911614155b610f9d576040805162461bcd60e51b815260206004820152601660248201527f544f4d492050414952203a20494e56414c49445f544f00000000000000000000604482015290519081900360640190fd5b610fa88585886115e3565b600b54600090610fc1906001600160a01b03163061177d565b600c54909150600090610fdd906001600160a01b03163061177d565b9050610feb828286866118d0565b856001600160a01b0316876001600160a01b03167fd58eef465bb0100d5e79f7940ef7ec9eafeff04fa088db4388968231fffaf07d8a6040518082815260200191505060405180910390a3505050505b50505050565b600a5460009061105a906001600160a01b03163061177d565b905090565b60066020526000908152604090208054600182015460029092015490919083565b6103e881565b60015490565b60045481565b60035481565b600c546001600160a01b031681565b6009546001600160a01b031681565b6000806000600960009054906101000a90046001600160a01b03166001600160a01b0316634bde38c86040518163ffffffff1660e01b815260040160206040518083038186803b15801561110957600080fd5b505afa15801561111d573d6000803e3d6000fd5b505050506040513d602081101561113357600080fd5b50519050336001600160a01b0382161461118c576040805162461bcd60e51b81526020600482015260156024820152742a27a6a4902820a4a9101d102327a92124a22222a760591b604482015290519081900360640190fd5b6015546001146111cc576040805162461bcd60e51b8152602060048201526006602482015265131bd8dad95960d21b604482015290519081900360640190fd5b6000601555600954604080516360ccef1960e11b81527f52454d4f56455f4c49515549444954595f4455524154494f4e00000000000000600482015290516001600160a01b039092169163c199de3291602480820192602092909190829003018186803b15801561123c57600080fd5b505afa158015611250573d6000803e3d6000fd5b505050506040513d602081101561126657600080fd5b50516001600160a01b038716600090815260146020526040902054014310156112c05760405162461bcd60e51b815260040180806020018281038252602e81526020018061285d602e913960400191505060405180910390fd5b6000806112cb610988565b50600b54600c549294509092506001600160a01b03908116911660006112f1833061177d565b905060006112ff833061177d565b6001600160a01b038d166000908152601360205260409020549091508a11156113595760405162461bcd60e51b81526004018080602001828103825260298152602001806129756029913960400191505060405180910390fd5b6012548061136d8c8563ffffffff611edb16565b8161137457fe5b049950806113888c8463ffffffff611edb16565b8161138f57fe5b04985060008a1180156113a25750600089115b6113dd5760405162461bcd60e51b81526004018080602001828103825260298152602001806128d96029913960400191505060405180910390fd5b6113e78d8c6120f1565b6113ef611aad565b6113f98d8c61218e565b50611405858d8c6115e3565b611410848d8b6115e3565b61141a853061177d565b9250611426843061177d565b9150611434838389896118d0565b604080518b8152602081018b905281516001600160a01b038f169233927fdccd412f0b1252819cb1fd330b93224ca42612892bb3f4f789976e6d81936496929081900390910190a350505050505050600160158190555050935093915050565b6008546001600160a01b031633146114eb576040805162461bcd60e51b81526020600482015260156024820152742a27a6a4902820a4a9101d102327a92124a22222a760591b604482015290519081900360640190fd5b600b805473ffffffffffffffffffffffffffffffffffffffff199081166001600160a01b0387811691909117909255600c80548216868416179055600980548216858416179055600a8054909116838316179081905561103b9116612270565b60155460011461158b576040805162461bcd60e51b8152602060048201526006602482015265131bd8dad95960d21b604482015290519081900360640190fd5b6000601555600b546115dc906115aa906001600160a01b03163061177d565b600c546115c0906001600160a01b03163061177d565b600d546001600160701b0380821691600160701b9004166118d0565b6001601555565b604080518082018252601981527f7472616e7366657228616464726573732c75696e74323536290000000000000060209182015281516001600160a01b0385811660248301526044808301869052845180840390910181526064909201845291810180516001600160e01b031663a9059cbb60e01b1781529251815160009460609489169392918291908083835b602083106116905780518252601f199092019160209182019101611671565b6001836020036101000a0380198251168184511680821785525050505050509050019150506000604051808303816000865af19150503d80600081146116f2576040519150601f19603f3d011682016040523d82523d6000602084013e6116f7565b606091505b5091509150818015611725575080511580611725575080806020019051602081101561172257600080fd5b50515b611776576040805162461bcd60e51b815260206004820152601b60248201527f544f4d492050414952203a205452414e534645525f4641494c45440000000000604482015290519081900360640190fd5b5050505050565b600a546000906001600160a01b0384811691161480156117a557506001600160a01b03821630145b156118455761183e601154846001600160a01b03166370a08231856040518263ffffffff1660e01b815260040180826001600160a01b03166001600160a01b0316815260200191505060206040518083038186803b15801561180657600080fd5b505afa15801561181a573d6000803e3d6000fd5b505050506040513d602081101561183057600080fd5b50519063ffffffff611de216565b90506118ca565b826001600160a01b03166370a08231836040518263ffffffff1660e01b815260040180826001600160a01b03166001600160a01b0316815260200191505060206040518083038186803b15801561189b57600080fd5b505afa1580156118af573d6000803e3d6000fd5b505050506040513d60208110156118c557600080fd5b505190505b92915050565b6001600160701b0384118015906118ee57506001600160701b038311155b61193f576040805162461bcd60e51b815260206004820152601460248201527f544f4d492050414952203a204f564552464c4f57000000000000000000000000604482015290519081900360640190fd5b600d5463ffffffff42811691600160e01b9004811682039081161580159061196f57506001600160701b03841615155b801561198357506001600160701b03831615155b156119f4578063ffffffff166119b18561199c8661229f565b6001600160e01b03169063ffffffff6122b116565b600e80546001600160e01b03929092169290920201905563ffffffff81166119dc8461199c8761229f565b600f80546001600160e01b0392909216929092020190555b600d80546dffffffffffffffffffffffffffff19166001600160701b03888116919091177fffffffff0000000000000000000000000000ffffffffffffffffffffffffffff16600160701b8883168102919091176001600160e01b0316600160e01b63ffffffff871602179283905560408051848416815291909304909116602082015281517f1c411e9a96e071241c2f21f7726b17ae89e3cab4c78be50e062b03a9fffbbad1929181900390910190a1505050505050565b600a546040805163159090bd60e01b815290516000926001600160a01b03169163159090bd916004808301926020929190829003018186803b158015611af257600080fd5b505afa158015611b06573d6000803e3d6000fd5b505050506040513d6020811015611b1c57600080fd5b50511115611d0657600a54604080517f1249c58b00000000000000000000000000000000000000000000000000000000815290516000926001600160a01b031691631249c58b91600480830192602092919082900301818787803b158015611b8357600080fd5b505af1158015611b97573d6000803e3d6000fd5b505050506040513d6020811015611bad57600080fd5b5051600954604080516360ccef1960e11b81526a11115597d4149150d1539560aa1b60048201529051929350600092612710926001600160a01b03169163c199de32916024808301926020929190829003018186803b158015611c0f57600080fd5b505afa158015611c23573d6000803e3d6000fd5b505050506040513d6020811015611c3957600080fd5b5051830281611c4457fe5b0490506000600960009054906101000a90046001600160a01b03166001600160a01b03166391cca3db6040518163ffffffff1660e01b815260040160206040518083038186803b158015611c9757600080fd5b505afa158015611cab573d6000803e3d6000fd5b505050506040513d6020811015611cc157600080fd5b5051600a54909150611cdd906001600160a01b031682846115e3565b611cff611cf0848463ffffffff611de216565b6011549063ffffffff6122d616565b6011555050505b565b6000611d12612330565b611d1b826123b1565b6001600160a01b038216600090815260066020526040902060020154611d88576040805162461bcd60e51b815260206004820152600f60248201527f4e4f5448494e4720544f204d494e540000000000000000000000000000000000604482015290519081900360640190fd5b6001600160a01b038083166000908152600660205260409020600201546005549091611db691163383612459565b6001600160a01b038316600090815260066020526040812060020155600380548201905590505b919050565b6000611e2483836040518060400160405280601e81526020017f536166654d6174683a207375627472616374696f6e206f766572666c6f7700008152506125bc565b9392505050565b6001600160a01b0381166000908152600660205260408120600154825415611e97576000611e57612653565b9050611e93611e86600054611e7a64e8d4a5100085611edb90919063ffffffff16565b9063ffffffff61279716565b839063ffffffff6122d616565b9150505b611ed38260010154610ca78460020154611ec764e8d4a51000611e7a878960000154611edb90919063ffffffff16565b9063ffffffff6122d616565b949350505050565b600082611eea575060006118ca565b82820282848281611ef757fe5b0414611e245760405162461bcd60e51b81526004018080602001828103825260218152602001806129026021913960400191505060405180910390fd5b60006003821115611f77575080600160028204015b81811015611f7157809150600281828581611f6057fe5b040181611f6957fe5b049050611f49565b50611ddd565b8115611ddd57506001919050565b601254611f98908263ffffffff6122d616565b6012556001600160a01b038216600090815260136020526040902054611fc4908263ffffffff6122d616565b6001600160a01b03831660008181526013602090815260408083209490945583518581529351929391927fab8530f87dc9b59234c4623bf917212bb2536d647574c8e7e5da92c2ede0c9f89281900390910190a35050565b600081831061202b5781611e24565b5090919050565b60008082116120725760405162461bcd60e51b815260040180806020018281038252602c815260200180612949602c913960400191505060405180910390fd5b6001600160a01b0383166000908152600660205260409020612092612330565b61209b846123b1565b6000546120ae908463ffffffff6122d616565b60005580546120c3908463ffffffff6122d616565b8082556001546120e49164e8d4a5100091611e7a919063ffffffff611edb16565b6001918201559392505050565b6001600160a01b03821660009081526013602052604090205461211a908263ffffffff611de216565b6001600160a01b038316600090815260136020526040902055601254612146908263ffffffff611de216565b6012556040805182815290516000916001600160a01b038516917fbac40739b0d4ca32fa2d82fc91630465ba3eddd1598da6fca393b26fb63b94539181900360200190a35050565b6001600160a01b038216600090815260066020526040812082158015906121b6575080548311155b612207576040805162461bcd60e51b815260206004820152601960248201527f494e53554646494349454e545f50524f44554354495649545900000000000000604482015290519081900360640190fd5b61220f612330565b612218846123b1565b805461222a908463ffffffff611de216565b80825560015461224b9164e8d4a5100091611e7a919063ffffffff611edb16565b6001820155600054612263908463ffffffff611de216565b6000555060019392505050565b6005805473ffffffffffffffffffffffffffffffffffffffff19166001600160a01b0392909216919091179055565b6001600160701b0316600160701b0290565b60006001600160701b0382166001600160e01b038416816122ce57fe5b049392505050565b600082820183811015611e24576040805162461bcd60e51b815260206004820152601b60248201527f536166654d6174683a206164646974696f6e206f766572666c6f770000000000604482015290519081900360640190fd5b60005461235957612351612342612653565b6002549063ffffffff6122d616565b600255611d06565b6000612363612653565b9050612395612386600054611e7a64e8d4a5100085611edb90919063ffffffff16565b6001549063ffffffff6122d616565b6001556002546123ab908263ffffffff6122d616565b60025550565b6001600160a01b03811660009081526006602052604090208054156124555760006123fc8260010154610ca764e8d4a51000611e7a6001548760000154611edb90919063ffffffff16565b6002830154909150612414908263ffffffff6122d616565b600283015560045461242c908263ffffffff6122d616565b600455600154825461244e9164e8d4a5100091611e7a9163ffffffff611edb16565b6001830155505b5050565b604080516001600160a01b038481166024830152604480830185905283518084039091018152606490920183526020820180516001600160e01b031663a9059cbb60e01b178152925182516000946060949389169392918291908083835b602083106124d65780518252601f1990920191602091820191016124b7565b6001836020036101000a0380198251168184511680821785525050505050509050019150506000604051808303816000865af19150503d8060008114612538576040519150601f19603f3d011682016040523d82523d6000602084013e61253d565b606091505b509150915081801561256b57508051158061256b575080806020019051602081101561256857600080fd5b50515b611776576040805162461bcd60e51b815260206004820152601f60248201527f5472616e7366657248656c7065723a205452414e534645525f4641494c454400604482015290519081900360640190fd5b6000818484111561264b5760405162461bcd60e51b81526004018080602001828103825283818151815260200191508051906020019080838360005b838110156126105781810151838201526020016125f8565b50505050905090810190601f16801561263d5780820380516001836020036101000a031916815260200191505b509250505060405180910390fd5b505050900390565b600954604080516360ccef1960e11b81526a11115597d4149150d1539560aa1b6004820152905160009283926001600160a01b039091169163c199de3291602480820192602092909190829003018186803b1580156126b157600080fd5b505afa1580156126c5573d6000803e3d6000fd5b505050506040513d60208110156126db57600080fd5b5051600a546040805163159090bd60e01b8152905192935060009261276d9261271092611e7a92878503926001600160a01b03169163159090bd916004808301926020929190829003018186803b15801561273557600080fd5b505afa158015612749573d6000803e3d6000fd5b505050506040513d602081101561275f57600080fd5b50519063ffffffff611edb16565b9050612790600254610ca783611ec76011546003546122d690919063ffffffff16565b9250505090565b6000611e2483836040518060400160405280601a81526020017f536166654d6174683a206469766973696f6e206279207a65726f000000000000815250600081836128235760405162461bcd60e51b81526020600482018181528351602484015283519092839260449091019190850190808383600083156126105781810151838201526020016125f8565b50600083858161282f57fe5b049594505050505056fe544f4d492050414952203a2020494e53554646494349454e545f4c4951554944495459544f4d4920504c4154464f524d203a2052454d4f5645204c4951554944495459204455524154494f4e204641494c544f4d492050414952203a20494e53554646494349454e545f4c49515549444954595f4d494e544544544f4d492050414952203a20494e53554646494349454e545f494e5055545f414d4f554e54544f4d492050414952203a20494e53554646494349454e545f4c49515549444954595f4255524e4544536166654d6174683a206d756c7469706c69636174696f6e206f766572666c6f77544f4d492050414952203a20494e53554646494349454e545f4f55545055545f414d4f554e5450524f4455435449564954595f56414c55455f4d5553545f42455f475245415445525f5448414e5f5a45524f544f4d492050414952203a20494e53554646494349454e545f4c49515549444954595f414d4f554e54a2646970667358221220a5d99188e0ba4bf785bc4f88a1e6407ed2362806be4c845808122052c34b1a1964736f6c63430006060033544f4d4920464143544f52593a204944454e544943414c5f414444524553534553a26469706673582212205e2fcff3fc47b027cdb2cc80a2745018c2532cb93ea23f9fb976b9b2253a307464736f6c63430006060033",
  "devdoc": {
    "methods": {}
  },
  "userdoc": {
    "methods": {}
  },
  "storageLayout": {
    "storage": [
      {
        "astId": 2060,
        "contract": "contracts/TomiFactory.sol:TomiFactory",
        "label": "version",
        "offset": 0,
        "slot": "0",
        "type": "t_uint256"
      },
      {
        "astId": 2062,
        "contract": "contracts/TomiFactory.sol:TomiFactory",
        "label": "TGAS",
        "offset": 0,
        "slot": "1",
        "type": "t_address"
      },
      {
        "astId": 2064,
        "contract": "contracts/TomiFactory.sol:TomiFactory",
        "label": "CONFIG",
        "offset": 0,
        "slot": "2",
        "type": "t_address"
      },
      {
        "astId": 2066,
        "contract": "contracts/TomiFactory.sol:TomiFactory",
        "label": "owner",
        "offset": 0,
        "slot": "3",
        "type": "t_address"
      },
      {
        "astId": 2072,
        "contract": "contracts/TomiFactory.sol:TomiFactory",
        "label": "getPair",
        "offset": 0,
        "slot": "4",
        "type": "t_mapping(t_address,t_mapping(t_address,t_address))"
      },
      {
        "astId": 2076,
        "contract": "contracts/TomiFactory.sol:TomiFactory",
        "label": "isPair",
        "offset": 0,
        "slot": "5",
        "type": "t_mapping(t_address,t_bool)"
      },
      {
        "astId": 2079,
        "contract": "contracts/TomiFactory.sol:TomiFactory",
        "label": "allPairs",
        "offset": 0,
        "slot": "6",
        "type": "t_array(t_address)dyn_storage"
      },
      {
        "astId": 2084,
        "contract": "contracts/TomiFactory.sol:TomiFactory",
        "label": "playerPairs",
        "offset": 0,
        "slot": "7",
        "type": "t_mapping(t_address,t_array(t_address)dyn_storage)"
      },
      {
        "astId": 2090,
        "contract": "contracts/TomiFactory.sol:TomiFactory",
        "label": "isAddPlayerPair",
        "offset": 0,
        "slot": "8",
        "type": "t_mapping(t_address,t_mapping(t_address,t_bool))"
      },
      {
        "astId": 2092,
        "contract": "contracts/TomiFactory.sol:TomiFactory",
        "label": "contractCodeHash",
        "offset": 0,
        "slot": "9",
        "type": "t_bytes32"
      }
    ],
    "types": {
      "t_address": {
        "encoding": "inplace",
        "label": "address",
        "numberOfBytes": "20"
      },
      "t_array(t_address)dyn_storage": {
        "base": "t_address",
        "encoding": "dynamic_array",
        "label": "address[]",
        "numberOfBytes": "32"
      },
      "t_bool": {
        "encoding": "inplace",
        "label": "bool",
        "numberOfBytes": "1"
      },
      "t_bytes32": {
        "encoding": "inplace",
        "label": "bytes32",
        "numberOfBytes": "32"
      },
      "t_mapping(t_address,t_address)": {
        "encoding": "mapping",
        "key": "t_address",
        "label": "mapping(address => address)",
        "numberOfBytes": "32",
        "value": "t_address"
      },
      "t_mapping(t_address,t_array(t_address)dyn_storage)": {
        "encoding": "mapping",
        "key": "t_address",
        "label": "mapping(address => address[])",
        "numberOfBytes": "32",
        "value": "t_array(t_address)dyn_storage"
      },
      "t_mapping(t_address,t_bool)": {
        "encoding": "mapping",
        "key": "t_address",
        "label": "mapping(address => bool)",
        "numberOfBytes": "32",
        "value": "t_bool"
      },
      "t_mapping(t_address,t_mapping(t_address,t_address))": {
        "encoding": "mapping",
        "key": "t_address",
        "label": "mapping(address => mapping(address => address))",
        "numberOfBytes": "32",
        "value": "t_mapping(t_address,t_address)"
      },
      "t_mapping(t_address,t_mapping(t_address,t_bool))": {
        "encoding": "mapping",
        "key": "t_address",
        "label": "mapping(address => mapping(address => bool))",
        "numberOfBytes": "32",
        "value": "t_mapping(t_address,t_bool)"
      },
      "t_uint256": {
        "encoding": "inplace",
        "label": "uint256",
        "numberOfBytes": "32"
      }
    }
  }
}