{
  "address": "0x6e18c1A3DCa154Cda3C09A696124F7077eB43370",
  "abi": [
    {
      "anonymous": false,
      "inputs": [
        {
          "indexed": true,
          "internalType": "address",
          "name": "player",
          "type": "address"
        },
        {
          "indexed": true,
          "internalType": "address",
          "name": "tokenA",
          "type": "address"
        },
        {
          "indexed": true,
          "internalType": "address",
          "name": "tokenB",
          "type": "address"
        },
        {
          "indexed": false,
          "internalType": "uint256",
          "name": "amountA",
          "type": "uint256"
        },
        {
          "indexed": false,
          "internalType": "uint256",
          "name": "amountB",
          "type": "uint256"
        }
      ],
      "name": "AddLiquidity",
      "type": "event"
    },
    {
      "anonymous": false,
      "inputs": [
        {
          "indexed": true,
          "internalType": "address",
          "name": "_oldOwner",
          "type": "address"
        },
        {
          "indexed": true,
          "internalType": "address",
          "name": "_newOwner",
          "type": "address"
        }
      ],
      "name": "OwnerChanged",
      "type": "event"
    },
    {
      "anonymous": false,
      "inputs": [
        {
          "indexed": true,
          "internalType": "address",
          "name": "player",
          "type": "address"
        },
        {
          "indexed": true,
          "internalType": "address",
          "name": "tokenA",
          "type": "address"
        },
        {
          "indexed": true,
          "internalType": "address",
          "name": "tokenB",
          "type": "address"
        },
        {
          "indexed": false,
          "internalType": "uint256",
          "name": "amountA",
          "type": "uint256"
        },
        {
          "indexed": false,
          "internalType": "uint256",
          "name": "amountB",
          "type": "uint256"
        }
      ],
      "name": "RemoveLiquidity",
      "type": "event"
    },
    {
      "anonymous": false,
      "inputs": [
        {
          "indexed": true,
          "internalType": "address",
          "name": "receiver",
          "type": "address"
        },
        {
          "indexed": true,
          "internalType": "address",
          "name": "fromToken",
          "type": "address"
        },
        {
          "indexed": true,
          "internalType": "address",
          "name": "toToken",
          "type": "address"
        },
        {
          "indexed": false,
          "internalType": "uint256",
          "name": "inAmount",
          "type": "uint256"
        },
        {
          "indexed": false,
          "internalType": "uint256",
          "name": "outAmount",
          "type": "uint256"
        }
      ],
      "name": "SwapToken",
      "type": "event"
    },
    {
      "inputs": [],
      "name": "CONFIG",
      "outputs": [
        {
          "internalType": "address",
          "name": "",
          "type": "address"
        }
      ],
      "stateMutability": "view",
      "type": "function"
    },
    {
      "inputs": [],
      "name": "FACTORY",
      "outputs": [
        {
          "internalType": "address",
          "name": "",
          "type": "address"
        }
      ],
      "stateMutability": "view",
      "type": "function"
    },
    {
      "inputs": [],
      "name": "GOVERNANCE",
      "outputs": [
        {
          "internalType": "address",
          "name": "",
          "type": "address"
        }
      ],
      "stateMutability": "view",
      "type": "function"
    },
    {
      "inputs": [],
      "name": "PERCENT_DENOMINATOR",
      "outputs": [
        {
          "internalType": "uint256",
          "name": "",
          "type": "uint256"
        }
      ],
      "stateMutability": "view",
      "type": "function"
    },
    {
      "inputs": [],
      "name": "POOL",
      "outputs": [
        {
          "internalType": "address",
          "name": "",
          "type": "address"
        }
      ],
      "stateMutability": "view",
      "type": "function"
    },
    {
      "inputs": [],
      "name": "TGAS",
      "outputs": [
        {
          "internalType": "address",
          "name": "",
          "type": "address"
        }
      ],
      "stateMutability": "view",
      "type": "function"
    },
    {
      "inputs": [],
      "name": "TRANSFER_LISTENER",
      "outputs": [
        {
          "internalType": "address",
          "name": "",
          "type": "address"
        }
      ],
      "stateMutability": "view",
      "type": "function"
    },
    {
      "inputs": [],
      "name": "WETH",
      "outputs": [
        {
          "internalType": "address",
          "name": "",
          "type": "address"
        }
      ],
      "stateMutability": "view",
      "type": "function"
    },
    {
      "inputs": [
        {
          "internalType": "address",
          "name": "tokenA",
          "type": "address"
        },
        {
          "internalType": "address",
          "name": "tokenB",
          "type": "address"
        },
        {
          "internalType": "uint256",
          "name": "amountA",
          "type": "uint256"
        },
        {
          "internalType": "uint256",
          "name": "amountB",
          "type": "uint256"
        },
        {
          "internalType": "uint256",
          "name": "amountAMin",
          "type": "uint256"
        },
        {
          "internalType": "uint256",
          "name": "amountBMin",
          "type": "uint256"
        },
        {
          "internalType": "uint256",
          "name": "deadline",
          "type": "uint256"
        }
      ],
      "name": "addLiquidity",
      "outputs": [
        {
          "internalType": "uint256",
          "name": "_amountA",
          "type": "uint256"
        },
        {
          "internalType": "uint256",
          "name": "_amountB",
          "type": "uint256"
        },
        {
          "internalType": "uint256",
          "name": "_liquidity",
          "type": "uint256"
        }
      ],
      "stateMutability": "nonpayable",
      "type": "function"
    },
    {
      "inputs": [
        {
          "internalType": "address",
          "name": "token",
          "type": "address"
        },
        {
          "internalType": "uint256",
          "name": "amountTokenDesired",
          "type": "uint256"
        },
        {
          "internalType": "uint256",
          "name": "amountTokenMin",
          "type": "uint256"
        },
        {
          "internalType": "uint256",
          "name": "amountETHMin",
          "type": "uint256"
        },
        {
          "internalType": "uint256",
          "name": "deadline",
          "type": "uint256"
        }
      ],
      "name": "addLiquidityETH",
      "outputs": [
        {
          "internalType": "uint256",
          "name": "amountToken",
          "type": "uint256"
        },
        {
          "internalType": "uint256",
          "name": "amountETH",
          "type": "uint256"
        },
        {
          "internalType": "uint256",
          "name": "liquidity",
          "type": "uint256"
        }
      ],
      "stateMutability": "payable",
      "type": "function"
    },
    {
      "inputs": [
        {
          "internalType": "address",
          "name": "_newOwner",
          "type": "address"
        }
      ],
      "name": "changeOwner",
      "outputs": [],
      "stateMutability": "nonpayable",
      "type": "function"
    },
    {
      "inputs": [
        {
          "internalType": "address",
          "name": "_path",
          "type": "address"
        },
        {
          "internalType": "address[]",
          "name": "_paths",
          "type": "address[]"
        }
      ],
      "name": "checkPath",
      "outputs": [
        {
          "internalType": "bool",
          "name": "",
          "type": "bool"
        }
      ],
      "stateMutability": "pure",
      "type": "function"
    },
    {
      "inputs": [
        {
          "internalType": "address",
          "name": "tokenA",
          "type": "address"
        },
        {
          "internalType": "address",
          "name": "tokenB",
          "type": "address"
        }
      ],
      "name": "existPair",
      "outputs": [
        {
          "internalType": "bool",
          "name": "",
          "type": "bool"
        }
      ],
      "stateMutability": "view",
      "type": "function"
    },
    {
      "inputs": [
        {
          "internalType": "uint256",
          "name": "amountOut",
          "type": "uint256"
        },
        {
          "internalType": "uint256",
          "name": "reserveIn",
          "type": "uint256"
        },
        {
          "internalType": "uint256",
          "name": "reserveOut",
          "type": "uint256"
        }
      ],
      "name": "getAmountIn",
      "outputs": [
        {
          "internalType": "uint256",
          "name": "amountIn",
          "type": "uint256"
        }
      ],
      "stateMutability": "view",
      "type": "function"
    },
    {
      "inputs": [
        {
          "internalType": "uint256",
          "name": "amountIn",
          "type": "uint256"
        },
        {
          "internalType": "uint256",
          "name": "reserveIn",
          "type": "uint256"
        },
        {
          "internalType": "uint256",
          "name": "reserveOut",
          "type": "uint256"
        }
      ],
      "name": "getAmountOut",
      "outputs": [
        {
          "internalType": "uint256",
          "name": "amountOut",
          "type": "uint256"
        }
      ],
      "stateMutability": "view",
      "type": "function"
    },
    {
      "inputs": [
        {
          "internalType": "uint256",
          "name": "amountOut",
          "type": "uint256"
        },
        {
          "internalType": "address[]",
          "name": "path",
          "type": "address[]"
        }
      ],
      "name": "getAmountsIn",
      "outputs": [
        {
          "internalType": "uint256[]",
          "name": "amounts",
          "type": "uint256[]"
        }
      ],
      "stateMutability": "view",
      "type": "function"
    },
    {
      "inputs": [
        {
          "internalType": "uint256",
          "name": "amountIn",
          "type": "uint256"
        },
        {
          "internalType": "address[]",
          "name": "path",
          "type": "address[]"
        }
      ],
      "name": "getAmountsOut",
      "outputs": [
        {
          "internalType": "uint256[]",
          "name": "amounts",
          "type": "uint256[]"
        }
      ],
      "stateMutability": "view",
      "type": "function"
    },
    {
      "inputs": [
        {
          "internalType": "address",
          "name": "tokenA",
          "type": "address"
        },
        {
          "internalType": "address",
          "name": "tokenB",
          "type": "address"
        }
      ],
      "name": "getReserves",
      "outputs": [
        {
          "internalType": "uint256",
          "name": "",
          "type": "uint256"
        },
        {
          "internalType": "uint256",
          "name": "",
          "type": "uint256"
        }
      ],
      "stateMutability": "view",
      "type": "function"
    },
    {
      "inputs": [
        {
          "internalType": "address",
          "name": "_TGAS",
          "type": "address"
        },
        {
          "internalType": "address",
          "name": "_CONFIG",
          "type": "address"
        },
        {
          "internalType": "address",
          "name": "_FACTORY",
          "type": "address"
        },
        {
          "internalType": "address",
          "name": "_WETH",
          "type": "address"
        },
        {
          "internalType": "address",
          "name": "_GOVERNANCE",
          "type": "address"
        },
        {
          "internalType": "address",
          "name": "_TRANSFER_LISTENER",
          "type": "address"
        },
        {
          "internalType": "address",
          "name": "_POOL",
          "type": "address"
        }
      ],
      "name": "initialize",
      "outputs": [],
      "stateMutability": "nonpayable",
      "type": "function"
    },
    {
      "inputs": [],
      "name": "isPause",
      "outputs": [
        {
          "internalType": "bool",
          "name": "",
          "type": "bool"
        }
      ],
      "stateMutability": "view",
      "type": "function"
    },
    {
      "inputs": [
        {
          "internalType": "address",
          "name": "pair",
          "type": "address"
        },
        {
          "internalType": "address",
          "name": "tokenA",
          "type": "address"
        },
        {
          "internalType": "address",
          "name": "tokenB",
          "type": "address"
        },
        {
          "internalType": "address[]",
          "name": "users",
          "type": "address[]"
        }
      ],
      "name": "migrateLiquidity",
      "outputs": [],
      "stateMutability": "nonpayable",
      "type": "function"
    },
    {
      "inputs": [],
      "name": "owner",
      "outputs": [
        {
          "internalType": "address",
          "name": "",
          "type": "address"
        }
      ],
      "stateMutability": "view",
      "type": "function"
    },
    {
      "inputs": [
        {
          "internalType": "address",
          "name": "tokenA",
          "type": "address"
        },
        {
          "internalType": "address",
          "name": "tokenB",
          "type": "address"
        }
      ],
      "name": "pairFor",
      "outputs": [
        {
          "internalType": "address",
          "name": "",
          "type": "address"
        }
      ],
      "stateMutability": "view",
      "type": "function"
    },
    {
      "inputs": [],
      "name": "pause",
      "outputs": [],
      "stateMutability": "nonpayable",
      "type": "function"
    },
    {
      "inputs": [
        {
          "internalType": "address",
          "name": "tokenA",
          "type": "address"
        },
        {
          "internalType": "address",
          "name": "tokenB",
          "type": "address"
        },
        {
          "internalType": "uint256",
          "name": "liquidity",
          "type": "uint256"
        },
        {
          "internalType": "uint256",
          "name": "amountAMin",
          "type": "uint256"
        },
        {
          "internalType": "uint256",
          "name": "amountBMin",
          "type": "uint256"
        },
        {
          "internalType": "address",
          "name": "to",
          "type": "address"
        },
        {
          "internalType": "uint256",
          "name": "deadline",
          "type": "uint256"
        }
      ],
      "name": "removeLiquidity",
      "outputs": [
        {
          "internalType": "uint256",
          "name": "amountA",
          "type": "uint256"
        },
        {
          "internalType": "uint256",
          "name": "amountB",
          "type": "uint256"
        }
      ],
      "stateMutability": "nonpayable",
      "type": "function"
    },
    {
      "inputs": [
        {
          "internalType": "address",
          "name": "token",
          "type": "address"
        },
        {
          "internalType": "uint256",
          "name": "liquidity",
          "type": "uint256"
        },
        {
          "internalType": "uint256",
          "name": "amountTokenMin",
          "type": "uint256"
        },
        {
          "internalType": "uint256",
          "name": "amountETHMin",
          "type": "uint256"
        },
        {
          "internalType": "address",
          "name": "to",
          "type": "address"
        },
        {
          "internalType": "uint256",
          "name": "deadline",
          "type": "uint256"
        }
      ],
      "name": "removeLiquidityETH",
      "outputs": [
        {
          "internalType": "uint256",
          "name": "amountToken",
          "type": "uint256"
        },
        {
          "internalType": "uint256",
          "name": "amountETH",
          "type": "uint256"
        }
      ],
      "stateMutability": "nonpayable",
      "type": "function"
    },
    {
      "inputs": [],
      "name": "resume",
      "outputs": [],
      "stateMutability": "nonpayable",
      "type": "function"
    },
    {
      "inputs": [
        {
          "internalType": "uint256",
          "name": "amountOut",
          "type": "uint256"
        },
        {
          "internalType": "address[]",
          "name": "path",
          "type": "address[]"
        },
        {
          "internalType": "address",
          "name": "to",
          "type": "address"
        },
        {
          "internalType": "uint256",
          "name": "deadline",
          "type": "uint256"
        }
      ],
      "name": "swapETHForExactTokens",
      "outputs": [
        {
          "internalType": "uint256[]",
          "name": "amounts",
          "type": "uint256[]"
        }
      ],
      "stateMutability": "payable",
      "type": "function"
    },
    {
      "inputs": [
        {
          "internalType": "uint256",
          "name": "amountOutMin",
          "type": "uint256"
        },
        {
          "internalType": "address[]",
          "name": "path",
          "type": "address[]"
        },
        {
          "internalType": "address",
          "name": "to",
          "type": "address"
        },
        {
          "internalType": "uint256",
          "name": "deadline",
          "type": "uint256"
        }
      ],
      "name": "swapExactETHForTokens",
      "outputs": [
        {
          "internalType": "uint256[]",
          "name": "amounts",
          "type": "uint256[]"
        }
      ],
      "stateMutability": "payable",
      "type": "function"
    },
    {
      "inputs": [
        {
          "internalType": "uint256",
          "name": "amountIn",
          "type": "uint256"
        },
        {
          "internalType": "uint256",
          "name": "amountOutMin",
          "type": "uint256"
        },
        {
          "internalType": "address[]",
          "name": "path",
          "type": "address[]"
        },
        {
          "internalType": "address",
          "name": "to",
          "type": "address"
        },
        {
          "internalType": "uint256",
          "name": "deadline",
          "type": "uint256"
        }
      ],
      "name": "swapExactTokensForETH",
      "outputs": [
        {
          "internalType": "uint256[]",
          "name": "amounts",
          "type": "uint256[]"
        }
      ],
      "stateMutability": "nonpayable",
      "type": "function"
    },
    {
      "inputs": [
        {
          "internalType": "uint256",
          "name": "amountIn",
          "type": "uint256"
        },
        {
          "internalType": "uint256",
          "name": "amountOutMin",
          "type": "uint256"
        },
        {
          "internalType": "address[]",
          "name": "path",
          "type": "address[]"
        },
        {
          "internalType": "address",
          "name": "to",
          "type": "address"
        },
        {
          "internalType": "uint256",
          "name": "deadline",
          "type": "uint256"
        }
      ],
      "name": "swapExactTokensForTokens",
      "outputs": [
        {
          "internalType": "uint256[]",
          "name": "amounts",
          "type": "uint256[]"
        }
      ],
      "stateMutability": "nonpayable",
      "type": "function"
    },
    {
      "inputs": [
        {
          "internalType": "address",
          "name": "token",
          "type": "address"
        }
      ],
      "name": "swapPrecondition",
      "outputs": [
        {
          "internalType": "bool",
          "name": "",
          "type": "bool"
        }
      ],
      "stateMutability": "view",
      "type": "function"
    },
    {
      "inputs": [
        {
          "internalType": "uint256",
          "name": "amountOut",
          "type": "uint256"
        },
        {
          "internalType": "uint256",
          "name": "amountInMax",
          "type": "uint256"
        },
        {
          "internalType": "address[]",
          "name": "path",
          "type": "address[]"
        },
        {
          "internalType": "address",
          "name": "to",
          "type": "address"
        },
        {
          "internalType": "uint256",
          "name": "deadline",
          "type": "uint256"
        }
      ],
      "name": "swapTokensForExactETH",
      "outputs": [
        {
          "internalType": "uint256[]",
          "name": "amounts",
          "type": "uint256[]"
        }
      ],
      "stateMutability": "nonpayable",
      "type": "function"
    },
    {
      "inputs": [
        {
          "internalType": "uint256",
          "name": "amountOut",
          "type": "uint256"
        },
        {
          "internalType": "uint256",
          "name": "amountInMax",
          "type": "uint256"
        },
        {
          "internalType": "address[]",
          "name": "path",
          "type": "address[]"
        },
        {
          "internalType": "address",
          "name": "to",
          "type": "address"
        },
        {
          "internalType": "uint256",
          "name": "deadline",
          "type": "uint256"
        }
      ],
      "name": "swapTokensForExactTokens",
      "outputs": [
        {
          "internalType": "uint256[]",
          "name": "amounts",
          "type": "uint256[]"
        }
      ],
      "stateMutability": "nonpayable",
      "type": "function"
    },
    {
      "inputs": [],
      "name": "version",
      "outputs": [
        {
          "internalType": "uint256",
          "name": "",
          "type": "uint256"
        }
      ],
      "stateMutability": "view",
      "type": "function"
    },
    {
      "stateMutability": "payable",
      "type": "receive"
    }
  ],
  "transactionHash": "0x91abaf8e928f738e60f5d1efdd8438adb0b2328756c2cc0d10a2030413fcfc17",
  "args": [],
  "solcInputHash": "6fd9fafb27eecad3e199e40cc6590b7a",
  "bytecode": "0x608060405260018055600080546001600160a01b031916331790556159b7806100296000396000f3fe6080604052600436106102385760003560e01c80638456cb5911610138578063baa2abde116100b0578063d92e82e41161007f578063f6f1e30611610064578063f6f1e30614610cc2578063fb3bdb4114610d00578063ff0938a714610d8657610253565b8063d92e82e414610c7a578063ddd377ac14610c8f57610253565b8063baa2abde14610af0578063c2ceddfa14610b4d578063d06ca61f14610b88578063d52bb6f414610c3f57610253565b80638da5cb5b116101075780639e6c2959116100ec5780639e6c295914610a93578063a6f9dae114610aa8578063ad5c464814610adb57610253565b80638da5cb5b14610a4357806396ed28f914610a5857610253565b80638456cb59146108c257806385f8c259146108d75780638803dbee1461090d5780638b61ff24146109a557610253565b806335876476116101cb57806354fd4d501161019a5780637ae06e581161017f5780637ae06e58146107ae5780637ff36ab514610827578063822abc7c146108ad57610253565b806354fd4d50146107845780637535d2461461079957610253565b8063358764761461051b57806338ed1739146105805780634a25d94a14610618578063525e7e8f146106b057610253565b80631462783411610207578063146278341461035257806318cbafe5146103675780631f00ca741461044f5780632dd310001461050657610253565b806302751cec14610258578063046f7da2146102c4578063054d50d4146102d95780630c7390a81461032157610253565b36610253576005546001600160a01b0316331461025157fe5b005b600080fd5b34801561026457600080fd5b506102ab600480360360c081101561027b57600080fd5b506001600160a01b0381358116916020810135916040820135916060810135916080820135169060a00135610d9b565b6040805192835260208301919091528051918290030190f35b3480156102d057600080fd5b50610251610f21565b3480156102e557600080fd5b5061030f600480360360608110156102fc57600080fd5b5080359060208101359060400135610f84565b60408051918252519081900360200190f35b34801561032d57600080fd5b50610336610fca565b604080516001600160a01b039092168252519081900360200190f35b34801561035e57600080fd5b50610336610fd9565b34801561037357600080fd5b506103ff600480360360a081101561038a57600080fd5b8135916020810135918101906060810160408201356401000000008111156103b157600080fd5b8201836020820111156103c357600080fd5b803590602001918460208302840111640100000000831117156103e557600080fd5b91935091506001600160a01b038135169060200135610fe8565b60408051602080825283518183015283519192839290830191858101910280838360005b8381101561043b578181015183820152602001610423565b505050509050019250505060405180910390f35b34801561045b57600080fd5b506103ff6004803603604081101561047257600080fd5b8135919081019060408101602082013564010000000081111561049457600080fd5b8201836020820111156104a657600080fd5b803590602001918460208302840111640100000000831117156104c857600080fd5b919080806020026020016040519081016040528093929190818152602001838360200280828437600092019190915250929550611363945050505050565b34801561051257600080fd5b50610336611386565b34801561052757600080fd5b50610251600480360360e081101561053e57600080fd5b506001600160a01b038135811691602081013582169160408201358116916060810135821691608082013581169160a081013582169160c09091013516611395565b34801561058c57600080fd5b506103ff600480360360a08110156105a357600080fd5b8135916020810135918101906060810160408201356401000000008111156105ca57600080fd5b8201836020820111156105dc57600080fd5b803590602001918460208302840111640100000000831117156105fe57600080fd5b91935091506001600160a01b038135169060200135611474565b34801561062457600080fd5b506103ff600480360360a081101561063b57600080fd5b81359160208101359181019060608101604082013564010000000081111561066257600080fd5b82018360208201111561067457600080fd5b8035906020019184602083028401116401000000008311171561069657600080fd5b91935091506001600160a01b038135169060200135611626565b3480156106bc57600080fd5b50610770600480360360408110156106d357600080fd5b6001600160a01b0382351691908101906040810160208201356401000000008111156106fe57600080fd5b82018360208201111561071057600080fd5b8035906020019184602083028401116401000000008311171561073257600080fd5b9190808060200260200160405190810160405280939291908181526020018383602002808284376000920191909152509295506118d7945050505050565b604080519115158252519081900360200190f35b34801561079057600080fd5b5061030f611940565b3480156107a557600080fd5b50610336611946565b3480156107ba57600080fd5b50610809600480360360e08110156107d157600080fd5b506001600160a01b03813581169160208101359091169060408101359060608101359060808101359060a08101359060c00135611955565b60408051938452602084019290925282820152519081900360600190f35b6103ff6004803603608081101561083d57600080fd5b8135919081019060408101602082013564010000000081111561085f57600080fd5b82018360208201111561087157600080fd5b8035906020019184602083028401116401000000008311171561089357600080fd5b91935091506001600160a01b038135169060200135611c10565b3480156108b957600080fd5b50610336611f78565b3480156108ce57600080fd5b50610251611f87565b3480156108e357600080fd5b5061030f600480360360608110156108fa57600080fd5b5080359060208101359060400135611ff0565b34801561091957600080fd5b506103ff600480360360a081101561093057600080fd5b81359160208101359181019060608101604082013564010000000081111561095757600080fd5b82018360208201111561096957600080fd5b8035906020019184602083028401116401000000008311171561098b57600080fd5b91935091506001600160a01b038135169060200135612036565b3480156109b157600080fd5b50610251600480360360808110156109c857600080fd5b6001600160a01b0382358116926020810135821692604082013590921691810190608081016060820135640100000000811115610a0457600080fd5b820183602082011115610a1657600080fd5b80359060200191846020830284011164010000000083111715610a3857600080fd5b509092509050612157565b348015610a4f57600080fd5b506103366126b8565b348015610a6457600080fd5b5061033660048036036040811015610a7b57600080fd5b506001600160a01b03813581169160200135166126c7565b348015610a9f57600080fd5b5061030f6126e8565b348015610ab457600080fd5b5061025160048036036020811015610acb57600080fd5b50356001600160a01b03166126ee565b348015610ae757600080fd5b50610336612805565b348015610afc57600080fd5b506102ab600480360360e0811015610b1357600080fd5b506001600160a01b038135811691602081013582169160408201359160608101359160808201359160a08101359091169060c00135612814565b348015610b5957600080fd5b5061077060048036036040811015610b7057600080fd5b506001600160a01b0381358116916020013516612b92565b348015610b9457600080fd5b506103ff60048036036040811015610bab57600080fd5b81359190810190604081016020820135640100000000811115610bcd57600080fd5b820183602082011115610bdf57600080fd5b80359060200191846020830284011164010000000083111715610c0157600080fd5b919080806020026020016040519081016040528093929190818152602001838360200280828437600092019190915250929550612c2a945050505050565b348015610c4b57600080fd5b506102ab60048036036040811015610c6257600080fd5b506001600160a01b0381358116916020013516612c43565b348015610c8657600080fd5b50610336612c6b565b348015610c9b57600080fd5b5061077060048036036020811015610cb257600080fd5b50356001600160a01b0316612c7a565b610809600480360360a0811015610cd857600080fd5b506001600160a01b038135169060208101359060408101359060608101359060800135612fa9565b6103ff60048036036080811015610d1657600080fd5b81359190810190604081016020820135640100000000811115610d3857600080fd5b820183602082011115610d4a57600080fd5b80359060200191846020830284011164010000000083111715610d6c57600080fd5b91935091506001600160a01b03813516906020013561336e565b348015610d9257600080fd5b506107706136ea565b6000808242811015610dee576040805162461bcd60e51b81526020600482015260176024820152761513d35248141310551193d493480e8811561412549151604a1b604482015290519081900360640190fd5b600854600160a01b900460ff1615610e3b576040805162461bcd60e51b815260206004820152600b60248201526a1513d3524814105554d15160aa1b604482015290519081900360640190fd5b600554610e57908a906001600160a01b03168a8a8a308a612814565b9093509150610e678986856136fa565b600554604080517f2e1a7d4d0000000000000000000000000000000000000000000000000000000081526004810185905290516001600160a01b0390921691632e1a7d4d9160248082019260009290919082900301818387803b158015610ecd57600080fd5b505af1158015610ee1573d6000803e3d6000fd5b50505050610eef8583613864565b610efb30868b8661395c565b600554610f1590309087906001600160a01b03168561395c565b50965096945050505050565b6000546001600160a01b03163314610f75576040805162461bcd60e51b815260206004820152601260248201527127bbb730b136329d102327a92124a22222a760711b604482015290519081900360640190fd5b6008805460ff60a01b19169055565b600080610f8f613a0d565b90506000612710610fab87610fa661271086613aa9565b613aeb565b81610fb257fe5b049050610fc0818686613b44565b9695505050505050565b6002546001600160a01b031681565b6006546001600160a01b031681565b6060814281101561103a576040805162461bcd60e51b81526020600482015260176024820152761513d35248141310551193d493480e8811561412549151604a1b604482015290519081900360640190fd5b6005546001600160a01b03168686600019810181811061105657fe5b905060200201356001600160a01b03166001600160a01b0316146110c1576040805162461bcd60e51b815260206004820152601c60248201527f544f4d4920504c4154464f524d203a20494e56414c49445f5041544800000000604482015290519081900360640190fd5b60006110cb613a0d565b905061110c89888880806020026020016040519081016040528093929190818152602001838360200280828437600092019190915250869250613c00915050565b9250878360018551038151811061111f57fe5b602002602001015110156111645760405162461bcd60e51b815260040180806020018281038252602a815260200180615868602a913960400191505060405180910390fd5b6004546000906111b3906001600160a01b03168989848161118157fe5b905060200201356001600160a01b03168a8a600181811061119e57fe5b905060200201356001600160a01b0316613d32565b90506111f7888860008181106111c557fe5b905060200201356001600160a01b031633836127106111ea8f610fa66127108a613aa9565b816111f157fe5b04613e98565b61123684898980806020026020016040519081016040528093929190818152602001838360200280828437600092019190915250309250613eb6915050565b6112798888600081811061124657fe5b905060200201356001600160a01b031633836127106111ea8960008151811061126b57fe5b602002602001015188613aeb565b6112b884898980806020026020016040519081016040528093929190818152602001838360200280828437600092019190915250879250614587915050565b60055484516001600160a01b0390911690632e1a7d4d90869060001981019081106112df57fe5b60200260200101516040518263ffffffff1660e01b815260040180828152602001915050600060405180830381600087803b15801561131d57600080fd5b505af1158015611331573d6000803e3d6000fd5b50505050611356868560018751038151811061134957fe5b6020026020010151613864565b5050509695505050505050565b6060600061136f613a0d565b905061137c84848361498a565b9150505b92915050565b6004546001600160a01b031681565b6000546001600160a01b031633146113e9576040805162461bcd60e51b815260206004820152601260248201527127bbb730b136329d102327a92124a22222a760711b604482015290519081900360640190fd5b6002805473ffffffffffffffffffffffffffffffffffffffff199081166001600160a01b03998a1617909155600380548216978916979097179096556004805487169588169590951790945560058054861693871693909317909255600680548516918616919091179055600780548416918516919091179055600880549092169216919091179055565b606081428110156114c6576040805162461bcd60e51b81526020600482015260176024820152761513d35248141310551193d493480e8811561412549151604a1b604482015290519081900360640190fd5b60006114d0613a0d565b905061151189888880806020026020016040519081016040528093929190818152602001838360200280828437600092019190915250869250613c00915050565b9250878360018551038151811061152457fe5b602002602001015110156115695760405162461bcd60e51b815260040180806020018281038252602a815260200180615868602a913960400191505060405180910390fd5b600454600090611586906001600160a01b03168989848161118157fe5b9050611598888860008181106111c557fe5b6115d7848989808060200260200160405190810160405280939291908181526020018383602002808284376000920191909152508b9250613eb6915050565b6115e78888600081811061124657fe5b61135684898980806020026020016040519081016040528093929190818152602001838360200280828437600092019190915250879250614587915050565b60608142811015611678576040805162461bcd60e51b81526020600482015260176024820152761513d35248141310551193d493480e8811561412549151604a1b604482015290519081900360640190fd5b6005546001600160a01b03168686600019810181811061169457fe5b905060200201356001600160a01b03166001600160a01b0316146116ff576040805162461bcd60e51b815260206004820152601c60248201527f544f4d4920504c4154464f524d203a20494e56414c49445f5041544800000000604482015290519081900360640190fd5b6000611709613a0d565b905061174a8988888080602002602001604051908101604052809392919081815260200183836020028082843760009201919091525086925061498a915050565b9250878360008151811061175a57fe5b6020026020010151111561179f5760405162461bcd60e51b815260040180806020018281038252602681526020018061595c6026913960400191505060405180910390fd5b6004546000906117bc906001600160a01b03168989848161118157fe5b9050611807888860008181106117ce57fe5b905060200201356001600160a01b031633836127106111ea896000815181106117f357fe5b6020026020010151610fa66127108a613aa9565b61184684898980806020026020016040519081016040528093929190818152602001838360200280828437600092019190915250309250613eb6915050565b60055484516001600160a01b0390911690632e1a7d4d908690600019810190811061186d57fe5b60200260200101516040518263ffffffff1660e01b815260040180828152602001915050600060405180830381600087803b1580156118ab57600080fd5b505af11580156118bf573d6000803e3d6000fd5b505050506115d7868560018751038151811061134957fe5b60008060005b835181101561192257846001600160a01b03168482815181106118fc57fe5b60200260200101516001600160a01b0316141561191a576001909101905b6001016118dd565b508060011415611936576001915050611380565b6000915050611380565b60015481565b6008546001600160a01b031681565b600080600083428110156119aa576040805162461bcd60e51b81526020600482015260176024820152761513d35248141310551193d493480e8811561412549151604a1b604482015290519081900360640190fd5b600854600160a01b900460ff16156119f7576040805162461bcd60e51b815260206004820152600b60248201526a1513d3524814105554d15160aa1b604482015290519081900360640190fd5b611a058b8b8b8b8b8b614af4565b6004549195509350600090611a24906001600160a01b03168d8d613d32565b9050611a328c338388614ff7565b611a3e8b338387614ff7565b6008546040805163555d661160e11b81526001600160a01b0384811660048301523360248301529151919092169163aabacc2291604480830192600092919082900301818387803b158015611a9257600080fd5b505af1158015611aa6573d6000803e3d6000fd5b5050604080516335313c2160e11b815233600482015290516001600160a01b0385169350636a627842925060248083019260209291908290030181600087803b158015611af257600080fd5b505af1158015611b06573d6000803e3d6000fd5b505050506040513d6020811015611b1c57600080fd5b5051600854604080516368a6560d60e11b81526001600160a01b038581166004830152336024830152915193965091169163d14cac1a9160448082019260009290919082900301818387803b158015611b7457600080fd5b505af1158015611b88573d6000803e3d6000fd5b50505050611b9833828e8861395c565b611ba433828d8761395c565b8a6001600160a01b03168c6001600160a01b0316336001600160a01b03167fc33fbc9654f9c0dcfcbd829113bdb10afe95619bc0824bc5959ad82fd6952bd98888604051808381526020018281526020019250505060405180910390a450509750975097945050505050565b60608142811015611c62576040805162461bcd60e51b81526020600482015260176024820152761513d35248141310551193d493480e8811561412549151604a1b604482015290519081900360640190fd5b6005546001600160a01b03168686600081611c7957fe5b905060200201356001600160a01b03166001600160a01b031614611ce4576040805162461bcd60e51b815260206004820152601c60248201527f544f4d4920504c4154464f524d203a20494e56414c49445f5041544800000000604482015290519081900360640190fd5b6000611cee613a0d565b9050611d2f34888880806020026020016040519081016040528093929190818152602001838360200280828437600092019190915250869250613c00915050565b92508783600185510381518110611d4257fe5b60200260200101511015611d875760405162461bcd60e51b815260040180806020018281038252602a815260200180615868602a913960400191505060405180910390fd5b600454600090611da4906001600160a01b03168989848161118157fe5b60055485519192506001600160a01b03169063d0e30db09061271090611de3908890600090611dcf57fe5b6020026020010151610fa661271088613aa9565b81611dea57fe5b046040518263ffffffff1660e01b81526004016000604051808303818588803b158015611e1657600080fd5b505af1158015611e2a573d6000803e3d6000fd5b5050505050611e5381612710611e4687600081518110611dcf57fe5b81611e4d57fe5b04615165565b611e92848989808060200260200160405190810160405280939291908181526020018383602002808284376000920191909152508b9250613eb6915050565b60055484516001600160a01b039091169063d0e30db09061271090611eca908890600090611ebc57fe5b602002602001015186613aeb565b81611ed157fe5b046040518263ffffffff1660e01b81526004016000604051808303818588803b158015611efd57600080fd5b505af1158015611f11573d6000803e3d6000fd5b5050505050611f2d81612710611e4687600081518110611ebc57fe5b611f6c84898980806020026020016040519081016040528093929190818152602001838360200280828437600092019190915250879250614587915050565b50505095945050505050565b6007546001600160a01b031681565b6000546001600160a01b03163314611fdb576040805162461bcd60e51b815260206004820152601260248201527127bbb730b136329d102327a92124a22222a760711b604482015290519081900360640190fd5b6008805460ff60a01b1916600160a01b179055565b600080611ffb613a0d565b9050600061200a86868661520b565b905061201861271083613aa9565b61202482612710613aeb565b8161202b57fe5b049695505050505050565b60608142811015612088576040805162461bcd60e51b81526020600482015260176024820152761513d35248141310551193d493480e8811561412549151604a1b604482015290519081900360640190fd5b6000612092613a0d565b90506120d38988888080602002602001604051908101604052809392919081815260200183836020028082843760009201919091525086925061498a915050565b925087836000815181106120e357fe5b602002602001015111156121285760405162461bcd60e51b815260040180806020018281038252602681526020018061595c6026913960400191505060405180910390fd5b600454600090612145906001600160a01b03168989848161118157fe5b9050611598888860008181106117ce57fe5b6000546001600160a01b031633146121ab576040805162461bcd60e51b815260206004820152601260248201527127bbb730b136329d102327a92124a22222a760711b604482015290519081900360640190fd5b600480546040805163e6a4390560e01b81526001600160a01b0388811694820194909452868416602482015290516000939092169163e6a4390591604480820192602092909190829003018186803b15801561220657600080fd5b505afa15801561221a573d6000803e3d6000fd5b505050506040513d602081101561223057600080fd5b50516001600160a01b031614156122c95760048054604080516364e329cb60e11b81526001600160a01b038881169482019490945286841660248201529051929091169163c9c65396916044808201926020929091908290030181600087803b15801561229c57600080fd5b505af11580156122b0573d6000803e3d6000fd5b505050506040513d60208110156122c657600080fd5b50505b600480546040805163e6a4390560e01b81526001600160a01b0388811694820194909452868416602482015290516000939092169163e6a4390591604480820192602092909190829003018186803b15801561232457600080fd5b505afa158015612338573d6000803e3d6000fd5b505050506040513d602081101561234e57600080fd5b5051905060005b82811015612628576000876001600160a01b03166370a0823186868581811061237a57fe5b905060200201356001600160a01b03166040518263ffffffff1660e01b815260040180826001600160a01b03166001600160a01b0316815260200191505060206040518083038186803b1580156123d057600080fd5b505afa1580156123e4573d6000803e3d6000fd5b505050506040513d60208110156123fa57600080fd5b50519050801561261f57876001600160a01b031663f6b911bc86868581811061241f57fe5b905060200201356001600160a01b031685846040518463ffffffff1660e01b815260040180846001600160a01b03166001600160a01b03168152602001836001600160a01b03166001600160a01b0316815260200182815260200193505050506040805180830381600087803b15801561249857600080fd5b505af11580156124ac573d6000803e3d6000fd5b505050506040513d60408110156124c257600080fd5b50506001600160a01b038316636a6278428686858181106124df57fe5b905060200201356001600160a01b03166040518263ffffffff1660e01b815260040180826001600160a01b03166001600160a01b03168152602001915050602060405180830381600087803b15801561253757600080fd5b505af115801561254b573d6000803e3d6000fd5b505050506040513d602081101561256157600080fd5b50506004546001600160a01b031663c9ead25886868581811061258057fe5b905060200201356001600160a01b0316856040518363ffffffff1660e01b815260040180836001600160a01b03166001600160a01b03168152602001826001600160a01b03166001600160a01b0316815260200192505050602060405180830381600087803b1580156125f257600080fd5b505af1158015612606573d6000803e3d6000fd5b505050506040513d602081101561261c57600080fd5b50505b50600101612355565b50600754604080517f6ef9a3e70000000000000000000000000000000000000000000000000000000081526001600160a01b038981166004830152848116602483015291519190921691636ef9a3e791604480830192600092919082900301818387803b15801561269857600080fd5b505af11580156126ac573d6000803e3d6000fd5b50505050505050505050565b6000546001600160a01b031681565b6004546000906126e1906001600160a01b03168484613d32565b9392505050565b61271081565b6000546001600160a01b03163314612742576040805162461bcd60e51b815260206004820152601260248201527127bbb730b136329d102327a92124a22222a760711b604482015290519081900360640190fd5b6001600160a01b03811661279d576040805162461bcd60e51b815260206004820152601860248201527f4f776e61626c653a20494e56414c49445f414444524553530000000000000000604482015290519081900360640190fd5b600080546040516001600160a01b03808516939216917fb532073b38c83145e3e5135377a08bf9aab55bc0fd7c1179cd4fb995d2a5159c91a36000805473ffffffffffffffffffffffffffffffffffffffff19166001600160a01b0392909216919091179055565b6005546001600160a01b031681565b6000808242811015612867576040805162461bcd60e51b81526020600482015260176024820152761513d35248141310551193d493480e8811561412549151604a1b604482015290519081900360640190fd5b600854600160a01b900460ff16156128b4576040805162461bcd60e51b815260206004820152600b60248201526a1513d3524814105554d15160aa1b604482015290519081900360640190fd5b6004546000906128ce906001600160a01b03168c8c613d32565b6008546040805163555d661160e11b81526001600160a01b03808516600483015233602483015291519394508c938f938f93169163aabacc2291604480830192600092919082900301818387803b15801561292857600080fd5b505af115801561293c573d6000803e3d6000fd5b5050604080517ff6b911bc0000000000000000000000000000000000000000000000000000000081523360048201526001600160a01b038d81166024830152604482018890528251600095508594509089169263f6b911bc926064808201939182900301818787803b1580156129b157600080fd5b505af11580156129c5573d6000803e3d6000fd5b505050506040513d60408110156129db57600080fd5b508051602090910151600854604080516368a6560d60e11b81526001600160a01b038b811660048301523360248301529151949650929450169163d14cac1a9160448082019260009290919082900301818387803b158015612a3c57600080fd5b505af1158015612a50573d6000803e3d6000fd5b505050506000612a6085856152d9565b509050806001600160a01b0316856001600160a01b031614612a83578183612a86565b82825b909a509850612a97878d878d61395c565b612aa3878d868c61395c565b8d8a1015612ae25760405162461bcd60e51b81526004018080602001828103825260258152602001806157826025913960400191505060405180910390fd5b8c891015612b215760405162461bcd60e51b81526004018080602001828103825260258152602001806157d76025913960400191505060405180910390fd5b836001600160a01b0316856001600160a01b0316336001600160a01b03167fa8dbaaebbb025c88e9e34c84635cd8238043556e9af43fb161508c898a8e1ef98d8d604051808381526020018281526020019250505060405180910390a4505050505050505097509795505050505050565b600480546040805163e6a4390560e01b81526001600160a01b0386811694820194909452848416602482015290516000938493169163e6a43905916044808301926020929190829003018186803b158015612bec57600080fd5b505afa158015612c00573d6000803e3d6000fd5b505050506040513d6020811015612c1657600080fd5b50516001600160a01b031614159392505050565b60606000612c36613a0d565b905061137c848483613c00565b6004546000908190612c5f906001600160a01b031685856153b0565b915091505b9250929050565b6003546001600160a01b031681565b6002546000906001600160a01b0383811691161480612ca657506005546001600160a01b038381169116145b15612cb357506001612fa4565b600354604080516360ccef1960e11b81527f544f4b454e5f544f5f544741535f504149525f4d494e5f50455243454e540000600482015290516000926001600160a01b03169163c199de32916024808301926020929190829003018186803b158015612d1e57600080fd5b505afa158015612d32573d6000803e3d6000fd5b505050506040513d6020811015612d4857600080fd5b5051600554600254919250612d69916001600160a01b039182169116612b92565b612d77576000915050612fa4565b600254612d8d906001600160a01b031684612b92565b612d9b576000915050612fa4565b6003546002546040805163a9ece1b760e01b81526001600160a01b03928316600482015286831660248201529051919092169163a9ece1b7916044808301926020929190829003018186803b158015612df357600080fd5b505afa158015612e07573d6000803e3d6000fd5b505050506040513d6020811015612e1d57600080fd5b50518015612eab57506003546005546040805163a9ece1b760e01b81526001600160a01b03928316600482015286831660248201529051919092169163a9ece1b7916044808301926020929190829003018186803b158015612e7e57600080fd5b505afa158015612e92573d6000803e3d6000fd5b505050506040513d6020811015612ea857600080fd5b50515b612eb9576000915050612fa4565b600554612ecf906001600160a01b031684612b92565b612edd576001915050612fa4565b80612eec576001915050612fa4565b600454600254600091612f0c916001600160a01b039182169116866153b0565b50600454600554919250600091612f30916001600160a01b039081169116876153b0565b506004546005546002549293506000928392612f5c926001600160a01b039182169290821691166153b0565b91509150600081612f6d8685613aeb565b81612f7457fe5b0490506000612710612f8f612f89848861547e565b89613aeb565b81612f9657fe5b049091101596505050505050505b919050565b60008060008342811015612ffe576040805162461bcd60e51b81526020600482015260176024820152761513d35248141310551193d493480e8811561412549151604a1b604482015290519081900360640190fd5b600854600160a01b900460ff161561304b576040805162461bcd60e51b815260206004820152600b60248201526a1513d3524814105554d15160aa1b604482015290519081900360640190fd5b600554613066908a906001600160a01b03168a348b8b614af4565b60045460055492965090945060009161308d916001600160a01b03908116918d9116613d32565b905061309b8a338388614ff7565b600560009054906101000a90046001600160a01b03166001600160a01b031663d0e30db0856040518263ffffffff1660e01b81526004016000604051808303818588803b1580156130eb57600080fd5b505af11580156130ff573d6000803e3d6000fd5b50506005546040805163a9059cbb60e01b81526001600160a01b038781166004830152602482018b9052915191909216945063a9059cbb9350604480830193506020928290030181600087803b15801561315857600080fd5b505af115801561316c573d6000803e3d6000fd5b505050506040513d602081101561318257600080fd5b505161318a57fe5b6008546040805163555d661160e11b81526001600160a01b0384811660048301523360248301529151919092169163aabacc2291604480830192600092919082900301818387803b1580156131de57600080fd5b505af11580156131f2573d6000803e3d6000fd5b5050604080516335313c2160e11b815233600482015290516001600160a01b0385169350636a627842925060248083019260209291908290030181600087803b15801561323e57600080fd5b505af1158015613252573d6000803e3d6000fd5b505050506040513d602081101561326857600080fd5b5051600854604080516368a6560d60e11b81526001600160a01b038581166004830152336024830152915193965091169163d14cac1a9160448082019260009290919082900301818387803b1580156132c057600080fd5b505af11580156132d4573d6000803e3d6000fd5b50506005546132f2925033915083906001600160a01b03168761395c565b6132fe33828c8861395c565b600554604080518781526020810187905281516001600160a01b03938416938e169233927fc33fbc9654f9c0dcfcbd829113bdb10afe95619bc0824bc5959ad82fd6952bd9929081900390910190a4833411156133615761336133853403613864565b5050955095509592505050565b606081428110156133c0576040805162461bcd60e51b81526020600482015260176024820152761513d35248141310551193d493480e8811561412549151604a1b604482015290519081900360640190fd5b6005546001600160a01b031686866000816133d757fe5b905060200201356001600160a01b03166001600160a01b031614613442576040805162461bcd60e51b815260206004820152601c60248201527f544f4d4920504c4154464f524d203a20494e56414c49445f5041544800000000604482015290519081900360640190fd5b600061344c613a0d565b905061348d8888888080602002602001604051908101604052809392919081815260200183836020028082843760009201919091525086925061498a915050565b9250348360008151811061349d57fe5b602002602001015111156134e25760405162461bcd60e51b815260040180806020018281038252602681526020018061595c6026913960400191505060405180910390fd5b60055483516001600160a01b039091169063d0e30db0906127109061352090879060009061350c57fe5b6020026020010151610fa661271087613aa9565b8161352757fe5b046040518263ffffffff1660e01b81526004016000604051808303818588803b15801561355357600080fd5b505af1158015613567573d6000803e3d6000fd5b50506004546000935061358a92506001600160a01b031690508989848161118157fe5b90506135a381612710611e4687600081518110611dcf57fe5b6135e2848989808060200260200160405190810160405280939291908181526020018383602002808284376000920191909152508b9250613eb6915050565b60055484516001600160a01b039091169063d0e30db0906127109061360c908890600090611ebc57fe5b8161361357fe5b046040518263ffffffff1660e01b81526004016000604051808303818588803b15801561363f57600080fd5b505af1158015613653573d6000803e3d6000fd5b505050505061366f81612710611e4687600081518110611ebc57fe5b6136ae84898980806020026020016040519081016040528093929190818152602001838360200280828437600092019190915250879250614587915050565b836000815181106136bb57fe5b6020026020010151341115611f6c57611f6c33856000815181106136db57fe5b60200260200101513403613864565b600854600160a01b900460ff1681565b604080516001600160a01b038481166024830152604480830185905283518084039091018152606490920183526020820180516001600160e01b031663a9059cbb60e01b178152925182516000946060949389169392918291908083835b602083106137775780518252601f199092019160209182019101613758565b6001836020036101000a0380198251168184511680821785525050505050509050019150506000604051808303816000865af19150503d80600081146137d9576040519150601f19603f3d011682016040523d82523d6000602084013e6137de565b606091505b509150915081801561380c57508051158061380c575080806020019051602081101561380957600080fd5b50515b61385d576040805162461bcd60e51b815260206004820152601f60248201527f5472616e7366657248656c7065723a205452414e534645525f4641494c454400604482015290519081900360640190fd5b5050505050565b604080516000808252602082019092526001600160a01b0384169083906040518082805190602001908083835b602083106138b05780518252601f199092019160209182019101613891565b6001836020036101000a03801982511681845116808217855250505050505090500191505060006040518083038185875af1925050503d8060008114613912576040519150601f19603f3d011682016040523d82523d6000602084013e613917565b606091505b50509050806139575760405162461bcd60e51b81526004018080602001828103825260238152602001806158ea6023913960400191505060405180910390fd5b505050565b600754604080517fa612dea40000000000000000000000000000000000000000000000000000000081526001600160a01b03878116600483015286811660248301528581166044830152606482018590529151919092169163a612dea49160848083019260209291908290030181600087803b1580156139db57600080fd5b505af11580156139ef573d6000803e3d6000fd5b505050506040513d6020811015613a0557600080fd5b505050505050565b600354604080516360ccef1960e11b81527f535741505f4645455f50455243454e5400000000000000000000000000000000600482015290516000926001600160a01b03169163c199de32916024808301926020929190829003018186803b158015613a7857600080fd5b505afa158015613a8c573d6000803e3d6000fd5b505050506040513d6020811015613aa257600080fd5b5051905090565b60006126e183836040518060400160405280601e81526020017f536166654d6174683a207375627472616374696f6e206f766572666c6f7700008152506154d8565b600082613afa57506000611380565b82820282848281613b0757fe5b04146126e15760405162461bcd60e51b81526004018080602001828103825260218152602001806158476021913960400191505060405180910390fd5b6000808411613b845760405162461bcd60e51b815260040180806020018281038252602a815260200180615758602a913960400191505060405180910390fd5b600083118015613b945750600082115b613bcf5760405162461bcd60e51b81526004018080602001828103825260278152602001806158206027913960400191505060405180910390fd5b6000613be1858463ffffffff613aeb16565b90506000613bf5858763ffffffff61547e16565b905080828161202b57fe5b6060825167ffffffffffffffff81118015613c1a57600080fd5b50604051908082528060200260200182016040528015613c44578160200160208202803683370190505b5090508381600081518110613c5557fe5b602090810291909101015260005b6001845103811015613d2a576000848281518110613c7d57fe5b602002602001015190506000858360010181518110613c9857fe5b60200260200101519050600080613cc5600460009054906101000a90046001600160a01b031685856153b0565b915091506000613cee878781518110613cda57fe5b6020026020010151610fa66127108b613aa9565b9050613cff61271082048484613b44565b878760010181518110613d0e57fe5b6020908102919091010152505060019093019250613c63915050565b509392505050565b6000806000613d4185856152d9565b915091506000828260405160200180836001600160a01b03166001600160a01b031660601b8152601401826001600160a01b03166001600160a01b031660601b815260140192505050604051602081830303815290604052805190602001209050600060ff60f81b88838a6001600160a01b0316637c7f84ee6040518163ffffffff1660e01b815260040160206040518083038186803b158015613de457600080fd5b505afa158015613df8573d6000803e3d6000fd5b505050506040513d6020811015613e0e57600080fd5b5051604080517fff000000000000000000000000000000000000000000000000000000000000009590951660208087019190915260609490941b6bffffffffffffffffffffffff191660218601526035850192909252605580850191909152815180850390910181526075909301905281519101206001600160a01b031698975050505050505050565b613ea484848484614ff7565b613eb08383868461395c565b50505050565b600854600160a01b900460ff1615613f03576040805162461bcd60e51b815260206004820152600b60248201526a1513d3524814105554d15160aa1b604482015290519081900360640190fd5b613f2382600184510381518110613f1657fe5b6020026020010151612c7a565b613f5e5760405162461bcd60e51b815260040180806020018281038252602e8152602001806156ff602e913960400191505060405180910390fd5b60005b60018351038110156144ce57613f8a838281518110613f7c57fe5b6020026020010151846118d7565b8015613fa35750613fa3838260010181518110613f7c57fe5b613ff4576040805162461bcd60e51b815260206004820152601d60248201527f44454d415820504c4154464f524d203a20494e56414c49442050415448000000604482015290519081900360640190fd5b60008084838151811061400357fe5b602002602001015185846001018151811061401a57fe5b60200260200101519150915061402f82612c7a565b61406a5760405162461bcd60e51b81526004018080602001828103825260308152602001806157a76030913960400191505060405180910390fd5b6003546040805163a9ece1b760e01b81526001600160a01b03858116600483015284811660248301529151919092169163a9ece1b7916044808301926020929190829003018186803b1580156140bf57600080fd5b505afa1580156140d3573d6000803e3d6000fd5b505050506040513d60208110156140e957600080fd5b50516141265760405162461bcd60e51b815260040180806020018281038252602b81526020018061572d602b913960400191505060405180910390fd5b60008061413384846152d9565b91509150600088866001018151811061414857fe5b60200260200101519050600080846001600160a01b0316876001600160a01b0316146141765782600061417a565b6000835b91509150600060028b5103891061419157896141c2565b6004548b516141c2916001600160a01b03169089908e9060028e019081106141b557fe5b6020026020010151613d32565b6004549091506000906141df906001600160a01b03168a8a613d32565b9050600080826001600160a01b0316630902f1ac6040518163ffffffff1660e01b815260040160606040518083038186803b15801561421d57600080fd5b505afa158015614231573d6000803e3d6000fd5b505050506040513d606081101561424757600080fd5b5080516020909101516dffffffffffffffffffffffffffff918216935016905060006142738383613aeb565b60408051600080825260208201928390527f022c0d9f000000000000000000000000000000000000000000000000000000008352602482018b8152604483018b90526001600160a01b038a81166064850152608060848501908152845160a48601819052969750908a169563022c0d9f958e958e958e9591949193919260c486019290918190849084905b838110156143165781810151838201526020016142fe565b50505050905090810190601f1680156143435780820380516001836020036101000a031916815260200191505b5095505050505050600060405180830381600087803b15801561436557600080fd5b505af1158015614379573d6000803e3d6000fd5b50505050836001600160a01b0316630902f1ac6040518163ffffffff1660e01b815260040160606040518083038186803b1580156143b657600080fd5b505afa1580156143ca573d6000803e3d6000fd5b505050506040513d60608110156143e057600080fd5b5080516020909101516dffffffffffffffffffffffffffff9182169450169150600061440c8484613aeb565b905080821115614463576040805162461bcd60e51b815260206004820152600860248201527f427572676572204b000000000000000000000000000000000000000000000000604482015290519081900360640190fd5b871561448c5760045461448c90614484906001600160a01b03168f8f613d32565b878d8b61395c565b86156144b5576004546144b5906144ad906001600160a01b03168f8f613d32565b878c8a61395c565b50506001909b019a50613f619950505050505050505050565b50816001835103815181106144df57fe5b60200260200101516001600160a01b0316826000815181106144fd57fe5b60200260200101516001600160a01b0316826001600160a01b03167f3070708cdb5d7d3931be8443f49f7ec529e2bbe770b676e3c0cc40e158c5d0398660008151811061454657fe5b60200260200101518760018851038151811061455e57fe5b6020026020010151604051808381526020018281526020019250505060405180910390a4505050565b6145c56040518060400160405280600381526020017f7a7863000000000000000000000000000000000000000000000000000000000081525061556f565b60005b6001835103811015613eb05760006127106145f68684815181106145e857fe5b602002602001015185613aeb565b816145fd57fe5b049050600084838151811061460e57fe5b60200260200101519050600085846001018151811061462957fe5b602002602001015190506000614655600460009054906101000a90046001600160a01b03168484613d32565b6002549091506001600160a01b0384811691161415614709576002546008546040805163012d9b4160e71b8152600481018890526001600160a01b039384166024820152918316604483015251918316916396cda0809160648082019260009290919082900301818387803b1580156146cd57600080fd5b505af11580156146e1573d6000803e3d6000fd5b505060085460025461470493508492506001600160a01b0391821691168761395c565b6148ed565b6004546002546001600160a01b03808416926396cda08092889288926147359290821691849116613d32565b6040518463ffffffff1660e01b815260040180848152602001836001600160a01b03166001600160a01b03168152602001826001600160a01b03166001600160a01b031681526020019350505050600060405180830381600087803b15801561479d57600080fd5b505af11580156147b1573d6000803e3d6000fd5b5050600454600254600093508392506147d8916001600160a01b03908116918891166153b0565b9150915060006147e9878484613b44565b60045460025491925061480a916001600160a01b0391821691899116613d32565b6002546008546040805163012d9b4160e71b8152600481018690526001600160a01b03938416602482015291831660448301525192909116916396cda0809160648082019260009290919082900301818387803b15801561486a57600080fd5b505af115801561487e573d6000803e3d6000fd5b50506004546002546148ad93508792506148a6916001600160a01b03908116918b9116613d32565b888a61395c565b6004546002546148e8916148cf916001600160a01b03918216918a9116613d32565b6008546002546001600160a01b0391821691168461395c565b955050505b831561497a57600854604080517fe60a6a0b0000000000000000000000000000000000000000000000000000000081526001600160a01b038481166004830152602482018890529151919092169163e60a6a0b91604480830192600092919082900301818387803b15801561496157600080fd5b505af1158015614975573d6000803e3d6000fd5b505050505b5050600190920191506145c89050565b6060825167ffffffffffffffff811180156149a457600080fd5b506040519080825280602002602001820160405280156149ce578160200160208202803683370190505b50905083816001855103815181106149e257fe5b60209081029190910101528251600019015b8015614acc576000846001830381518110614a0b57fe5b602002602001015190506000858381518110614a2357fe5b60200260200101519050600080614a50600460009054906101000a90046001600160a01b031685856153b0565b915091506000614a74878781518110614a6557fe5b6020026020010151848461520b565b9050614aa0614a856127108a613aa9565b614a9183612710613aeb565b81614a9857fe5b04600161547e565b876001880381518110614aaf57fe5b6020908102919091010152505060001990930192506149f4915050565b50614aec81600081518110614add57fe5b60200260200101518484613c00565b949350505050565b600480546040805163e6a4390560e01b81526001600160a01b038a811694820194909452888416602482015290516000938493849391169163e6a4390591604480820192602092909190829003018186803b158015614b5257600080fd5b505afa158015614b66573d6000803e3d6000fd5b505050506040513d6020811015614b7c57600080fd5b50516001600160a01b03161415614d0b576003546040805163d48bfca760e01b81526001600160a01b038b811660048301529151919092169163d48bfca79160248083019260209291908290030181600087803b158015614bdc57600080fd5b505af1158015614bf0573d6000803e3d6000fd5b505050506040513d6020811015614c0657600080fd5b50506003546040805163d48bfca760e01b81526001600160a01b038a811660048301529151919092169163d48bfca79160248083019260209291908290030181600087803b158015614c5757600080fd5b505af1158015614c6b573d6000803e3d6000fd5b505050506040513d6020811015614c8157600080fd5b505060048054604080516364e329cb60e11b81526001600160a01b038c8116948201949094528a841660248201529051929091169163c9c65396916044808201926020929091908290030181600087803b158015614cde57600080fd5b505af1158015614cf2573d6000803e3d6000fd5b505050506040513d6020811015614d0857600080fd5b50505b6003546040805163a9ece1b760e01b81526001600160a01b038b811660048301528a811660248301529151919092169163a9ece1b7916044808301926020929190829003018186803b158015614d6057600080fd5b505afa158015614d74573d6000803e3d6000fd5b505050506040513d6020811015614d8a57600080fd5b5051614dc75760405162461bcd60e51b81526004018080602001828103825260348152602001806158926034913960400191505060405180910390fd5b6004546000908190614de3906001600160a01b03168b8b6153b0565b91509150816000148015614df5575080155b15614e0557879350869250614ec5565b6000614e12898484615631565b9050878111614e655785811015614e5a5760405162461bcd60e51b81526004018080602001828103825260258152602001806157d76025913960400191505060405180910390fd5b889450925082614ec3565b6000614e72898486615631565b905089811115614e7e57fe5b87811015614ebd5760405162461bcd60e51b81526004018080602001828103825260258152602001806157826025913960400191505060405180910390fd5b94508793505b505b600480546040805163e6a4390560e01b81526001600160a01b038e8116948201949094528c841660248201529051929091169163c9ead258913391849163e6a43905916044808301926020929190829003018186803b158015614f2757600080fd5b505afa158015614f3b573d6000803e3d6000fd5b505050506040513d6020811015614f5157600080fd5b5051604080517fffffffff0000000000000000000000000000000000000000000000000000000060e086901b1681526001600160a01b0393841660048201529290911660248301525160448083019260209291908290030181600087803b158015614fbb57600080fd5b505af1158015614fcf573d6000803e3d6000fd5b505050506040513d6020811015614fe557600080fd5b50939a92995091975050505050505050565b604080516001600160a01b0385811660248301528481166044830152606480830185905283518084039091018152608490920183526020820180516001600160e01b03167f23b872dd0000000000000000000000000000000000000000000000000000000017815292518251600094606094938a169392918291908083835b602083106150955780518252601f199092019160209182019101615076565b6001836020036101000a0380198251168184511680821785525050505050509050019150506000604051808303816000865af19150503d80600081146150f7576040519150601f19603f3d011682016040523d82523d6000602084013e6150fc565b606091505b509150915081801561512a57508051158061512a575080806020019051602081101561512757600080fd5b50515b613a055760405162461bcd60e51b81526004018080602001828103825260248152602001806159386024913960400191505060405180910390fd5b6005546040805163a9059cbb60e01b81526001600160a01b038581166004830152602482018590529151919092169163a9059cbb9160448083019260209291908290030181600087803b1580156151bb57600080fd5b505af11580156151cf573d6000803e3d6000fd5b505050506040513d60208110156151e557600080fd5b50516151ed57fe5b60055461520790309084906001600160a01b03168461395c565b5050565b600080841161524b5760405162461bcd60e51b815260040180806020018281038252602b81526020018061590d602b913960400191505060405180910390fd5b60008311801561525b5750600082115b6152965760405162461bcd60e51b81526004018080602001828103825260278152602001806158206027913960400191505060405180910390fd5b60006152a8848663ffffffff613aeb16565b905060006152bc848763ffffffff613aa916565b9050610fc060018284816152cc57fe5b049063ffffffff61547e16565b600080826001600160a01b0316846001600160a01b0316141561532d5760405162461bcd60e51b81526004018080602001828103825260248152602001806157fc6024913960400191505060405180910390fd5b826001600160a01b0316846001600160a01b03161061534d578284615350565b83835b90925090506001600160a01b038216612c64576040805162461bcd60e51b815260206004820152601d60248201527f546f6d69537761704c6962726172793a205a45524f5f41444452455353000000604482015290519081900360640190fd5b60008060006153bf85856152d9565b5090506000806153d0888888613d32565b6001600160a01b0316630902f1ac6040518163ffffffff1660e01b815260040160606040518083038186803b15801561540857600080fd5b505afa15801561541c573d6000803e3d6000fd5b505050506040513d606081101561543257600080fd5b5080516020909101516dffffffffffffffffffffffffffff91821693501690506001600160a01b038781169084161461546c57808261546f565b81815b90999098509650505050505050565b6000828201838110156126e1576040805162461bcd60e51b815260206004820152601b60248201527f536166654d6174683a206164646974696f6e206f766572666c6f770000000000604482015290519081900360640190fd5b600081848411156155675760405162461bcd60e51b81526004018080602001828103825283818151815260200191508051906020019080838360005b8381101561552c578181015183820152602001615514565b50505050905090810190601f1680156155595780820380516001836020036101000a031916815260200191505b509250505060405180910390fd5b505050900390565b61562e816040516024018080602001828103825283818151815260200191508051906020019080838360005b838110156155b357818101518382015260200161559b565b50505050905090810190601f1680156155e05780820380516001836020036101000a031916815260200191505b5060408051601f198184030181529190526020810180516001600160e01b03167f41304fac0000000000000000000000000000000000000000000000000000000017905292506156dd915050565b50565b60008084116156715760405162461bcd60e51b81526004018080602001828103825260248152602001806158c66024913960400191505060405180910390fd5b6000831180156156815750600082115b6156bc5760405162461bcd60e51b81526004018080602001828103825260278152602001806158206027913960400191505060405180910390fd5b826156cd858463ffffffff613aeb16565b816156d457fe5b04949350505050565b80516a636f6e736f6c652e6c6f67602083016000808483855afa505050505056fe544f4d4920504c4154464f524d203a20434845434b20544741532f544f4b454e20544f2056414c5545204641494c544f4d4920504c4154464f524d203a2053574150205041495220434f4e46494720434845434b204641494c546f6d69537761704c6962726172793a20494e53554646494349454e545f494e5055545f414d4f554e54544f4d4920504c4154464f524d203a20494e53554646494349454e545f415f414d4f554e54544f4d4920504c4154464f524d203a20434845434b20544741532f544f4b454e2056414c55452046524f4d204641494c544f4d4920504c4154464f524d203a20494e53554646494349454e545f425f414d4f554e54546f6d69537761704c6962726172793a204944454e544943414c5f414444524553534553546f6d69537761704c6962726172793a20494e53554646494349454e545f4c4951554944495459536166654d6174683a206d756c7469706c69636174696f6e206f766572666c6f77544f4d4920504c4154464f524d203a20494e53554646494349454e545f4f55545055545f414d4f554e54544f4d4920504c4154464f524d203a20414444204c4951554944495459205041495220434f4e46494720434845434b204641494c546f6d69537761704c6962726172793a20494e53554646494349454e545f414d4f554e545472616e7366657248656c7065723a204554485f5452414e534645525f4641494c4544546f6d69537761704c6962726172793a20494e53554646494349454e545f4f55545055545f414d4f554e545472616e7366657248656c7065723a205452414e534645525f46524f4d5f4641494c4544544f4d4920504c4154464f524d203a204558434553534956455f494e5055545f414d4f554e54a264697066735822122093a856fd78735417c860994c67846de2090dd93a38aad38415bca83dd41478ed64736f6c63430006060033",
  "devdoc": {
    "methods": {}
  },
  "userdoc": {
    "methods": {}
  },
  "storageLayout": {
    "storage": [
      {
        "astId": 14775,
        "contract": "contracts/TomiPlatform.sol:TomiPlatform",
        "label": "owner",
        "offset": 0,
        "slot": "0",
        "type": "t_address"
      },
      {
        "astId": 6720,
        "contract": "contracts/TomiPlatform.sol:TomiPlatform",
        "label": "version",
        "offset": 0,
        "slot": "1",
        "type": "t_uint256"
      },
      {
        "astId": 6722,
        "contract": "contracts/TomiPlatform.sol:TomiPlatform",
        "label": "TGAS",
        "offset": 0,
        "slot": "2",
        "type": "t_address"
      },
      {
        "astId": 6724,
        "contract": "contracts/TomiPlatform.sol:TomiPlatform",
        "label": "CONFIG",
        "offset": 0,
        "slot": "3",
        "type": "t_address"
      },
      {
        "astId": 6726,
        "contract": "contracts/TomiPlatform.sol:TomiPlatform",
        "label": "FACTORY",
        "offset": 0,
        "slot": "4",
        "type": "t_address"
      },
      {
        "astId": 6728,
        "contract": "contracts/TomiPlatform.sol:TomiPlatform",
        "label": "WETH",
        "offset": 0,
        "slot": "5",
        "type": "t_address"
      },
      {
        "astId": 6730,
        "contract": "contracts/TomiPlatform.sol:TomiPlatform",
        "label": "GOVERNANCE",
        "offset": 0,
        "slot": "6",
        "type": "t_address"
      },
      {
        "astId": 6732,
        "contract": "contracts/TomiPlatform.sol:TomiPlatform",
        "label": "TRANSFER_LISTENER",
        "offset": 0,
        "slot": "7",
        "type": "t_address"
      },
      {
        "astId": 6734,
        "contract": "contracts/TomiPlatform.sol:TomiPlatform",
        "label": "POOL",
        "offset": 0,
        "slot": "8",
        "type": "t_address"
      },
      {
        "astId": 6739,
        "contract": "contracts/TomiPlatform.sol:TomiPlatform",
        "label": "isPause",
        "offset": 20,
        "slot": "8",
        "type": "t_bool"
      }
    ],
    "types": {
      "t_address": {
        "encoding": "inplace",
        "label": "address",
        "numberOfBytes": "20"
      },
      "t_bool": {
        "encoding": "inplace",
        "label": "bool",
        "numberOfBytes": "1"
      },
      "t_uint256": {
        "encoding": "inplace",
        "label": "uint256",
        "numberOfBytes": "32"
      }
    }
  }
}