{
  "address": "0x233b7aD9B298AAa4841F4Df98EA30924068aAEE3",
  "abi": [
    {
      "inputs": [],
      "stateMutability": "nonpayable",
      "type": "constructor"
    },
    {
      "anonymous": false,
      "inputs": [
        {
          "indexed": true,
          "internalType": "address",
          "name": "owner",
          "type": "address"
        },
        {
          "indexed": true,
          "internalType": "address",
          "name": "spender",
          "type": "address"
        },
        {
          "indexed": false,
          "internalType": "uint256",
          "name": "value",
          "type": "uint256"
        }
      ],
      "name": "Approval",
      "type": "event"
    },
    {
      "anonymous": false,
      "inputs": [
        {
          "indexed": true,
          "internalType": "address",
          "name": "previousOwner",
          "type": "address"
        },
        {
          "indexed": true,
          "internalType": "address",
          "name": "newOwner",
          "type": "address"
        }
      ],
      "name": "OwnershipTransferred",
      "type": "event"
    },
    {
      "anonymous": false,
      "inputs": [
        {
          "indexed": true,
          "internalType": "address",
          "name": "from",
          "type": "address"
        },
        {
          "indexed": true,
          "internalType": "address",
          "name": "to",
          "type": "address"
        },
        {
          "indexed": false,
          "internalType": "uint256",
          "name": "value",
          "type": "uint256"
        }
      ],
      "name": "Transfer",
      "type": "event"
    },
    {
      "inputs": [],
      "name": "_decimals",
      "outputs": [
        {
          "internalType": "uint8",
          "name": "",
          "type": "uint8"
        }
      ],
      "stateMutability": "view",
      "type": "function"
    },
    {
      "inputs": [],
      "name": "_name",
      "outputs": [
        {
          "internalType": "string",
          "name": "",
          "type": "string"
        }
      ],
      "stateMutability": "view",
      "type": "function"
    },
    {
      "inputs": [],
      "name": "_symbol",
      "outputs": [
        {
          "internalType": "string",
          "name": "",
          "type": "string"
        }
      ],
      "stateMutability": "view",
      "type": "function"
    },
    {
      "inputs": [
        {
          "internalType": "address",
          "name": "owner",
          "type": "address"
        },
        {
          "internalType": "address",
          "name": "spender",
          "type": "address"
        }
      ],
      "name": "allowance",
      "outputs": [
        {
          "internalType": "uint256",
          "name": "",
          "type": "uint256"
        }
      ],
      "stateMutability": "view",
      "type": "function"
    },
    {
      "inputs": [
        {
          "internalType": "address",
          "name": "spender",
          "type": "address"
        },
        {
          "internalType": "uint256",
          "name": "amount",
          "type": "uint256"
        }
      ],
      "name": "approve",
      "outputs": [
        {
          "internalType": "bool",
          "name": "",
          "type": "bool"
        }
      ],
      "stateMutability": "nonpayable",
      "type": "function"
    },
    {
      "inputs": [
        {
          "internalType": "address",
          "name": "account",
          "type": "address"
        }
      ],
      "name": "balanceOf",
      "outputs": [
        {
          "internalType": "uint256",
          "name": "",
          "type": "uint256"
        }
      ],
      "stateMutability": "view",
      "type": "function"
    },
    {
      "inputs": [
        {
          "internalType": "uint256",
          "name": "amount",
          "type": "uint256"
        }
      ],
      "name": "burn",
      "outputs": [
        {
          "internalType": "bool",
          "name": "",
          "type": "bool"
        }
      ],
      "stateMutability": "nonpayable",
      "type": "function"
    },
    {
      "inputs": [],
      "name": "decimals",
      "outputs": [
        {
          "internalType": "uint8",
          "name": "",
          "type": "uint8"
        }
      ],
      "stateMutability": "view",
      "type": "function"
    },
    {
      "inputs": [
        {
          "internalType": "address",
          "name": "spender",
          "type": "address"
        },
        {
          "internalType": "uint256",
          "name": "subtractedValue",
          "type": "uint256"
        }
      ],
      "name": "decreaseAllowance",
      "outputs": [
        {
          "internalType": "bool",
          "name": "",
          "type": "bool"
        }
      ],
      "stateMutability": "nonpayable",
      "type": "function"
    },
    {
      "inputs": [],
      "name": "getOwner",
      "outputs": [
        {
          "internalType": "address",
          "name": "",
          "type": "address"
        }
      ],
      "stateMutability": "view",
      "type": "function"
    },
    {
      "inputs": [
        {
          "internalType": "address",
          "name": "spender",
          "type": "address"
        },
        {
          "internalType": "uint256",
          "name": "addedValue",
          "type": "uint256"
        }
      ],
      "name": "increaseAllowance",
      "outputs": [
        {
          "internalType": "bool",
          "name": "",
          "type": "bool"
        }
      ],
      "stateMutability": "nonpayable",
      "type": "function"
    },
    {
      "inputs": [
        {
          "internalType": "uint256",
          "name": "amount",
          "type": "uint256"
        }
      ],
      "name": "mint",
      "outputs": [
        {
          "internalType": "bool",
          "name": "",
          "type": "bool"
        }
      ],
      "stateMutability": "nonpayable",
      "type": "function"
    },
    {
      "inputs": [],
      "name": "name",
      "outputs": [
        {
          "internalType": "string",
          "name": "",
          "type": "string"
        }
      ],
      "stateMutability": "view",
      "type": "function"
    },
    {
      "inputs": [],
      "name": "owner",
      "outputs": [
        {
          "internalType": "address",
          "name": "",
          "type": "address"
        }
      ],
      "stateMutability": "view",
      "type": "function"
    },
    {
      "inputs": [],
      "name": "renounceOwnership",
      "outputs": [],
      "stateMutability": "nonpayable",
      "type": "function"
    },
    {
      "inputs": [],
      "name": "symbol",
      "outputs": [
        {
          "internalType": "string",
          "name": "",
          "type": "string"
        }
      ],
      "stateMutability": "view",
      "type": "function"
    },
    {
      "inputs": [],
      "name": "totalSupply",
      "outputs": [
        {
          "internalType": "uint256",
          "name": "",
          "type": "uint256"
        }
      ],
      "stateMutability": "view",
      "type": "function"
    },
    {
      "inputs": [
        {
          "internalType": "address",
          "name": "recipient",
          "type": "address"
        },
        {
          "internalType": "uint256",
          "name": "amount",
          "type": "uint256"
        }
      ],
      "name": "transfer",
      "outputs": [
        {
          "internalType": "bool",
          "name": "",
          "type": "bool"
        }
      ],
      "stateMutability": "nonpayable",
      "type": "function"
    },
    {
      "inputs": [
        {
          "internalType": "address",
          "name": "sender",
          "type": "address"
        },
        {
          "internalType": "address",
          "name": "recipient",
          "type": "address"
        },
        {
          "internalType": "uint256",
          "name": "amount",
          "type": "uint256"
        }
      ],
      "name": "transferFrom",
      "outputs": [
        {
          "internalType": "bool",
          "name": "",
          "type": "bool"
        }
      ],
      "stateMutability": "nonpayable",
      "type": "function"
    },
    {
      "inputs": [
        {
          "internalType": "address",
          "name": "newOwner",
          "type": "address"
        }
      ],
      "name": "transferOwnership",
      "outputs": [],
      "stateMutability": "nonpayable",
      "type": "function"
    }
  ],
  "transactionHash": "0x7b63fb11616bad1627a397918728d256edd5a041ce6072581b843fb86475ed51",
  "args": [],
  "solcInputHash": "ad48c0ef05effdac7b94459531dfc48b",
  "bytecode": "0x60806040523480156200001157600080fd5b506000620000276001600160e01b036200014016565b600080546001600160a01b0319166001600160a01b0383169081178255604051929350917f8be0079c531659141344cd1fd0a4f28419497f9722a3daafe3b4186f6b6457e0908290a35060408051808201909152600a8082526915195d1a195c881554d160b21b6020909201918252620000a49160069162000145565b50604080518082019091526004808252631554d11560e21b6020909201918252620000d29160059162000145565b506004805460ff191660121790556a18d0bf423c03d8de0000006003819055336000818152600160209081526040808320859055805194855251929391927fddf252ad1be2c89b69c2b068fc378daa952ba7f163c4a11628f55a4df523b3ef9281900390910190a3620001e7565b335b90565b828054600181600116156101000203166002900490600052602060002090601f016020900481019282601f106200018857805160ff1916838001178555620001b8565b82800160010185558215620001b8579182015b82811115620001b85782518255916020019190600101906200019b565b50620001c6929150620001ca565b5090565b6200014291905b80821115620001c65760008155600101620001d1565b61119880620001f76000396000f3fe608060405234801561001057600080fd5b506004361061016c5760003560e01c8063893d20e8116100cd578063a9059cbb11610081578063d28d885211610066578063d28d8852146103ce578063dd62ed3e146103d6578063f2fde38b146104045761016c565b8063a9059cbb1461039a578063b09f1266146103c65761016c565b806395d89b41116100b257806395d89b4114610349578063a0712d6814610351578063a457c2d71461036e5761016c565b8063893d20e81461031d5780638da5cb5b146103415761016c565b806332424aa31161012457806342966c681161010957806342966c68146102d057806370a08231146102ed578063715018a6146103135761016c565b806332424aa31461029c57806339509351146102a45761016c565b806318160ddd1161015557806318160ddd1461022e57806323b872dd14610248578063313ce5671461027e5761016c565b806306fdde0314610171578063095ea7b3146101ee575b600080fd5b61017961042a565b6040805160208082528351818301528351919283929083019185019080838360005b838110156101b357818101518382015260200161019b565b50505050905090810190601f1680156101e05780820380516001836020036101000a031916815260200191505b509250505060405180910390f35b61021a6004803603604081101561020457600080fd5b506001600160a01b0381351690602001356104c0565b604080519115158252519081900360200190f35b6102366104dd565b60408051918252519081900360200190f35b61021a6004803603606081101561025e57600080fd5b506001600160a01b038135811691602081013590911690604001356104e3565b610286610570565b6040805160ff9092168252519081900360200190f35b610286610579565b61021a600480360360408110156102ba57600080fd5b506001600160a01b038135169060200135610582565b61021a600480360360208110156102e657600080fd5b50356105d6565b6102366004803603602081101561030357600080fd5b50356001600160a01b03166105f1565b61031b61060c565b005b6103256106cd565b604080516001600160a01b039092168252519081900360200190f35b6103256106dc565b6101796106eb565b61021a6004803603602081101561036757600080fd5b503561074c565b61021a6004803603604081101561038457600080fd5b506001600160a01b0381351690602001356107c9565b61021a600480360360408110156103b057600080fd5b506001600160a01b038135169060200135610837565b61017961084b565b6101796108d9565b610236600480360360408110156103ec57600080fd5b506001600160a01b0381358116916020013516610934565b61031b6004803603602081101561041a57600080fd5b50356001600160a01b031661095f565b60068054604080516020601f60026000196101006001881615020190951694909404938401819004810282018101909252828152606093909290918301828280156104b65780601f1061048b576101008083540402835291602001916104b6565b820191906000526020600020905b81548152906001019060200180831161049957829003601f168201915b5050505050905090565b60006104d46104cd6109d5565b84846109d9565b50600192915050565b60035490565b60006104f0848484610ac5565b610566846104fc6109d5565b61056185604051806060016040528060288152602001611068602891396001600160a01b038a1660009081526002602052604081209061053a6109d5565b6001600160a01b03168152602081019190915260400160002054919063ffffffff610c2316565b6109d9565b5060019392505050565b60045460ff1690565b60045460ff1681565b60006104d461058f6109d5565b8461056185600260006105a06109d5565b6001600160a01b03908116825260208083019390935260409182016000908120918c16815292529020549063ffffffff610cba16565b60006105e96105e36109d5565b83610d1b565b506001919050565b6001600160a01b031660009081526001602052604090205490565b6106146109d5565b6000546001600160a01b03908116911614610676576040805162461bcd60e51b815260206004820181905260248201527f4f776e61626c653a2063616c6c6572206973206e6f7420746865206f776e6572604482015290519081900360640190fd5b600080546040516001600160a01b03909116907f8be0079c531659141344cd1fd0a4f28419497f9722a3daafe3b4186f6b6457e0908390a36000805473ffffffffffffffffffffffffffffffffffffffff19169055565b60006106d76106dc565b905090565b6000546001600160a01b031690565b60058054604080516020601f60026000196101006001881615020190951694909404938401819004810282018101909252828152606093909290918301828280156104b65780601f1061048b576101008083540402835291602001916104b6565b60006107566109d5565b6000546001600160a01b039081169116146107b8576040805162461bcd60e51b815260206004820181905260248201527f4f776e61626c653a2063616c6c6572206973206e6f7420746865206f776e6572604482015290519081900360640190fd5b6105e96107c36109d5565b83610e17565b60006104d46107d66109d5565b84610561856040518060600160405280602581526020016110d960259139600260006108006109d5565b6001600160a01b03908116825260208083019390935260409182016000908120918d1681529252902054919063ffffffff610c2316565b60006104d46108446109d5565b8484610ac5565b6005805460408051602060026001851615610100026000190190941693909304601f810184900484028201840190925281815292918301828280156108d15780601f106108a6576101008083540402835291602001916108d1565b820191906000526020600020905b8154815290600101906020018083116108b457829003601f168201915b505050505081565b6006805460408051602060026001851615610100026000190190941693909304601f810184900484028201840190925281815292918301828280156108d15780601f106108a6576101008083540402835291602001916108d1565b6001600160a01b03918216600090815260026020908152604080832093909416825291909152205490565b6109676109d5565b6000546001600160a01b039081169116146109c9576040805162461bcd60e51b815260206004820181905260248201527f4f776e61626c653a2063616c6c6572206973206e6f7420746865206f776e6572604482015290519081900360640190fd5b6109d281610f09565b50565b3390565b6001600160a01b038316610a1e5760405162461bcd60e51b815260040180806020018281038252602481526020018061101e6024913960400191505060405180910390fd5b6001600160a01b038216610a635760405162461bcd60e51b81526004018080602001828103825260228152602001806111416022913960400191505060405180910390fd5b6001600160a01b03808416600081815260026020908152604080832094871680845294825291829020859055815185815291517f8c5be1e5ebec7d5bd14f71427d1e84f3dd0314c0f7b2291e5b200ac8c7c3b9259281900390910190a3505050565b6001600160a01b038316610b0a5760405162461bcd60e51b8152600401808060200182810382526025815260200180610ff96025913960400191505060405180910390fd5b6001600160a01b038216610b4f5760405162461bcd60e51b81526004018080602001828103825260238152602001806110b66023913960400191505060405180910390fd5b610b9281604051806060016040528060268152602001611090602691396001600160a01b038616600090815260016020526040902054919063ffffffff610c2316565b6001600160a01b038085166000908152600160205260408082209390935590841681522054610bc7908263ffffffff610cba16565b6001600160a01b0380841660008181526001602090815260409182902094909455805185815290519193928716927fddf252ad1be2c89b69c2b068fc378daa952ba7f163c4a11628f55a4df523b3ef92918290030190a3505050565b60008184841115610cb25760405162461bcd60e51b81526004018080602001828103825283818151815260200191508051906020019080838360005b83811015610c77578181015183820152602001610c5f565b50505050905090810190601f168015610ca45780820380516001836020036101000a031916815260200191505b509250505060405180910390fd5b505050900390565b600082820183811015610d14576040805162461bcd60e51b815260206004820152601b60248201527f536166654d6174683a206164646974696f6e206f766572666c6f770000000000604482015290519081900360640190fd5b9392505050565b6001600160a01b038216610d605760405162461bcd60e51b81526004018080602001828103825260218152602001806110fe6021913960400191505060405180910390fd5b610da38160405180606001604052806022815260200161111f602291396001600160a01b038516600090815260016020526040902054919063ffffffff610c2316565b6001600160a01b038316600090815260016020526040902055600354610dcf908263ffffffff610fb616565b6003556040805182815290516000916001600160a01b038516917fddf252ad1be2c89b69c2b068fc378daa952ba7f163c4a11628f55a4df523b3ef9181900360200190a35050565b6001600160a01b038216610e72576040805162461bcd60e51b815260206004820152601f60248201527f42455032303a206d696e7420746f20746865207a65726f206164647265737300604482015290519081900360640190fd5b600354610e85908263ffffffff610cba16565b6003556001600160a01b038216600090815260016020526040902054610eb1908263ffffffff610cba16565b6001600160a01b03831660008181526001602090815260408083209490945583518581529351929391927fddf252ad1be2c89b69c2b068fc378daa952ba7f163c4a11628f55a4df523b3ef9281900390910190a35050565b6001600160a01b038116610f4e5760405162461bcd60e51b81526004018080602001828103825260268152602001806110426026913960400191505060405180910390fd5b600080546040516001600160a01b03808516939216917f8be0079c531659141344cd1fd0a4f28419497f9722a3daafe3b4186f6b6457e091a36000805473ffffffffffffffffffffffffffffffffffffffff19166001600160a01b0392909216919091179055565b6000610d1483836040518060400160405280601e81526020017f536166654d6174683a207375627472616374696f6e206f766572666c6f770000815250610c2356fe42455032303a207472616e736665722066726f6d20746865207a65726f206164647265737342455032303a20617070726f76652066726f6d20746865207a65726f20616464726573734f776e61626c653a206e6577206f776e657220697320746865207a65726f206164647265737342455032303a207472616e7366657220616d6f756e74206578636565647320616c6c6f77616e636542455032303a207472616e7366657220616d6f756e7420657863656564732062616c616e636542455032303a207472616e7366657220746f20746865207a65726f206164647265737342455032303a2064656372656173656420616c6c6f77616e63652062656c6f77207a65726f42455032303a206275726e2066726f6d20746865207a65726f206164647265737342455032303a206275726e20616d6f756e7420657863656564732062616c616e636542455032303a20617070726f766520746f20746865207a65726f2061646472657373a26469706673582212200ba9ce3a2afdc58ed794c7882b2214ade6f6857190aeadff0d6eb5dc86b2ae9b64736f6c63430006060033",
  "devdoc": {
    "methods": {
      "allowance(address,address)": {
        "details": "See {BEP20-allowance}."
      },
      "approve(address,uint256)": {
        "details": "See {BEP20-approve}.   * Requirements:   * - `spender` cannot be the zero address."
      },
      "balanceOf(address)": {
        "details": "See {BEP20-balanceOf}."
      },
      "burn(uint256)": {
        "details": "Burn `amount` tokens and decreasing the total supply."
      },
      "decimals()": {
        "details": "Returns the token decimals."
      },
      "decreaseAllowance(address,uint256)": {
        "details": "Atomically decreases the allowance granted to `spender` by the caller.   * This is an alternative to {approve} that can be used as a mitigation for problems described in {BEP20-approve}.   * Emits an {Approval} event indicating the updated allowance.   * Requirements:   * - `spender` cannot be the zero address. - `spender` must have allowance for the caller of at least `subtractedValue`."
      },
      "getOwner()": {
        "details": "Returns the bep token owner."
      },
      "increaseAllowance(address,uint256)": {
        "details": "Atomically increases the allowance granted to `spender` by the caller.   * This is an alternative to {approve} that can be used as a mitigation for problems described in {BEP20-approve}.   * Emits an {Approval} event indicating the updated allowance.   * Requirements:   * - `spender` cannot be the zero address."
      },
      "mint(uint256)": {
        "details": "Creates `amount` tokens and assigns them to `msg.sender`, increasing the total supply.   * Requirements   * - `msg.sender` must be the token owner"
      },
      "name()": {
        "details": "Returns the token name."
      },
      "owner()": {
        "details": "Returns the address of the current owner."
      },
      "renounceOwnership()": {
        "details": "Leaves the contract without owner. It will not be possible to call `onlyOwner` functions anymore. Can only be called by the current owner.   * NOTE: Renouncing ownership will leave the contract without an owner, thereby removing any functionality that is only available to the owner."
      },
      "symbol()": {
        "details": "Returns the token symbol."
      },
      "totalSupply()": {
        "details": "See {BEP20-totalSupply}."
      },
      "transfer(address,uint256)": {
        "details": "See {BEP20-transfer}.   * Requirements:   * - `recipient` cannot be the zero address. - the caller must have a balance of at least `amount`."
      },
      "transferFrom(address,address,uint256)": {
        "details": "See {BEP20-transferFrom}.   * Emits an {Approval} event indicating the updated allowance. This is not required by the EIP. See the note at the beginning of {BEP20};   * Requirements: - `sender` and `recipient` cannot be the zero address. - `sender` must have a balance of at least `amount`. - the caller must have allowance for `sender`'s tokens of at least `amount`."
      },
      "transferOwnership(address)": {
        "details": "Transfers ownership of the contract to a new account (`newOwner`). Can only be called by the current owner."
      }
    }
  },
  "userdoc": {
    "methods": {}
  },
  "storageLayout": {
    "storage": [
      {
        "astId": 324,
        "contract": "contracts/test/USDT.sol:USDT",
        "label": "_owner",
        "offset": 0,
        "slot": "0",
        "type": "t_address"
      },
      {
        "astId": 449,
        "contract": "contracts/test/USDT.sol:USDT",
        "label": "_balances",
        "offset": 0,
        "slot": "1",
        "type": "t_mapping(t_address,t_uint256)"
      },
      {
        "astId": 455,
        "contract": "contracts/test/USDT.sol:USDT",
        "label": "_allowances",
        "offset": 0,
        "slot": "2",
        "type": "t_mapping(t_address,t_mapping(t_address,t_uint256))"
      },
      {
        "astId": 457,
        "contract": "contracts/test/USDT.sol:USDT",
        "label": "_totalSupply",
        "offset": 0,
        "slot": "3",
        "type": "t_uint256"
      },
      {
        "astId": 459,
        "contract": "contracts/test/USDT.sol:USDT",
        "label": "_decimals",
        "offset": 0,
        "slot": "4",
        "type": "t_uint8"
      },
      {
        "astId": 461,
        "contract": "contracts/test/USDT.sol:USDT",
        "label": "_symbol",
        "offset": 0,
        "slot": "5",
        "type": "t_string_storage"
      },
      {
        "astId": 463,
        "contract": "contracts/test/USDT.sol:USDT",
        "label": "_name",
        "offset": 0,
        "slot": "6",
        "type": "t_string_storage"
      }
    ],
    "types": {
      "t_address": {
        "encoding": "inplace",
        "label": "address",
        "numberOfBytes": "20"
      },
      "t_mapping(t_address,t_mapping(t_address,t_uint256))": {
        "encoding": "mapping",
        "key": "t_address",
        "label": "mapping(address => mapping(address => uint256))",
        "numberOfBytes": "32",
        "value": "t_mapping(t_address,t_uint256)"
      },
      "t_mapping(t_address,t_uint256)": {
        "encoding": "mapping",
        "key": "t_address",
        "label": "mapping(address => uint256)",
        "numberOfBytes": "32",
        "value": "t_uint256"
      },
      "t_string_storage": {
        "encoding": "bytes",
        "label": "string",
        "numberOfBytes": "32"
      },
      "t_uint256": {
        "encoding": "inplace",
        "label": "uint256",
        "numberOfBytes": "32"
      },
      "t_uint8": {
        "encoding": "inplace",
        "label": "uint8",
        "numberOfBytes": "1"
      }
    }
  }
}