{
    "contractName": "TomiBallotFactory",
    "abi": [
        {
            "inputs": [
                {
                    "internalType": "address",
                    "name": "_TOMI",
                    "type": "address"
                }
            ],
            "stateMutability": "nonpayable",
            "type": "constructor"
        },
        {
            "anonymous": false,
            "inputs": [
                {
                    "indexed": true,
                    "internalType": "address",
                    "name": "proposer",
                    "type": "address"
                },
                {
                    "indexed": true,
                    "internalType": "address",
                    "name": "ballotAddr",
                    "type": "address"
                },
                {
                    "indexed": false,
                    "internalType": "uint256",
                    "name": "createTime",
                    "type": "uint256"
                }
            ],
            "name": "Created",
            "type": "event"
        },
        {
            "anonymous": false,
            "inputs": [
                {
                    "indexed": true,
                    "internalType": "address",
                    "name": "proposer",
                    "type": "address"
                },
                {
                    "indexed": true,
                    "internalType": "address",
                    "name": "ballotAddr",
                    "type": "address"
                },
                {
                    "indexed": false,
                    "internalType": "uint256",
                    "name": "createTime",
                    "type": "uint256"
                }
            ],
            "name": "RevenueCreated",
            "type": "event"
        },
        {
            "inputs": [],
            "name": "TOMI",
            "outputs": [
                {
                    "internalType": "address",
                    "name": "",
                    "type": "address"
                }
            ],
            "stateMutability": "view",
            "type": "function"
        },
        {
            "inputs": [
                {
                    "internalType": "address",
                    "name": "_proposer",
                    "type": "address"
                },
                {
                    "internalType": "uint256",
                    "name": "_value",
                    "type": "uint256"
                },
                {
                    "internalType": "uint256",
                    "name": "_endTime",
                    "type": "uint256"
                },
                {
                    "internalType": "uint256",
                    "name": "_executionTime",
                    "type": "uint256"
                },
                {
                    "internalType": "string",
                    "name": "_subject",
                    "type": "string"
                },
                {
                    "internalType": "string",
                    "name": "_content",
                    "type": "string"
                }
            ],
            "name": "create",
            "outputs": [
                {
                    "internalType": "address",
                    "name": "",
                    "type": "address"
                }
            ],
            "stateMutability": "nonpayable",
            "type": "function"
        },
        {
            "inputs": [
                {
                    "internalType": "address",
                    "name": "_proposer",
                    "type": "address"
                },
                {
                    "internalType": "uint256",
                    "name": "_endTime",
                    "type": "uint256"
                },
                {
                    "internalType": "uint256",
                    "name": "_executionTime",
                    "type": "uint256"
                },
                {
                    "internalType": "string",
                    "name": "_subject",
                    "type": "string"
                },
                {
                    "internalType": "string",
                    "name": "_content",
                    "type": "string"
                }
            ],
            "name": "createShareRevenue",
            "outputs": [
                {
                    "internalType": "address",
                    "name": "",
                    "type": "address"
                }
            ],
            "stateMutability": "nonpayable",
            "type": "function"
        }
    ],
    "bytecode": "608060405234801561001057600080fd5b506040516121773803806121778339818101604052602081101561003357600080fd5b5051600080546001600160a01b039092166001600160a01b0319909216919091179055612112806100656000396000f3fe608060405234801561001057600080fd5b50600436106100415760003560e01c806310bae72c14610046578063c1dfe65214610141578063ed440dc414610149575b600080fd5b610125600480360360c081101561005c57600080fd5b6001600160a01b038235169160208101359160408201359160608101359181019060a081016080820135600160201b81111561009757600080fd5b8201836020820111156100a957600080fd5b803590602001918460018302840111600160201b831117156100ca57600080fd5b919390929091602081019035600160201b8111156100e757600080fd5b8201836020820111156100f957600080fd5b803590602001918460018302840111600160201b8311171561011a57600080fd5b509092509050610223565b604080516001600160a01b039092168252519081900360200190f35b610125610369565b610125600480360360a081101561015f57600080fd5b6001600160a01b038235169160208101359160408201359190810190608081016060820135600160201b81111561019557600080fd5b8201836020820111156101a757600080fd5b803590602001918460018302840111600160201b831117156101c857600080fd5b919390929091602081019035600160201b8111156101e557600080fd5b8201836020820111156101f757600080fd5b803590602001918460018302840111600160201b8311171561021857600080fd5b509092509050610378565b6000808060009054906101000a90046001600160a01b03168a8a8a8a338b8b8b8b604051610250906104a6565b808b6001600160a01b031681526020018a6001600160a01b03168152602001898152602001888152602001878152602001866001600160a01b0316815260200180602001806020018381038352878782818152602001925080828437600083820152601f01601f1916909101848103835285815260200190508585808284376000838201819052604051601f909201601f19169093018190039f509d50909b505050505050505050505050f08015801561030e573d6000803e3d6000fd5b509050806001600160a01b03168a6001600160a01b03167f822b3073be62c5c7f143c2dcd71ee266434ee935d90a1eec3be34710ac8ec1a2426040518082815260200191505060405180910390a39998505050505050505050565b6000546001600160a01b031681565b60008060008054906101000a90046001600160a01b0316898989338a8a8a8a6040516103a3906104b3565b6001600160a01b03808b168252898116602083015260408201899052606082018890528616608082015260e060a0820181815290820185905260c082016101008301878780828437600083820152601f01601f1916909101848103835285815260200190508585808284376000838201819052604051601f909201601f19169093018190039e509c50909a5050505050505050505050f08015801561044c573d6000803e3d6000fd5b509050806001600160a01b0316896001600160a01b03167f7544ae9be61c5a3a07c46b904d79276190894375610bc48757451870459f0850426040518082815260200191505060405180910390a398975050505050505050565b610f56806104c183390190565b610cc6806114178339019056fe60806040523480156200001157600080fd5b5060405162000f5638038062000f5683398181016040526101008110156200003857600080fd5b815160208301516040808501516060860151608087015160a088015160c089018051955197999698949793969295919483019291846401000000008211156200008057600080fd5b9083019060208201858111156200009657600080fd5b8251640100000000811182820188101715620000b157600080fd5b82525081516020918201929091019080838360005b83811015620000e0578181015183820152602001620000c6565b50505050905090810190601f1680156200010e5780820380516001836020036101000a031916815260200191505b50604052602001805160405193929190846401000000008211156200013257600080fd5b9083019060208201858111156200014857600080fd5b82516401000000008111828201881017156200016357600080fd5b82525081516020918201929091019080838360005b838110156200019257818101518382015260200162000178565b50505050905090810190601f168015620001c05780820380516001836020036101000a031916815260200191505b506040525050600280546001600160a01b03808c166001600160a01b031992831617909255600480548b8416908316179055600589905560068890556007879055600380549287169290911691909117905550815162000228906009906020850190620002a3565b5080516200023e90600a906020840190620002a3565b50506001602052505060007fcc69885fda6bcc1a4ace058b4a62bf5e179ea78fd58a1ccd71c22cc9b688792f819055600281527fd9d16d34ffb15ba3a3d852f0d403e2ce1d691fb54de27ac87cd2f993f3ec330f55505042600c55506200033f915050565b828054600181600116156101000203166002900490600052602060002090601f016020900481019282601f10620002e657805160ff191683800117855562000316565b8280016001018555821562000316579182015b8281111562000316578251825591602001919060010190620002f9565b506200032492915062000328565b5090565b5b8082111562000324576000815560010162000329565b610c07806200034f6000396000f3fe608060405234801561001057600080fd5b50600436106101215760003560e01c8063609ff1bd116100ad578063a8e4fb9011610071578063a8e4fb90146102f2578063c1dfe652146102fa578063c9c3d42e14610302578063efbe1c1c1461030a578063f4396e2a1461031257610121565b8063609ff1bd1461027e57806361dcd7ab14610286578063653721471461028e5780638a4d5a6714610296578063a3ec138d1461029e57610121565b80632ddbd13a116100f45780632ddbd13a146102125780633197cbb61461021a5780633fa4f245146102225780634e34048c1461022a5780635c19a95c1461025857610121565b8063013cf08b146101265780630a59a98c146101555780630c340a24146101d257806312fa6feb146101f6575b600080fd5b6101436004803603602081101561013c57600080fd5b5035610338565b60408051918252519081900360200190f35b61015d61034a565b6040805160208082528351818301528351919283929083019185019080838360005b8381101561019757818101518382015260200161017f565b50505050905090810190601f1680156101c45780820380516001836020036101000a031916815260200191505b509250505060405180910390f35b6101da6103d8565b604080516001600160a01b039092168252519081900360200190f35b6101fe6103e7565b604080519115158252519081900360200190f35b6101436103f0565b6101436103f6565b6101436103fc565b6102566004803603604081101561024057600080fd5b506001600160a01b038135169060200135610402565b005b6102566004803603602081101561026e57600080fd5b50356001600160a01b031661050e565b6101436106e3565b6101436107a7565b6101fe6107ad565b61015d6107eb565b6102c4600480360360208110156102b457600080fd5b50356001600160a01b0316610846565b6040805194855292151560208501526001600160a01b03909116838301526060830152519081900360800190f35b6101da61087b565b6101da61088a565b610143610899565b6101fe61089f565b6101436004803603602081101561032857600080fd5b50356001600160a01b03166109b9565b60016020526000908152604090205481565b6009805460408051602060026001851615610100026000190190941693909304601f810184900484028201840190925281815292918301828280156103d05780601f106103a5576101008083540402835291602001916103d0565b820191906000526020600020905b8154815290600101906020018083116103b357829003601f168201915b505050505081565b6003546001600160a01b031681565b60085460ff1681565b600b5481565b60065481565b60055481565b6003546001600160a01b03163314610459576040805162461bcd60e51b81526020600482015260156024820152742a37b6b4a130b63637ba1d102327a92124a22222a760591b604482015290519081900360640190fd5b600061046483610a21565b905060018214806104755750600282145b6104b9576040805162461bcd60e51b815260206004820152601060248201526f27b7363c903b37ba3290189037b9101960811b604482015290519081900360640190fd5b6001818101805460ff19168217905560028201839055815460008481526020929092526040909120805490910190556004546001600160a01b03848116911614610509578054600b805490910190555b505050565b600061051933610a21565b90506001600160a01b038216331415610579576040805162461bcd60e51b815260206004820152601d60248201527f53656c662d64656c65676174696f6e20697320646973616c6c6f776564000000604482015290519081900360640190fd5b6001600160a01b0382811660009081526020819052604090206001015461010090041615610621576001600160a01b039182166000908152602081905260409020600101546101009004909116903382141561061c576040805162461bcd60e51b815260206004820152601860248201527f466f756e64206c6f6f7020696e2064656c65676174696f6e0000000000000000604482015290519081900360640190fd5b610579565b6001818101805460ff19168217610100600160a81b0319166101006001600160a01b0386169081029190911790915560009081526020819052604090209081015460ff16156106b157815460028201546000908152600160205260409020805490910190556004546001600160a01b03163314156106a05760006106a3565b81545b600b80549091019055610509565b815481540181556004546001600160a01b03163314156106d25760006106d5565b81545b600b80549091019055505050565b600160208190527fd9d16d34ffb15ba3a3d852f0d403e2ce1d691fb54de27ac87cd2f993f3ec330f5460009182527fcc69885fda6bcc1a4ace058b4a62bf5e179ea78fd58a1ccd71c22cc9b688792f541115610741575060016107a4565b600160208190527fd9d16d34ffb15ba3a3d852f0d403e2ce1d691fb54de27ac87cd2f993f3ec330f546000919091527fcc69885fda6bcc1a4ace058b4a62bf5e179ea78fd58a1ccd71c22cc9b688792f5410156107a0575060026107a4565b5060005b90565b600c5481565b6000806107b86106e3565b90506001811480156107d457506729a2241af62c0000600b5410155b156107e35760019150506107a4565b600091505090565b600a805460408051602060026001851615610100026000190190941693909304601f810184900484028201840190925281815292918301828280156103d05780601f106103a5576101008083540402835291602001916103d0565b600060208190529081526040902080546001820154600290920154909160ff8116916101009091046001600160a01b03169084565b6004546001600160a01b031681565b6002546001600160a01b031681565b60075481565b6003546000906001600160a01b031633146108f9576040805162461bcd60e51b81526020600482015260156024820152742a37b6b4a130b63637ba1d102327a92124a22222a760591b604482015290519081900360640190fd5b600754421015610947576040805162461bcd60e51b815260206004820152601460248201527318985b1b1bdd081b9bdd081e595d08195b99195960621b604482015290519081900360640190fd5b60085460ff161561099f576040805162461bcd60e51b815260206004820152601b60248201527f656e642068617320616c7265616479206265656e2063616c6c65640000000000604482015290519081900360640190fd5b6008805460ff191660011790556109b46107ad565b905090565b60006109c3610b9e565b50506001600160a01b039081166000908152602081815260409182902082516080810184528154808252600183015460ff81161515948301949094526101009093049094169284019290925260029091015460609092019190915290565b60006006544210610a6b576040805162461bcd60e51b815260206004820152600f60248201526e10985b1b1bdd081a5cc8195b991959608a1b604482015290519081900360640190fd5b6001600160a01b0382166000908152602081905260409020600181015460ff1615610ad1576040805162461bcd60e51b8152602060048201526011602482015270165bdd48185b1c9958591e481d9bdd1959607a1b604482015290519081900360640190fd5b600354604080516370a0823160e01b81526001600160a01b038681166004830152915191909216916370a08231916024808301926020929190829003018186803b158015610b1e57600080fd5b505afa158015610b32573d6000803e3d6000fd5b505050506040513d6020811015610b4857600080fd5b5051815401808255610b98576040805162461bcd60e51b8152602060048201526014602482015273486173206e6f20726967687420746f20766f746560601b604482015290519081900360640190fd5b92915050565b60405180608001604052806000815260200160001515815260200160006001600160a01b0316815260200160008152509056fea2646970667358221220f7951f037e4d75e41f93332e066434388312d0a613c7a63178da541b796f90da64736f6c6343000703003360806040523480156200001157600080fd5b5060405162000cc638038062000cc6833981810160405260e08110156200003757600080fd5b815160208301516040808501516060860151608087015160a0880180519451969895979396929591949293820192846401000000008211156200007957600080fd5b9083019060208201858111156200008f57600080fd5b8251640100000000811182820188101715620000aa57600080fd5b82525081516020918201929091019080838360005b83811015620000d9578181015183820152602001620000bf565b50505050905090810190601f168015620001075780820380516001836020036101000a031916815260200191505b50604052602001805160405193929190846401000000008211156200012b57600080fd5b9083019060208201858111156200014157600080fd5b82516401000000008111828201881017156200015c57600080fd5b82525081516020918201929091019080838360005b838110156200018b57818101518382015260200162000171565b50505050905090810190601f168015620001b95780820380516001836020036101000a031916815260200191505b506040525050600180546001600160a01b03808b166001600160a01b031992831617909255600380548a84169083161790556004889055600587905560028054928716929091169190911790555081516200021c90600790602085019062000245565b5080516200023290600890602084019062000245565b505042600a5550620002e1945050505050565b828054600181600116156101000203166002900490600052602060002090601f016020900481019282601f106200028857805160ff1916838001178555620002b8565b82800160010185558215620002b8579182015b82811115620002b85782518255916020019190600101906200029b565b50620002c6929150620002ca565b5090565b5b80821115620002c65760008155600101620002cb565b6109d580620002f16000396000f3fe608060405234801561001057600080fd5b50600436106100f55760003560e01c80635c19a95c11610097578063c1dfe65211610066578063c1dfe6521461028c578063c9c3d42e14610294578063efbe1c1c1461029c578063f4396e2a146102a4576100f5565b80635c19a95c1461024e57806361dcd7ab146102745780638a4d5a671461027c578063a8e4fb9014610284576100f5565b80631590a056116100d35780631590a056146101b75780632ddbd13a146101df5780633197cbb6146101f95780633a372c9414610201576100f5565b80630a59a98c146100fa5780630c340a241461017757806312fa6feb1461019b575b600080fd5b6101026102ca565b6040805160208082528351818301528351919283929083019185019080838360005b8381101561013c578181015183820152602001610124565b50505050905090810190601f1680156101695780820380516001836020036101000a031916815260200191505b509250505060405180910390f35b61017f610358565b604080516001600160a01b039092168252519081900360200190f35b6101a3610367565b604080519115158252519081900360200190f35b6101dd600480360360208110156101cd57600080fd5b50356001600160a01b0316610370565b005b6101e761040a565b60408051918252519081900360200190f35b6101e7610410565b6102276004803603602081101561021757600080fd5b50356001600160a01b0316610416565b6040805193845291151560208401526001600160a01b031682820152519081900360600190f35b6101dd6004803603602081101561026457600080fd5b50356001600160a01b0316610442565b6101e76105fc565b610102610602565b61017f61065d565b61017f61066c565b6101e761067b565b6101a3610681565b6101e7600480360360208110156102ba57600080fd5b50356001600160a01b0316610797565b6007805460408051602060026001851615610100026000190190941693909304601f810184900484028201840190925281815292918301828280156103505780601f1061032557610100808354040283529160200191610350565b820191906000526020600020905b81548152906001019060200180831161033357829003601f168201915b505050505081565b6002546001600160a01b031681565b60065460ff1681565b6002546001600160a01b031633146103c7576040805162461bcd60e51b81526020600482015260156024820152742a37b6b4a130b63637ba1d102327a92124a22222a760591b604482015290519081900360640190fd5b60006103d2826107ed565b6001808201805460ff191690911790556003549091506001600160a01b038381169116146104065780546009805490910190555b5050565b60095481565b60045481565b6000602081905290815260409020805460019091015460ff81169061010090046001600160a01b031683565b600061044d336107ed565b90506001600160a01b0382163314156104ad576040805162461bcd60e51b815260206004820152601d60248201527f53656c662d64656c65676174696f6e20697320646973616c6c6f776564000000604482015290519081900360640190fd5b6001600160a01b0382811660009081526020819052604090206001015461010090041615610555576001600160a01b0391821660009081526020819052604090206001015461010090049091169033821415610550576040805162461bcd60e51b815260206004820152601860248201527f466f756e64206c6f6f7020696e2064656c65676174696f6e0000000000000000604482015290519081900360640190fd5b6104ad565b6001818101805460ff19168217610100600160a81b0319166101006001600160a01b0386169081029190911790915560009081526020819052604090209081015460ff16156105c9576003546001600160a01b03163314156105b85760006105bb565b81545b6009805490910190556105f7565b815481540181556003546001600160a01b03163314156105ea5760006105ed565b81545b6009805490910190555b505050565b600a5481565b6008805460408051602060026001851615610100026000190190941693909304601f810184900484028201840190925281815292918301828280156103505780601f1061032557610100808354040283529160200191610350565b6003546001600160a01b031681565b6001546001600160a01b031681565b60055481565b6002546000906001600160a01b031633146106db576040805162461bcd60e51b81526020600482015260156024820152742a37b6b4a130b63637ba1d102327a92124a22222a760591b604482015290519081900360640190fd5b600554421015610729576040805162461bcd60e51b815260206004820152601460248201527318985b1b1bdd081b9bdd081e595d08195b99195960621b604482015290519081900360640190fd5b60065460ff1615610781576040805162461bcd60e51b815260206004820152601b60248201527f656e642068617320616c7265616479206265656e2063616c6c65640000000000604482015290519081900360640190fd5b506006805460ff19166001179081905560ff1690565b60006107a161097f565b50506001600160a01b03908116600090815260208181526040918290208251606081018452815480825260019092015460ff811615159382019390935261010090920490931691015290565b60006004544210610837576040805162461bcd60e51b815260206004820152600f60248201526e10985b1b1bdd081a5cc8195b991959608a1b604482015290519081900360640190fd5b6001600160a01b0382166000908152602081905260409020600181015460ff16156108a9576040805162461bcd60e51b815260206004820152601a60248201527f596f7520616c726561647920706172746963697061746520696e000000000000604482015290519081900360640190fd5b600254604080516370a0823160e01b81526001600160a01b038681166004830152915191909216916370a08231916024808301926020929190829003018186803b1580156108f657600080fd5b505afa15801561090a573d6000803e3d6000fd5b505050506040513d602081101561092057600080fd5b5051815401808255610979576040805162461bcd60e51b815260206004820152601e60248201527f486173206e6f20726967687420746f20706172746963697061746520696e0000604482015290519081900360640190fd5b92915050565b60408051606081018252600080825260208201819052918101919091529056fea26469706673582212208e9716ecb0a69abed30ac0ca6d63ae55fadbcf7a5a010f50a84e388f66fe1f1664736f6c63430007030033a2646970667358221220d674353eb54111e7b1b42fc3bf05e9879e50c30da47204ba5b01d5e590df678864736f6c63430007030033",
    "sourcePath": "/Users/apple/Documents/Code/Sota/tomi/tomiswap-core/contracts/ballots/TomiBallotFactory.sol",
    "compiler": {
        "name": "solc",
        "version": "0.7.3+commit.9bfce1f6"
    },
    "functionHashes": {
        "TOMI()": "c1dfe652",
        "create(address,uint256,uint256,uint256,string,string)": "10bae72c",
        "createShareRevenue(address,uint256,uint256,string,string)": "ed440dc4"
    },
    "gasEstimates": {
        "creation": {
            "codeDepositCost": "1693200",
            "executionCost": "infinite",
            "totalCost": "infinite"
        },
        "external": {
            "TOMI()": "1037",
            "create(address,uint256,uint256,uint256,string,string)": "infinite",
            "createShareRevenue(address,uint256,uint256,string,string)": "infinite"
        }
    }
}