{
  "address": "0xb297F046962B977E9EeBD220e836eFEAa3304308",
  "abi": [
    {
      "inputs": [
        {
          "internalType": "contract IERC20",
          "name": "_token",
          "type": "address"
        },
        {
          "internalType": "uint256",
          "name": "_startReleaseTimestamp",
          "type": "uint256"
        },
        {
          "internalType": "uint256",
          "name": "_endReleaseTimestamp",
          "type": "uint256"
        },
        {
          "internalType": "bytes32",
          "name": "_merkleRoot",
          "type": "bytes32"
        }
      ],
      "stateMutability": "nonpayable",
      "type": "constructor"
    },
    {
      "anonymous": false,
      "inputs": [
        {
          "indexed": true,
          "internalType": "address",
          "name": "to",
          "type": "address"
        },
        {
          "indexed": false,
          "internalType": "uint256",
          "name": "value",
          "type": "uint256"
        }
      ],
      "name": "Lock",
      "type": "event"
    },
    {
      "anonymous": false,
      "inputs": [
        {
          "indexed": true,
          "internalType": "address",
          "name": "previousOwner",
          "type": "address"
        },
        {
          "indexed": true,
          "internalType": "address",
          "name": "newOwner",
          "type": "address"
        }
      ],
      "name": "OwnershipTransferred",
      "type": "event"
    },
    {
      "anonymous": false,
      "inputs": [
        {
          "indexed": true,
          "internalType": "address",
          "name": "to",
          "type": "address"
        },
        {
          "indexed": false,
          "internalType": "uint256",
          "name": "value",
          "type": "uint256"
        }
      ],
      "name": "UnLock",
      "type": "event"
    },
    {
      "inputs": [
        {
          "internalType": "address",
          "name": "_account",
          "type": "address"
        }
      ],
      "name": "canUnlockAmount",
      "outputs": [
        {
          "internalType": "uint256",
          "name": "",
          "type": "uint256"
        }
      ],
      "stateMutability": "view",
      "type": "function"
    },
    {
      "inputs": [
        {
          "internalType": "contract IERC20",
          "name": "_token",
          "type": "address"
        },
        {
          "internalType": "uint256",
          "name": "_amount",
          "type": "uint256"
        }
      ],
      "name": "emergencyWithdraw",
      "outputs": [],
      "stateMutability": "nonpayable",
      "type": "function"
    },
    {
      "inputs": [],
      "name": "endReleaseTimestamp",
      "outputs": [
        {
          "internalType": "uint256",
          "name": "",
          "type": "uint256"
        }
      ],
      "stateMutability": "view",
      "type": "function"
    },
    {
      "inputs": [
        {
          "internalType": "uint256",
          "name": "_index",
          "type": "uint256"
        },
        {
          "internalType": "address",
          "name": "_account",
          "type": "address"
        },
        {
          "internalType": "uint256",
          "name": "_amount",
          "type": "uint256"
        },
        {
          "internalType": "bytes32[]",
          "name": "_merkleProof",
          "type": "bytes32[]"
        }
      ],
      "name": "firstUnlock",
      "outputs": [],
      "stateMutability": "nonpayable",
      "type": "function"
    },
    {
      "inputs": [
        {
          "internalType": "uint256",
          "name": "_lockAmount",
          "type": "uint256"
        }
      ],
      "name": "firstUnlockAmount",
      "outputs": [
        {
          "internalType": "uint256",
          "name": "",
          "type": "uint256"
        }
      ],
      "stateMutability": "view",
      "type": "function"
    },
    {
      "inputs": [
        {
          "internalType": "address",
          "name": "_account",
          "type": "address"
        }
      ],
      "name": "lockOf",
      "outputs": [
        {
          "internalType": "uint256",
          "name": "",
          "type": "uint256"
        }
      ],
      "stateMutability": "view",
      "type": "function"
    },
    {
      "inputs": [],
      "name": "merkleRoot",
      "outputs": [
        {
          "internalType": "bytes32",
          "name": "",
          "type": "bytes32"
        }
      ],
      "stateMutability": "view",
      "type": "function"
    },
    {
      "inputs": [],
      "name": "owner",
      "outputs": [
        {
          "internalType": "address",
          "name": "",
          "type": "address"
        }
      ],
      "stateMutability": "view",
      "type": "function"
    },
    {
      "inputs": [
        {
          "internalType": "address",
          "name": "_account",
          "type": "address"
        }
      ],
      "name": "released",
      "outputs": [
        {
          "internalType": "uint256",
          "name": "",
          "type": "uint256"
        }
      ],
      "stateMutability": "view",
      "type": "function"
    },
    {
      "inputs": [],
      "name": "renounceOwnership",
      "outputs": [],
      "stateMutability": "nonpayable",
      "type": "function"
    },
    {
      "inputs": [
        {
          "internalType": "address",
          "name": "_account",
          "type": "address"
        },
        {
          "internalType": "uint256",
          "name": "_amount",
          "type": "uint256"
        }
      ],
      "name": "setLockAmount",
      "outputs": [],
      "stateMutability": "nonpayable",
      "type": "function"
    },
    {
      "inputs": [],
      "name": "startReleaseTimestamp",
      "outputs": [
        {
          "internalType": "uint256",
          "name": "",
          "type": "uint256"
        }
      ],
      "stateMutability": "view",
      "type": "function"
    },
    {
      "inputs": [],
      "name": "token",
      "outputs": [
        {
          "internalType": "contract IERC20",
          "name": "",
          "type": "address"
        }
      ],
      "stateMutability": "view",
      "type": "function"
    },
    {
      "inputs": [
        {
          "internalType": "address",
          "name": "newOwner",
          "type": "address"
        }
      ],
      "name": "transferOwnership",
      "outputs": [],
      "stateMutability": "nonpayable",
      "type": "function"
    },
    {
      "inputs": [
        {
          "internalType": "address",
          "name": "_account",
          "type": "address"
        }
      ],
      "name": "unlock",
      "outputs": [],
      "stateMutability": "nonpayable",
      "type": "function"
    },
    {
      "inputs": [
        {
          "internalType": "bytes32",
          "name": "_merkleRoot",
          "type": "bytes32"
        }
      ],
      "name": "updateRoot",
      "outputs": [],
      "stateMutability": "nonpayable",
      "type": "function"
    }
  ],
  "transactionHash": "0x9cc27ce6bbc42616d3cc187ed5916da79f64998cff206afabba6413b8f1d5679",
  "args": [
    "0xE774238f5eF7EA239BE157D4adb82bc753b36836",
    1624579200,
    1656115200,
    "0xc927bd63fe2cd1ecaffa1dadaf9726d9aaf23729d3691116c23120a82688f7e3"
  ],
  "solcInputHash": "1762ba8fe9301acaf123bb6d33113bb4",
  "bytecode": "0x608060405234801561001057600080fd5b506040516115cb3803806115cb8339818101604052608081101561003357600080fd5b5080516020820151604083015160609093015191929091600061005d6001600160e01b0361011b16565b600080546001600160a01b0319166001600160a01b0383169081178255604051929350917f8be0079c531659141344cd1fd0a4f28419497f9722a3daafe3b4186f6b6457e0908290a350600180558282116100e95760405162461bcd60e51b815260040180806020018281038252602b8152602001806115a0602b913960400191505060405180910390fd5b600280546001600160a01b0319166001600160a01b03959095169490941790935560039190915560045560075561011f565b3390565b6114728061012e6000396000f3fe608060405234801561001057600080fd5b50600436106101005760003560e01c8063715018a6116100975780639852595c116100665780639852595c14610261578063a5f8c09414610287578063f2fde38b14610313578063fc0c546a1461033957610100565b8063715018a6146102015780638da5cb5b146102095780638fc6aff31461022d57806395ccea671461023557610100565b80633873d475116100d35780633873d4751461018a57806345df310f146101b6578063524ce90a146101be5780635a46d3b5146101db57610100565b8063202b17601461010557806321ff99701461013d5780632eb4a7ab1461015c5780632f6c493c14610164575b600080fd5b61012b6004803603602081101561011b57600080fd5b50356001600160a01b0316610341565b60408051918252519081900360200190f35b61015a6004803603602081101561015357600080fd5b5035610436565b005b61012b6104a5565b61015a6004803603602081101561017a57600080fd5b50356001600160a01b03166104ab565b61015a600480360360408110156101a057600080fd5b506001600160a01b0381351690602001356105d4565b61012b61064c565b61012b600480360360208110156101d457600080fd5b5035610652565b61012b600480360360208110156101f157600080fd5b50356001600160a01b03166106c5565b61015a6106e0565b6102116107a1565b604080516001600160a01b039092168252519081900360200190f35b61012b6107b0565b61015a6004803603604081101561024b57600080fd5b506001600160a01b0381351690602001356107b6565b61012b6004803603602081101561027757600080fd5b50356001600160a01b0316610832565b61015a6004803603608081101561029d57600080fd5b8135916001600160a01b0360208201351691604082013591908101906080810160608201356401000000008111156102d457600080fd5b8201836020820111156102e657600080fd5b8035906020019184602083028401116401000000008311171561030857600080fd5b50909250905061084d565b61015a6004803603602081101561032957600080fd5b50356001600160a01b0316610a38565b610211610b4f565b600354600090429081101561035a576000915050610431565b600454811061039f576001600160a01b0383166000908152600660209081526040808320546005909252909120546103979163ffffffff610b5e16565b915050610431565b60006103b660035483610b5e90919063ffffffff16565b905060006103d1600354600454610b5e90919063ffffffff16565b6001600160a01b03861660009081526006602090815260408083205460059092529091205491925061042b9161041f908490610413908763ffffffff610ba916565b9063ffffffff610c0216565b9063ffffffff610b5e16565b93505050505b919050565b61043e610c44565b6000546001600160a01b039081169116146104a0576040805162461bcd60e51b815260206004820181905260248201527f4f776e61626c653a2063616c6c6572206973206e6f7420746865206f776e6572604482015290519081900360640190fd5b600755565b60075481565b60026001541415610503576040805162461bcd60e51b815260206004820152601f60248201527f5265656e7472616e637947756172643a207265656e7472616e742063616c6c00604482015290519081900360640190fd5b6002600155600354421161054d576040805162461bcd60e51b815260206004820152600c60248201526b1cdd1a5b1b081b1bd8dad95960a21b604482015290519081900360640190fd5b6001600160a01b038116600090815260066020908152604080832054600590925290912054116105c4576040805162461bcd60e51b815260206004820152600960248201527f6e6f206c6f636b65640000000000000000000000000000000000000000000000604482015290519081900360640190fd5b6105cd81610c48565b5060018055565b6105dc610c44565b6000546001600160a01b0390811691161461063e576040805162461bcd60e51b815260206004820181905260248201527f4f776e61626c653a2063616c6c6572206973206e6f7420746865206f776e6572604482015290519081900360640190fd5b6106488282610d46565b5050565b60035481565b600354600090429081101561066b576000915050610431565b600454811061067d5782915050610431565b600061069460035483610b5e90919063ffffffff16565b905060006106af600354600454610b5e90919063ffffffff16565b905061042b81610413878563ffffffff610ba916565b6001600160a01b031660009081526005602052604090205490565b6106e8610c44565b6000546001600160a01b0390811691161461074a576040805162461bcd60e51b815260206004820181905260248201527f4f776e61626c653a2063616c6c6572206973206e6f7420746865206f776e6572604482015290519081900360640190fd5b600080546040516001600160a01b03909116907f8be0079c531659141344cd1fd0a4f28419497f9722a3daafe3b4186f6b6457e0908390a36000805473ffffffffffffffffffffffffffffffffffffffff19169055565b6000546001600160a01b031690565b60045481565b6107be610c44565b6000546001600160a01b03908116911614610820576040805162461bcd60e51b815260206004820181905260248201527f4f776e61626c653a2063616c6c6572206973206e6f7420746865206f776e6572604482015290519081900360640190fd5b6106488261082c6107a1565b83610d9a565b6001600160a01b031660009081526006602052604090205490565b600260015414156108a5576040805162461bcd60e51b815260206004820152601f60248201527f5265656e7472616e637947756172643a207265656e7472616e742063616c6c00604482015290519081900360640190fd5b600260015560035442116108ef576040805162461bcd60e51b815260206004820152600c60248201526b1cdd1a5b1b081b1bd8dad95960a21b604482015290519081900360640190fd5b6001600160a01b0384166000908152600560205260409020541561095a576040805162461bcd60e51b815260206004820152601160248201527f5573657220636c61696d6564206f6e6365000000000000000000000000000000604482015290519081900360640190fd5b6040805160208082018890526bffffffffffffffffffffffff19606088901b16828401526054808301879052835180840390910181526074830180855281519183019190912060949286028085018401909552858252936109de93919287928792839290910190849080828437600092019190915250506007549150849050610e73565b610a195760405162461bcd60e51b81526004018080602001828103825260218152602001806113d16021913960400191505060405180910390fd5b610a238585610d46565b610a2c85610c48565b50506001805550505050565b610a40610c44565b6000546001600160a01b03908116911614610aa2576040805162461bcd60e51b815260206004820181905260248201527f4f776e61626c653a2063616c6c6572206973206e6f7420746865206f776e6572604482015290519081900360640190fd5b6001600160a01b038116610ae75760405162461bcd60e51b81526004018080602001828103825260268152602001806113856026913960400191505060405180910390fd5b600080546040516001600160a01b03808516939216917f8be0079c531659141344cd1fd0a4f28419497f9722a3daafe3b4186f6b6457e091a36000805473ffffffffffffffffffffffffffffffffffffffff19166001600160a01b0392909216919091179055565b6002546001600160a01b031681565b6000610ba083836040518060400160405280601e81526020017f536166654d6174683a207375627472616374696f6e206f766572666c6f770000815250610f1e565b90505b92915050565b600082610bb857506000610ba3565b82820282848281610bc557fe5b0414610ba05760405162461bcd60e51b81526004018080602001828103825260218152602001806113f26021913960400191505060405180910390fd5b6000610ba083836040518060400160405280601a81526020017f536166654d6174683a206469766973696f6e206279207a65726f000000000000815250610fb5565b3390565b6000610c5382610341565b905060008111610caa576040805162461bcd60e51b815260206004820152600b60248201527f7a65726f20756e6c6f636b000000000000000000000000000000000000000000604482015290519081900360640190fd5b600254610cc7906001600160a01b0316838363ffffffff61101a16565b6001600160a01b038216600090815260066020526040902054610cf0908263ffffffff61109a16565b6001600160a01b038316600081815260066020908152604091829020939093558051848152905191927fb371d42b3715509a27f3109f6ac1ef6b7d7e7f8e9232b738ed17338be6cf958092918290030190a25050565b6001600160a01b038216600081815260056020908152604091829020849055815184815291517f625fed9875dada8643f2418b838ae0bc78d9a148a18eee4ee1979ff0f3f5d4279281900390910190a25050565b6001600160a01b038316610e54576040516000906001600160a01b0384169083908381818185875af1925050503d8060008114610df3576040519150601f19603f3d011682016040523d82523d6000602084013e610df8565b606091505b5050905080610e4e576040805162461bcd60e51b815260206004820152600f60248201527f7472616e73666572206661696c65640000000000000000000000000000000000604482015290519081900360640190fd5b50610e6e565b610e6e6001600160a01b038416838363ffffffff61101a16565b505050565b600081815b8551811015610f11576000868281518110610e8f57fe5b60200260200101519050808311610ed65782816040516020018083815260200182815260200192505050604051602081830303815290604052805190602001209250610f08565b808360405160200180838152602001828152602001925050506040516020818303038152906040528051906020012092505b50600101610e78565b50831490505b9392505050565b60008184841115610fad5760405162461bcd60e51b81526004018080602001828103825283818151815260200191508051906020019080838360005b83811015610f72578181015183820152602001610f5a565b50505050905090810190601f168015610f9f5780820380516001836020036101000a031916815260200191505b509250505060405180910390fd5b505050900390565b600081836110045760405162461bcd60e51b8152602060048201818152835160248401528351909283926044909101919085019080838360008315610f72578181015183820152602001610f5a565b50600083858161101057fe5b0495945050505050565b604080516001600160a01b038416602482015260448082018490528251808303909101815260649091019091526020810180517bffffffffffffffffffffffffffffffffffffffffffffffffffffffff167fa9059cbb00000000000000000000000000000000000000000000000000000000179052610e6e9084906110f4565b600082820183811015610ba0576040805162461bcd60e51b815260206004820152601b60248201527f536166654d6174683a206164646974696f6e206f766572666c6f770000000000604482015290519081900360640190fd5b6060611149826040518060400160405280602081526020017f5361666545524332303a206c6f772d6c6576656c2063616c6c206661696c6564815250856001600160a01b03166111a59092919063ffffffff16565b805190915015610e6e5780806020019051602081101561116857600080fd5b5051610e6e5760405162461bcd60e51b815260040180806020018281038252602a815260200180611413602a913960400191505060405180910390fd5b60606111b484846000856111bc565b949350505050565b6060824710156111fd5760405162461bcd60e51b81526004018080602001828103825260268152602001806113ab6026913960400191505060405180910390fd5b61120685611318565b611257576040805162461bcd60e51b815260206004820152601d60248201527f416464726573733a2063616c6c20746f206e6f6e2d636f6e7472616374000000604482015290519081900360640190fd5b60006060866001600160a01b031685876040518082805190602001908083835b602083106112965780518252601f199092019160209182019101611277565b6001836020036101000a03801982511681845116808217855250505050505090500191505060006040518083038185875af1925050503d80600081146112f8576040519150601f19603f3d011682016040523d82523d6000602084013e6112fd565b606091505b509150915061130d82828661131e565b979650505050505050565b3b151590565b6060831561132d575081610f17565b82511561133d5782518084602001fd5b60405162461bcd60e51b8152602060048201818152845160248401528451859391928392604401919085019080838360008315610f72578181015183820152602001610f5a56fe4f776e61626c653a206e6577206f776e657220697320746865207a65726f2061646472657373416464726573733a20696e73756666696369656e742062616c616e636520666f722063616c6c4d65726b6c654469737472696275746f723a20496e76616c69642070726f6f662e536166654d6174683a206d756c7469706c69636174696f6e206f766572666c6f775361666545524332303a204552433230206f7065726174696f6e20646964206e6f742073756363656564a2646970667358221220efee43a0fd33dab26dc9ad95469cde025a90e01f839a374c8bc14182b73eaa0e64736f6c63430006060033656e6452656c6561736554696d657374616d70203c20737461727452656c6561736554696d657374616d70",
  "devdoc": {
    "methods": {
      "owner()": {
        "details": "Returns the address of the current owner."
      },
      "renounceOwnership()": {
        "details": "Leaves the contract without owner. It will not be possible to call `onlyOwner` functions anymore. Can only be called by the current owner.     * NOTE: Renouncing ownership will leave the contract without an owner, thereby removing any functionality that is only available to the owner."
      },
      "transferOwnership(address)": {
        "details": "Transfers ownership of the contract to a new account (`newOwner`). Can only be called by the current owner."
      }
    }
  },
  "userdoc": {
    "methods": {}
  },
  "storageLayout": {
    "storage": [
      {
        "astId": 30,
        "contract": "contracts/modules/TokenLocker.sol:TokenLocker",
        "label": "_owner",
        "offset": 0,
        "slot": "0",
        "type": "t_address"
      },
      {
        "astId": 1447,
        "contract": "contracts/modules/TokenLocker.sol:TokenLocker",
        "label": "_status",
        "offset": 0,
        "slot": "1",
        "type": "t_uint256"
      },
      {
        "astId": 1782,
        "contract": "contracts/modules/TokenLocker.sol:TokenLocker",
        "label": "token",
        "offset": 0,
        "slot": "2",
        "type": "t_contract(IERC20)979"
      },
      {
        "astId": 1784,
        "contract": "contracts/modules/TokenLocker.sol:TokenLocker",
        "label": "startReleaseTimestamp",
        "offset": 0,
        "slot": "3",
        "type": "t_uint256"
      },
      {
        "astId": 1786,
        "contract": "contracts/modules/TokenLocker.sol:TokenLocker",
        "label": "endReleaseTimestamp",
        "offset": 0,
        "slot": "4",
        "type": "t_uint256"
      },
      {
        "astId": 1790,
        "contract": "contracts/modules/TokenLocker.sol:TokenLocker",
        "label": "_locks",
        "offset": 0,
        "slot": "5",
        "type": "t_mapping(t_address,t_uint256)"
      },
      {
        "astId": 1794,
        "contract": "contracts/modules/TokenLocker.sol:TokenLocker",
        "label": "_released",
        "offset": 0,
        "slot": "6",
        "type": "t_mapping(t_address,t_uint256)"
      },
      {
        "astId": 1797,
        "contract": "contracts/modules/TokenLocker.sol:TokenLocker",
        "label": "merkleRoot",
        "offset": 0,
        "slot": "7",
        "type": "t_bytes32"
      }
    ],
    "types": {
      "t_address": {
        "encoding": "inplace",
        "label": "address",
        "numberOfBytes": "20"
      },
      "t_bytes32": {
        "encoding": "inplace",
        "label": "bytes32",
        "numberOfBytes": "32"
      },
      "t_contract(IERC20)979": {
        "encoding": "inplace",
        "label": "contract IERC20",
        "numberOfBytes": "20"
      },
      "t_mapping(t_address,t_uint256)": {
        "encoding": "mapping",
        "key": "t_address",
        "label": "mapping(address => uint256)",
        "numberOfBytes": "32",
        "value": "t_uint256"
      },
      "t_uint256": {
        "encoding": "inplace",
        "label": "uint256",
        "numberOfBytes": "32"
      }
    }
  }
}