{
  "address": "0x7a5020c260ea63ccE013049995a79b0419B5EE03",
  "abi": [
    {
      "anonymous": false,
      "inputs": [
        {
          "indexed": true,
          "internalType": "address",
          "name": "player",
          "type": "address"
        },
        {
          "indexed": true,
          "internalType": "address",
          "name": "tokenA",
          "type": "address"
        },
        {
          "indexed": true,
          "internalType": "address",
          "name": "tokenB",
          "type": "address"
        },
        {
          "indexed": false,
          "internalType": "uint256",
          "name": "amountA",
          "type": "uint256"
        },
        {
          "indexed": false,
          "internalType": "uint256",
          "name": "amountB",
          "type": "uint256"
        }
      ],
      "name": "AddLiquidity",
      "type": "event"
    },
    {
      "anonymous": false,
      "inputs": [
        {
          "indexed": true,
          "internalType": "address",
          "name": "_oldOwner",
          "type": "address"
        },
        {
          "indexed": true,
          "internalType": "address",
          "name": "_newOwner",
          "type": "address"
        }
      ],
      "name": "OwnerChanged",
      "type": "event"
    },
    {
      "anonymous": false,
      "inputs": [
        {
          "indexed": true,
          "internalType": "address",
          "name": "player",
          "type": "address"
        },
        {
          "indexed": true,
          "internalType": "address",
          "name": "tokenA",
          "type": "address"
        },
        {
          "indexed": true,
          "internalType": "address",
          "name": "tokenB",
          "type": "address"
        },
        {
          "indexed": false,
          "internalType": "uint256",
          "name": "amountA",
          "type": "uint256"
        },
        {
          "indexed": false,
          "internalType": "uint256",
          "name": "amountB",
          "type": "uint256"
        }
      ],
      "name": "RemoveLiquidity",
      "type": "event"
    },
    {
      "anonymous": false,
      "inputs": [
        {
          "indexed": true,
          "internalType": "address",
          "name": "receiver",
          "type": "address"
        },
        {
          "indexed": true,
          "internalType": "address",
          "name": "fromToken",
          "type": "address"
        },
        {
          "indexed": true,
          "internalType": "address",
          "name": "toToken",
          "type": "address"
        },
        {
          "indexed": false,
          "internalType": "uint256",
          "name": "inAmount",
          "type": "uint256"
        },
        {
          "indexed": false,
          "internalType": "uint256",
          "name": "outAmount",
          "type": "uint256"
        }
      ],
      "name": "SwapToken",
      "type": "event"
    },
    {
      "inputs": [],
      "name": "CONFIG",
      "outputs": [
        {
          "internalType": "address",
          "name": "",
          "type": "address"
        }
      ],
      "stateMutability": "view",
      "type": "function"
    },
    {
      "inputs": [],
      "name": "FACTORY",
      "outputs": [
        {
          "internalType": "address",
          "name": "",
          "type": "address"
        }
      ],
      "stateMutability": "view",
      "type": "function"
    },
    {
      "inputs": [],
      "name": "GOVERNANCE",
      "outputs": [
        {
          "internalType": "address",
          "name": "",
          "type": "address"
        }
      ],
      "stateMutability": "view",
      "type": "function"
    },
    {
      "inputs": [],
      "name": "PERCENT_DENOMINATOR",
      "outputs": [
        {
          "internalType": "uint256",
          "name": "",
          "type": "uint256"
        }
      ],
      "stateMutability": "view",
      "type": "function"
    },
    {
      "inputs": [],
      "name": "POOL",
      "outputs": [
        {
          "internalType": "address",
          "name": "",
          "type": "address"
        }
      ],
      "stateMutability": "view",
      "type": "function"
    },
    {
      "inputs": [],
      "name": "TOMI",
      "outputs": [
        {
          "internalType": "address",
          "name": "",
          "type": "address"
        }
      ],
      "stateMutability": "view",
      "type": "function"
    },
    {
      "inputs": [],
      "name": "TRANSFER_LISTENER",
      "outputs": [
        {
          "internalType": "address",
          "name": "",
          "type": "address"
        }
      ],
      "stateMutability": "view",
      "type": "function"
    },
    {
      "inputs": [],
      "name": "WETH",
      "outputs": [
        {
          "internalType": "address",
          "name": "",
          "type": "address"
        }
      ],
      "stateMutability": "view",
      "type": "function"
    },
    {
      "inputs": [
        {
          "internalType": "address",
          "name": "tokenA",
          "type": "address"
        },
        {
          "internalType": "address",
          "name": "tokenB",
          "type": "address"
        },
        {
          "internalType": "uint256",
          "name": "amountA",
          "type": "uint256"
        },
        {
          "internalType": "uint256",
          "name": "amountB",
          "type": "uint256"
        },
        {
          "internalType": "uint256",
          "name": "amountAMin",
          "type": "uint256"
        },
        {
          "internalType": "uint256",
          "name": "amountBMin",
          "type": "uint256"
        },
        {
          "internalType": "uint256",
          "name": "deadline",
          "type": "uint256"
        }
      ],
      "name": "addLiquidity",
      "outputs": [
        {
          "internalType": "uint256",
          "name": "_amountA",
          "type": "uint256"
        },
        {
          "internalType": "uint256",
          "name": "_amountB",
          "type": "uint256"
        },
        {
          "internalType": "uint256",
          "name": "_liquidity",
          "type": "uint256"
        }
      ],
      "stateMutability": "nonpayable",
      "type": "function"
    },
    {
      "inputs": [
        {
          "internalType": "address",
          "name": "token",
          "type": "address"
        },
        {
          "internalType": "uint256",
          "name": "amountTokenDesired",
          "type": "uint256"
        },
        {
          "internalType": "uint256",
          "name": "amountTokenMin",
          "type": "uint256"
        },
        {
          "internalType": "uint256",
          "name": "amountETHMin",
          "type": "uint256"
        },
        {
          "internalType": "uint256",
          "name": "deadline",
          "type": "uint256"
        }
      ],
      "name": "addLiquidityETH",
      "outputs": [
        {
          "internalType": "uint256",
          "name": "amountToken",
          "type": "uint256"
        },
        {
          "internalType": "uint256",
          "name": "amountETH",
          "type": "uint256"
        },
        {
          "internalType": "uint256",
          "name": "liquidity",
          "type": "uint256"
        }
      ],
      "stateMutability": "payable",
      "type": "function"
    },
    {
      "inputs": [
        {
          "internalType": "address",
          "name": "_newOwner",
          "type": "address"
        }
      ],
      "name": "changeOwner",
      "outputs": [],
      "stateMutability": "nonpayable",
      "type": "function"
    },
    {
      "inputs": [
        {
          "internalType": "address",
          "name": "_path",
          "type": "address"
        },
        {
          "internalType": "address[]",
          "name": "_paths",
          "type": "address[]"
        }
      ],
      "name": "checkPath",
      "outputs": [
        {
          "internalType": "bool",
          "name": "",
          "type": "bool"
        }
      ],
      "stateMutability": "pure",
      "type": "function"
    },
    {
      "inputs": [
        {
          "internalType": "address",
          "name": "tokenA",
          "type": "address"
        },
        {
          "internalType": "address",
          "name": "tokenB",
          "type": "address"
        }
      ],
      "name": "existPair",
      "outputs": [
        {
          "internalType": "bool",
          "name": "",
          "type": "bool"
        }
      ],
      "stateMutability": "view",
      "type": "function"
    },
    {
      "inputs": [
        {
          "internalType": "uint256",
          "name": "amountOut",
          "type": "uint256"
        },
        {
          "internalType": "uint256",
          "name": "reserveIn",
          "type": "uint256"
        },
        {
          "internalType": "uint256",
          "name": "reserveOut",
          "type": "uint256"
        }
      ],
      "name": "getAmountIn",
      "outputs": [
        {
          "internalType": "uint256",
          "name": "amountIn",
          "type": "uint256"
        }
      ],
      "stateMutability": "view",
      "type": "function"
    },
    {
      "inputs": [
        {
          "internalType": "uint256",
          "name": "amountIn",
          "type": "uint256"
        },
        {
          "internalType": "uint256",
          "name": "reserveIn",
          "type": "uint256"
        },
        {
          "internalType": "uint256",
          "name": "reserveOut",
          "type": "uint256"
        }
      ],
      "name": "getAmountOut",
      "outputs": [
        {
          "internalType": "uint256",
          "name": "amountOut",
          "type": "uint256"
        }
      ],
      "stateMutability": "view",
      "type": "function"
    },
    {
      "inputs": [
        {
          "internalType": "uint256",
          "name": "amountOut",
          "type": "uint256"
        },
        {
          "internalType": "address[]",
          "name": "path",
          "type": "address[]"
        }
      ],
      "name": "getAmountsIn",
      "outputs": [
        {
          "internalType": "uint256[]",
          "name": "amounts",
          "type": "uint256[]"
        }
      ],
      "stateMutability": "view",
      "type": "function"
    },
    {
      "inputs": [
        {
          "internalType": "uint256",
          "name": "amountIn",
          "type": "uint256"
        },
        {
          "internalType": "address[]",
          "name": "path",
          "type": "address[]"
        }
      ],
      "name": "getAmountsOut",
      "outputs": [
        {
          "internalType": "uint256[]",
          "name": "amounts",
          "type": "uint256[]"
        }
      ],
      "stateMutability": "view",
      "type": "function"
    },
    {
      "inputs": [
        {
          "internalType": "address",
          "name": "tokenA",
          "type": "address"
        },
        {
          "internalType": "address",
          "name": "tokenB",
          "type": "address"
        }
      ],
      "name": "getReserves",
      "outputs": [
        {
          "internalType": "uint256",
          "name": "",
          "type": "uint256"
        },
        {
          "internalType": "uint256",
          "name": "",
          "type": "uint256"
        }
      ],
      "stateMutability": "view",
      "type": "function"
    },
    {
      "inputs": [
        {
          "internalType": "address",
          "name": "_TOMI",
          "type": "address"
        },
        {
          "internalType": "address",
          "name": "_CONFIG",
          "type": "address"
        },
        {
          "internalType": "address",
          "name": "_FACTORY",
          "type": "address"
        },
        {
          "internalType": "address",
          "name": "_WETH",
          "type": "address"
        },
        {
          "internalType": "address",
          "name": "_GOVERNANCE",
          "type": "address"
        },
        {
          "internalType": "address",
          "name": "_TRANSFER_LISTENER",
          "type": "address"
        },
        {
          "internalType": "address",
          "name": "_POOL",
          "type": "address"
        }
      ],
      "name": "initialize",
      "outputs": [],
      "stateMutability": "nonpayable",
      "type": "function"
    },
    {
      "inputs": [],
      "name": "isPause",
      "outputs": [
        {
          "internalType": "bool",
          "name": "",
          "type": "bool"
        }
      ],
      "stateMutability": "view",
      "type": "function"
    },
    {
      "inputs": [
        {
          "internalType": "address",
          "name": "pair",
          "type": "address"
        },
        {
          "internalType": "address",
          "name": "tokenA",
          "type": "address"
        },
        {
          "internalType": "address",
          "name": "tokenB",
          "type": "address"
        },
        {
          "internalType": "address[]",
          "name": "users",
          "type": "address[]"
        }
      ],
      "name": "migrateLiquidity",
      "outputs": [],
      "stateMutability": "nonpayable",
      "type": "function"
    },
    {
      "inputs": [],
      "name": "owner",
      "outputs": [
        {
          "internalType": "address",
          "name": "",
          "type": "address"
        }
      ],
      "stateMutability": "view",
      "type": "function"
    },
    {
      "inputs": [
        {
          "internalType": "address",
          "name": "tokenA",
          "type": "address"
        },
        {
          "internalType": "address",
          "name": "tokenB",
          "type": "address"
        }
      ],
      "name": "pairFor",
      "outputs": [
        {
          "internalType": "address",
          "name": "",
          "type": "address"
        }
      ],
      "stateMutability": "view",
      "type": "function"
    },
    {
      "inputs": [],
      "name": "pause",
      "outputs": [],
      "stateMutability": "nonpayable",
      "type": "function"
    },
    {
      "inputs": [
        {
          "internalType": "address",
          "name": "tokenA",
          "type": "address"
        },
        {
          "internalType": "address",
          "name": "tokenB",
          "type": "address"
        },
        {
          "internalType": "uint256",
          "name": "liquidity",
          "type": "uint256"
        },
        {
          "internalType": "uint256",
          "name": "amountAMin",
          "type": "uint256"
        },
        {
          "internalType": "uint256",
          "name": "amountBMin",
          "type": "uint256"
        },
        {
          "internalType": "address",
          "name": "to",
          "type": "address"
        },
        {
          "internalType": "uint256",
          "name": "deadline",
          "type": "uint256"
        }
      ],
      "name": "removeLiquidity",
      "outputs": [
        {
          "internalType": "uint256",
          "name": "amountA",
          "type": "uint256"
        },
        {
          "internalType": "uint256",
          "name": "amountB",
          "type": "uint256"
        }
      ],
      "stateMutability": "nonpayable",
      "type": "function"
    },
    {
      "inputs": [
        {
          "internalType": "address",
          "name": "token",
          "type": "address"
        },
        {
          "internalType": "uint256",
          "name": "liquidity",
          "type": "uint256"
        },
        {
          "internalType": "uint256",
          "name": "amountTokenMin",
          "type": "uint256"
        },
        {
          "internalType": "uint256",
          "name": "amountETHMin",
          "type": "uint256"
        },
        {
          "internalType": "address",
          "name": "to",
          "type": "address"
        },
        {
          "internalType": "uint256",
          "name": "deadline",
          "type": "uint256"
        }
      ],
      "name": "removeLiquidityETH",
      "outputs": [
        {
          "internalType": "uint256",
          "name": "amountToken",
          "type": "uint256"
        },
        {
          "internalType": "uint256",
          "name": "amountETH",
          "type": "uint256"
        }
      ],
      "stateMutability": "nonpayable",
      "type": "function"
    },
    {
      "inputs": [],
      "name": "resume",
      "outputs": [],
      "stateMutability": "nonpayable",
      "type": "function"
    },
    {
      "inputs": [
        {
          "internalType": "uint256",
          "name": "amountOut",
          "type": "uint256"
        },
        {
          "internalType": "address[]",
          "name": "path",
          "type": "address[]"
        },
        {
          "internalType": "address",
          "name": "to",
          "type": "address"
        },
        {
          "internalType": "uint256",
          "name": "deadline",
          "type": "uint256"
        }
      ],
      "name": "swapETHForExactTokens",
      "outputs": [
        {
          "internalType": "uint256[]",
          "name": "amounts",
          "type": "uint256[]"
        }
      ],
      "stateMutability": "payable",
      "type": "function"
    },
    {
      "inputs": [
        {
          "internalType": "uint256",
          "name": "amountOutMin",
          "type": "uint256"
        },
        {
          "internalType": "address[]",
          "name": "path",
          "type": "address[]"
        },
        {
          "internalType": "address",
          "name": "to",
          "type": "address"
        },
        {
          "internalType": "uint256",
          "name": "deadline",
          "type": "uint256"
        }
      ],
      "name": "swapExactETHForTokens",
      "outputs": [
        {
          "internalType": "uint256[]",
          "name": "amounts",
          "type": "uint256[]"
        }
      ],
      "stateMutability": "payable",
      "type": "function"
    },
    {
      "inputs": [
        {
          "internalType": "uint256",
          "name": "amountIn",
          "type": "uint256"
        },
        {
          "internalType": "uint256",
          "name": "amountOutMin",
          "type": "uint256"
        },
        {
          "internalType": "address[]",
          "name": "path",
          "type": "address[]"
        },
        {
          "internalType": "address",
          "name": "to",
          "type": "address"
        },
        {
          "internalType": "uint256",
          "name": "deadline",
          "type": "uint256"
        }
      ],
      "name": "swapExactTokensForETH",
      "outputs": [
        {
          "internalType": "uint256[]",
          "name": "amounts",
          "type": "uint256[]"
        }
      ],
      "stateMutability": "nonpayable",
      "type": "function"
    },
    {
      "inputs": [
        {
          "internalType": "uint256",
          "name": "amountIn",
          "type": "uint256"
        },
        {
          "internalType": "uint256",
          "name": "amountOutMin",
          "type": "uint256"
        },
        {
          "internalType": "address[]",
          "name": "path",
          "type": "address[]"
        },
        {
          "internalType": "address",
          "name": "to",
          "type": "address"
        },
        {
          "internalType": "uint256",
          "name": "deadline",
          "type": "uint256"
        }
      ],
      "name": "swapExactTokensForTokens",
      "outputs": [
        {
          "internalType": "uint256[]",
          "name": "amounts",
          "type": "uint256[]"
        }
      ],
      "stateMutability": "nonpayable",
      "type": "function"
    },
    {
      "inputs": [
        {
          "internalType": "address",
          "name": "token",
          "type": "address"
        }
      ],
      "name": "swapPrecondition",
      "outputs": [
        {
          "internalType": "bool",
          "name": "",
          "type": "bool"
        }
      ],
      "stateMutability": "view",
      "type": "function"
    },
    {
      "inputs": [
        {
          "internalType": "uint256",
          "name": "amountOut",
          "type": "uint256"
        },
        {
          "internalType": "uint256",
          "name": "amountInMax",
          "type": "uint256"
        },
        {
          "internalType": "address[]",
          "name": "path",
          "type": "address[]"
        },
        {
          "internalType": "address",
          "name": "to",
          "type": "address"
        },
        {
          "internalType": "uint256",
          "name": "deadline",
          "type": "uint256"
        }
      ],
      "name": "swapTokensForExactETH",
      "outputs": [
        {
          "internalType": "uint256[]",
          "name": "amounts",
          "type": "uint256[]"
        }
      ],
      "stateMutability": "nonpayable",
      "type": "function"
    },
    {
      "inputs": [
        {
          "internalType": "uint256",
          "name": "amountOut",
          "type": "uint256"
        },
        {
          "internalType": "uint256",
          "name": "amountInMax",
          "type": "uint256"
        },
        {
          "internalType": "address[]",
          "name": "path",
          "type": "address[]"
        },
        {
          "internalType": "address",
          "name": "to",
          "type": "address"
        },
        {
          "internalType": "uint256",
          "name": "deadline",
          "type": "uint256"
        }
      ],
      "name": "swapTokensForExactTokens",
      "outputs": [
        {
          "internalType": "uint256[]",
          "name": "amounts",
          "type": "uint256[]"
        }
      ],
      "stateMutability": "nonpayable",
      "type": "function"
    },
    {
      "inputs": [],
      "name": "version",
      "outputs": [
        {
          "internalType": "uint256",
          "name": "",
          "type": "uint256"
        }
      ],
      "stateMutability": "view",
      "type": "function"
    },
    {
      "stateMutability": "payable",
      "type": "receive"
    }
  ],
  "transactionHash": "0x64cf661d78f04dbeddf7e1fc8ce4bb4a7ef3f7789b22041c07fa92bafc77c053",
  "args": [],
  "solcInputHash": "f36eb242fadd798d11ee81fd592eb5f4",
  "bytecode": "0x608060405260018055600080546001600160a01b031916331790556158c0806100296000396000f3fe6080604052600436106102385760003560e01c806385f8c25911610138578063c1dfe652116100b0578063d92e82e41161007f578063f6f1e30611610064578063f6f1e30614610cc2578063fb3bdb4114610d00578063ff0938a714610d8657610253565b8063d92e82e414610c7a578063ddd377ac14610c8f57610253565b8063c1dfe65214610b38578063c2ceddfa14610b4d578063d06ca61f14610b88578063d52bb6f414610c3f57610253565b806396ed28f911610107578063a6f9dae1116100ec578063a6f9dae114610a93578063ad5c464814610ac6578063baa2abde14610adb57610253565b806396ed28f914610a435780639e6c295914610a7e57610253565b806385f8c259146108c25780638803dbee146108f85780638b61ff24146109905780638da5cb5b14610a2e57610253565b806338ed1739116101cb5780637535d2461161019a5780637ff36ab51161017f5780637ff36ab514610812578063822abc7c146108985780638456cb59146108ad57610253565b80637535d246146107845780637ae06e581461079957610253565b806338ed17391461056b5780634a25d94a14610603578063525e7e8f1461069b57806354fd4d501461076f57610253565b806318cbafe51161020757806318cbafe5146103525780631f00ca741461043a5780632dd31000146104f1578063358764761461050657610253565b806302751cec14610258578063046f7da2146102c4578063054d50d4146102d9578063146278341461032157610253565b36610253576005546001600160a01b0316331461025157fe5b005b600080fd5b34801561026457600080fd5b506102ab600480360360c081101561027b57600080fd5b506001600160a01b0381358116916020810135916040820135916060810135916080820135169060a00135610d9b565b6040805192835260208301919091528051918290030190f35b3480156102d057600080fd5b50610251610f21565b3480156102e557600080fd5b5061030f600480360360608110156102fc57600080fd5b5080359060208101359060400135610f84565b60408051918252519081900360200190f35b34801561032d57600080fd5b50610336610fca565b604080516001600160a01b039092168252519081900360200190f35b34801561035e57600080fd5b506103ea600480360360a081101561037557600080fd5b81359160208101359181019060608101604082013564010000000081111561039c57600080fd5b8201836020820111156103ae57600080fd5b803590602001918460208302840111640100000000831117156103d057600080fd5b91935091506001600160a01b038135169060200135610fd9565b60408051602080825283518183015283519192839290830191858101910280838360005b8381101561042657818101518382015260200161040e565b505050509050019250505060405180910390f35b34801561044657600080fd5b506103ea6004803603604081101561045d57600080fd5b8135919081019060408101602082013564010000000081111561047f57600080fd5b82018360208201111561049157600080fd5b803590602001918460208302840111640100000000831117156104b357600080fd5b919080806020026020016040519081016040528093929190818152602001838360200280828437600092019190915250929550611354945050505050565b3480156104fd57600080fd5b50610336611377565b34801561051257600080fd5b50610251600480360360e081101561052957600080fd5b506001600160a01b038135811691602081013582169160408201358116916060810135821691608082013581169160a081013582169160c09091013516611386565b34801561057757600080fd5b506103ea600480360360a081101561058e57600080fd5b8135916020810135918101906060810160408201356401000000008111156105b557600080fd5b8201836020820111156105c757600080fd5b803590602001918460208302840111640100000000831117156105e957600080fd5b91935091506001600160a01b038135169060200135611465565b34801561060f57600080fd5b506103ea600480360360a081101561062657600080fd5b81359160208101359181019060608101604082013564010000000081111561064d57600080fd5b82018360208201111561065f57600080fd5b8035906020019184602083028401116401000000008311171561068157600080fd5b91935091506001600160a01b038135169060200135611617565b3480156106a757600080fd5b5061075b600480360360408110156106be57600080fd5b6001600160a01b0382351691908101906040810160208201356401000000008111156106e957600080fd5b8201836020820111156106fb57600080fd5b8035906020019184602083028401116401000000008311171561071d57600080fd5b9190808060200260200160405190810160405280939291908181526020018383602002808284376000920191909152509295506118c8945050505050565b604080519115158252519081900360200190f35b34801561077b57600080fd5b5061030f611931565b34801561079057600080fd5b50610336611937565b3480156107a557600080fd5b506107f4600480360360e08110156107bc57600080fd5b506001600160a01b03813581169160208101359091169060408101359060608101359060808101359060a08101359060c00135611946565b60408051938452602084019290925282820152519081900360600190f35b6103ea6004803603608081101561082857600080fd5b8135919081019060408101602082013564010000000081111561084a57600080fd5b82018360208201111561085c57600080fd5b8035906020019184602083028401116401000000008311171561087e57600080fd5b91935091506001600160a01b038135169060200135611c01565b3480156108a457600080fd5b50610336611f69565b3480156108b957600080fd5b50610251611f78565b3480156108ce57600080fd5b5061030f600480360360608110156108e557600080fd5b5080359060208101359060400135611fe1565b34801561090457600080fd5b506103ea600480360360a081101561091b57600080fd5b81359160208101359181019060608101604082013564010000000081111561094257600080fd5b82018360208201111561095457600080fd5b8035906020019184602083028401116401000000008311171561097657600080fd5b91935091506001600160a01b038135169060200135612027565b34801561099c57600080fd5b50610251600480360360808110156109b357600080fd5b6001600160a01b03823581169260208101358216926040820135909216918101906080810160608201356401000000008111156109ef57600080fd5b820183602082011115610a0157600080fd5b80359060200191846020830284011164010000000083111715610a2357600080fd5b509092509050612148565b348015610a3a57600080fd5b506103366126a9565b348015610a4f57600080fd5b5061033660048036036040811015610a6657600080fd5b506001600160a01b03813581169160200135166126b8565b348015610a8a57600080fd5b5061030f6126d9565b348015610a9f57600080fd5b5061025160048036036020811015610ab657600080fd5b50356001600160a01b03166126df565b348015610ad257600080fd5b506103366127f6565b348015610ae757600080fd5b506102ab600480360360e0811015610afe57600080fd5b506001600160a01b038135811691602081013582169160408201359160608101359160808201359160a08101359091169060c00135612805565b348015610b4457600080fd5b50610336612b83565b348015610b5957600080fd5b5061075b60048036036040811015610b7057600080fd5b506001600160a01b0381358116916020013516612b92565b348015610b9457600080fd5b506103ea60048036036040811015610bab57600080fd5b81359190810190604081016020820135640100000000811115610bcd57600080fd5b820183602082011115610bdf57600080fd5b80359060200191846020830284011164010000000083111715610c0157600080fd5b919080806020026020016040519081016040528093929190818152602001838360200280828437600092019190915250929550612c2a945050505050565b348015610c4b57600080fd5b506102ab60048036036040811015610c6257600080fd5b506001600160a01b0381358116916020013516612c43565b348015610c8657600080fd5b50610336612c6b565b348015610c9b57600080fd5b5061075b60048036036020811015610cb257600080fd5b50356001600160a01b0316612c7a565b6107f4600480360360a0811015610cd857600080fd5b506001600160a01b038135169060208101359060408101359060608101359060800135612fa9565b6103ea60048036036080811015610d1657600080fd5b81359190810190604081016020820135640100000000811115610d3857600080fd5b820183602082011115610d4a57600080fd5b80359060200191846020830284011164010000000083111715610d6c57600080fd5b91935091506001600160a01b03813516906020013561336e565b348015610d9257600080fd5b5061075b6136ea565b6000808242811015610dee576040805162461bcd60e51b81526020600482015260176024820152761513d35248141310551193d493480e8811561412549151604a1b604482015290519081900360640190fd5b600854600160a01b900460ff1615610e3b576040805162461bcd60e51b815260206004820152600b60248201526a1513d3524814105554d15160aa1b604482015290519081900360640190fd5b600554610e57908a906001600160a01b03168a8a8a308a612805565b9093509150610e678986856136fa565b600554604080517f2e1a7d4d0000000000000000000000000000000000000000000000000000000081526004810185905290516001600160a01b0390921691632e1a7d4d9160248082019260009290919082900301818387803b158015610ecd57600080fd5b505af1158015610ee1573d6000803e3d6000fd5b50505050610eef8583613879565b610efb30868b86613971565b600554610f1590309087906001600160a01b031685613971565b50965096945050505050565b6000546001600160a01b03163314610f75576040805162461bcd60e51b815260206004820152601260248201527127bbb730b136329d102327a92124a22222a760711b604482015290519081900360640190fd5b6008805460ff60a01b19169055565b600080610f8f613a22565b90506000612710610fab87610fa661271086613abe565b613b00565b81610fb257fe5b049050610fc0818686613b59565b9695505050505050565b6006546001600160a01b031681565b6060814281101561102b576040805162461bcd60e51b81526020600482015260176024820152761513d35248141310551193d493480e8811561412549151604a1b604482015290519081900360640190fd5b6005546001600160a01b03168686600019810181811061104757fe5b905060200201356001600160a01b03166001600160a01b0316146110b2576040805162461bcd60e51b815260206004820152601c60248201527f544f4d4920504c4154464f524d203a20494e56414c49445f5041544800000000604482015290519081900360640190fd5b60006110bc613a22565b90506110fd89888880806020026020016040519081016040528093929190818152602001838360200280828437600092019190915250869250613c15915050565b9250878360018551038151811061111057fe5b602002602001015110156111555760405162461bcd60e51b815260040180806020018281038252602a815260200180615771602a913960400191505060405180910390fd5b6004546000906111a4906001600160a01b03168989848161117257fe5b905060200201356001600160a01b03168a8a600181811061118f57fe5b905060200201356001600160a01b0316613d47565b90506111e8888860008181106111b657fe5b905060200201356001600160a01b031633836127106111db8f610fa66127108a613abe565b816111e257fe5b04613ead565b61122784898980806020026020016040519081016040528093929190818152602001838360200280828437600092019190915250309250613ecb915050565b61126a8888600081811061123757fe5b905060200201356001600160a01b031633836127106111db8960008151811061125c57fe5b602002602001015188613b00565b6112a98489898080602002602001604051908101604052809392919081815260200183836020028082843760009201919091525087925061459c915050565b60055484516001600160a01b0390911690632e1a7d4d90869060001981019081106112d057fe5b60200260200101516040518263ffffffff1660e01b815260040180828152602001915050600060405180830381600087803b15801561130e57600080fd5b505af1158015611322573d6000803e3d6000fd5b50505050611347868560018751038151811061133a57fe5b6020026020010151613879565b5050509695505050505050565b60606000611360613a22565b905061136d848483614961565b9150505b92915050565b6004546001600160a01b031681565b6000546001600160a01b031633146113da576040805162461bcd60e51b815260206004820152601260248201527127bbb730b136329d102327a92124a22222a760711b604482015290519081900360640190fd5b6002805473ffffffffffffffffffffffffffffffffffffffff199081166001600160a01b03998a1617909155600380548216978916979097179096556004805487169588169590951790945560058054861693871693909317909255600680548516918616919091179055600780548416918516919091179055600880549092169216919091179055565b606081428110156114b7576040805162461bcd60e51b81526020600482015260176024820152761513d35248141310551193d493480e8811561412549151604a1b604482015290519081900360640190fd5b60006114c1613a22565b905061150289888880806020026020016040519081016040528093929190818152602001838360200280828437600092019190915250869250613c15915050565b9250878360018551038151811061151557fe5b6020026020010151101561155a5760405162461bcd60e51b815260040180806020018281038252602a815260200180615771602a913960400191505060405180910390fd5b600454600090611577906001600160a01b03168989848161117257fe5b9050611589888860008181106111b657fe5b6115c8848989808060200260200160405190810160405280939291908181526020018383602002808284376000920191909152508b9250613ecb915050565b6115d88888600081811061123757fe5b6113478489898080602002602001604051908101604052809392919081815260200183836020028082843760009201919091525087925061459c915050565b60608142811015611669576040805162461bcd60e51b81526020600482015260176024820152761513d35248141310551193d493480e8811561412549151604a1b604482015290519081900360640190fd5b6005546001600160a01b03168686600019810181811061168557fe5b905060200201356001600160a01b03166001600160a01b0316146116f0576040805162461bcd60e51b815260206004820152601c60248201527f544f4d4920504c4154464f524d203a20494e56414c49445f5041544800000000604482015290519081900360640190fd5b60006116fa613a22565b905061173b89888880806020026020016040519081016040528093929190818152602001838360200280828437600092019190915250869250614961915050565b9250878360008151811061174b57fe5b602002602001015111156117905760405162461bcd60e51b81526004018080602001828103825260268152602001806158656026913960400191505060405180910390fd5b6004546000906117ad906001600160a01b03168989848161117257fe5b90506117f8888860008181106117bf57fe5b905060200201356001600160a01b031633836127106111db896000815181106117e457fe5b6020026020010151610fa66127108a613abe565b61183784898980806020026020016040519081016040528093929190818152602001838360200280828437600092019190915250309250613ecb915050565b60055484516001600160a01b0390911690632e1a7d4d908690600019810190811061185e57fe5b60200260200101516040518263ffffffff1660e01b815260040180828152602001915050600060405180830381600087803b15801561189c57600080fd5b505af11580156118b0573d6000803e3d6000fd5b505050506115c8868560018751038151811061133a57fe5b60008060005b835181101561191357846001600160a01b03168482815181106118ed57fe5b60200260200101516001600160a01b0316141561190b576001909101905b6001016118ce565b508060011415611927576001915050611371565b6000915050611371565b60015481565b6008546001600160a01b031681565b6000806000834281101561199b576040805162461bcd60e51b81526020600482015260176024820152761513d35248141310551193d493480e8811561412549151604a1b604482015290519081900360640190fd5b600854600160a01b900460ff16156119e8576040805162461bcd60e51b815260206004820152600b60248201526a1513d3524814105554d15160aa1b604482015290519081900360640190fd5b6119f68b8b8b8b8b8b614acb565b6004549195509350600090611a15906001600160a01b03168d8d613d47565b9050611a238c338388614fce565b611a2f8b338387614fce565b6008546040805163555d661160e11b81526001600160a01b0384811660048301523360248301529151919092169163aabacc2291604480830192600092919082900301818387803b158015611a8357600080fd5b505af1158015611a97573d6000803e3d6000fd5b5050604080516335313c2160e11b815233600482015290516001600160a01b0385169350636a627842925060248083019260209291908290030181600087803b158015611ae357600080fd5b505af1158015611af7573d6000803e3d6000fd5b505050506040513d6020811015611b0d57600080fd5b5051600854604080516368a6560d60e11b81526001600160a01b038581166004830152336024830152915193965091169163d14cac1a9160448082019260009290919082900301818387803b158015611b6557600080fd5b505af1158015611b79573d6000803e3d6000fd5b50505050611b8933828e88613971565b611b9533828d87613971565b8a6001600160a01b03168c6001600160a01b0316336001600160a01b03167fc33fbc9654f9c0dcfcbd829113bdb10afe95619bc0824bc5959ad82fd6952bd98888604051808381526020018281526020019250505060405180910390a450509750975097945050505050565b60608142811015611c53576040805162461bcd60e51b81526020600482015260176024820152761513d35248141310551193d493480e8811561412549151604a1b604482015290519081900360640190fd5b6005546001600160a01b03168686600081611c6a57fe5b905060200201356001600160a01b03166001600160a01b031614611cd5576040805162461bcd60e51b815260206004820152601c60248201527f544f4d4920504c4154464f524d203a20494e56414c49445f5041544800000000604482015290519081900360640190fd5b6000611cdf613a22565b9050611d2034888880806020026020016040519081016040528093929190818152602001838360200280828437600092019190915250869250613c15915050565b92508783600185510381518110611d3357fe5b60200260200101511015611d785760405162461bcd60e51b815260040180806020018281038252602a815260200180615771602a913960400191505060405180910390fd5b600454600090611d95906001600160a01b03168989848161117257fe5b60055485519192506001600160a01b03169063d0e30db09061271090611dd4908890600090611dc057fe5b6020026020010151610fa661271088613abe565b81611ddb57fe5b046040518263ffffffff1660e01b81526004016000604051808303818588803b158015611e0757600080fd5b505af1158015611e1b573d6000803e3d6000fd5b5050505050611e4481612710611e3787600081518110611dc057fe5b81611e3e57fe5b04615151565b611e83848989808060200260200160405190810160405280939291908181526020018383602002808284376000920191909152508b9250613ecb915050565b60055484516001600160a01b039091169063d0e30db09061271090611ebb908890600090611ead57fe5b602002602001015186613b00565b81611ec257fe5b046040518263ffffffff1660e01b81526004016000604051808303818588803b158015611eee57600080fd5b505af1158015611f02573d6000803e3d6000fd5b5050505050611f1e81612710611e3787600081518110611ead57fe5b611f5d8489898080602002602001604051908101604052809392919081815260200183836020028082843760009201919091525087925061459c915050565b50505095945050505050565b6007546001600160a01b031681565b6000546001600160a01b03163314611fcc576040805162461bcd60e51b815260206004820152601260248201527127bbb730b136329d102327a92124a22222a760711b604482015290519081900360640190fd5b6008805460ff60a01b1916600160a01b179055565b600080611fec613a22565b90506000611ffb8686866151f7565b905061200961271083613abe565b61201582612710613b00565b8161201c57fe5b049695505050505050565b60608142811015612079576040805162461bcd60e51b81526020600482015260176024820152761513d35248141310551193d493480e8811561412549151604a1b604482015290519081900360640190fd5b6000612083613a22565b90506120c489888880806020026020016040519081016040528093929190818152602001838360200280828437600092019190915250869250614961915050565b925087836000815181106120d457fe5b602002602001015111156121195760405162461bcd60e51b81526004018080602001828103825260268152602001806158656026913960400191505060405180910390fd5b600454600090612136906001600160a01b03168989848161117257fe5b9050611589888860008181106117bf57fe5b6000546001600160a01b0316331461219c576040805162461bcd60e51b815260206004820152601260248201527127bbb730b136329d102327a92124a22222a760711b604482015290519081900360640190fd5b600480546040805163e6a4390560e01b81526001600160a01b0388811694820194909452868416602482015290516000939092169163e6a4390591604480820192602092909190829003018186803b1580156121f757600080fd5b505afa15801561220b573d6000803e3d6000fd5b505050506040513d602081101561222157600080fd5b50516001600160a01b031614156122ba5760048054604080516364e329cb60e11b81526001600160a01b038881169482019490945286841660248201529051929091169163c9c65396916044808201926020929091908290030181600087803b15801561228d57600080fd5b505af11580156122a1573d6000803e3d6000fd5b505050506040513d60208110156122b757600080fd5b50505b600480546040805163e6a4390560e01b81526001600160a01b0388811694820194909452868416602482015290516000939092169163e6a4390591604480820192602092909190829003018186803b15801561231557600080fd5b505afa158015612329573d6000803e3d6000fd5b505050506040513d602081101561233f57600080fd5b5051905060005b82811015612619576000876001600160a01b03166370a0823186868581811061236b57fe5b905060200201356001600160a01b03166040518263ffffffff1660e01b815260040180826001600160a01b03166001600160a01b0316815260200191505060206040518083038186803b1580156123c157600080fd5b505afa1580156123d5573d6000803e3d6000fd5b505050506040513d60208110156123eb57600080fd5b50519050801561261057876001600160a01b031663f6b911bc86868581811061241057fe5b905060200201356001600160a01b031685846040518463ffffffff1660e01b815260040180846001600160a01b03166001600160a01b03168152602001836001600160a01b03166001600160a01b0316815260200182815260200193505050506040805180830381600087803b15801561248957600080fd5b505af115801561249d573d6000803e3d6000fd5b505050506040513d60408110156124b357600080fd5b50506001600160a01b038316636a6278428686858181106124d057fe5b905060200201356001600160a01b03166040518263ffffffff1660e01b815260040180826001600160a01b03166001600160a01b03168152602001915050602060405180830381600087803b15801561252857600080fd5b505af115801561253c573d6000803e3d6000fd5b505050506040513d602081101561255257600080fd5b50506004546001600160a01b031663c9ead25886868581811061257157fe5b905060200201356001600160a01b0316856040518363ffffffff1660e01b815260040180836001600160a01b03166001600160a01b03168152602001826001600160a01b03166001600160a01b0316815260200192505050602060405180830381600087803b1580156125e357600080fd5b505af11580156125f7573d6000803e3d6000fd5b505050506040513d602081101561260d57600080fd5b50505b50600101612346565b50600754604080517f6ef9a3e70000000000000000000000000000000000000000000000000000000081526001600160a01b038981166004830152848116602483015291519190921691636ef9a3e791604480830192600092919082900301818387803b15801561268957600080fd5b505af115801561269d573d6000803e3d6000fd5b50505050505050505050565b6000546001600160a01b031681565b6004546000906126d2906001600160a01b03168484613d47565b9392505050565b61271081565b6000546001600160a01b03163314612733576040805162461bcd60e51b815260206004820152601260248201527127bbb730b136329d102327a92124a22222a760711b604482015290519081900360640190fd5b6001600160a01b03811661278e576040805162461bcd60e51b815260206004820152601860248201527f4f776e61626c653a20494e56414c49445f414444524553530000000000000000604482015290519081900360640190fd5b600080546040516001600160a01b03808516939216917fb532073b38c83145e3e5135377a08bf9aab55bc0fd7c1179cd4fb995d2a5159c91a36000805473ffffffffffffffffffffffffffffffffffffffff19166001600160a01b0392909216919091179055565b6005546001600160a01b031681565b6000808242811015612858576040805162461bcd60e51b81526020600482015260176024820152761513d35248141310551193d493480e8811561412549151604a1b604482015290519081900360640190fd5b600854600160a01b900460ff16156128a5576040805162461bcd60e51b815260206004820152600b60248201526a1513d3524814105554d15160aa1b604482015290519081900360640190fd5b6004546000906128bf906001600160a01b03168c8c613d47565b6008546040805163555d661160e11b81526001600160a01b03808516600483015233602483015291519394508c938f938f93169163aabacc2291604480830192600092919082900301818387803b15801561291957600080fd5b505af115801561292d573d6000803e3d6000fd5b5050604080517ff6b911bc0000000000000000000000000000000000000000000000000000000081523360048201526001600160a01b038d81166024830152604482018890528251600095508594509089169263f6b911bc926064808201939182900301818787803b1580156129a257600080fd5b505af11580156129b6573d6000803e3d6000fd5b505050506040513d60408110156129cc57600080fd5b508051602090910151600854604080516368a6560d60e11b81526001600160a01b038b811660048301523360248301529151949650929450169163d14cac1a9160448082019260009290919082900301818387803b158015612a2d57600080fd5b505af1158015612a41573d6000803e3d6000fd5b505050506000612a5185856152c5565b509050806001600160a01b0316856001600160a01b031614612a74578183612a77565b82825b909a509850612a88878d878d613971565b612a94878d868c613971565b8d8a1015612ad35760405162461bcd60e51b815260040180806020018281038252602581526020018061568b6025913960400191505060405180910390fd5b8c891015612b125760405162461bcd60e51b81526004018080602001828103825260258152602001806156b06025913960400191505060405180910390fd5b836001600160a01b0316856001600160a01b0316336001600160a01b03167fa8dbaaebbb025c88e9e34c84635cd8238043556e9af43fb161508c898a8e1ef98d8d604051808381526020018281526020019250505060405180910390a4505050505050505097509795505050505050565b6002546001600160a01b031681565b600480546040805163e6a4390560e01b81526001600160a01b0386811694820194909452848416602482015290516000938493169163e6a43905916044808301926020929190829003018186803b158015612bec57600080fd5b505afa158015612c00573d6000803e3d6000fd5b505050506040513d6020811015612c1657600080fd5b50516001600160a01b031614159392505050565b60606000612c36613a22565b905061136d848483613c15565b6004546000908190612c5f906001600160a01b0316858561539c565b915091505b9250929050565b6003546001600160a01b031681565b6002546000906001600160a01b0383811691161480612ca657506005546001600160a01b038381169116145b15612cb357506001612fa4565b600354604080516360ccef1960e11b81527f544f4b454e5f544f5f544741535f504149525f4d494e5f50455243454e540000600482015290516000926001600160a01b03169163c199de32916024808301926020929190829003018186803b158015612d1e57600080fd5b505afa158015612d32573d6000803e3d6000fd5b505050506040513d6020811015612d4857600080fd5b5051600554600254919250612d69916001600160a01b039182169116612b92565b612d77576000915050612fa4565b600254612d8d906001600160a01b031684612b92565b612d9b576000915050612fa4565b6003546002546040805163a9ece1b760e01b81526001600160a01b03928316600482015286831660248201529051919092169163a9ece1b7916044808301926020929190829003018186803b158015612df357600080fd5b505afa158015612e07573d6000803e3d6000fd5b505050506040513d6020811015612e1d57600080fd5b50518015612eab57506003546005546040805163a9ece1b760e01b81526001600160a01b03928316600482015286831660248201529051919092169163a9ece1b7916044808301926020929190829003018186803b158015612e7e57600080fd5b505afa158015612e92573d6000803e3d6000fd5b505050506040513d6020811015612ea857600080fd5b50515b612eb9576000915050612fa4565b600554612ecf906001600160a01b031684612b92565b612edd576001915050612fa4565b80612eec576001915050612fa4565b600454600254600091612f0c916001600160a01b0391821691168661539c565b50600454600554919250600091612f30916001600160a01b0390811691168761539c565b506004546005546002549293506000928392612f5c926001600160a01b0391821692908216911661539c565b91509150600081612f6d8685613b00565b81612f7457fe5b0490506000612710612f8f612f89848861546a565b89613b00565b81612f9657fe5b049091101596505050505050505b919050565b60008060008342811015612ffe576040805162461bcd60e51b81526020600482015260176024820152761513d35248141310551193d493480e8811561412549151604a1b604482015290519081900360640190fd5b600854600160a01b900460ff161561304b576040805162461bcd60e51b815260206004820152600b60248201526a1513d3524814105554d15160aa1b604482015290519081900360640190fd5b600554613066908a906001600160a01b03168a348b8b614acb565b60045460055492965090945060009161308d916001600160a01b03908116918d9116613d47565b905061309b8a338388614fce565b600560009054906101000a90046001600160a01b03166001600160a01b031663d0e30db0856040518263ffffffff1660e01b81526004016000604051808303818588803b1580156130eb57600080fd5b505af11580156130ff573d6000803e3d6000fd5b50506005546040805163a9059cbb60e01b81526001600160a01b038781166004830152602482018b9052915191909216945063a9059cbb9350604480830193506020928290030181600087803b15801561315857600080fd5b505af115801561316c573d6000803e3d6000fd5b505050506040513d602081101561318257600080fd5b505161318a57fe5b6008546040805163555d661160e11b81526001600160a01b0384811660048301523360248301529151919092169163aabacc2291604480830192600092919082900301818387803b1580156131de57600080fd5b505af11580156131f2573d6000803e3d6000fd5b5050604080516335313c2160e11b815233600482015290516001600160a01b0385169350636a627842925060248083019260209291908290030181600087803b15801561323e57600080fd5b505af1158015613252573d6000803e3d6000fd5b505050506040513d602081101561326857600080fd5b5051600854604080516368a6560d60e11b81526001600160a01b038581166004830152336024830152915193965091169163d14cac1a9160448082019260009290919082900301818387803b1580156132c057600080fd5b505af11580156132d4573d6000803e3d6000fd5b50506005546132f2925033915083906001600160a01b031687613971565b6132fe33828c88613971565b600554604080518781526020810187905281516001600160a01b03938416938e169233927fc33fbc9654f9c0dcfcbd829113bdb10afe95619bc0824bc5959ad82fd6952bd9929081900390910190a4833411156133615761336133853403613879565b5050955095509592505050565b606081428110156133c0576040805162461bcd60e51b81526020600482015260176024820152761513d35248141310551193d493480e8811561412549151604a1b604482015290519081900360640190fd5b6005546001600160a01b031686866000816133d757fe5b905060200201356001600160a01b03166001600160a01b031614613442576040805162461bcd60e51b815260206004820152601c60248201527f544f4d4920504c4154464f524d203a20494e56414c49445f5041544800000000604482015290519081900360640190fd5b600061344c613a22565b905061348d88888880806020026020016040519081016040528093929190818152602001838360200280828437600092019190915250869250614961915050565b9250348360008151811061349d57fe5b602002602001015111156134e25760405162461bcd60e51b81526004018080602001828103825260268152602001806158656026913960400191505060405180910390fd5b60055483516001600160a01b039091169063d0e30db0906127109061352090879060009061350c57fe5b6020026020010151610fa661271087613abe565b8161352757fe5b046040518263ffffffff1660e01b81526004016000604051808303818588803b15801561355357600080fd5b505af1158015613567573d6000803e3d6000fd5b50506004546000935061358a92506001600160a01b031690508989848161117257fe5b90506135a381612710611e3787600081518110611dc057fe5b6135e2848989808060200260200160405190810160405280939291908181526020018383602002808284376000920191909152508b9250613ecb915050565b60055484516001600160a01b039091169063d0e30db0906127109061360c908890600090611ead57fe5b8161361357fe5b046040518263ffffffff1660e01b81526004016000604051808303818588803b15801561363f57600080fd5b505af1158015613653573d6000803e3d6000fd5b505050505061366f81612710611e3787600081518110611ead57fe5b6136ae8489898080602002602001604051908101604052809392919081815260200183836020028082843760009201919091525087925061459c915050565b836000815181106136bb57fe5b6020026020010151341115611f5d57611f5d33856000815181106136db57fe5b60200260200101513403613879565b600854600160a01b900460ff1681565b604080516001600160a01b038481166024830152604480830185905283518084039091018152606490920183526020820180517bffffffffffffffffffffffffffffffffffffffffffffffffffffffff1663a9059cbb60e01b178152925182516000946060949389169392918291908083835b6020831061378c5780518252601f19909201916020918201910161376d565b6001836020036101000a0380198251168184511680821785525050505050509050019150506000604051808303816000865af19150503d80600081146137ee576040519150601f19603f3d011682016040523d82523d6000602084013e6137f3565b606091505b5091509150818015613821575080511580613821575080806020019051602081101561381e57600080fd5b50515b613872576040805162461bcd60e51b815260206004820152601f60248201527f5472616e7366657248656c7065723a205452414e534645525f4641494c454400604482015290519081900360640190fd5b5050505050565b604080516000808252602082019092526001600160a01b0384169083906040518082805190602001908083835b602083106138c55780518252601f1990920191602091820191016138a6565b6001836020036101000a03801982511681845116808217855250505050505090500191505060006040518083038185875af1925050503d8060008114613927576040519150601f19603f3d011682016040523d82523d6000602084013e61392c565b606091505b505090508061396c5760405162461bcd60e51b81526004018080602001828103825260238152602001806157f36023913960400191505060405180910390fd5b505050565b600754604080517fa612dea40000000000000000000000000000000000000000000000000000000081526001600160a01b03878116600483015286811660248301528581166044830152606482018590529151919092169163a612dea49160848083019260209291908290030181600087803b1580156139f057600080fd5b505af1158015613a04573d6000803e3d6000fd5b505050506040513d6020811015613a1a57600080fd5b505050505050565b600354604080516360ccef1960e11b81527f535741505f4645455f50455243454e5400000000000000000000000000000000600482015290516000926001600160a01b03169163c199de32916024808301926020929190829003018186803b158015613a8d57600080fd5b505afa158015613aa1573d6000803e3d6000fd5b505050506040513d6020811015613ab757600080fd5b5051905090565b60006126d283836040518060400160405280601e81526020017f536166654d6174683a207375627472616374696f6e206f766572666c6f7700008152506154c4565b600082613b0f57506000611371565b82820282848281613b1c57fe5b04146126d25760405162461bcd60e51b81526004018080602001828103825260218152602001806157506021913960400191505060405180910390fd5b6000808411613b995760405162461bcd60e51b815260040180806020018281038252602a815260200180615661602a913960400191505060405180910390fd5b600083118015613ba95750600082115b613be45760405162461bcd60e51b81526004018080602001828103825260278152602001806157296027913960400191505060405180910390fd5b6000613bf6858463ffffffff613b0016565b90506000613c0a858763ffffffff61546a16565b905080828161201c57fe5b6060825167ffffffffffffffff81118015613c2f57600080fd5b50604051908082528060200260200182016040528015613c59578160200160208202803683370190505b5090508381600081518110613c6a57fe5b602090810291909101015260005b6001845103811015613d3f576000848281518110613c9257fe5b602002602001015190506000858360010181518110613cad57fe5b60200260200101519050600080613cda600460009054906101000a90046001600160a01b0316858561539c565b915091506000613d03878781518110613cef57fe5b6020026020010151610fa66127108b613abe565b9050613d1461271082048484613b59565b878760010181518110613d2357fe5b6020908102919091010152505060019093019250613c78915050565b509392505050565b6000806000613d5685856152c5565b915091506000828260405160200180836001600160a01b03166001600160a01b031660601b8152601401826001600160a01b03166001600160a01b031660601b815260140192505050604051602081830303815290604052805190602001209050600060ff60f81b88838a6001600160a01b0316637c7f84ee6040518163ffffffff1660e01b815260040160206040518083038186803b158015613df957600080fd5b505afa158015613e0d573d6000803e3d6000fd5b505050506040513d6020811015613e2357600080fd5b5051604080517fff000000000000000000000000000000000000000000000000000000000000009590951660208087019190915260609490941b6bffffffffffffffffffffffff191660218601526035850192909252605580850191909152815180850390910181526075909301905281519101206001600160a01b031698975050505050505050565b613eb984848484614fce565b613ec583838684613971565b50505050565b600854600160a01b900460ff1615613f18576040805162461bcd60e51b815260206004820152600b60248201526a1513d3524814105554d15160aa1b604482015290519081900360640190fd5b613f3882600184510381518110613f2b57fe5b6020026020010151612c7a565b613f735760405162461bcd60e51b815260040180806020018281038252602e815260200180615608602e913960400191505060405180910390fd5b60005b60018351038110156144e357613f9f838281518110613f9157fe5b6020026020010151846118c8565b8015613fb85750613fb8838260010181518110613f9157fe5b614009576040805162461bcd60e51b815260206004820152601d60248201527f44454d415820504c4154464f524d203a20494e56414c49442050415448000000604482015290519081900360640190fd5b60008084838151811061401857fe5b602002602001015185846001018151811061402f57fe5b60200260200101519150915061404482612c7a565b61407f5760405162461bcd60e51b81526004018080602001828103825260308152602001806156d56030913960400191505060405180910390fd5b6003546040805163a9ece1b760e01b81526001600160a01b03858116600483015284811660248301529151919092169163a9ece1b7916044808301926020929190829003018186803b1580156140d457600080fd5b505afa1580156140e8573d6000803e3d6000fd5b505050506040513d60208110156140fe57600080fd5b505161413b5760405162461bcd60e51b815260040180806020018281038252602b815260200180615636602b913960400191505060405180910390fd5b60008061414884846152c5565b91509150600088866001018151811061415d57fe5b60200260200101519050600080846001600160a01b0316876001600160a01b03161461418b5782600061418f565b6000835b91509150600060028b510389106141a657896141d7565b6004548b516141d7916001600160a01b03169089908e9060028e019081106141ca57fe5b6020026020010151613d47565b6004549091506000906141f4906001600160a01b03168a8a613d47565b9050600080826001600160a01b0316630902f1ac6040518163ffffffff1660e01b815260040160606040518083038186803b15801561423257600080fd5b505afa158015614246573d6000803e3d6000fd5b505050506040513d606081101561425c57600080fd5b5080516020909101516dffffffffffffffffffffffffffff918216935016905060006142888383613b00565b60408051600080825260208201928390527f022c0d9f000000000000000000000000000000000000000000000000000000008352602482018b8152604483018b90526001600160a01b038a81166064850152608060848501908152845160a48601819052969750908a169563022c0d9f958e958e958e9591949193919260c486019290918190849084905b8381101561432b578181015183820152602001614313565b50505050905090810190601f1680156143585780820380516001836020036101000a031916815260200191505b5095505050505050600060405180830381600087803b15801561437a57600080fd5b505af115801561438e573d6000803e3d6000fd5b50505050836001600160a01b0316630902f1ac6040518163ffffffff1660e01b815260040160606040518083038186803b1580156143cb57600080fd5b505afa1580156143df573d6000803e3d6000fd5b505050506040513d60608110156143f557600080fd5b5080516020909101516dffffffffffffffffffffffffffff918216945016915060006144218484613b00565b905080821115614478576040805162461bcd60e51b815260206004820152600860248201527f427572676572204b000000000000000000000000000000000000000000000000604482015290519081900360640190fd5b87156144a1576004546144a190614499906001600160a01b03168f8f613d47565b878d8b613971565b86156144ca576004546144ca906144c2906001600160a01b03168f8f613d47565b878c8a613971565b50506001909b019a50613f769950505050505050505050565b50816001835103815181106144f457fe5b60200260200101516001600160a01b03168260008151811061451257fe5b60200260200101516001600160a01b0316826001600160a01b03167f3070708cdb5d7d3931be8443f49f7ec529e2bbe770b676e3c0cc40e158c5d0398660008151811061455b57fe5b60200260200101518760018851038151811061457357fe5b6020026020010151604051808381526020018281526020019250505060405180910390a4505050565b60005b6001835103811015613ec55760006127106145cd8684815181106145bf57fe5b602002602001015185613b00565b816145d457fe5b04905060008483815181106145e557fe5b60200260200101519050600085846001018151811061460057fe5b60200260200101519050600061462c600460009054906101000a90046001600160a01b03168484613d47565b6002549091506001600160a01b03848116911614156146e0576002546008546040805163012d9b4160e71b8152600481018890526001600160a01b039384166024820152918316604483015251918316916396cda0809160648082019260009290919082900301818387803b1580156146a457600080fd5b505af11580156146b8573d6000803e3d6000fd5b50506008546002546146db93508492506001600160a01b03918216911687613971565b6148c4565b6004546002546001600160a01b03808416926396cda080928892889261470c9290821691849116613d47565b6040518463ffffffff1660e01b815260040180848152602001836001600160a01b03166001600160a01b03168152602001826001600160a01b03166001600160a01b031681526020019350505050600060405180830381600087803b15801561477457600080fd5b505af1158015614788573d6000803e3d6000fd5b5050600454600254600093508392506147af916001600160a01b039081169188911661539c565b9150915060006147c0878484613b59565b6004546002549192506147e1916001600160a01b0391821691899116613d47565b6002546008546040805163012d9b4160e71b8152600481018690526001600160a01b03938416602482015291831660448301525192909116916396cda0809160648082019260009290919082900301818387803b15801561484157600080fd5b505af1158015614855573d6000803e3d6000fd5b5050600454600254614884935087925061487d916001600160a01b03908116918b9116613d47565b888a613971565b6004546002546148bf916148a6916001600160a01b03918216918a9116613d47565b6008546002546001600160a01b03918216911684613971565b955050505b831561495157600854604080517fe60a6a0b0000000000000000000000000000000000000000000000000000000081526001600160a01b038481166004830152602482018890529151919092169163e60a6a0b91604480830192600092919082900301818387803b15801561493857600080fd5b505af115801561494c573d6000803e3d6000fd5b505050505b50506001909201915061459f9050565b6060825167ffffffffffffffff8111801561497b57600080fd5b506040519080825280602002602001820160405280156149a5578160200160208202803683370190505b50905083816001855103815181106149b957fe5b60209081029190910101528251600019015b8015614aa35760008460018303815181106149e257fe5b6020026020010151905060008583815181106149fa57fe5b60200260200101519050600080614a27600460009054906101000a90046001600160a01b0316858561539c565b915091506000614a4b878781518110614a3c57fe5b602002602001015184846151f7565b9050614a77614a5c6127108a613abe565b614a6883612710613b00565b81614a6f57fe5b04600161546a565b876001880381518110614a8657fe5b6020908102919091010152505060001990930192506149cb915050565b50614ac381600081518110614ab457fe5b60200260200101518484613c15565b949350505050565b600480546040805163e6a4390560e01b81526001600160a01b038a811694820194909452888416602482015290516000938493849391169163e6a4390591604480820192602092909190829003018186803b158015614b2957600080fd5b505afa158015614b3d573d6000803e3d6000fd5b505050506040513d6020811015614b5357600080fd5b50516001600160a01b03161415614ce2576003546040805163d48bfca760e01b81526001600160a01b038b811660048301529151919092169163d48bfca79160248083019260209291908290030181600087803b158015614bb357600080fd5b505af1158015614bc7573d6000803e3d6000fd5b505050506040513d6020811015614bdd57600080fd5b50506003546040805163d48bfca760e01b81526001600160a01b038a811660048301529151919092169163d48bfca79160248083019260209291908290030181600087803b158015614c2e57600080fd5b505af1158015614c42573d6000803e3d6000fd5b505050506040513d6020811015614c5857600080fd5b505060048054604080516364e329cb60e11b81526001600160a01b038c8116948201949094528a841660248201529051929091169163c9c65396916044808201926020929091908290030181600087803b158015614cb557600080fd5b505af1158015614cc9573d6000803e3d6000fd5b505050506040513d6020811015614cdf57600080fd5b50505b6003546040805163a9ece1b760e01b81526001600160a01b038b811660048301528a811660248301529151919092169163a9ece1b7916044808301926020929190829003018186803b158015614d3757600080fd5b505afa158015614d4b573d6000803e3d6000fd5b505050506040513d6020811015614d6157600080fd5b5051614d9e5760405162461bcd60e51b815260040180806020018281038252603481526020018061579b6034913960400191505060405180910390fd5b6004546000908190614dba906001600160a01b03168b8b61539c565b91509150816000148015614dcc575080155b15614ddc57879350869250614e9c565b6000614de989848461555b565b9050878111614e3c5785811015614e315760405162461bcd60e51b81526004018080602001828103825260258152602001806156b06025913960400191505060405180910390fd5b889450925082614e9a565b6000614e4989848661555b565b905089811115614e5557fe5b87811015614e945760405162461bcd60e51b815260040180806020018281038252602581526020018061568b6025913960400191505060405180910390fd5b94508793505b505b600480546040805163e6a4390560e01b81526001600160a01b038e8116948201949094528c841660248201529051929091169163c9ead258913391849163e6a43905916044808301926020929190829003018186803b158015614efe57600080fd5b505afa158015614f12573d6000803e3d6000fd5b505050506040513d6020811015614f2857600080fd5b5051604080517fffffffff0000000000000000000000000000000000000000000000000000000060e086901b1681526001600160a01b0393841660048201529290911660248301525160448083019260209291908290030181600087803b158015614f9257600080fd5b505af1158015614fa6573d6000803e3d6000fd5b505050506040513d6020811015614fbc57600080fd5b50939a92995091975050505050505050565b604080516001600160a01b0385811660248301528481166044830152606480830185905283518084039091018152608490920183526020820180517bffffffffffffffffffffffffffffffffffffffffffffffffffffffff167f23b872dd0000000000000000000000000000000000000000000000000000000017815292518251600094606094938a169392918291908083835b602083106150815780518252601f199092019160209182019101615062565b6001836020036101000a0380198251168184511680821785525050505050509050019150506000604051808303816000865af19150503d80600081146150e3576040519150601f19603f3d011682016040523d82523d6000602084013e6150e8565b606091505b5091509150818015615116575080511580615116575080806020019051602081101561511357600080fd5b50515b613a1a5760405162461bcd60e51b81526004018080602001828103825260248152602001806158416024913960400191505060405180910390fd5b6005546040805163a9059cbb60e01b81526001600160a01b038581166004830152602482018590529151919092169163a9059cbb9160448083019260209291908290030181600087803b1580156151a757600080fd5b505af11580156151bb573d6000803e3d6000fd5b505050506040513d60208110156151d157600080fd5b50516151d957fe5b6005546151f390309084906001600160a01b031684613971565b5050565b60008084116152375760405162461bcd60e51b815260040180806020018281038252602b815260200180615816602b913960400191505060405180910390fd5b6000831180156152475750600082115b6152825760405162461bcd60e51b81526004018080602001828103825260278152602001806157296027913960400191505060405180910390fd5b6000615294848663ffffffff613b0016565b905060006152a8848763ffffffff613abe16565b9050610fc060018284816152b857fe5b049063ffffffff61546a16565b600080826001600160a01b0316846001600160a01b031614156153195760405162461bcd60e51b81526004018080602001828103825260248152602001806157056024913960400191505060405180910390fd5b826001600160a01b0316846001600160a01b03161061533957828461533c565b83835b90925090506001600160a01b038216612c64576040805162461bcd60e51b815260206004820152601d60248201527f546f6d69537761704c6962726172793a205a45524f5f41444452455353000000604482015290519081900360640190fd5b60008060006153ab85856152c5565b5090506000806153bc888888613d47565b6001600160a01b0316630902f1ac6040518163ffffffff1660e01b815260040160606040518083038186803b1580156153f457600080fd5b505afa158015615408573d6000803e3d6000fd5b505050506040513d606081101561541e57600080fd5b5080516020909101516dffffffffffffffffffffffffffff91821693501690506001600160a01b038781169084161461545857808261545b565b81815b90999098509650505050505050565b6000828201838110156126d2576040805162461bcd60e51b815260206004820152601b60248201527f536166654d6174683a206164646974696f6e206f766572666c6f770000000000604482015290519081900360640190fd5b600081848411156155535760405162461bcd60e51b81526004018080602001828103825283818151815260200191508051906020019080838360005b83811015615518578181015183820152602001615500565b50505050905090810190601f1680156155455780820380516001836020036101000a031916815260200191505b509250505060405180910390fd5b505050900390565b600080841161559b5760405162461bcd60e51b81526004018080602001828103825260248152602001806157cf6024913960400191505060405180910390fd5b6000831180156155ab5750600082115b6155e65760405162461bcd60e51b81526004018080602001828103825260278152602001806157296027913960400191505060405180910390fd5b826155f7858463ffffffff613b0016565b816155fe57fe5b0494935050505056fe544f4d4920504c4154464f524d203a20434845434b20544f4d492f544f4b454e20544f2056414c5545204641494c544f4d4920504c4154464f524d203a2053574150205041495220434f4e46494720434845434b204641494c546f6d69537761704c6962726172793a20494e53554646494349454e545f494e5055545f414d4f554e54544f4d4920504c4154464f524d203a20494e53554646494349454e545f415f414d4f554e54544f4d4920504c4154464f524d203a20494e53554646494349454e545f425f414d4f554e54544f4d4920504c4154464f524d203a20434845434b20544f4d492f544f4b454e2056414c55452046524f4d204641494c546f6d69537761704c6962726172793a204944454e544943414c5f414444524553534553546f6d69537761704c6962726172793a20494e53554646494349454e545f4c4951554944495459536166654d6174683a206d756c7469706c69636174696f6e206f766572666c6f77544f4d4920504c4154464f524d203a20494e53554646494349454e545f4f55545055545f414d4f554e54544f4d4920504c4154464f524d203a20414444204c4951554944495459205041495220434f4e46494720434845434b204641494c546f6d69537761704c6962726172793a20494e53554646494349454e545f414d4f554e545472616e7366657248656c7065723a204554485f5452414e534645525f4641494c4544546f6d69537761704c6962726172793a20494e53554646494349454e545f4f55545055545f414d4f554e545472616e7366657248656c7065723a205452414e534645525f46524f4d5f4641494c4544544f4d4920504c4154464f524d203a204558434553534956455f494e5055545f414d4f554e54a2646970667358221220b0b357a2edecb9cc9badcc0e8e66e62e9cc089476d89a8f1f9dfa0c971be320164736f6c63430006060033",
  "devdoc": {
    "methods": {}
  },
  "userdoc": {
    "methods": {}
  },
  "storageLayout": {
    "storage": [
      {
        "astId": 20735,
        "contract": "contracts/TomiPlatform.sol:TomiPlatform",
        "label": "owner",
        "offset": 0,
        "slot": "0",
        "type": "t_address"
      },
      {
        "astId": 9019,
        "contract": "contracts/TomiPlatform.sol:TomiPlatform",
        "label": "version",
        "offset": 0,
        "slot": "1",
        "type": "t_uint256"
      },
      {
        "astId": 9021,
        "contract": "contracts/TomiPlatform.sol:TomiPlatform",
        "label": "TOMI",
        "offset": 0,
        "slot": "2",
        "type": "t_address"
      },
      {
        "astId": 9023,
        "contract": "contracts/TomiPlatform.sol:TomiPlatform",
        "label": "CONFIG",
        "offset": 0,
        "slot": "3",
        "type": "t_address"
      },
      {
        "astId": 9025,
        "contract": "contracts/TomiPlatform.sol:TomiPlatform",
        "label": "FACTORY",
        "offset": 0,
        "slot": "4",
        "type": "t_address"
      },
      {
        "astId": 9027,
        "contract": "contracts/TomiPlatform.sol:TomiPlatform",
        "label": "WETH",
        "offset": 0,
        "slot": "5",
        "type": "t_address"
      },
      {
        "astId": 9029,
        "contract": "contracts/TomiPlatform.sol:TomiPlatform",
        "label": "GOVERNANCE",
        "offset": 0,
        "slot": "6",
        "type": "t_address"
      },
      {
        "astId": 9031,
        "contract": "contracts/TomiPlatform.sol:TomiPlatform",
        "label": "TRANSFER_LISTENER",
        "offset": 0,
        "slot": "7",
        "type": "t_address"
      },
      {
        "astId": 9033,
        "contract": "contracts/TomiPlatform.sol:TomiPlatform",
        "label": "POOL",
        "offset": 0,
        "slot": "8",
        "type": "t_address"
      },
      {
        "astId": 9038,
        "contract": "contracts/TomiPlatform.sol:TomiPlatform",
        "label": "isPause",
        "offset": 20,
        "slot": "8",
        "type": "t_bool"
      }
    ],
    "types": {
      "t_address": {
        "encoding": "inplace",
        "label": "address",
        "numberOfBytes": "20"
      },
      "t_bool": {
        "encoding": "inplace",
        "label": "bool",
        "numberOfBytes": "1"
      },
      "t_uint256": {
        "encoding": "inplace",
        "label": "uint256",
        "numberOfBytes": "32"
      }
    }
  }
}