{
  "address": "0x2E6a20903D353248A1D8eCAc5d86EA943DCF9E0D",
  "abi": [
    {
      "inputs": [
        {
          "internalType": "address",
          "name": "_tomi",
          "type": "address"
        }
      ],
      "stateMutability": "nonpayable",
      "type": "constructor"
    },
    {
      "anonymous": false,
      "inputs": [
        {
          "indexed": false,
          "internalType": "address",
          "name": "_userAddress",
          "type": "address"
        }
      ],
      "name": "ClaimableGranted",
      "type": "event"
    },
    {
      "anonymous": false,
      "inputs": [
        {
          "indexed": false,
          "internalType": "address",
          "name": "_userAddress",
          "type": "address"
        }
      ],
      "name": "ClaimableRevoked",
      "type": "event"
    },
    {
      "anonymous": false,
      "inputs": [
        {
          "indexed": false,
          "internalType": "address",
          "name": "_userAddress",
          "type": "address"
        },
        {
          "indexed": false,
          "internalType": "uint256",
          "name": "_amount",
          "type": "uint256"
        }
      ],
      "name": "Claimed",
      "type": "event"
    },
    {
      "anonymous": false,
      "inputs": [
        {
          "indexed": false,
          "internalType": "address",
          "name": "tokenAddress",
          "type": "address"
        }
      ],
      "name": "FundingTokenSettled",
      "type": "event"
    },
    {
      "anonymous": false,
      "inputs": [
        {
          "indexed": true,
          "internalType": "address",
          "name": "_oldOwner",
          "type": "address"
        },
        {
          "indexed": true,
          "internalType": "address",
          "name": "_newOwner",
          "type": "address"
        }
      ],
      "name": "OwnerChanged",
      "type": "event"
    },
    {
      "inputs": [
        {
          "internalType": "address",
          "name": "_newOwner",
          "type": "address"
        }
      ],
      "name": "changeOwner",
      "outputs": [],
      "stateMutability": "nonpayable",
      "type": "function"
    },
    {
      "inputs": [
        {
          "internalType": "uint256",
          "name": "_amount",
          "type": "uint256"
        }
      ],
      "name": "claim",
      "outputs": [],
      "stateMutability": "nonpayable",
      "type": "function"
    },
    {
      "inputs": [
        {
          "internalType": "address",
          "name": "_userAddress",
          "type": "address"
        }
      ],
      "name": "grantClaimable",
      "outputs": [],
      "stateMutability": "nonpayable",
      "type": "function"
    },
    {
      "inputs": [],
      "name": "owner",
      "outputs": [
        {
          "internalType": "address",
          "name": "",
          "type": "address"
        }
      ],
      "stateMutability": "view",
      "type": "function"
    },
    {
      "inputs": [
        {
          "internalType": "address",
          "name": "_userAddress",
          "type": "address"
        }
      ],
      "name": "revokeClaimable",
      "outputs": [],
      "stateMutability": "nonpayable",
      "type": "function"
    },
    {
      "inputs": [
        {
          "internalType": "address",
          "name": "_tomi",
          "type": "address"
        }
      ],
      "name": "setTomi",
      "outputs": [],
      "stateMutability": "nonpayable",
      "type": "function"
    },
    {
      "inputs": [],
      "name": "tomi",
      "outputs": [
        {
          "internalType": "address",
          "name": "",
          "type": "address"
        }
      ],
      "stateMutability": "view",
      "type": "function"
    }
  ],
  "transactionHash": "0xf0ea0081af23f30b18aa0dd3dd6dd7d4377daaec7539747893af1aea3bfa46b1",
  "args": [
    "0xE774238f5eF7EA239BE157D4adb82bc753b36836"
  ],
  "solcInputHash": "63478e9956293b4920a094ddfa289c58",
  "bytecode": "0x608060405234801561001057600080fd5b50604051610a4d380380610a4d8339818101604052602081101561003357600080fd5b5051600080546001600160a01b03199081163317909155600180546001600160a01b03909316929091169190911790556109db806100726000396000f3fe608060405234801561001057600080fd5b506004361061007d5760003560e01c8063673eb2611161005b578063673eb261146100ed5780638da5cb5b14610111578063a30d253b14610119578063a6f9dae11461013f5761007d565b806312f271cb14610082578063379607f5146100aa5780634b19653b146100c7575b600080fd5b6100a86004803603602081101561009857600080fd5b50356001600160a01b0316610165565b005b6100a8600480360360208110156100c057600080fd5b50356102b0565b6100a8600480360360208110156100dd57600080fd5b50356001600160a01b0316610426565b6100f5610575565b604080516001600160a01b039092168252519081900360200190f35b6100f5610584565b6100a86004803603602081101561012f57600080fd5b50356001600160a01b0316610593565b6100a86004803603602081101561015557600080fd5b50356001600160a01b0316610648565b6000546001600160a01b031633146101b9576040805162461bcd60e51b815260206004820152601260248201527127bbb730b136329d102327a92124a22222a760711b604482015290519081900360640190fd5b6001600160a01b038116600090815260026020526040902054819060ff166102125760405162461bcd60e51b815260040180806020018281038252602881526020018061097e6028913960400191505060405180910390fd5b6001600160a01b0382166102575760405162461bcd60e51b81526004018080602001828103825260278152602001806109246027913960400191505060405180910390fd5b6001600160a01b038216600081815260026020908152604091829020805460ff19169055815192835290517f7d80f56aaa484745721fb661b8b45e6bc0d85d8fc0af8c750680f2a4b4eef64d9281900390910190a15050565b3360008181526002602052604090205460ff166102fe5760405162461bcd60e51b815260040180806020018281038252602881526020018061097e6028913960400191505060405180910390fd5b600154604080517f70a0823100000000000000000000000000000000000000000000000000000000815230600482015290516000926001600160a01b0316916370a08231916024808301926020929190829003018186803b15801561036257600080fd5b505afa158015610376573d6000803e3d6000fd5b505050506040513d602081101561038c57600080fd5b50519050828110156103cf5760405162461bcd60e51b815260040180806020018281038252603381526020018061094b6033913960400191505060405180910390fd5b6001546103e6906001600160a01b0316338561075f565b604080513381526020810185905281517fd8138f8a3f377c5259ca548e70e4c2de94f129f5a11036a15b69513cba2b426a929181900390910190a1505050565b6000546001600160a01b0316331461047a576040805162461bcd60e51b815260206004820152601260248201527127bbb730b136329d102327a92124a22222a760711b604482015290519081900360640190fd5b6001600160a01b038116600090815260026020526040902054819060ff16156104d45760405162461bcd60e51b815260040180806020018281038252602c8152602001806108f8602c913960400191505060405180910390fd5b6001600160a01b0382166105195760405162461bcd60e51b81526004018080602001828103825260278152602001806109246027913960400191505060405180910390fd5b6001600160a01b038216600081815260026020908152604091829020805460ff19166001179055815192835290517f37281f5e35a147a66f3e3a3242137b03249bae2f4336e88e6df760c6972092c19281900390910190a15050565b6001546001600160a01b031681565b6000546001600160a01b031681565b6000546001600160a01b031633146105e7576040805162461bcd60e51b815260206004820152601260248201527127bbb730b136329d102327a92124a22222a760711b604482015290519081900360640190fd5b600180546001600160a01b03831673ffffffffffffffffffffffffffffffffffffffff19909116811790915560408051918252517f6617268b28a7c7ef315309734ed5ee0f7532e90cba1e6bddd38e4533fe37fe079181900360200190a150565b6000546001600160a01b0316331461069c576040805162461bcd60e51b815260206004820152601260248201527127bbb730b136329d102327a92124a22222a760711b604482015290519081900360640190fd5b6001600160a01b0381166106f7576040805162461bcd60e51b815260206004820152601860248201527f4f776e61626c653a20494e56414c49445f414444524553530000000000000000604482015290519081900360640190fd5b600080546040516001600160a01b03808516939216917fb532073b38c83145e3e5135377a08bf9aab55bc0fd7c1179cd4fb995d2a5159c91a36000805473ffffffffffffffffffffffffffffffffffffffff19166001600160a01b0392909216919091179055565b604080516001600160a01b038481166024830152604480830185905283518084039091018152606490920183526020820180517bffffffffffffffffffffffffffffffffffffffffffffffffffffffff167fa9059cbb00000000000000000000000000000000000000000000000000000000178152925182516000946060949389169392918291908083835b6020831061080a5780518252601f1990920191602091820191016107eb565b6001836020036101000a0380198251168184511680821785525050505050509050019150506000604051808303816000865af19150503d806000811461086c576040519150601f19603f3d011682016040523d82523d6000602084013e610871565b606091505b509150915081801561089f57508051158061089f575080806020019051602081101561089c57600080fd5b50515b6108f0576040805162461bcd60e51b815260206004820152601f60248201527f5472616e7366657248656c7065723a205452414e534645525f4641494c454400604482015290519081900360640190fd5b505050505056fe546f6d6946756e64696e673a3a5573657220616c726561647920696e20636c61696d61626c65206c69737421546f6d6946756e64696e673a3a557365722061646472657373206973206e6f74206c6567697421546f6d6946756e64696e673a3a52656d61696e2062616c616e6365206973206e6f7420656e6f75676820746f20636c61696d21546f6d6946756e64696e673a3a55736572206e6f7420696e20636c61696d61626c65206c69737421a2646970667358221220e43113f3eccc2a6815978e1b29ec6f7172dd2b1955a4b9cf556e884f23151f2464736f6c63430006060033",
  "devdoc": {
    "methods": {}
  },
  "userdoc": {
    "methods": {}
  },
  "storageLayout": {
    "storage": [
      {
        "astId": 18270,
        "contract": "contracts/TomiFunding.sol:TomiFunding",
        "label": "owner",
        "offset": 0,
        "slot": "0",
        "type": "t_address"
      },
      {
        "astId": 1928,
        "contract": "contracts/TomiFunding.sol:TomiFunding",
        "label": "tomi",
        "offset": 0,
        "slot": "1",
        "type": "t_address"
      },
      {
        "astId": 1932,
        "contract": "contracts/TomiFunding.sol:TomiFunding",
        "label": "included",
        "offset": 0,
        "slot": "2",
        "type": "t_mapping(t_address,t_bool)"
      }
    ],
    "types": {
      "t_address": {
        "encoding": "inplace",
        "label": "address",
        "numberOfBytes": "20"
      },
      "t_bool": {
        "encoding": "inplace",
        "label": "bool",
        "numberOfBytes": "1"
      },
      "t_mapping(t_address,t_bool)": {
        "encoding": "mapping",
        "key": "t_address",
        "label": "mapping(address => bool)",
        "numberOfBytes": "32",
        "value": "t_bool"
      }
    }
  }
}