{
  "address": "0xa8b77196B1366d864b2cBaD41d0Ba7f34ec7b753",
  "abi": [
    {
      "inputs": [
        {
          "internalType": "address",
          "name": "_PLATFORM",
          "type": "address"
        },
        {
          "internalType": "address",
          "name": "_POOL",
          "type": "address"
        },
        {
          "internalType": "address",
          "name": "_TOMI",
          "type": "address"
        },
        {
          "internalType": "address",
          "name": "_WETH",
          "type": "address"
        }
      ],
      "stateMutability": "nonpayable",
      "type": "constructor"
    },
    {
      "anonymous": false,
      "inputs": [
        {
          "indexed": true,
          "internalType": "address",
          "name": "_oldOwner",
          "type": "address"
        },
        {
          "indexed": true,
          "internalType": "address",
          "name": "_newOwner",
          "type": "address"
        }
      ],
      "name": "OwnerChanged",
      "type": "event"
    },
    {
      "anonymous": false,
      "inputs": [
        {
          "indexed": true,
          "internalType": "address",
          "name": "token0",
          "type": "address"
        },
        {
          "indexed": true,
          "internalType": "address",
          "name": "token1",
          "type": "address"
        },
        {
          "indexed": false,
          "internalType": "address",
          "name": "pair",
          "type": "address"
        },
        {
          "indexed": false,
          "internalType": "uint256",
          "name": "",
          "type": "uint256"
        }
      ],
      "name": "PairCreated",
      "type": "event"
    },
    {
      "inputs": [],
      "name": "PLATFORM",
      "outputs": [
        {
          "internalType": "address",
          "name": "",
          "type": "address"
        }
      ],
      "stateMutability": "view",
      "type": "function"
    },
    {
      "inputs": [],
      "name": "POOL",
      "outputs": [
        {
          "internalType": "address",
          "name": "",
          "type": "address"
        }
      ],
      "stateMutability": "view",
      "type": "function"
    },
    {
      "inputs": [],
      "name": "TOMI",
      "outputs": [
        {
          "internalType": "address",
          "name": "",
          "type": "address"
        }
      ],
      "stateMutability": "view",
      "type": "function"
    },
    {
      "inputs": [],
      "name": "WETH",
      "outputs": [
        {
          "internalType": "address",
          "name": "",
          "type": "address"
        }
      ],
      "stateMutability": "view",
      "type": "function"
    },
    {
      "inputs": [
        {
          "internalType": "address",
          "name": "tokenA",
          "type": "address"
        },
        {
          "internalType": "address",
          "name": "tokenB",
          "type": "address"
        },
        {
          "internalType": "uint256",
          "name": "amountA",
          "type": "uint256"
        },
        {
          "internalType": "uint256",
          "name": "amountB",
          "type": "uint256"
        },
        {
          "internalType": "uint256",
          "name": "amountAMin",
          "type": "uint256"
        },
        {
          "internalType": "uint256",
          "name": "amountBMin",
          "type": "uint256"
        },
        {
          "internalType": "uint256",
          "name": "deadline",
          "type": "uint256"
        }
      ],
      "name": "addLiquidity",
      "outputs": [
        {
          "internalType": "uint256",
          "name": "_amountA",
          "type": "uint256"
        },
        {
          "internalType": "uint256",
          "name": "_amountB",
          "type": "uint256"
        },
        {
          "internalType": "uint256",
          "name": "_liquidity",
          "type": "uint256"
        }
      ],
      "stateMutability": "nonpayable",
      "type": "function"
    },
    {
      "inputs": [
        {
          "internalType": "address",
          "name": "token",
          "type": "address"
        },
        {
          "internalType": "uint256",
          "name": "amountTokenDesired",
          "type": "uint256"
        },
        {
          "internalType": "uint256",
          "name": "amountTokenMin",
          "type": "uint256"
        },
        {
          "internalType": "uint256",
          "name": "amountETHMin",
          "type": "uint256"
        },
        {
          "internalType": "uint256",
          "name": "deadline",
          "type": "uint256"
        }
      ],
      "name": "addLiquidityETH",
      "outputs": [
        {
          "internalType": "uint256",
          "name": "_amountToken",
          "type": "uint256"
        },
        {
          "internalType": "uint256",
          "name": "_amountETH",
          "type": "uint256"
        },
        {
          "internalType": "uint256",
          "name": "_liquidity",
          "type": "uint256"
        }
      ],
      "stateMutability": "payable",
      "type": "function"
    },
    {
      "inputs": [
        {
          "internalType": "address",
          "name": "_user",
          "type": "address"
        }
      ],
      "name": "addPlayerPair",
      "outputs": [],
      "stateMutability": "nonpayable",
      "type": "function"
    },
    {
      "inputs": [
        {
          "internalType": "uint256",
          "name": "",
          "type": "uint256"
        }
      ],
      "name": "allPairs",
      "outputs": [
        {
          "internalType": "address",
          "name": "",
          "type": "address"
        }
      ],
      "stateMutability": "view",
      "type": "function"
    },
    {
      "inputs": [],
      "name": "allPairsLength",
      "outputs": [
        {
          "internalType": "uint256",
          "name": "",
          "type": "uint256"
        }
      ],
      "stateMutability": "view",
      "type": "function"
    },
    {
      "inputs": [
        {
          "internalType": "address",
          "name": "_newOwner",
          "type": "address"
        }
      ],
      "name": "changeOwner",
      "outputs": [],
      "stateMutability": "nonpayable",
      "type": "function"
    },
    {
      "inputs": [],
      "name": "contractCodeHash",
      "outputs": [
        {
          "internalType": "bytes32",
          "name": "",
          "type": "bytes32"
        }
      ],
      "stateMutability": "view",
      "type": "function"
    },
    {
      "inputs": [
        {
          "internalType": "address",
          "name": "",
          "type": "address"
        },
        {
          "internalType": "address",
          "name": "",
          "type": "address"
        }
      ],
      "name": "getPair",
      "outputs": [
        {
          "internalType": "address",
          "name": "",
          "type": "address"
        }
      ],
      "stateMutability": "view",
      "type": "function"
    },
    {
      "inputs": [
        {
          "internalType": "address",
          "name": "player",
          "type": "address"
        }
      ],
      "name": "getPlayerPairCount",
      "outputs": [
        {
          "internalType": "uint256",
          "name": "",
          "type": "uint256"
        }
      ],
      "stateMutability": "view",
      "type": "function"
    },
    {
      "inputs": [
        {
          "internalType": "address",
          "name": "",
          "type": "address"
        },
        {
          "internalType": "address",
          "name": "",
          "type": "address"
        }
      ],
      "name": "isAddPlayerPair",
      "outputs": [
        {
          "internalType": "bool",
          "name": "",
          "type": "bool"
        }
      ],
      "stateMutability": "view",
      "type": "function"
    },
    {
      "inputs": [
        {
          "internalType": "address",
          "name": "",
          "type": "address"
        }
      ],
      "name": "isPair",
      "outputs": [
        {
          "internalType": "bool",
          "name": "",
          "type": "bool"
        }
      ],
      "stateMutability": "view",
      "type": "function"
    },
    {
      "inputs": [],
      "name": "owner",
      "outputs": [
        {
          "internalType": "address",
          "name": "",
          "type": "address"
        }
      ],
      "stateMutability": "view",
      "type": "function"
    },
    {
      "inputs": [
        {
          "internalType": "address",
          "name": "",
          "type": "address"
        },
        {
          "internalType": "uint256",
          "name": "",
          "type": "uint256"
        }
      ],
      "name": "playerPairs",
      "outputs": [
        {
          "internalType": "address",
          "name": "",
          "type": "address"
        }
      ],
      "stateMutability": "view",
      "type": "function"
    },
    {
      "inputs": [
        {
          "internalType": "address",
          "name": "tokenA",
          "type": "address"
        },
        {
          "internalType": "address",
          "name": "tokenB",
          "type": "address"
        },
        {
          "internalType": "uint256",
          "name": "liquidity",
          "type": "uint256"
        },
        {
          "internalType": "uint256",
          "name": "amountAMin",
          "type": "uint256"
        },
        {
          "internalType": "uint256",
          "name": "amountBMin",
          "type": "uint256"
        },
        {
          "internalType": "uint256",
          "name": "deadline",
          "type": "uint256"
        }
      ],
      "name": "removeLiquidity",
      "outputs": [
        {
          "internalType": "uint256",
          "name": "_amountA",
          "type": "uint256"
        },
        {
          "internalType": "uint256",
          "name": "_amountB",
          "type": "uint256"
        }
      ],
      "stateMutability": "nonpayable",
      "type": "function"
    },
    {
      "inputs": [
        {
          "internalType": "address",
          "name": "token",
          "type": "address"
        },
        {
          "internalType": "uint256",
          "name": "liquidity",
          "type": "uint256"
        },
        {
          "internalType": "uint256",
          "name": "amountTokenMin",
          "type": "uint256"
        },
        {
          "internalType": "uint256",
          "name": "amountETHMin",
          "type": "uint256"
        },
        {
          "internalType": "uint256",
          "name": "deadline",
          "type": "uint256"
        }
      ],
      "name": "removeLiquidityETH",
      "outputs": [
        {
          "internalType": "uint256",
          "name": "_amountToken",
          "type": "uint256"
        },
        {
          "internalType": "uint256",
          "name": "_amountETH",
          "type": "uint256"
        }
      ],
      "stateMutability": "nonpayable",
      "type": "function"
    },
    {
      "inputs": [
        {
          "internalType": "address",
          "name": "_PLATFORM",
          "type": "address"
        }
      ],
      "name": "upgradePlatform",
      "outputs": [],
      "stateMutability": "nonpayable",
      "type": "function"
    },
    {
      "stateMutability": "payable",
      "type": "receive"
    }
  ],
  "transactionHash": "0xb8c1e398f340b6c36c9f096471b143b773654e3c956402c85d56c60aa022ed9c",
  "args": [
    "0x7a5020c260ea63ccE013049995a79b0419B5EE03",
    "0x96347e718B2dc8eC282663F2a5a5B9f2f3a1eB0B",
    "0xE774238f5eF7EA239BE157D4adb82bc753b36836",
    "0xc778417e063141139fce010982780140aa0cd5ab"
  ],
  "solcInputHash": "f36eb242fadd798d11ee81fd592eb5f4",
  "bytecode": "0x608060405234801561001057600080fd5b5060405161425c38038061425c8339818101604052608081101561003357600080fd5b50805160208201516040830151606090930151600080546001600160a01b03199081163317909155600180546001600160a01b0395861690831617905560028054938516938216939093179092556003805494841694831694909417909355600480549290931691161790556141ae806100ae6000396000f3fe6080604052600436106101635760003560e01c80638da5cb5b116100c0578063bf1512d311610074578063e5e31b1311610059578063e5e31b13146104e2578063e6a4390514610515578063f6f1e306146105505761016a565b8063bf1512d314610494578063c1dfe652146104cd5761016a565b8063a6f9dae1116100a5578063a6f9dae114610419578063a93518be1461044c578063ad5c46481461047f5761016a565b80638da5cb5b146103b9578063a2ad989f146103ce5761016a565b80637535d246116101175780637c7f84ee116100fc5780637c7f84ee146103405780637efc77fa1461035557806388080d4b1461036a5761016a565b80637535d246146102b25780637ae06e58146102c75761016a565b8063574f2ba311610148578063574f2ba3146102235780636319d8bc1461024a5780636c42fa661461027f5761016a565b80631e3dd18b1461016f57806344483d53146101b55761016a565b3661016a57005b600080fd5b34801561017b57600080fd5b506101996004803603602081101561019257600080fd5b503561058e565b604080516001600160a01b039092168252519081900360200190f35b3480156101c157600080fd5b5061020a600480360360c08110156101d857600080fd5b506001600160a01b03813581169160208101359091169060408101359060608101359060808101359060a001356105b5565b6040805192835260208301919091528051918290030190f35b34801561022f57600080fd5b50610238610695565b60408051918252519081900360200190f35b34801561025657600080fd5b5061027d6004803603602081101561026d57600080fd5b50356001600160a01b031661069b565b005b34801561028b57600080fd5b50610238600480360360208110156102a257600080fd5b50356001600160a01b031661070c565b3480156102be57600080fd5b50610199610727565b3480156102d357600080fd5b50610322600480360360e08110156102ea57600080fd5b506001600160a01b03813581169160208101359091169060408101359060608101359060808101359060a08101359060c00135610736565b60408051938452602084019290925282820152519081900360600190f35b34801561034c57600080fd5b5061023861099b565b34801561036157600080fd5b506101996109a1565b34801561037657600080fd5b506103a56004803603604081101561038d57600080fd5b506001600160a01b03813581169160200135166109b0565b604080519115158252519081900360200190f35b3480156103c557600080fd5b506101996109d0565b3480156103da57600080fd5b5061020a600480360360a08110156103f157600080fd5b506001600160a01b0381351690602081013590604081013590606081013590608001356109df565b34801561042557600080fd5b5061027d6004803603602081101561043c57600080fd5b50356001600160a01b0316610ac0565b34801561045857600080fd5b5061027d6004803603602081101561046f57600080fd5b50356001600160a01b0316610be2565b34801561048b57600080fd5b50610199610cee565b3480156104a057600080fd5b50610199600480360360408110156104b757600080fd5b506001600160a01b038135169060200135610cfd565b3480156104d957600080fd5b50610199610d32565b3480156104ee57600080fd5b506103a56004803603602081101561050557600080fd5b50356001600160a01b0316610d41565b34801561052157600080fd5b506101996004803603604081101561053857600080fd5b506001600160a01b0381358116916020013516610d56565b610322600480360360a081101561056657600080fd5b506001600160a01b038135169060208101359060408101359060608101359060800135610d7c565b6006818154811061059b57fe5b6000918252602090912001546001600160a01b0316905081565b6001600160a01b03808716600090815260056020908152604080832089851684529091528082205481517f1392808200000000000000000000000000000000000000000000000000000000815233600482015260248101899052604481018890526064810187905260848101869052825193948594921692839263139280829260a480820193929182900301818887803b15801561065257600080fd5b505af1158015610666573d6000803e3d6000fd5b505050506040513d604081101561067c57600080fd5b508051602090910151909a909950975050505050505050565b60065490565b3360009081526007602052604090205460ff166106ff576040805162461bcd60e51b815260206004820152601760248201527f616464506c617965725061697220466f7262696464656e000000000000000000604482015290519081900360640190fd5b6107098133610eb5565b50565b6001600160a01b031660009081526008602052604090205490565b6002546001600160a01b031681565b6001600160a01b0380881660009081526005602090815260408083208a851684529091528120549091829182911680610776576107738b8b610f4f565b90505b6107803382610eb5565b806001600160a01b0316630fc63d106040518163ffffffff1660e01b8152600401602060405180830381600087803b1580156107bb57600080fd5b505af11580156107cf573d6000803e3d6000fd5b505050506040513d60208110156107e557600080fd5b50516001600160a01b038c8116911614610803579899989697969495945b61080f8b33308c61129c565b61081b8a33308b61129c565b6108268b828b611427565b6108318a828a611427565b604080517f2563e426000000000000000000000000000000000000000000000000000000008152336004820152602481018b9052604481018a9052606481018990526084810188905260a4810187905290516001600160a01b03831691632563e4269160c48083019260609291908290030181600087803b1580156108b557600080fd5b505af11580156108c9573d6000803e3d6000fd5b505050506040513d60608110156108df57600080fd5b50805160208083015160409384015184517f0fc63d10000000000000000000000000000000000000000000000000000000008152945193985090965094506001600160a01b03841692630fc63d1092600480830193928290030181600087803b15801561094b57600080fd5b505af115801561095f573d6000803e3d6000fd5b505050506040513d602081101561097557600080fd5b50516001600160a01b038c811691161461098d579192915b509750975097945050505050565b600a5481565b6001546001600160a01b031681565b600960209081526000928352604080842090915290825290205460ff1681565b6000546001600160a01b031681565b6001600160a01b038086166000908152600560209081526040808320600480548616855292528083205481517fa2ad989f000000000000000000000000000000000000000000000000000000008152339381019390935260248301899052604483018890526064830187905260848301869052815193948594911692839263a2ad989f9260a48084019382900301818887803b158015610a7e57600080fd5b505af1158015610a92573d6000803e3d6000fd5b505050506040513d6040811015610aa857600080fd5b50805160209091015190999098509650505050505050565b6000546001600160a01b03163314610b1f576040805162461bcd60e51b815260206004820152601260248201527f4f776e61626c653a20464f5242494444454e0000000000000000000000000000604482015290519081900360640190fd5b6001600160a01b038116610b7a576040805162461bcd60e51b815260206004820152601860248201527f4f776e61626c653a20494e56414c49445f414444524553530000000000000000604482015290519081900360640190fd5b600080546040516001600160a01b03808516939216917fb532073b38c83145e3e5135377a08bf9aab55bc0fd7c1179cd4fb995d2a5159c91a36000805473ffffffffffffffffffffffffffffffffffffffff19166001600160a01b0392909216919091179055565b6000546001600160a01b03163314610c41576040805162461bcd60e51b815260206004820152601260248201527f4f776e61626c653a20464f5242494444454e0000000000000000000000000000604482015290519081900360640190fd5b60005b600654811015610cea5760068181548110610c5b57fe5b6000918252602082200154604080517f0900f0100000000000000000000000000000000000000000000000000000000081526001600160a01b03868116600483015291519190921692630900f010926024808201939182900301818387803b158015610cc657600080fd5b505af1158015610cda573d6000803e3d6000fd5b505060019092019150610c449050565b5050565b6004546001600160a01b031681565b60086020528160005260406000208181548110610d1657fe5b6000918252602090912001546001600160a01b03169150829050565b6003546001600160a01b031681565b60076020526000908152604090205460ff1681565b60056020908152600092835260408084209091529082529020546001600160a01b031681565b6001600160a01b038086166000908152600560209081526040808320600454851684529091528120549091829182911680610dcb57600454610dc8908a906001600160a01b0316610f4f565b90505b610dd53382610eb5565b610de18933308b61129c565b610dec89828a611427565b604080517ff6f1e306000000000000000000000000000000000000000000000000000000008152336004820152602481018a905260448101899052606481018890526084810187905290516001600160a01b0383169163f6f1e30691349160a48082019260609290919082900301818588803b158015610e6b57600080fd5b505af1158015610e7f573d6000803e3d6000fd5b50505050506040513d6060811015610e9657600080fd5b5080516020820151604090920151909b919a5098509650505050505050565b6001600160a01b0380831660009081526009602090815260408083209385168352929052205460ff16610cea576001600160a01b038083166000818152600960209081526040808320948616808452948252808320805460ff19166001908117909155938352600882528220805493840181558252902001805473ffffffffffffffffffffffffffffffffffffffff191690911790555050565b6000806000836001600160a01b0316856001600160a01b031610610f74578385610f77565b84845b90925090506001600160a01b038216610fd7576040805162461bcd60e51b815260206004820152601a60248201527f544f4d4920464143544f52593a205a45524f5f41444452455353000000000000604482015290519081900360640190fd5b6001600160a01b03828116600090815260056020908152604080832085851684529091529020541615611051576040805162461bcd60e51b815260206004820152601960248201527f544f4d4920464143544f52593a20504149525f45584953545300000000000000604482015290519081900360640190fd5b606060405180602001611063906116df565b601f1982820381018352601f90910116604052600a5490915061108b5780516020820120600a555b6000838360405160200180836001600160a01b03166001600160a01b031660601b8152601401826001600160a01b03166001600160a01b031660601b815260140192505050604051602081830303815290604052805190602001209050808251602084016000f56001600160a01b03808216600081815260076020526040808220805460ff1916600190811790915560035460025491546004805485517fcc2a9a5b0000000000000000000000000000000000000000000000000000000081528e8a16928101929092528c89166024830152928816604482015292871660648401528616608483015290941660a485015251939850909263cc2a9a5b9260c480820193929182900301818387803b1580156111a557600080fd5b505af11580156111b9573d6000803e3d6000fd5b505050506001600160a01b0384811660008181526005602081815260408084208987168086529083528185208054978d1673ffffffffffffffffffffffffffffffffffffffff1998891681179091559383528185208686528352818520805488168517905560068054600181018255958190527ff652222313e28459528d920b65115c16c04f3efc82aaedc97be59f3f377c0d3f90950180549097168417909655925483519283529082015281517f0d3648bd0f6ba80134a33ba9275ac585d9d315f0ad8355cddefde31afa28d0e9929181900390910190a35050505092915050565b604080516001600160a01b0385811660248301528481166044830152606480830185905283518084039091018152608490920183526020820180517bffffffffffffffffffffffffffffffffffffffffffffffffffffffff167f23b872dd0000000000000000000000000000000000000000000000000000000017815292518251600094606094938a169392918291908083835b6020831061134f5780518252601f199092019160209182019101611330565b6001836020036101000a0380198251168184511680821785525050505050509050019150506000604051808303816000865af19150503d80600081146113b1576040519150601f19603f3d011682016040523d82523d6000602084013e6113b6565b606091505b50915091508180156113e45750805115806113e457508080602001905160208110156113e157600080fd5b50515b61141f5760405162461bcd60e51b81526004018080602001828103825260248152602001806141556024913960400191505060405180910390fd5b505050505050565b6000836001600160a01b03166318160ddd6040518163ffffffff1660e01b815260040160206040518083038186803b15801561146257600080fd5b505afa158015611476573d6000803e3d6000fd5b505050506040513d602081101561148c57600080fd5b505190508181101561149b5750805b604080517fdd62ed3e0000000000000000000000000000000000000000000000000000000081523060048201526001600160a01b0385811660248301529151849287169163dd62ed3e916044808301926020929190829003018186803b15801561150457600080fd5b505afa158015611518573d6000803e3d6000fd5b505050506040513d602081101561152e57600080fd5b5051101561154157611541848483611547565b50505050565b604080516001600160a01b038481166024830152604480830185905283518084039091018152606490920183526020820180517bffffffffffffffffffffffffffffffffffffffffffffffffffffffff167f095ea7b300000000000000000000000000000000000000000000000000000000178152925182516000946060949389169392918291908083835b602083106115f25780518252601f1990920191602091820191016115d3565b6001836020036101000a0380198251168184511680821785525050505050509050019150506000604051808303816000865af19150503d8060008114611654576040519150601f19603f3d011682016040523d82523d6000602084013e611659565b606091505b5091509150818015611687575080511580611687575080806020019051602081101561168457600080fd5b50515b6116d8576040805162461bcd60e51b815260206004820152601e60248201527f5472616e7366657248656c7065723a20415050524f56455f4641494c45440000604482015290519081900360640190fd5b5050505050565b612a68806116ed8339019056fe608060405234801561001057600080fd5b50600a80546001600160a01b03191633179055612a36806100326000396000f3fe6080604052600436106101d15760003560e01c806370a08231116100f7578063a9059cbb11610095578063cf67536511610064578063cf675365146106e1578063d14c9641146106f6578063dd62ed3e1461070b578063f6f1e30614610746576101d8565b8063a9059cbb14610623578063ad5c46481461065c578063bfc8b20814610671578063cc2a9a5b14610686576101d8565b80638da5cb5b116100d15780638da5cb5b1461057b57806395d89b4114610590578063a2ad989f146105a5578063a87430ba146105f0576101d8565b806370a082311461051e5780637535d246146105515780637efc77fa14610566576101d8565b806318160ddd1161016f5780632c79db111161013e5780632c79db11146104b4578063313ce567146104c95780635f64b55b146104f45780636c9fa59e14610509576101d8565b806318160ddd146103ba57806323b872dd146103cf5780632563e4261461041257806328e964e914610481576101d8565b8063095ea7b3116101ab578063095ea7b3146102c35780630fc63d10146103105780631392808214610341578063174f57af146103a5576101d8565b8063026c4207146101dd57806306fdde03146102045780630900f0101461028e576101d8565b366101d857005b600080fd5b3480156101e957600080fd5b506101f2610784565b60408051918252519081900360200190f35b34801561021057600080fd5b5061021961078a565b6040805160208082528351818301528351919283929083019185019080838360005b8381101561025357818101518382015260200161023b565b50505050905090810190601f1680156102805780820380516001836020036101000a031916815260200191505b509250505060405180910390f35b34801561029a57600080fd5b506102c1600480360360208110156102b157600080fd5b50356001600160a01b03166107c3565b005b3480156102cf57600080fd5b506102fc600480360360408110156102e657600080fd5b506001600160a01b038135169060200135610845565b604080519115158252519081900360200190f35b34801561031c57600080fd5b506103256108ac565b604080516001600160a01b039092168252519081900360200190f35b34801561034d57600080fd5b5061038c600480360360a081101561036457600080fd5b506001600160a01b0381351690602081013590604081013590606081013590608001356108bb565b6040805192835260208301919091528051918290030190f35b3480156103b157600080fd5b506101f2610a53565b3480156103c657600080fd5b506101f2610aa1565b3480156103db57600080fd5b506102fc600480360360608110156103f257600080fd5b506001600160a01b03813581169160208101359091169060400135610aa7565b34801561041e57600080fd5b50610463600480360360c081101561043557600080fd5b506001600160a01b038135169060208101359060408101359060608101359060808101359060a00135610b76565b60408051938452602084019290925282820152519081900360600190f35b34801561048d57600080fd5b5061038c600480360360208110156104a457600080fd5b50356001600160a01b0316610dde565b3480156104c057600080fd5b506101f2610dfc565b3480156104d557600080fd5b506104de610e0d565b6040805160ff9092168252519081900360200190f35b34801561050057600080fd5b50610325610e12565b34801561051557600080fd5b50610325610e21565b34801561052a57600080fd5b506101f26004803603602081101561054157600080fd5b50356001600160a01b0316610e30565b34801561055d57600080fd5b50610325610e42565b34801561057257600080fd5b50610325610e51565b34801561058757600080fd5b50610325610e60565b34801561059c57600080fd5b50610219610e6f565b3480156105b157600080fd5b5061038c600480360360a08110156105c857600080fd5b506001600160a01b038135169060208101359060408101359060608101359060800135610ea8565b3480156105fc57600080fd5b506104636004803603602081101561061357600080fd5b50356001600160a01b031661110a565b34801561062f57600080fd5b506102fc6004803603604081101561064657600080fd5b506001600160a01b03813516906020013561112b565b34801561066857600080fd5b50610325611141565b34801561067d57600080fd5b506101f2611150565b34801561069257600080fd5b506102c1600480360360c08110156106a957600080fd5b506001600160a01b038135811691602081013582169160408201358116916060810135821691608082013581169160a0013516611156565b3480156106ed57600080fd5b506101f261123c565b34801561070257600080fd5b506101f2611242565b34801561071757600080fd5b506101f26004803603604081101561072e57600080fd5b506001600160a01b0381358116916020013516611248565b610463600480360360a081101561075c57600080fd5b506001600160a01b038135169060208101359060408101359060608101359060800135611265565b60025481565b6040518060400160405280600781526020017f546f6d69204c500000000000000000000000000000000000000000000000000081525081565b600a546001600160a01b03163314610816576040805162461bcd60e51b81526020600482015260116024820152702a37b6b4902628102337b93134b23232b760791b604482015290519081900360640190fd5b600c805473ffffffffffffffffffffffffffffffffffffffff19166001600160a01b0392909216919091179055565b3360008181526009602090815260408083206001600160a01b038716808552908352818420869055815186815291519394909390927f8c5be1e5ebec7d5bd14f71427d1e84f3dd0314c0f7b2291e5b200ac8c7c3b925928290030190a35060015b92915050565b600d546001600160a01b031681565b600a5460009081906001600160a01b03163314610913576040805162461bcd60e51b81526020600482015260116024820152702a37b6b4902628102337b93134b23232b760791b604482015290519081900360640190fd5b600c54600d54600e54604080517fbaa2abde0000000000000000000000000000000000000000000000000000000081526001600160a01b0393841660048201529183166024830152604482018a905260648201899052608482018890528a831660a483015260c482018790528051929093169263baa2abde9260e4808401938290030181600087803b1580156109a857600080fd5b505af11580156109bc573d6000803e3d6000fd5b505050506040513d60408110156109d257600080fd5b50805160209091015190925090506109e8611533565b6109f287876116e9565b6109fc8787611786565b50604080518381526020810183905280820188905290516001600160a01b038916917f59c3a0b60c6ab7deb62e1440c9e72441db6db7dfe514dba8cb18e60c0d896efa919081900360600190a29550959350505050565b6000610a5d611533565b610a6633611874565b60408051828152905191925033917f0f6798a560793a54c3bcfe86a93cde1e73087d944c0ea20544137d41213968859181900360200190a290565b60075481565b6001600160a01b0383166000908152600960209081526040808320338452909152812054821115610b095760405162461bcd60e51b815260040180806020018281038252602281526020018061294b6022913960400191505060405180910390fd5b6001600160a01b0384166000908152600960209081526040808320338452909152902054610b3d908363ffffffff61194c16565b6001600160a01b0385166000908152600960209081526040808320338452909152902055610b6c848484611995565b5060019392505050565b600a54600090819081906001600160a01b03163314610bd0576040805162461bcd60e51b81526020600482015260116024820152702a37b6b4902628102337b93134b23232b760791b604482015290519081900360640190fd5b600d54600c54610bed916001600160a01b0390811691168a611b84565b600e54600c54610c0a916001600160a01b03908116911689611b84565b600d54610c22906001600160a01b031633308b611ca4565b600e54610c3a906001600160a01b031633308a611ca4565b600c54600d54600e54604080517f7ae06e580000000000000000000000000000000000000000000000000000000081526001600160a01b0393841660048201529183166024830152604482018c9052606482018b9052608482018a905260a4820189905260c48201889052519190921691637ae06e589160e48083019260609291908290030181600087803b158015610cd257600080fd5b505af1158015610ce6573d6000803e3d6000fd5b505050506040513d6060811015610cfc57600080fd5b5080516020820151604090920151909450909250905082881115610d4057600d54610d40906001600160a01b03168a610d3b8b8763ffffffff61194c16565b611e12565b81871115610d6957600e54610d69906001600160a01b03168a610d3b8a8663ffffffff61194c16565b610d71611533565b610d7b8982611f95565b610d85898261202c565b50604080518481526020810184905280820183905290516001600160a01b038b16917fbeb3885786d637a474cbc287c0a44587231633a077f0bd30354d5a4b18996fce919081900360600190a296509650969350505050565b6001600160a01b031660009081526006602052604081205490549091565b6000610e07336120eb565b90505b90565b601281565b600e546001600160a01b031681565b6005546001600160a01b031681565b60086020526000908152604090205481565b600b546001600160a01b031681565b600c546001600160a01b031681565b600a546001600160a01b031681565b6040518060400160405280600381526020017f424c50000000000000000000000000000000000000000000000000000000000081525081565b600a5460009081906001600160a01b03163314610f00576040805162461bcd60e51b81526020600482015260116024820152702a37b6b4902628102337b93134b23232b760791b604482015290519081900360640190fd5b600f54600d546001600160a01b0390811691161480610f2f5750600f54600e546001600160a01b039081169116145b610f6f576040805162461bcd60e51b815260206004820152600c60248201526b125395905312510810d0531360a21b604482015290519081900360640190fd5b600f54600d546000916001600160a01b03918216911614610f9b57600d546001600160a01b0316610fa8565b600e546001600160a01b03165b600c54604080517f02751cec0000000000000000000000000000000000000000000000000000000081526001600160a01b038085166004830152602482018c9052604482018b9052606482018a90528c8116608483015260a482018990528251949550909216926302751cec9260c48082019392918290030181600087803b15801561103357600080fd5b505af1158015611047573d6000803e3d6000fd5b505050506040513d604081101561105d57600080fd5b5080516020909101519093509150611073611533565b61107d88886116e9565b6110878888611786565b50600d5460009081906001600160a01b038481169116146110a95783856110ac565b84845b60408051838152602081018390528082018d905290519294509092506001600160a01b038c16917f59c3a0b60c6ab7deb62e1440c9e72441db6db7dfe514dba8cb18e60c0d896efa9181900360600190a25050509550959350505050565b60066020526000908152604090208054600182015460029092015490919083565b6000611138338484611995565b50600192915050565b600f546001600160a01b031681565b60015490565b600a546001600160a01b031633146111a9576040805162461bcd60e51b81526020600482015260116024820152702a37b6b4902628102337b93134b23232b760791b604482015290519081900360640190fd5b600d80546001600160a01b0380891673ffffffffffffffffffffffffffffffffffffffff1992831617909255600e8054928816929091169190911790556111ef8461219b565b600c805473ffffffffffffffffffffffffffffffffffffffff199081166001600160a01b0394851617909155600b8054821694841694909417909355600f80549093169116179055505050565b60045481565b60035481565b600960209081526000928352604080842090915290825290205481565b600a54600090819081906001600160a01b031633146112bf576040805162461bcd60e51b81526020600482015260116024820152702a37b6b4902628102337b93134b23232b760791b604482015290519081900360640190fd5b600f54600d546001600160a01b03908116911614806112ee5750600f54600e546001600160a01b039081169116145b61132e576040805162461bcd60e51b815260206004820152600c60248201526b125395905312510810d0531360a21b604482015290519081900360640190fd5b600f54600d546000916001600160a01b0391821691161461135a57600d546001600160a01b0316611367565b600e546001600160a01b03165b600c549091506113829082906001600160a01b03168a611b84565b61138e8133308b611ca4565b600c54604080517ff6f1e3060000000000000000000000000000000000000000000000000000000081526001600160a01b038481166004830152602482018c9052604482018b9052606482018a9052608482018990529151919092169163f6f1e30691349160a48082019260609290919082900301818588803b15801561141457600080fd5b505af1158015611428573d6000803e3d6000fd5b50505050506040513d606081101561143f57600080fd5b508051602082015160409092015190955090935091508388111561147257611472818a610d3b8b8863ffffffff61194c16565b82341115611493576114938961148e348663ffffffff61194c16565b6121ca565b61149b611533565b6114a58983611f95565b6114af898361202c565b50600d5460009081906001600160a01b038481169116146114d15784866114d4565b85855b604080518381526020810183905280820188905290519294509092506001600160a01b038d16917fbeb3885786d637a474cbc287c0a44587231633a077f0bd30354d5a4b18996fce9181900360600190a2505050955095509592505050565b600c54600d54600e54604080516396ed28f960e01b81526001600160a01b03938416600482015291831660248301525160009392909216916396ed28f991604480820192602092909190829003018186803b15801561159157600080fd5b505afa1580156115a5573d6000803e3d6000fd5b505050506040513d60208110156115bb57600080fd5b505190506001600160a01b038116156116e657600b54604080516305ea697560e31b81526001600160a01b03848116600483015230602483015291516000939290921691632f534ba891604480820192602092909190829003018186803b15801561162557600080fd5b505afa158015611639573d6000803e3d6000fd5b505050506040513d602081101561164f57600080fd5b5051905080156116e457600b54600554604080517f4953c7820000000000000000000000000000000000000000000000000000000081526001600160a01b038681166004830152928316602482015290519190921691634953c78291604480830192600092919082900301818387803b1580156116cb57600080fd5b505af11580156116df573d6000803e3d6000fd5b505050505b505b50565b6001600160a01b038216600090815260086020526040902054611712908263ffffffff61194c16565b6001600160a01b03831660009081526008602052604090205560075461173e908263ffffffff61194c16565b6007556040805182815290516000916001600160a01b038516917fddf252ad1be2c89b69c2b068fc378daa952ba7f163c4a11628f55a4df523b3ef9181900360200190a35050565b6001600160a01b038216600090815260066020526040812082158015906117ae575080548311155b6117ff576040805162461bcd60e51b815260206004820152601960248201527f494e53554646494349454e545f50524f44554354495649545900000000000000604482015290519081900360640190fd5b6118076122c2565b61181084612344565b8054611822908463ffffffff61194c16565b80825560015461184f9164e8d4a5100091611843919063ffffffff6123eb16565b9063ffffffff61244416565b6001820155600054611867908463ffffffff61194c16565b6000555060019392505050565b600061187e6122c2565b61188782612344565b6001600160a01b0382166000908152600660205260409020600201546118f4576040805162461bcd60e51b815260206004820152600f60248201527f4e4f5448494e4720544f204d494e540000000000000000000000000000000000604482015290519081900360640190fd5b6001600160a01b03808316600090815260066020526040902060020154600554909161192291163383611e12565b6001600160a01b039290921660009081526006602052604081206002015550600380548201905590565b600061198e83836040518060400160405280601e81526020017f536166654d6174683a207375627472616374696f6e206f766572666c6f770000815250612486565b9392505050565b6001600160a01b038316600090815260086020526040902054811115611a02576040805162461bcd60e51b815260206004820181905260248201527f4552433230546f6b656e3a20494e53554646494349454e545f42414c414e4345604482015290519081900360640190fd5b6001600160a01b038316600090815260086020526040902054611a2b908263ffffffff61194c16565b6001600160a01b038085166000908152600860205260408082209390935590841681522054611a60908263ffffffff61251d16565b6001600160a01b038316600081815260086020526040902091909155611a9757600754611a93908263ffffffff61194c16565b6007555b600a54604080517f6319d8bc0000000000000000000000000000000000000000000000000000000081526001600160a01b03858116600483015291519190921691636319d8bc91602480830192600092919082900301818387803b158015611afe57600080fd5b505af1158015611b12573d6000803e3d6000fd5b50505050611b1e611533565b611b288382611786565b50611b33828261202c565b50816001600160a01b0316836001600160a01b03167fddf252ad1be2c89b69c2b068fc378daa952ba7f163c4a11628f55a4df523b3ef836040518082815260200191505060405180910390a3505050565b6000836001600160a01b03166318160ddd6040518163ffffffff1660e01b815260040160206040518083038186803b158015611bbf57600080fd5b505afa158015611bd3573d6000803e3d6000fd5b505050506040513d6020811015611be957600080fd5b5051905081811015611bf85750805b604080517fdd62ed3e0000000000000000000000000000000000000000000000000000000081523060048201526001600160a01b0385811660248301529151849287169163dd62ed3e916044808301926020929190829003018186803b158015611c6157600080fd5b505afa158015611c75573d6000803e3d6000fd5b505050506040513d6020811015611c8b57600080fd5b50511015611c9e57611c9e848483612577565b50505050565b604080516001600160a01b0385811660248301528481166044830152606480830185905283518084039091018152608490920183526020820180516001600160e01b03167f23b872dd0000000000000000000000000000000000000000000000000000000017815292518251600094606094938a169392918291908083835b60208310611d425780518252601f199092019160209182019101611d23565b6001836020036101000a0380198251168184511680821785525050505050509050019150506000604051808303816000865af19150503d8060008114611da4576040519150601f19603f3d011682016040523d82523d6000602084013e611da9565b606091505b5091509150818015611dd7575080511580611dd75750808060200190516020811015611dd457600080fd5b50515b6116df5760405162461bcd60e51b81526004018080602001828103825260248152602001806129dd6024913960400191505060405180910390fd5b604080516001600160a01b038481166024830152604480830185905283518084039091018152606490920183526020820180516001600160e01b03167fa9059cbb00000000000000000000000000000000000000000000000000000000178152925182516000946060949389169392918291908083835b60208310611ea85780518252601f199092019160209182019101611e89565b6001836020036101000a0380198251168184511680821785525050505050509050019150506000604051808303816000865af19150503d8060008114611f0a576040519150601f19603f3d011682016040523d82523d6000602084013e611f0f565b606091505b5091509150818015611f3d575080511580611f3d5750808060200190516020811015611f3a57600080fd5b50515b611f8e576040805162461bcd60e51b815260206004820152601f60248201527f5472616e7366657248656c7065723a205452414e534645525f4641494c454400604482015290519081900360640190fd5b5050505050565b600754611fa8908263ffffffff61251d16565b6007556001600160a01b038216600090815260086020526040902054611fd4908263ffffffff61251d16565b6001600160a01b03831660008181526008602090815260408083209490945583518581529351929391927fddf252ad1be2c89b69c2b068fc378daa952ba7f163c4a11628f55a4df523b3ef9281900390910190a35050565b600080821161206c5760405162461bcd60e51b815260040180806020018281038252602c8152602001806129b1602c913960400191505060405180910390fd5b6001600160a01b038316600090815260066020526040902061208c6122c2565b61209584612344565b6000546120a8908463ffffffff61251d16565b60005580546120bd908463ffffffff61251d16565b8082556001546120de9164e8d4a5100091611843919063ffffffff6123eb16565b6001918201559392505050565b6001600160a01b038116600090815260066020526040812060015482541561214b5760006121176126f3565b905061214761213a60005461184364e8d4a51000856123eb90919063ffffffff16565b839063ffffffff61251d16565b9150505b6121938260010154612187846002015461217b64e8d4a510006118438789600001546123eb90919063ffffffff16565b9063ffffffff61251d16565b9063ffffffff61194c16565b949350505050565b6005805473ffffffffffffffffffffffffffffffffffffffff19166001600160a01b0392909216919091179055565b604080516000808252602082019092526001600160a01b0384169083906040518082805190602001908083835b602083106122165780518252601f1990920191602091820191016121f7565b6001836020036101000a03801982511681845116808217855250505050505090500191505060006040518083038185875af1925050503d8060008114612278576040519150601f19603f3d011682016040523d82523d6000602084013e61227d565b606091505b50509050806122bd5760405162461bcd60e51b815260040180806020018281038252602381526020018061298e6023913960400191505060405180910390fd5b505050565b6000546122eb576122e36122d46126f3565b6002549063ffffffff61251d16565b600255612342565b60006122f56126f3565b905061232761231860005461184364e8d4a51000856123eb90919063ffffffff16565b6001549063ffffffff61251d16565b60015560025461233d908263ffffffff61251d16565b600255505b565b6001600160a01b03811660009081526006602052604090208054156116e457600061238f826001015461218764e8d4a5100061184360015487600001546123eb90919063ffffffff16565b60028301549091506123a7908263ffffffff61251d16565b60028301556004546123bf908263ffffffff61251d16565b60045560015482546123e19164e8d4a51000916118439163ffffffff6123eb16565b6001830155505050565b6000826123fa575060006108a6565b8282028284828161240757fe5b041461198e5760405162461bcd60e51b815260040180806020018281038252602181526020018061296d6021913960400191505060405180910390fd5b600061198e83836040518060400160405280601a81526020017f536166654d6174683a206469766973696f6e206279207a65726f0000000000008152506128e5565b600081848411156125155760405162461bcd60e51b81526004018080602001828103825283818151815260200191508051906020019080838360005b838110156124da5781810151838201526020016124c2565b50505050905090810190601f1680156125075780820380516001836020036101000a031916815260200191505b509250505060405180910390fd5b505050900390565b60008282018381101561198e576040805162461bcd60e51b815260206004820152601b60248201527f536166654d6174683a206164646974696f6e206f766572666c6f770000000000604482015290519081900360640190fd5b604080516001600160a01b038481166024830152604480830185905283518084039091018152606490920183526020820180516001600160e01b03167f095ea7b300000000000000000000000000000000000000000000000000000000178152925182516000946060949389169392918291908083835b6020831061260d5780518252601f1990920191602091820191016125ee565b6001836020036101000a0380198251168184511680821785525050505050509050019150506000604051808303816000865af19150503d806000811461266f576040519150601f19603f3d011682016040523d82523d6000602084013e612674565b606091505b50915091508180156126a25750805115806126a2575080806020019051602081101561269f57600080fd5b50515b611f8e576040805162461bcd60e51b815260206004820152601e60248201527f5472616e7366657248656c7065723a20415050524f56455f4641494c45440000604482015290519081900360640190fd5b600c54600d54600e54604080516396ed28f960e01b81526001600160a01b039384166004820152918316602483015251600093849316916396ed28f9916044808301926020929190829003018186803b15801561274f57600080fd5b505afa158015612763573d6000803e3d6000fd5b505050506040513d602081101561277957600080fd5b5051600254600554604080517f70a08231000000000000000000000000000000000000000000000000000000008152306004820152905193945060009361282c9392612187926001600160a01b03909116916370a0823191602480820192602092909190829003018186803b1580156127f157600080fd5b505afa158015612805573d6000803e3d6000fd5b505050506040513d602081101561281b57600080fd5b50516003549063ffffffff61251d16565b90506001600160a01b038216156128dc57600b54604080516305ea697560e31b81526001600160a01b03858116600483015230602483015291516000939290921691632f534ba891604480820192602092909190829003018186803b15801561289457600080fd5b505afa1580156128a8573d6000803e3d6000fd5b505050506040513d60208110156128be57600080fd5b505190506128d2828263ffffffff61251d16565b9350505050610e0a565b9150610e0a9050565b600081836129345760405162461bcd60e51b81526020600482018181528351602484015283519092839260449091019190850190808383600083156124da5781810151838201526020016124c2565b50600083858161294057fe5b049594505050505056fe4552433230546f6b656e3a20494e53554646494349454e545f414c4c4f57414e4345536166654d6174683a206d756c7469706c69636174696f6e206f766572666c6f775472616e7366657248656c7065723a204554485f5452414e534645525f4641494c454450524f4455435449564954595f56414c55455f4d5553545f42455f475245415445525f5448414e5f5a45524f5472616e7366657248656c7065723a205452414e534645525f46524f4d5f4641494c4544a264697066735822122099577898cf516758b63a04419e7d7459f224547a409aa34a58fd706b1ca72caf64736f6c634300060600335472616e7366657248656c7065723a205452414e534645525f46524f4d5f4641494c4544a26469706673582212204395632fa489eace8ba5ad1d69c94f2fea659d9af783caaeb4f952ddf4655c2f64736f6c63430006060033",
  "devdoc": {
    "methods": {}
  },
  "userdoc": {
    "methods": {}
  },
  "storageLayout": {
    "storage": [
      {
        "astId": 20735,
        "contract": "contracts/TomiDelegate.sol:TomiDelegate",
        "label": "owner",
        "offset": 0,
        "slot": "0",
        "type": "t_address"
      },
      {
        "astId": 3080,
        "contract": "contracts/TomiDelegate.sol:TomiDelegate",
        "label": "PLATFORM",
        "offset": 0,
        "slot": "1",
        "type": "t_address"
      },
      {
        "astId": 3082,
        "contract": "contracts/TomiDelegate.sol:TomiDelegate",
        "label": "POOL",
        "offset": 0,
        "slot": "2",
        "type": "t_address"
      },
      {
        "astId": 3084,
        "contract": "contracts/TomiDelegate.sol:TomiDelegate",
        "label": "TOMI",
        "offset": 0,
        "slot": "3",
        "type": "t_address"
      },
      {
        "astId": 3086,
        "contract": "contracts/TomiDelegate.sol:TomiDelegate",
        "label": "WETH",
        "offset": 0,
        "slot": "4",
        "type": "t_address"
      },
      {
        "astId": 3092,
        "contract": "contracts/TomiDelegate.sol:TomiDelegate",
        "label": "getPair",
        "offset": 0,
        "slot": "5",
        "type": "t_mapping(t_address,t_mapping(t_address,t_address))"
      },
      {
        "astId": 3095,
        "contract": "contracts/TomiDelegate.sol:TomiDelegate",
        "label": "allPairs",
        "offset": 0,
        "slot": "6",
        "type": "t_array(t_address)dyn_storage"
      },
      {
        "astId": 3099,
        "contract": "contracts/TomiDelegate.sol:TomiDelegate",
        "label": "isPair",
        "offset": 0,
        "slot": "7",
        "type": "t_mapping(t_address,t_bool)"
      },
      {
        "astId": 3104,
        "contract": "contracts/TomiDelegate.sol:TomiDelegate",
        "label": "playerPairs",
        "offset": 0,
        "slot": "8",
        "type": "t_mapping(t_address,t_array(t_address)dyn_storage)"
      },
      {
        "astId": 3110,
        "contract": "contracts/TomiDelegate.sol:TomiDelegate",
        "label": "isAddPlayerPair",
        "offset": 0,
        "slot": "9",
        "type": "t_mapping(t_address,t_mapping(t_address,t_bool))"
      },
      {
        "astId": 3112,
        "contract": "contracts/TomiDelegate.sol:TomiDelegate",
        "label": "contractCodeHash",
        "offset": 0,
        "slot": "10",
        "type": "t_bytes32"
      }
    ],
    "types": {
      "t_address": {
        "encoding": "inplace",
        "label": "address",
        "numberOfBytes": "20"
      },
      "t_array(t_address)dyn_storage": {
        "base": "t_address",
        "encoding": "dynamic_array",
        "label": "address[]",
        "numberOfBytes": "32"
      },
      "t_bool": {
        "encoding": "inplace",
        "label": "bool",
        "numberOfBytes": "1"
      },
      "t_bytes32": {
        "encoding": "inplace",
        "label": "bytes32",
        "numberOfBytes": "32"
      },
      "t_mapping(t_address,t_address)": {
        "encoding": "mapping",
        "key": "t_address",
        "label": "mapping(address => address)",
        "numberOfBytes": "32",
        "value": "t_address"
      },
      "t_mapping(t_address,t_array(t_address)dyn_storage)": {
        "encoding": "mapping",
        "key": "t_address",
        "label": "mapping(address => address[])",
        "numberOfBytes": "32",
        "value": "t_array(t_address)dyn_storage"
      },
      "t_mapping(t_address,t_bool)": {
        "encoding": "mapping",
        "key": "t_address",
        "label": "mapping(address => bool)",
        "numberOfBytes": "32",
        "value": "t_bool"
      },
      "t_mapping(t_address,t_mapping(t_address,t_address))": {
        "encoding": "mapping",
        "key": "t_address",
        "label": "mapping(address => mapping(address => address))",
        "numberOfBytes": "32",
        "value": "t_mapping(t_address,t_address)"
      },
      "t_mapping(t_address,t_mapping(t_address,t_bool))": {
        "encoding": "mapping",
        "key": "t_address",
        "label": "mapping(address => mapping(address => bool))",
        "numberOfBytes": "32",
        "value": "t_mapping(t_address,t_bool)"
      }
    }
  }
}